{
  "contractName": "SealedBidAuctionManager",
  "abi": [
    {
      "anonymous": false,
      "inputs": [
        {
          "indexed": false,
          "internalType": "uint256",
          "name": "auctionId",
          "type": "uint256"
        },
        {
          "indexed": false,
          "internalType": "bool",
          "name": "success",
          "type": "bool"
        }
      ],
      "name": "AuctionEnds",
      "type": "event"
    },
    {
      "anonymous": false,
      "inputs": [
        {
          "indexed": false,
          "internalType": "uint256",
          "name": "",
          "type": "uint256"
        },
        {
          "indexed": false,
          "internalType": "address",
          "name": "who",
          "type": "address"
        }
      ],
      "name": "BidderRemoved",
      "type": "event"
    },
    {
      "anonymous": false,
      "inputs": [
        {
          "indexed": false,
          "internalType": "uint256",
          "name": "auctionId",
          "type": "uint256"
        }
      ],
      "name": "NewAuction",
      "type": "event"
    },
    {
      "anonymous": false,
      "inputs": [
        {
          "indexed": false,
          "internalType": "uint256",
          "name": "auctionId",
          "type": "uint256"
        },
        {
          "indexed": false,
          "internalType": "address",
          "name": "by",
          "type": "address"
        }
      ],
      "name": "NewBid",
      "type": "event"
    },
    {
      "anonymous": false,
      "inputs": [
        {
          "indexed": false,
          "internalType": "uint256",
          "name": "auctionId",
          "type": "uint256"
        },
        {
          "indexed": false,
          "internalType": "address",
          "name": "by",
          "type": "address"
        }
      ],
      "name": "NewReveal",
      "type": "event"
    },
    {
      "anonymous": false,
      "inputs": [
        {
          "indexed": false,
          "internalType": "uint256",
          "name": "auctionId",
          "type": "uint256"
        },
        {
          "indexed": false,
          "internalType": "address",
          "name": "by",
          "type": "address"
        }
      ],
      "name": "ObjectionPlaced",
      "type": "event"
    },
    {
      "anonymous": false,
      "inputs": [
        {
          "indexed": false,
          "internalType": "uint256",
          "name": "auctionId",
          "type": "uint256"
        },
        {
          "indexed": false,
          "internalType": "address",
          "name": "who",
          "type": "address"
        }
      ],
      "name": "WinnerDecided",
      "type": "event"
    },
    {
      "inputs": [
        {
          "internalType": "uint256",
          "name": "auctionId",
          "type": "uint256"
        },
        {
          "internalType": "address",
          "name": "acc",
          "type": "address"
        }
      ],
      "name": "didNotPlaceABid",
      "outputs": [
        {
          "internalType": "bool",
          "name": "",
          "type": "bool"
        }
      ],
      "stateMutability": "view",
      "type": "function",
      "constant": true
    },
    {
      "inputs": [
        {
          "internalType": "uint256",
          "name": "auctionId",
          "type": "uint256"
        },
        {
          "internalType": "address",
          "name": "acc",
          "type": "address"
        }
      ],
      "name": "placedABid",
      "outputs": [
        {
          "internalType": "bool",
          "name": "",
          "type": "bool"
        }
      ],
      "stateMutability": "view",
      "type": "function",
      "constant": true
    },
    {
      "inputs": [],
      "name": "getNumberOfRegisteredAuctions",
      "outputs": [
        {
          "internalType": "uint256",
          "name": "",
          "type": "uint256"
        }
      ],
      "stateMutability": "view",
      "type": "function",
      "constant": true
    },
    {
      "inputs": [
        {
          "components": [
            {
              "internalType": "address payable",
              "name": "owner",
              "type": "address"
            },
            {
              "internalType": "bytes",
              "name": "params",
              "type": "bytes"
            },
            {
              "internalType": "bytes",
              "name": "owner_pkey",
              "type": "bytes"
            },
            {
              "internalType": "string",
              "name": "itemName",
              "type": "string"
            },
            {
              "internalType": "string",
              "name": "itemDesc",
              "type": "string"
            },
            {
              "internalType": "string",
              "name": "itemPicture",
              "type": "string"
            },
            {
              "internalType": "uint256",
              "name": "minimumPrice",
              "type": "uint256"
            },
            {
              "internalType": "uint256",
              "name": "securityDeposit",
              "type": "uint256"
            },
            {
              "internalType": "uint256",
              "name": "biddingEndDate",
              "type": "uint256"
            },
            {
              "internalType": "uint256",
              "name": "revealingEndDate",
              "type": "uint256"
            },
            {
              "internalType": "uint256",
              "name": "sortingEndDate",
              "type": "uint256"
            }
          ],
          "internalType": "struct SealedBidAuctionManager.UserSetAuctionInfo",
          "name": "info",
          "type": "tuple"
        }
      ],
      "name": "createAuction",
      "outputs": [
        {
          "internalType": "uint256",
          "name": "",
          "type": "uint256"
        }
      ],
      "stateMutability": "payable",
      "type": "function",
      "payable": true
    },
    {
      "inputs": [
        {
          "internalType": "enum SealedBidAuctionManager.AuctionState",
          "name": "state",
          "type": "uint8"
        }
      ],
      "name": "getAuctionsByState",
      "outputs": [
        {
          "components": [
            {
              "internalType": "uint256",
              "name": "id",
              "type": "uint256"
            },
            {
              "components": [
                {
                  "internalType": "address payable",
                  "name": "owner",
                  "type": "address"
                },
                {
                  "internalType": "bytes",
                  "name": "params",
                  "type": "bytes"
                },
                {
                  "internalType": "bytes",
                  "name": "owner_pkey",
                  "type": "bytes"
                },
                {
                  "internalType": "string",
                  "name": "itemName",
                  "type": "string"
                },
                {
                  "internalType": "string",
                  "name": "itemDesc",
                  "type": "string"
                },
                {
                  "internalType": "string",
                  "name": "itemPicture",
                  "type": "string"
                },
                {
                  "internalType": "uint256",
                  "name": "minimumPrice",
                  "type": "uint256"
                },
                {
                  "internalType": "uint256",
                  "name": "securityDeposit",
                  "type": "uint256"
                },
                {
                  "internalType": "uint256",
                  "name": "biddingEndDate",
                  "type": "uint256"
                },
                {
                  "internalType": "uint256",
                  "name": "revealingEndDate",
                  "type": "uint256"
                },
                {
                  "internalType": "uint256",
                  "name": "sortingEndDate",
                  "type": "uint256"
                }
              ],
              "internalType": "struct SealedBidAuctionManager.UserSetAuctionInfo",
              "name": "info",
              "type": "tuple"
            }
          ],
          "internalType": "struct SealedBidAuctionManager.AuctionInfoAndId[]",
          "name": "",
          "type": "tuple[]"
        }
      ],
      "stateMutability": "view",
      "type": "function",
      "constant": true
    },
    {
      "inputs": [
        {
          "internalType": "uint256",
          "name": "auctionId",
          "type": "uint256"
        }
      ],
      "name": "getAuctionInfo",
      "outputs": [
        {
          "components": [
            {
              "internalType": "address payable",
              "name": "owner",
              "type": "address"
            },
            {
              "internalType": "bytes",
              "name": "params",
              "type": "bytes"
            },
            {
              "internalType": "bytes",
              "name": "owner_pkey",
              "type": "bytes"
            },
            {
              "internalType": "string",
              "name": "itemName",
              "type": "string"
            },
            {
              "internalType": "string",
              "name": "itemDesc",
              "type": "string"
            },
            {
              "internalType": "string",
              "name": "itemPicture",
              "type": "string"
            },
            {
              "internalType": "uint256",
              "name": "minimumPrice",
              "type": "uint256"
            },
            {
              "internalType": "uint256",
              "name": "securityDeposit",
              "type": "uint256"
            },
            {
              "internalType": "uint256",
              "name": "biddingEndDate",
              "type": "uint256"
            },
            {
              "internalType": "uint256",
              "name": "revealingEndDate",
              "type": "uint256"
            },
            {
              "internalType": "uint256",
              "name": "sortingEndDate",
              "type": "uint256"
            }
          ],
          "internalType": "struct SealedBidAuctionManager.UserSetAuctionInfo",
          "name": "",
          "type": "tuple"
        }
      ],
      "stateMutability": "view",
      "type": "function",
      "constant": true
    },
    {
      "inputs": [
        {
          "internalType": "uint256",
          "name": "auctionId",
          "type": "uint256"
        },
        {
          "internalType": "bytes",
          "name": "c",
          "type": "bytes"
        },
        {
          "internalType": "bytes",
          "name": "d",
          "type": "bytes"
        }
      ],
      "name": "placeBid",
      "outputs": [],
      "stateMutability": "payable",
      "type": "function",
      "payable": true
    },
    {
      "inputs": [
        {
          "internalType": "uint256",
          "name": "auctionId",
          "type": "uint256"
        },
        {
          "internalType": "bytes",
          "name": "z",
          "type": "bytes"
        }
      ],
      "name": "revealBid",
      "outputs": [],
      "stateMutability": "nonpayable",
      "type": "function"
    },
    {
      "inputs": [
        {
          "internalType": "uint256",
          "name": "auctionId",
          "type": "uint256"
        }
      ],
      "name": "getReveals",
      "outputs": [
        {
          "internalType": "bytes[]",
          "name": "",
          "type": "bytes[]"
        }
      ],
      "stateMutability": "nonpayable",
      "type": "function"
    },
    {
      "inputs": [
        {
          "internalType": "uint256",
          "name": "auctionId",
          "type": "uint256"
        },
        {
          "components": [
            {
              "internalType": "bytes",
              "name": "y",
              "type": "bytes"
            },
            {
              "internalType": "address",
              "name": "bidder",
              "type": "address"
            }
          ],
          "internalType": "struct SealedBidAuctionManager.AuctionWinner",
          "name": "winner",
          "type": "tuple"
        }
      ],
      "name": "declareWinner",
      "outputs": [],
      "stateMutability": "nonpayable",
      "type": "function"
    },
    {
      "inputs": [
        {
          "internalType": "uint256",
          "name": "auctionId",
          "type": "uint256"
        }
      ],
      "name": "getWinner",
      "outputs": [
        {
          "components": [
            {
              "internalType": "bytes",
              "name": "y",
              "type": "bytes"
            },
            {
              "internalType": "address",
              "name": "bidder",
              "type": "address"
            }
          ],
          "internalType": "struct SealedBidAuctionManager.AuctionWinner",
          "name": "",
          "type": "tuple"
        }
      ],
      "stateMutability": "view",
      "type": "function",
      "constant": true
    },
    {
      "inputs": [
        {
          "internalType": "uint256",
          "name": "auctionId",
          "type": "uint256"
        }
      ],
      "name": "returnDeposit",
      "outputs": [],
      "stateMutability": "nonpayable",
      "type": "function"
    },
    {
      "inputs": [
        {
          "internalType": "uint256",
          "name": "auctionId",
          "type": "uint256"
        },
        {
          "internalType": "bytes",
          "name": "y",
          "type": "bytes"
        }
      ],
      "name": "objectToTheWinner",
      "outputs": [],
      "stateMutability": "nonpayable",
      "type": "function"
    },
    {
      "inputs": [
        {
          "internalType": "uint256",
          "name": "auctionId",
          "type": "uint256"
        }
      ],
      "name": "getObjections",
      "outputs": [
        {
          "components": [
            {
              "internalType": "bytes",
              "name": "y",
              "type": "bytes"
            },
            {
              "internalType": "address",
              "name": "bidder",
              "type": "address"
            }
          ],
          "internalType": "struct SealedBidAuctionManager.AuctionWinner[]",
          "name": "",
          "type": "tuple[]"
        }
      ],
      "stateMutability": "nonpayable",
      "type": "function"
    }
  ],
  "bytecode": "0x608060405234801561001057600080fd5b5061588980620000216000396000f3fe6080604052600436106100dd5760003560e01c80639511f4c51161007f578063b8e8fcc511610059578063b8e8fcc5146102d5578063cea32418146102fe578063e25c08b41461032e578063fc3fc4ed1461036b576100dd565b80639511f4c51461021e5780639690d6211461025b57806397d9ee5214610298576100dd565b806345e481a3116100bb57806345e481a31461017157806347bf5e2c1461019c578063684e38ee146101b85780638b10b875146101f5576100dd565b806310e9f549146100e257806318b683fb1461010b5780634129b2c914610134575b600080fd5b3480156100ee57600080fd5b5061010960048036038101906101049190613cc4565b6103a8565b005b34801561011757600080fd5b50610132600480360381019061012d9190613d24565b6108be565b005b34801561014057600080fd5b5061015b60048036038101906101569190613d24565b610e19565b6040516101689190613e68565b60405180910390f35b34801561017d57600080fd5b50610186610f89565b6040516101939190613e99565b60405180910390f35b6101b660048036038101906101b19190613eb4565b610f95565b005b3480156101c457600080fd5b506101df60048036038101906101da9190613f6e565b611618565b6040516101ec919061422a565b60405180910390f35b34801561020157600080fd5b5061021c60048036038101906102179190614270565b611b9d565b005b34801561022a57600080fd5b50610245600480360381019061024091906142f8565b612128565b6040516102529190614353565b60405180910390f35b34801561026757600080fd5b50610282600480360381019061027d9190613d24565b61219e565b60405161028f919061446d565b60405180910390f35b3480156102a457600080fd5b506102bf60048036038101906102ba9190613d24565b6125c9565b6040516102cc9190614551565b60405180910390f35b3480156102e157600080fd5b506102fc60048036038101906102f79190613cc4565b612cce565b005b61031860048036038101906103139190614593565b61320d565b6040516103259190613e99565b60405180910390f35b34801561033a57600080fd5b50610355600480360381019061035091906142f8565b61341f565b6040516103629190614353565b60405180910390f35b34801561037757600080fd5b50610392600480360381019061038d9190613d24565b613494565b60405161039f91906146e7565b60405180910390f35b8260008054905081106103f0576040517f08c379a00000000000000000000000000000000000000000000000000000000081526004016103e790614766565b60405180910390fd5b836000801b6000828154811061040957610408614786565b5b9060005260206000209060120201600c0160003373ffffffffffffffffffffffffffffffffffffffff1673ffffffffffffffffffffffffffffffffffffffff168152602001908152602001600020600101540361049b576040517f08c379a000000000000000000000000000000000000000000000000000000000815260040161049290614801565b60405180910390fd5b846001600082815481106104b2576104b1614786565b5b9060005260206000209060120201600101600801544210156105205760008083815481106104e3576104e2614786565b5b9060005260206000209060120201600e0160006101000a81548160ff0219169083600381111561051657610515614821565b5b0217905550610677565b6000828154811061053457610533614786565b5b9060005260206000209060120201600101600901544210156105a35760016000838154811061056657610565614786565b5b9060005260206000209060120201600e0160006101000a81548160ff0219169083600381111561059957610598614821565b5b0217905550610676565b600082815481106105b7576105b6614786565b5b9060005260206000209060120201600101600a0154421015610626576002600083815481106105e9576105e8614786565b5b9060005260206000209060120201600e0160006101000a81548160ff0219169083600381111561061c5761061b614821565b5b0217905550610675565b60036000838154811061063c5761063b614786565b5b9060005260206000209060120201600e0160006101000a81548160ff0219169083600381111561066f5761066e614821565b5b02179055505b5b5b6000828154811061068b5761068a614786565b5b9060005260206000209060120201600e0160009054906101000a900460ff1660038111156106bc576106bb614821565b5b8160038111156106cf576106ce614821565b5b1461070f576040517f08c379a00000000000000000000000000000000000000000000000000000000081526004016107069061489c565b60405180910390fd5b6000878154811061072357610722614786565b5b9060005260206000209060120201600c0160003373ffffffffffffffffffffffffffffffffffffffff1673ffffffffffffffffffffffffffffffffffffffff16815260200190815260200160002060020154600287876040516107879291906148fb565b602060405180830381855afa1580156107a4573d6000803e3d6000fd5b5050506040513d601f19601f820116820180604052508101906107c7919061494a565b14610807576040517f08c379a00000000000000000000000000000000000000000000000000000000081526004016107fe906149c3565b60405180910390fd5b85856000898154811061081d5761081c614786565b5b9060005260206000209060120201600c0160003373ffffffffffffffffffffffffffffffffffffffff1673ffffffffffffffffffffffffffffffffffffffff168152602001908152602001600020600301919061087b929190613a36565b507fda9ad1af3b211e24edbe9ac3a27ce5cde27c6f44ae790099959efa1472c6be3e87336040516108ad9291906149f2565b60405180910390a150505050505050565b806000805490508110610906576040517f08c379a00000000000000000000000000000000000000000000000000000000081526004016108fd90614766565b60405180910390fd5b816000801b6000828154811061091f5761091e614786565b5b9060005260206000209060120201600c0160003373ffffffffffffffffffffffffffffffffffffffff1673ffffffffffffffffffffffffffffffffffffffff16815260200190815260200160002060010154036109b1576040517f08c379a00000000000000000000000000000000000000000000000000000000081526004016109a890614801565b60405180910390fd5b826003600082815481106109c8576109c7614786565b5b906000526020600020906012020160010160080154421015610a365760008083815481106109f9576109f8614786565b5b9060005260206000209060120201600e0160006101000a81548160ff02191690836003811115610a2c57610a2b614821565b5b0217905550610b8d565b60008281548110610a4a57610a49614786565b5b906000526020600020906012020160010160090154421015610ab957600160008381548110610a7c57610a7b614786565b5b9060005260206000209060120201600e0160006101000a81548160ff02191690836003811115610aaf57610aae614821565b5b0217905550610b8c565b60008281548110610acd57610acc614786565b5b9060005260206000209060120201600101600a0154421015610b3c57600260008381548110610aff57610afe614786565b5b9060005260206000209060120201600e0160006101000a81548160ff02191690836003811115610b3257610b31614821565b5b0217905550610b8b565b600360008381548110610b5257610b51614786565b5b9060005260206000209060120201600e0160006101000a81548160ff02191690836003811115610b8557610b84614821565b5b02179055505b5b5b60008281548110610ba157610ba0614786565b5b9060005260206000209060120201600e0160009054906101000a900460ff166003811115610bd257610bd1614821565b5b816003811115610be557610be4614821565b5b14610c25576040517f08c379a0000000000000000000000000000000000000000000000000000000008152600401610c1c9061489c565b60405180910390fd5b6000151560008681548110610c3d57610c3c614786565b5b9060005260206000209060120201600c0160003373ffffffffffffffffffffffffffffffffffffffff1673ffffffffffffffffffffffffffffffffffffffff16815260200190815260200160002060000160009054906101000a900460ff161515148015610d1f575060008581548110610cba57610cb9614786565b5b9060005260206000209060120201600f0160010160009054906101000a900473ffffffffffffffffffffffffffffffffffffffff1673ffffffffffffffffffffffffffffffffffffffff163373ffffffffffffffffffffffffffffffffffffffff1614155b15610da357600160008681548110610d3a57610d39614786565b5b9060005260206000209060120201600c0160003373ffffffffffffffffffffffffffffffffffffffff1673ffffffffffffffffffffffffffffffffffffffff16815260200190815260200160002060000160006101000a81548160ff0219169083151502179055505b3373ffffffffffffffffffffffffffffffffffffffff166108fc60008781548110610dd157610dd0614786565b5b9060005260206000209060120201600101600701549081150290604051600060405180830381858888f19350505050158015610e11573d6000803e3d6000fd5b505050505050565b610e21613abc565b816000805490508110610e69576040517f08c379a0000000000000000000000000000000000000000000000000000000008152600401610e6090614766565b60405180910390fd5b60008381548110610e7d57610e7c614786565b5b9060005260206000209060120201600f01604051806040016040529081600082018054610ea990614a4a565b80601f0160208091040260200160405190810160405280929190818152602001828054610ed590614a4a565b8015610f225780601f10610ef757610100808354040283529160200191610f22565b820191906000526020600020905b815481529060010190602001808311610f0557829003601f168201915b505050505081526020016001820160009054906101000a900473ffffffffffffffffffffffffffffffffffffffff1673ffffffffffffffffffffffffffffffffffffffff1673ffffffffffffffffffffffffffffffffffffffff1681525050915050919050565b60008080549050905090565b846000805490508110610fdd576040517f08c379a0000000000000000000000000000000000000000000000000000000008152600401610fd490614766565b60405180910390fd5b8560008181548110610ff257610ff1614786565b5b906000526020600020906012020160010160000160009054906101000a900473ffffffffffffffffffffffffffffffffffffffff1673ffffffffffffffffffffffffffffffffffffffff163373ffffffffffffffffffffffffffffffffffffffff1603611094576040517f08c379a000000000000000000000000000000000000000000000000000000000815260040161108b90614ac7565b60405180910390fd5b866000801b600082815481106110ad576110ac614786565b5b9060005260206000209060120201600c0160003373ffffffffffffffffffffffffffffffffffffffff1673ffffffffffffffffffffffffffffffffffffffff168152602001908152602001600020600101541461113f576040517f08c379a000000000000000000000000000000000000000000000000000000000815260040161113690614b33565b60405180910390fd5b87600080828154811061115557611154614786565b5b9060005260206000209060120201600101600801544210156111c357600080838154811061118657611185614786565b5b9060005260206000209060120201600e0160006101000a81548160ff021916908360038111156111b9576111b8614821565b5b021790555061131a565b600082815481106111d7576111d6614786565b5b9060005260206000209060120201600101600901544210156112465760016000838154811061120957611208614786565b5b9060005260206000209060120201600e0160006101000a81548160ff0219169083600381111561123c5761123b614821565b5b0217905550611319565b6000828154811061125a57611259614786565b5b9060005260206000209060120201600101600a01544210156112c95760026000838154811061128c5761128b614786565b5b9060005260206000209060120201600e0160006101000a81548160ff021916908360038111156112bf576112be614821565b5b0217905550611318565b6003600083815481106112df576112de614786565b5b9060005260206000209060120201600e0160006101000a81548160ff0219169083600381111561131257611311614821565b5b02179055505b5b5b6000828154811061132e5761132d614786565b5b9060005260206000209060120201600e0160009054906101000a900460ff16600381111561135f5761135e614821565b5b81600381111561137257611371614821565b5b146113b2576040517f08c379a00000000000000000000000000000000000000000000000000000000081526004016113a99061489c565b60405180910390fd5b60008a815481106113c6576113c5614786565b5b90600052602060002090601202016001016007015480341461141d576040517f08c379a000000000000000000000000000000000000000000000000000000000815260040161141490614b9f565b60405180910390fd5b60405180608001604052806000151581526020018b8b9061143e9190614bd7565b81526020018989906114509190614bd7565b81526020016040518060200160405280600081525081525060008c8154811061147c5761147b614786565b5b9060005260206000209060120201600c0160003373ffffffffffffffffffffffffffffffffffffffff1673ffffffffffffffffffffffffffffffffffffffff16815260200190815260200160002060008201518160000160006101000a81548160ff0219169083151502179055506020820151816001015560408201518160020155606082015181600301908051906020019061151a929190613aec565b509050503360008c8154811061153357611532614786565b5b9060005260206000209060120201600d01600160008e8154811061155a57611559614786565b5b9060005260206000209060120201600d01805490506115799190614c65565b8154811061158a57611589614786565b5b9060005260206000200160006101000a81548173ffffffffffffffffffffffffffffffffffffffff021916908373ffffffffffffffffffffffffffffffffffffffff1602179055507f45401769c1d58f70bd6b63e1a66bfc17d712ce0dc4ffb8d2dd0ad7177d56a3868b336040516116039291906149f2565b60405180910390a15050505050505050505050565b60606000805b6000805490508110156116aa5783600381111561163e5761163d614821565b5b6000828154811061165257611651614786565b5b9060005260206000209060120201600e0160009054906101000a900460ff16600381111561168357611682614821565b5b0361169757818061169390614c99565b9250505b80806116a290614c99565b91505061161e565b5060008167ffffffffffffffff8111156116c7576116c6614ce1565b5b60405190808252806020026020018201604052801561170057816020015b6116ed613b72565b8152602001906001900390816116e55790505b5090506000805b600080549050811015611b915785600381111561172757611726614821565b5b6000828154811061173b5761173a614786565b5b9060005260206000209060120201600e0160009054906101000a900460ff16600381111561176c5761176b614821565b5b03611b7e576000818154811061178557611784614786565b5b9060005260206000209060120201600101604051806101600160405290816000820160009054906101000a900473ffffffffffffffffffffffffffffffffffffffff1673ffffffffffffffffffffffffffffffffffffffff1673ffffffffffffffffffffffffffffffffffffffff16815260200160018201805461180890614a4a565b80601f016020809104026020016040519081016040528092919081815260200182805461183490614a4a565b80156118815780601f1061185657610100808354040283529160200191611881565b820191906000526020600020905b81548152906001019060200180831161186457829003601f168201915b5050505050815260200160028201805461189a90614a4a565b80601f01602080910402602001604051908101604052809291908181526020018280546118c690614a4a565b80156119135780601f106118e857610100808354040283529160200191611913565b820191906000526020600020905b8154815290600101906020018083116118f657829003601f168201915b5050505050815260200160038201805461192c90614a4a565b80601f016020809104026020016040519081016040528092919081815260200182805461195890614a4a565b80156119a55780601f1061197a576101008083540402835291602001916119a5565b820191906000526020600020905b81548152906001019060200180831161198857829003601f168201915b505050505081526020016004820180546119be90614a4a565b80601f01602080910402602001604051908101604052809291908181526020018280546119ea90614a4a565b8015611a375780601f10611a0c57610100808354040283529160200191611a37565b820191906000526020600020905b815481529060010190602001808311611a1a57829003601f168201915b50505050508152602001600582018054611a5090614a4a565b80601f0160208091040260200160405190810160405280929190818152602001828054611a7c90614a4a565b8015611ac95780601f10611a9e57610100808354040283529160200191611ac9565b820191906000526020600020905b815481529060010190602001808311611aac57829003601f168201915b5050505050815260200160068201548152602001600782015481526020016008820154815260200160098201548152602001600a82015481525050838381518110611b1757611b16614786565b5b60200260200101516020018190525060008181548110611b3a57611b39614786565b5b906000526020600020906012020160000154838381518110611b5f57611b5e614786565b5b602002602001015160000181815250508180611b7a90614c99565b9250505b8080611b8990614c99565b915050611707565b50819350505050919050565b816000805490508110611be5576040517f08c379a0000000000000000000000000000000000000000000000000000000008152600401611bdc90614766565b60405180910390fd5b8260008181548110611bfa57611bf9614786565b5b906000526020600020906012020160010160000160009054906101000a900473ffffffffffffffffffffffffffffffffffffffff1673ffffffffffffffffffffffffffffffffffffffff163373ffffffffffffffffffffffffffffffffffffffff1614611c9c576040517f08c379a0000000000000000000000000000000000000000000000000000000008152600401611c9390614d5c565b60405180910390fd5b83600260008281548110611cb357611cb2614786565b5b906000526020600020906012020160010160080154421015611d21576000808381548110611ce457611ce3614786565b5b9060005260206000209060120201600e0160006101000a81548160ff02191690836003811115611d1757611d16614821565b5b0217905550611e78565b60008281548110611d3557611d34614786565b5b906000526020600020906012020160010160090154421015611da457600160008381548110611d6757611d66614786565b5b9060005260206000209060120201600e0160006101000a81548160ff02191690836003811115611d9a57611d99614821565b5b0217905550611e77565b60008281548110611db857611db7614786565b5b9060005260206000209060120201600101600a0154421015611e2757600260008381548110611dea57611de9614786565b5b9060005260206000209060120201600e0160006101000a81548160ff02191690836003811115611e1d57611e1c614821565b5b0217905550611e76565b600360008381548110611e3d57611e3c614786565b5b9060005260206000209060120201600e0160006101000a81548160ff02191690836003811115611e7057611e6f614821565b5b02179055505b5b5b60008281548110611e8c57611e8b614786565b5b9060005260206000209060120201600e0160009054906101000a900460ff166003811115611ebd57611ebc614821565b5b816003811115611ed057611ecf614821565b5b14611f10576040517f08c379a0000000000000000000000000000000000000000000000000000000008152600401611f079061489c565b60405180910390fd5b856000808281548110611f2657611f25614786565b5b9060005260206000209060120201600f016000018054611f4590614a4a565b905014611f87576040517f08c379a0000000000000000000000000000000000000000000000000000000008152600401611f7e90614dc8565b60405180910390fd5b60008781548110611f9b57611f9a614786565b5b9060005260206000209060120201600c016000876020016020810190611fc19190614de8565b73ffffffffffffffffffffffffffffffffffffffff1673ffffffffffffffffffffffffffffffffffffffff1681526020019081526020016000206001015460028780600001906120119190614e24565b60405161201f9291906148fb565b602060405180830381855afa15801561203c573d6000803e3d6000fd5b5050506040513d601f19601f8201168201806040525081019061205f919061494a565b1461209f576040517f08c379a0000000000000000000000000000000000000000000000000000000008152600401612096906149c3565b60405180910390fd5b85600088815481106120b4576120b3614786565b5b9060005260206000209060120201600f0181816120d19190615218565b9050507fa40d3f1f8d57e9254ad685693391db32c603b6ba0c2296366db2706bc0bd4f2c878760200160208101906121099190614de8565b6040516121179291906149f2565b60405180910390a150505050505050565b60008060001b6000848154811061214257612141614786565b5b9060005260206000209060120201600c0160008473ffffffffffffffffffffffffffffffffffffffff1673ffffffffffffffffffffffffffffffffffffffff168152602001908152602001600020600101541415905092915050565b60608160008054905081106121e8576040517f08c379a00000000000000000000000000000000000000000000000000000000081526004016121df90614766565b60405180910390fd5b826003600082815481106121ff576121fe614786565b5b90600052602060002090601202016001016008015442101561226d5760008083815481106122305761222f614786565b5b9060005260206000209060120201600e0160006101000a81548160ff0219169083600381111561226357612262614821565b5b02179055506123c4565b6000828154811061228157612280614786565b5b9060005260206000209060120201600101600901544210156122f0576001600083815481106122b3576122b2614786565b5b9060005260206000209060120201600e0160006101000a81548160ff021916908360038111156122e6576122e5614821565b5b02179055506123c3565b6000828154811061230457612303614786565b5b9060005260206000209060120201600101600a01544210156123735760026000838154811061233657612335614786565b5b9060005260206000209060120201600e0160006101000a81548160ff0219169083600381111561236957612368614821565b5b02179055506123c2565b60036000838154811061238957612388614786565b5b9060005260206000209060120201600e0160006101000a81548160ff021916908360038111156123bc576123bb614821565b5b02179055505b5b5b600082815481106123d8576123d7614786565b5b9060005260206000209060120201600e0160009054906101000a900460ff16600381111561240957612408614821565b5b81600381111561241c5761241b614821565b5b1461245c576040517f08c379a00000000000000000000000000000000000000000000000000000000081526004016124539061489c565b60405180910390fd5b600085815481106124705761246f614786565b5b9060005260206000209060120201601101805480602002602001604051908101604052809291908181526020016000905b828210156125bb57838290600052602060002090600202016040518060400160405290816000820180546124d490614a4a565b80601f016020809104026020016040519081016040528092919081815260200182805461250090614a4a565b801561254d5780601f106125225761010080835404028352916020019161254d565b820191906000526020600020905b81548152906001019060200180831161253057829003601f168201915b505050505081526020016001820160009054906101000a900473ffffffffffffffffffffffffffffffffffffffff1673ffffffffffffffffffffffffffffffffffffffff1673ffffffffffffffffffffffffffffffffffffffff1681525050815260200190600101906124a1565b505050509350505050919050565b6060816000805490508110612613576040517f08c379a000000000000000000000000000000000000000000000000000000000815260040161260a90614766565b60405180910390fd5b826000818154811061262857612627614786565b5b906000526020600020906012020160010160000160009054906101000a900473ffffffffffffffffffffffffffffffffffffffff1673ffffffffffffffffffffffffffffffffffffffff163373ffffffffffffffffffffffffffffffffffffffff16146126ca576040517f08c379a00000000000000000000000000000000000000000000000000000000081526004016126c190614d5c565b60405180910390fd5b836002600082815481106126e1576126e0614786565b5b90600052602060002090601202016001016008015442101561274f57600080838154811061271257612711614786565b5b9060005260206000209060120201600e0160006101000a81548160ff0219169083600381111561274557612744614821565b5b02179055506128a6565b6000828154811061276357612762614786565b5b9060005260206000209060120201600101600901544210156127d25760016000838154811061279557612794614786565b5b9060005260206000209060120201600e0160006101000a81548160ff021916908360038111156127c8576127c7614821565b5b02179055506128a5565b600082815481106127e6576127e5614786565b5b9060005260206000209060120201600101600a01544210156128555760026000838154811061281857612817614786565b5b9060005260206000209060120201600e0160006101000a81548160ff0219169083600381111561284b5761284a614821565b5b02179055506128a4565b60036000838154811061286b5761286a614786565b5b9060005260206000209060120201600e0160006101000a81548160ff0219169083600381111561289e5761289d614821565b5b02179055505b5b5b600082815481106128ba576128b9614786565b5b9060005260206000209060120201600e0160009054906101000a900460ff1660038111156128eb576128ea614821565b5b8160038111156128fe576128fd614821565b5b1461293e576040517f08c379a00000000000000000000000000000000000000000000000000000000081526004016129359061489c565b60405180910390fd5b6000805b6000888154811061295657612955614786565b5b9060005260206000209060120201600d0180549050811015612aba57600080898154811061298757612986614786565b5b9060005260206000209060120201600d0182815481106129aa576129a9614786565b5b9060005260206000200160009054906101000a900473ffffffffffffffffffffffffffffffffffffffff1690506000808a815481106129ec576129eb614786565b5b9060005260206000209060120201600c0160008373ffffffffffffffffffffffffffffffffffffffff1673ffffffffffffffffffffffffffffffffffffffff1681526020019081526020016000206003018054612a4890614a4a565b905003612a9757612a59898361387f565b7f4ddf4c0e94fa7c3fcf8474005bf8b72858bbc3afbeecaee663000ca4eeb2b9bd8982604051612a8a9291906149f2565b60405180910390a1612aa6565b8280612aa290614c99565b9350505b508080612ab290614c99565b915050612942565b5060008167ffffffffffffffff811115612ad757612ad6614ce1565b5b604051908082528060200260200182016040528015612b0a57816020015b6060815260200190600190039081612af55790505b50905060005b60008981548110612b2457612b23614786565b5b9060005260206000209060120201600d0180549050811015612cbf5760008981548110612b5457612b53614786565b5b9060005260206000209060120201600c016000808b81548110612b7a57612b79614786565b5b9060005260206000209060120201600d018381548110612b9d57612b9c614786565b5b9060005260206000200160009054906101000a900473ffffffffffffffffffffffffffffffffffffffff1673ffffffffffffffffffffffffffffffffffffffff1673ffffffffffffffffffffffffffffffffffffffff1681526020019081526020016000206003018054612c1090614a4a565b80601f0160208091040260200160405190810160405280929190818152602001828054612c3c90614a4a565b8015612c895780601f10612c5e57610100808354040283529160200191612c89565b820191906000526020600020905b815481529060010190602001808311612c6c57829003601f168201915b5050505050828281518110612ca157612ca0614786565b5b60200260200101819052508080612cb790614c99565b915050612b10565b50809650505050505050919050565b826000805490508110612d16576040517f08c379a0000000000000000000000000000000000000000000000000000000008152600401612d0d90614766565b60405180910390fd5b836000801b60008281548110612d2f57612d2e614786565b5b9060005260206000209060120201600c0160003373ffffffffffffffffffffffffffffffffffffffff1673ffffffffffffffffffffffffffffffffffffffff1681526020019081526020016000206001015403612dc1576040517f08c379a0000000000000000000000000000000000000000000000000000000008152600401612db890614801565b60405180910390fd5b84600360008281548110612dd857612dd7614786565b5b906000526020600020906012020160010160080154421015612e46576000808381548110612e0957612e08614786565b5b9060005260206000209060120201600e0160006101000a81548160ff02191690836003811115612e3c57612e3b614821565b5b0217905550612f9d565b60008281548110612e5a57612e59614786565b5b906000526020600020906012020160010160090154421015612ec957600160008381548110612e8c57612e8b614786565b5b9060005260206000209060120201600e0160006101000a81548160ff02191690836003811115612ebf57612ebe614821565b5b0217905550612f9c565b60008281548110612edd57612edc614786565b5b9060005260206000209060120201600101600a0154421015612f4c57600260008381548110612f0f57612f0e614786565b5b9060005260206000209060120201600e0160006101000a81548160ff02191690836003811115612f4257612f41614821565b5b0217905550612f9b565b600360008381548110612f6257612f61614786565b5b9060005260206000209060120201600e0160006101000a81548160ff02191690836003811115612f9557612f94614821565b5b02179055505b5b5b60008281548110612fb157612fb0614786565b5b9060005260206000209060120201600e0160009054906101000a900460ff166003811115612fe257612fe1614821565b5b816003811115612ff557612ff4614821565b5b14613035576040517f08c379a000000000000000000000000000000000000000000000000000000000815260040161302c9061489c565b60405180910390fd5b6000878154811061304957613048614786565b5b9060005260206000209060120201600c0160003373ffffffffffffffffffffffffffffffffffffffff1673ffffffffffffffffffffffffffffffffffffffff16815260200190815260200160002060010154600287876040516130ad9291906148fb565b602060405180830381855afa1580156130ca573d6000803e3d6000fd5b5050506040513d601f19601f820116820180604052508101906130ed919061494a565b1461312d576040517f08c379a0000000000000000000000000000000000000000000000000000000008152600401613124906149c3565b60405180910390fd5b600080888154811061314257613141614786565b5b906000526020600020906012020160110160018160018154018082558091505003906000526020600020906002020190508686826000019190613186929190613a36565b50338160010160006101000a81548173ffffffffffffffffffffffffffffffffffffffff021916908373ffffffffffffffffffffffffffffffffffffffff1602179055507fb1183a40c3bfb5582ec9b08605f698b46e5d4084bb316f378e05318927221b9088336040516131fb9291906149f2565b60405180910390a15050505050505050565b60008160e00135803414613256576040517f08c379a000000000000000000000000000000000000000000000000000000000815260040161324d90614b9f565b60405180910390fd5b60008360c001350361329d576040517f08c379a000000000000000000000000000000000000000000000000000000000815260040161329490615298565b60405180910390fd5b8260c001358360e0013511806132b7575060008360e00135145b156132f7576040517f08c379a00000000000000000000000000000000000000000000000000000000081526004016132ee90615350565b60405180910390fd5b8261012001358361014001351180156133195750826101000135836101200135115b613358576040517f08c379a000000000000000000000000000000000000000000000000000000000815260040161334f906153e2565b60405180910390fd5b6000806001816001815401808255809150500390600052602060002090601202019050600160008054905061338d9190614c65565b8160000181905550838160010181816133a69190615816565b905050600081600e0160006101000a81548160ff021916908360038111156133d1576133d0614821565b5b02179055507fbdba0fc2c85fe021acfa560c047f0a846648b1b504aa94ab6557cabb04b9425881600001546040516134099190613e99565b60405180910390a1806000015492505050919050565b60008060001b6000848154811061343957613438614786565b5b9060005260206000209060120201600c0160008473ffffffffffffffffffffffffffffffffffffffff1673ffffffffffffffffffffffffffffffffffffffff1681526020019081526020016000206001015414905092915050565b61349c613b92565b8160008054905081106134e4576040517f08c379a00000000000000000000000000000000000000000000000000000000081526004016134db90614766565b60405180910390fd5b600083815481106134f8576134f7614786565b5b9060005260206000209060120201600101604051806101600160405290816000820160009054906101000a900473ffffffffffffffffffffffffffffffffffffffff1673ffffffffffffffffffffffffffffffffffffffff1673ffffffffffffffffffffffffffffffffffffffff16815260200160018201805461357b90614a4a565b80601f01602080910402602001604051908101604052809291908181526020018280546135a790614a4a565b80156135f45780601f106135c9576101008083540402835291602001916135f4565b820191906000526020600020905b8154815290600101906020018083116135d757829003601f168201915b5050505050815260200160028201805461360d90614a4a565b80601f016020809104026020016040519081016040528092919081815260200182805461363990614a4a565b80156136865780601f1061365b57610100808354040283529160200191613686565b820191906000526020600020905b81548152906001019060200180831161366957829003601f168201915b5050505050815260200160038201805461369f90614a4a565b80601f01602080910402602001604051908101604052809291908181526020018280546136cb90614a4a565b80156137185780601f106136ed57610100808354040283529160200191613718565b820191906000526020600020905b8154815290600101906020018083116136fb57829003601f168201915b5050505050815260200160048201805461373190614a4a565b80601f016020809104026020016040519081016040528092919081815260200182805461375d90614a4a565b80156137aa5780601f1061377f576101008083540402835291602001916137aa565b820191906000526020600020905b81548152906001019060200180831161378d57829003601f168201915b505050505081526020016005820180546137c390614a4a565b80601f01602080910402602001604051908101604052809291908181526020018280546137ef90614a4a565b801561383c5780601f106138115761010080835404028352916020019161383c565b820191906000526020600020905b81548152906001019060200180831161381f57829003601f168201915b5050505050815260200160068201548152602001600782015481526020016008820154815260200160098201548152602001600a82015481525050915050919050565b6000828154811061389357613892614786565b5b9060005260206000209060120201600d018054905081106138b357600080fd5b600082815481106138c7576138c6614786565b5b9060005260206000209060120201600d016001600084815481106138ee576138ed614786565b5b9060005260206000209060120201600d018054905061390d9190614c65565b8154811061391e5761391d614786565b5b9060005260206000200160009054906101000a900473ffffffffffffffffffffffffffffffffffffffff166000838154811061395d5761395c614786565b5b9060005260206000209060120201600d0182815481106139805761397f614786565b5b9060005260206000200160006101000a81548173ffffffffffffffffffffffffffffffffffffffff021916908373ffffffffffffffffffffffffffffffffffffffff160217905550600082815481106139dc576139db614786565b5b9060005260206000209060120201600d018054806139fd576139fc615824565b5b6001900381819060005260206000200160006101000a81549073ffffffffffffffffffffffffffffffffffffffff021916905590555050565b828054613a4290614a4a565b90600052602060002090601f016020900481019282613a645760008555613aab565b82601f10613a7d57803560ff1916838001178555613aab565b82800160010185558215613aab579182015b82811115613aaa578235825591602001919060010190613a8f565b5b509050613ab89190613c02565b5090565b604051806040016040528060608152602001600073ffffffffffffffffffffffffffffffffffffffff1681525090565b828054613af890614a4a565b90600052602060002090601f016020900481019282613b1a5760008555613b61565b82601f10613b3357805160ff1916838001178555613b61565b82800160010185558215613b61579182015b82811115613b60578251825591602001919060010190613b45565b5b509050613b6e9190613c02565b5090565b604051806040016040528060008152602001613b8c613b92565b81525090565b604051806101600160405280600073ffffffffffffffffffffffffffffffffffffffff168152602001606081526020016060815260200160608152602001606081526020016060815260200160008152602001600081526020016000815260200160008152602001600081525090565b5b80821115613c1b576000816000905550600101613c03565b5090565b600080fd5b600080fd5b6000819050919050565b613c3c81613c29565b8114613c4757600080fd5b50565b600081359050613c5981613c33565b92915050565b600080fd5b600080fd5b600080fd5b60008083601f840112613c8457613c83613c5f565b5b8235905067ffffffffffffffff811115613ca157613ca0613c64565b5b602083019150836001820283011115613cbd57613cbc613c69565b5b9250929050565b600080600060408486031215613cdd57613cdc613c1f565b5b6000613ceb86828701613c4a565b935050602084013567ffffffffffffffff811115613d0c57613d0b613c24565b5b613d1886828701613c6e565b92509250509250925092565b600060208284031215613d3a57613d39613c1f565b5b6000613d4884828501613c4a565b91505092915050565b600081519050919050565b600082825260208201905092915050565b60005b83811015613d8b578082015181840152602081019050613d70565b83811115613d9a576000848401525b50505050565b6000601f19601f8301169050919050565b6000613dbc82613d51565b613dc68185613d5c565b9350613dd6818560208601613d6d565b613ddf81613da0565b840191505092915050565b600073ffffffffffffffffffffffffffffffffffffffff82169050919050565b6000613e1582613dea565b9050919050565b613e2581613e0a565b82525050565b60006040830160008301518482036000860152613e488282613db1565b9150506020830151613e5d6020860182613e1c565b508091505092915050565b60006020820190508181036000830152613e828184613e2b565b905092915050565b613e9381613c29565b82525050565b6000602082019050613eae6000830184613e8a565b92915050565b600080600080600060608688031215613ed057613ecf613c1f565b5b6000613ede88828901613c4a565b955050602086013567ffffffffffffffff811115613eff57613efe613c24565b5b613f0b88828901613c6e565b9450945050604086013567ffffffffffffffff811115613f2e57613f2d613c24565b5b613f3a88828901613c6e565b92509250509295509295909350565b60048110613f5657600080fd5b50565b600081359050613f6881613f49565b92915050565b600060208284031215613f8457613f83613c1f565b5b6000613f9284828501613f59565b91505092915050565b600081519050919050565b600082825260208201905092915050565b6000819050602082019050919050565b613fd081613c29565b82525050565b6000613fe182613dea565b9050919050565b613ff181613fd6565b82525050565b600081519050919050565b600082825260208201905092915050565b600061401e82613ff7565b6140288185614002565b9350614038818560208601613d6d565b61404181613da0565b840191505092915050565b6000610160830160008301516140656000860182613fe8565b506020830151848203602086015261407d8282613db1565b915050604083015184820360408601526140978282613db1565b915050606083015184820360608601526140b18282614013565b915050608083015184820360808601526140cb8282614013565b91505060a083015184820360a08601526140e58282614013565b91505060c08301516140fa60c0860182613fc7565b5060e083015161410d60e0860182613fc7565b50610100830151614122610100860182613fc7565b50610120830151614137610120860182613fc7565b5061014083015161414c610140860182613fc7565b508091505092915050565b600060408301600083015161416f6000860182613fc7565b5060208301518482036020860152614187828261404c565b9150508091505092915050565b60006141a08383614157565b905092915050565b6000602082019050919050565b60006141c082613f9b565b6141ca8185613fa6565b9350836020820285016141dc85613fb7565b8060005b8581101561421857848403895281516141f98582614194565b9450614204836141a8565b925060208a019950506001810190506141e0565b50829750879550505050505092915050565b6000602082019050818103600083015261424481846141b5565b905092915050565b600080fd5b6000604082840312156142675761426661424c565b5b81905092915050565b6000806040838503121561428757614286613c1f565b5b600061429585828601613c4a565b925050602083013567ffffffffffffffff8111156142b6576142b5613c24565b5b6142c285828601614251565b9150509250929050565b6142d581613e0a565b81146142e057600080fd5b50565b6000813590506142f2816142cc565b92915050565b6000806040838503121561430f5761430e613c1f565b5b600061431d85828601613c4a565b925050602061432e858286016142e3565b9150509250929050565b60008115159050919050565b61434d81614338565b82525050565b60006020820190506143686000830184614344565b92915050565b600081519050919050565b600082825260208201905092915050565b6000819050602082019050919050565b600060408301600083015184820360008601526143b78282613db1565b91505060208301516143cc6020860182613e1c565b508091505092915050565b60006143e3838361439a565b905092915050565b6000602082019050919050565b60006144038261436e565b61440d8185614379565b93508360208202850161441f8561438a565b8060005b8581101561445b578484038952815161443c85826143d7565b9450614447836143eb565b925060208a01995050600181019050614423565b50829750879550505050505092915050565b6000602082019050818103600083015261448781846143f8565b905092915050565b600081519050919050565b600082825260208201905092915050565b6000819050602082019050919050565b60006144c78383613db1565b905092915050565b6000602082019050919050565b60006144e78261448f565b6144f1818561449a565b935083602082028501614503856144ab565b8060005b8581101561453f578484038952815161452085826144bb565b945061452b836144cf565b925060208a01995050600181019050614507565b50829750879550505050505092915050565b6000602082019050818103600083015261456b81846144dc565b905092915050565b6000610160828403121561458a5761458961424c565b5b81905092915050565b6000602082840312156145a9576145a8613c1f565b5b600082013567ffffffffffffffff8111156145c7576145c6613c24565b5b6145d384828501614573565b91505092915050565b6000610160830160008301516145f56000860182613fe8565b506020830151848203602086015261460d8282613db1565b915050604083015184820360408601526146278282613db1565b915050606083015184820360608601526146418282614013565b9150506080830151848203608086015261465b8282614013565b91505060a083015184820360a08601526146758282614013565b91505060c083015161468a60c0860182613fc7565b5060e083015161469d60e0860182613fc7565b506101008301516146b2610100860182613fc7565b506101208301516146c7610120860182613fc7565b506101408301516146dc610140860182613fc7565b508091505092915050565b6000602082019050818103600083015261470181846145dc565b905092915050565b600082825260208201905092915050565b7f41756374696f6e204944206973206e6f742076616c6964210000000000000000600082015250565b6000614750601883614709565b915061475b8261471a565b602082019050919050565b6000602082019050818103600083015261477f81614743565b9050919050565b7f4e487b7100000000000000000000000000000000000000000000000000000000600052603260045260246000fd5b7f53656e64657220686173206e6f7420706c616365642061206269642100000000600082015250565b60006147eb601c83614709565b91506147f6826147b5565b602082019050919050565b6000602082019050818103600083015261481a816147de565b9050919050565b7f4e487b7100000000000000000000000000000000000000000000000000000000600052602160045260246000fd5b7f496e617070726f707269617465206f7065726174696f6e210000000000000000600082015250565b6000614886601883614709565b915061489182614850565b602082019050919050565b600060208201905081810360008301526148b581614879565b9050919050565b600081905092915050565b82818337600083830152505050565b60006148e283856148bc565b93506148ef8385846148c7565b82840190509392505050565b60006149088284866148d6565b91508190509392505050565b6000819050919050565b61492781614914565b811461493257600080fd5b50565b6000815190506149448161491e565b92915050565b6000602082840312156149605761495f613c1f565b5b600061496e84828501614935565b91505092915050565b7f4861736820697320696e76616c69642100000000000000000000000000000000600082015250565b60006149ad601083614709565b91506149b882614977565b602082019050919050565b600060208201905081810360008301526149dc816149a0565b9050919050565b6149ec81613e0a565b82525050565b6000604082019050614a076000830185613e8a565b614a1460208301846149e3565b9392505050565b7f4e487b7100000000000000000000000000000000000000000000000000000000600052602260045260246000fd5b60006002820490506001821680614a6257607f821691505b602082108103614a7557614a74614a1b565b5b50919050565b7f53656e64657220697320746865206f776e657221000000000000000000000000600082015250565b6000614ab1601483614709565b9150614abc82614a7b565b602082019050919050565b60006020820190508181036000830152614ae081614aa4565b9050919050565b7f53656e6465722068617320616c726561647920706c6163656420612062696421600082015250565b6000614b1d602083614709565b9150614b2882614ae7565b602082019050919050565b60006020820190508181036000830152614b4c81614b10565b9050919050565b7f53656e742076616c7565206973206e6f74207269676874210000000000000000600082015250565b6000614b89601883614709565b9150614b9482614b53565b602082019050919050565b60006020820190508181036000830152614bb881614b7c565b9050919050565b600082905092915050565b600082821b905092915050565b6000614be38383614bbf565b82614bee8135614914565b92506020821015614c2e57614c297fffffffffffffffffffffffffffffffffffffffffffffffffffffffffffffffff83602003600802614bca565b831692505b505092915050565b7f4e487b7100000000000000000000000000000000000000000000000000000000600052601160045260246000fd5b6000614c7082613c29565b9150614c7b83613c29565b925082821015614c8e57614c8d614c36565b5b828203905092915050565b6000614ca482613c29565b91507fffffffffffffffffffffffffffffffffffffffffffffffffffffffffffffffff8203614cd657614cd5614c36565b5b600182019050919050565b7f4e487b7100000000000000000000000000000000000000000000000000000000600052604160045260246000fd5b7f53656e646572206973206e6f7420746865206f776e6572210000000000000000600082015250565b6000614d46601883614709565b9150614d5182614d10565b602082019050919050565b60006020820190508181036000830152614d7581614d39565b9050919050565b7f41756374696f6e2068617320612077696e6e6572210000000000000000000000600082015250565b6000614db2601583614709565b9150614dbd82614d7c565b602082019050919050565b60006020820190508181036000830152614de181614da5565b9050919050565b600060208284031215614dfe57614dfd613c1f565b5b6000614e0c848285016142e3565b91505092915050565b600080fd5b600080fd5b600080fd5b60008083356001602003843603038112614e4157614e40614e15565b5b80840192508235915067ffffffffffffffff821115614e6357614e62614e1a565b5b602083019250600182023603831315614e7f57614e7e614e1f565b5b509250929050565b60008190508160005260206000209050919050565b60006020601f8301049050919050565b600060088302614edc7fffffffffffffffffffffffffffffffffffffffffffffffffffffffffffffffff82614bca565b614ee68683614bca565b95508019841693508086168417925050509392505050565b6000819050919050565b6000614f23614f1e614f1984613c29565b614efe565b613c29565b9050919050565b6000819050919050565b614f3d83614f08565b614f51614f4982614f2a565b848454614eac565b825550505050565b600090565b614f66614f59565b614f71818484614f34565b505050565b5b81811015614f9557614f8a600082614f5e565b600181019050614f77565b5050565b601f821115614fda57614fab81614e87565b614fb484614e9c565b81016020851015614fc3578190505b614fd7614fcf85614e9c565b830182614f76565b50505b505050565b600082821c905092915050565b6000614ffd60001984600802614fdf565b1980831691505092915050565b60006150168383614fec565b9150826002028217905092915050565b6150308383614bbf565b67ffffffffffffffff81111561504957615048614ce1565b5b6150538254614a4a565b61505e828285614f99565b6000601f83116001811461508d576000841561507b578287013590505b615085858261500a565b8655506150ed565b601f19841661509b86614e87565b60005b828110156150c35784890135825560018201915060208501945060208101905061509e565b868310156150e057848901356150dc601f891682614fec565b8355505b6001600288020188555050505b50505050505050565b615101838383615026565b505050565b60008135615113816142cc565b80915050919050565b60008160001b9050919050565b600073ffffffffffffffffffffffffffffffffffffffff6151498461511c565b9350801983169250808416831791505092915050565b600061517a61517561517084613dea565b614efe565b613dea565b9050919050565b600061518c8261515f565b9050919050565b600061519e82615181565b9050919050565b6000819050919050565b6151b882615193565b6151cb6151c4826151a5565b8354615129565b8255505050565b60008101600083016151e48185614e24565b6151ef8183866150f6565b5050505060018101602083018061520581615106565b905061521181846151af565b5050505050565b61522282826151d2565b5050565b7f4d696e696d756d207072696365206d757374206265206120706f73697469766560008201527f206e756d62657200000000000000000000000000000000000000000000000000602082015250565b6000615282602783614709565b915061528d82615226565b604082019050919050565b600060208201905081810360008301526152b181615275565b9050919050565b7f5468652072656c6174696f6e202830203c205365637572697479204465706f7360008201527f6974203c204d696e696d756d20507269636529206973206e6f7420736174697360208201527f666965642e000000000000000000000000000000000000000000000000000000604082015250565b600061533a604583614709565b9150615345826152b8565b606082019050919050565b600060208201905081810360008301526153698161532d565b9050919050565b7f446174657320617265206e6f7420696e20746865207269676874206f7264657260008201527f2e00000000000000000000000000000000000000000000000000000000000000602082015250565b60006153cc602183614709565b91506153d782615370565b604082019050919050565b600060208201905081810360008301526153fb816153bf565b9050919050565b61540b81613fd6565b811461541657600080fd5b50565b6000813561542681615402565b80915050919050565b600061543a8261515f565b9050919050565b600061544c8261542f565b9050919050565b6000819050919050565b61546682615441565b61547961547282615453565b8354615129565b8255505050565b6000808335600160200384360303811261549d5761549c614e15565b5b80840192508235915067ffffffffffffffff8211156154bf576154be614e1a565b5b6020830192506001820236038313156154db576154da614e1f565b5b509250929050565b600082905092915050565b60008190508160005260206000209050919050565b601f82111561554457615515816154ee565b61551e84614e9c565b8101602085101561552d578190505b61554161553985614e9c565b830182614f76565b50505b505050565b61555383836154e3565b67ffffffffffffffff81111561556c5761556b614ce1565b5b6155768254614a4a565b615581828285615503565b6000601f8311600181146155b0576000841561559e578287013590505b6155a8858261500a565b865550615610565b601f1984166155be866154ee565b60005b828110156155e6578489013582556001820191506020850194506020810190506155c1565b8683101561560357848901356155ff601f891682614fec565b8355505b6001600288020188555050505b50505050505050565b615624838383615549565b505050565b6000813561563681613c33565b80915050919050565b60007fffffffffffffffffffffffffffffffffffffffffffffffffffffffffffffffff61566b8461511c565b9350801983169250808416831791505092915050565b61568a82614f08565b61569d61569682614f2a565b835461563f565b8255505050565b6000810160008301806156b681615419565b90506156c2818461545d565b50505060018101602083016156d78185614e24565b6156e28183866150f6565b5050505060028101604083016156f88185614e24565b6157038183866150f6565b5050505060038101606083016157198185615480565b615724818386615619565b50505050600481016080830161573a8185615480565b615745818386615619565b505050506005810160a0830161575b8185615480565b615766818386615619565b505050506006810160c083018061577c81615629565b90506157888184615681565b5050506007810160e083018061579d81615629565b90506157a98184615681565b505050600881016101008301806157bf81615629565b90506157cb8184615681565b505050600981016101208301806157e181615629565b90506157ed8184615681565b505050600a810161014083018061580381615629565b905061580f8184615681565b5050505050565b61582082826156a4565b5050565b7f4e487b7100000000000000000000000000000000000000000000000000000000600052603160045260246000fdfea264697066735822122088e08c480bb59a60618a4cf7cf80d422c490513ceb68fa7e184aaca8c04a764564736f6c634300080d0033",
  "immutableReferences": {},
  "source": "// SPDX-License-Identifier: MIT\npragma solidity ^0.8.13;\n\n// NOTE: all currency is wei\n\ncontract SealedBidAuctionManager {\n    struct UserSetAuctionInfo {\n        // administrative\n        address payable owner;\n        bytes params;\n        bytes owner_pkey;\n        // item\n        string itemName;\n        string itemDesc;\n        string itemPicture;\n        // transactional\n        uint256 minimumPrice;\n        uint256 securityDeposit;\n        // dates\n        uint256 biddingEndDate;\n        uint256 revealingEndDate;\n        uint256 sortingEndDate;\n    }\n\n    struct Bid {\n        bool done;\n        // to bid\n        bytes32 c;\n        bytes32 d;\n        // to reveal\n        bytes z;\n    }\n\n    struct AuctionWinner {\n        bytes y;\n        address bidder;\n    }\n\n    struct Auction {\n        uint256 id;\n        UserSetAuctionInfo info;\n        mapping(address => Bid) bids;\n        address[] bidders;\n        AuctionState state;\n        AuctionWinner winner;\n        AuctionWinner[] objections;\n    }\n    struct AuctionInfoAndId {\n        uint256 id;\n        UserSetAuctionInfo info;\n    }\n    enum AuctionState {\n        BiddingPhase,\n        RevealingPhase,\n        SortingPhase,\n        Ended\n    }\n\n    Auction[] private auctions;\n\n    // events for logging and subscription\n\n    event NewAuction(uint256 auctionId);\n    event NewBid(uint256 auctionId, address by);\n    event NewReveal(uint256 auctionId, address by);\n    event BidderRemoved(uint256, address who);\n    event WinnerDecided(uint256 auctionId, address who);\n    event ObjectionPlaced(uint256 auctionId, address by);\n    event AuctionEnds(uint256 auctionId, bool success);\n\n    // modifiers for modularity\n\n    modifier SenderDidNotPlaceABid(uint256 auctionId) {\n        if (auctions[auctionId].bids[msg.sender].c != bytes32(0))\n            revert(\"Sender has already placed a bid!\");\n        _;\n    }\n\n    modifier SenderPlacedABid(uint256 auctionId) {\n        if (auctions[auctionId].bids[msg.sender].c == bytes32(0))\n            revert(\"Sender has not placed a bid!\");\n        _;\n    }\n\n    function didNotPlaceABid(\n        uint256 auctionId,\n        address acc\n    ) external view returns (bool) {\n        return auctions[auctionId].bids[acc].c == bytes32(0);\n    }\n\n    function placedABid(\n        uint256 auctionId,\n        address acc\n    ) external view returns (bool) {\n        return auctions[auctionId].bids[acc].c != bytes32(0);\n    }\n\n    // function getBid(uint256 auctionId) external view returns (uint8 len) {\n    //     return auctions[auctionId].bids[msg.sender].c.length;\n    // }\n\n    modifier SenderIsOwner(uint256 auctionId) {\n        if (msg.sender != auctions[auctionId].info.owner)\n            revert(\"Sender is not the owner!\");\n        _;\n    }\n\n    modifier SenderIsNotOwner(uint256 auctionId) {\n        if (msg.sender == auctions[auctionId].info.owner)\n            revert(\"Sender is the owner!\");\n        _;\n    }\n\n    modifier AuctionIDIsValid(uint256 auctionId) {\n        if (auctionId >= auctions.length) revert(\"Auction ID is not valid!\");\n        _;\n    }\n\n    modifier AuctionHasNoWinner(uint256 auctionId) {\n        if (auctions[auctionId].winner.y.length != 0)\n            revert(\"Auction has a winner!\");\n        _;\n    }\n\n    modifier CheckAuctionState(uint256 auctionId, AuctionState state) {\n        // set it\n        if (block.timestamp < auctions[auctionId].info.biddingEndDate)\n            auctions[auctionId].state = AuctionState.BiddingPhase;\n        else if (block.timestamp < auctions[auctionId].info.revealingEndDate)\n            auctions[auctionId].state = AuctionState.RevealingPhase;\n        else if (block.timestamp < auctions[auctionId].info.sortingEndDate)\n            auctions[auctionId].state = AuctionState.SortingPhase;\n        else auctions[auctionId].state = AuctionState.Ended;\n\n        // check it\n        if (state != auctions[auctionId].state) {\n            revert(\"Inappropriate operation!\");\n        }\n        _;\n    }\n\n    modifier ValueEquals(uint v) {\n        if (msg.value != v) revert(\"Sent value is not right!\");\n        _;\n    }\n\n    // private functions\n\n    function _removeBidder(uint256 auctionId, uint index) internal {\n        require(index < auctions[auctionId].bidders.length);\n\n        auctions[auctionId].bidders[index] = auctions[auctionId].bidders[\n            auctions[auctionId].bidders.length - 1\n        ];\n        auctions[auctionId].bidders.pop();\n    }\n\n    // external functions to be called at any time\n\n    function getNumberOfRegisteredAuctions() external view returns (uint256) {\n        return auctions.length;\n    }\n\n    function createAuction(\n        UserSetAuctionInfo calldata info\n    ) external payable ValueEquals(info.securityDeposit) returns (uint256) {\n        // validation of auction parameters\n        if (info.minimumPrice == 0)\n            revert(\"Minimum price must be a positive number\");\n\n        if (\n            info.securityDeposit > info.minimumPrice ||\n            info.securityDeposit == 0\n        )\n            revert(\n                \"The relation (0 < Security Deposit < Minimum Price) is not satisfied.\"\n            );\n\n        if (\n            !(// info.verificationEndDate > info.sortingEndDate &&\n            info.sortingEndDate > info.revealingEndDate &&\n                info.revealingEndDate > info.biddingEndDate)\n        ) revert(\"Dates are not in the right order.\");\n\n        // valid? add it\n        Auction storage auction = auctions.push();\n\n        auction.id = auctions.length - 1;\n        auction.info = info;\n        auction.state = AuctionState.BiddingPhase;\n\n        emit NewAuction(auction.id);\n        return auction.id;\n    }\n\n    function getAuctionsByState(\n        AuctionState state\n    ) external view returns (AuctionInfoAndId[] memory) {\n        uint256 count = 0;\n        for (uint256 i = 0; i < auctions.length; i++) {\n            if (auctions[i].state == state) {\n                count++;\n            }\n        }\n\n        AuctionInfoAndId[] memory data = new AuctionInfoAndId[](count);\n        uint256 j = 0;\n        for (uint256 i = 0; i < auctions.length; i++) {\n            if (auctions[i].state == state) {\n                data[j].info = auctions[i].info;\n                data[j].id = auctions[i].id;\n                j++;\n            }\n        }\n\n        return data;\n    }\n\n    function getAuctionInfo(\n        uint256 auctionId\n    )\n        external\n        view\n        AuctionIDIsValid(auctionId)\n        returns (UserSetAuctionInfo memory)\n    {\n        return auctions[auctionId].info;\n    }\n\n    // functions to be called throughout the auction process\n\n    function placeBid(\n        uint256 auctionId,\n        bytes calldata c,\n        bytes calldata d\n    )\n        external\n        payable\n        AuctionIDIsValid(auctionId)\n        SenderIsNotOwner(auctionId)\n        SenderDidNotPlaceABid(auctionId)\n        CheckAuctionState(auctionId, AuctionState.BiddingPhase)\n        ValueEquals(auctions[auctionId].info.securityDeposit)\n    {\n        auctions[auctionId].bids[msg.sender] = Bid({\n            done: false,\n            c: bytes32(c),\n            d: bytes32(d),\n            z: bytes(\"\")\n        });\n        auctions[auctionId].bidders[\n            auctions[auctionId].bidders.length - 1\n        ] = msg.sender;\n        emit NewBid(auctionId, msg.sender);\n    }\n\n    function revealBid(\n        uint256 auctionId,\n        bytes calldata z\n    )\n        external\n        AuctionIDIsValid(auctionId)\n        SenderPlacedABid(auctionId)\n        CheckAuctionState(auctionId, AuctionState.RevealingPhase)\n    {\n        // verify commitment\n        if (sha256(z) != auctions[auctionId].bids[msg.sender].d)\n            revert(\"Hash is invalid!\");\n\n        auctions[auctionId].bids[msg.sender].z = z;\n        emit NewReveal(auctionId, msg.sender);\n    }\n\n    function getReveals(\n        uint256 auctionId\n    )\n        external\n        AuctionIDIsValid(auctionId)\n        SenderIsOwner(auctionId)\n        CheckAuctionState(auctionId, AuctionState.SortingPhase)\n        returns (bytes[] memory)\n    {\n        uint256 count = 0;\n        for (uint256 i = 0; i < auctions[auctionId].bidders.length; i++) {\n            address bidder = auctions[auctionId].bidders[i];\n            if (auctions[auctionId].bids[bidder].z.length == 0) {\n                // remove them, no refunds\n                _removeBidder(auctionId, i);\n                emit BidderRemoved(auctionId, bidder);\n            } else {\n                count++;\n            }\n        }\n\n        bytes[] memory zs = new bytes[](count);\n        for (uint256 i = 0; i < auctions[auctionId].bidders.length; i++) {\n            zs[i] = auctions[auctionId].bids[auctions[auctionId].bidders[i]].z;\n        }\n\n        return zs;\n    }\n\n    function declareWinner(\n        uint256 auctionId,\n        AuctionWinner calldata winner\n    )\n        external\n        AuctionIDIsValid(auctionId)\n        SenderIsOwner(auctionId)\n        CheckAuctionState(auctionId, AuctionState.SortingPhase)\n        AuctionHasNoWinner(auctionId)\n    {\n        // verify commitment\n        if (sha256(winner.y) != auctions[auctionId].bids[winner.bidder].c)\n            revert(\"Hash is invalid!\");\n\n        auctions[auctionId].winner = winner;\n        emit WinnerDecided(auctionId, winner.bidder);\n    }\n\n    function getWinner(\n        uint256 auctionId\n    ) external view AuctionIDIsValid(auctionId) returns (AuctionWinner memory) {\n        return auctions[auctionId].winner;\n    }\n\n    function returnDeposit(\n        uint256 auctionId\n    )\n        external\n        AuctionIDIsValid(auctionId)\n        SenderPlacedABid(auctionId)\n        CheckAuctionState(auctionId, AuctionState.Ended)\n    {\n        // no re-entrancy attacks!\n        if (\n            auctions[auctionId].bids[msg.sender].done == false &&\n            msg.sender != auctions[auctionId].winner.bidder\n        ) {\n            auctions[auctionId].bids[msg.sender].done = true;\n        }\n        payable(msg.sender).transfer(auctions[auctionId].info.securityDeposit);\n    }\n\n    function objectToTheWinner(\n        uint256 auctionId,\n        bytes calldata y\n    )\n        external\n        AuctionIDIsValid(auctionId)\n        SenderPlacedABid(auctionId)\n        CheckAuctionState(auctionId, AuctionState.Ended)\n    {\n        if (sha256(y) != auctions[auctionId].bids[msg.sender].c)\n            revert(\"Hash is invalid!\");\n\n        AuctionWinner storage objection = auctions[auctionId].objections.push();\n        objection.y = y;\n        objection.bidder = msg.sender;\n        emit ObjectionPlaced(auctionId, msg.sender);\n    }\n\n    function getObjections(\n        uint256 auctionId\n    )\n        external\n        AuctionIDIsValid(auctionId)\n        CheckAuctionState(auctionId, AuctionState.Ended)\n        returns (AuctionWinner[] memory)\n    {\n        return auctions[auctionId].objections;\n    }\n}\n",
  "sourcePath": "/home/amr/fghdh/auction-system-webapp/contracts/contracts/SealedBidAuctionManager.sol",
  "compiler": {
    "name": "solc",
    "version": "0.8.13+commit.abaa5c0e.Emscripten.clang"
  },
  "schemaVersion": "3.4.13",
  "updatedAt": "2023-07-07T11:36:49.179Z",
  "networkType": "ethereum",
  "devdoc": {
    "kind": "dev",
    "methods": {},
    "version": 1
  },
  "userdoc": {
    "kind": "user",
    "methods": {},
    "version": 1
  }
}