{
  "contractName": "SealedBidAuctionManager",
  "abi": [
    {
      "anonymous": false,
      "inputs": [
        {
          "indexed": false,
          "internalType": "uint256",
          "name": "auctionId",
          "type": "uint256"
        },
        {
          "indexed": false,
          "internalType": "bool",
          "name": "success",
          "type": "bool"
        }
      ],
      "name": "AuctionEnds",
      "type": "event"
    },
    {
      "anonymous": false,
      "inputs": [
        {
          "indexed": false,
          "internalType": "uint256",
          "name": "",
          "type": "uint256"
        },
        {
          "indexed": false,
          "internalType": "address",
          "name": "who",
          "type": "address"
        }
      ],
      "name": "BidderRemoved",
      "type": "event"
    },
    {
      "anonymous": false,
      "inputs": [
        {
          "indexed": false,
          "internalType": "uint256",
          "name": "auctionId",
          "type": "uint256"
        }
      ],
      "name": "NewAuction",
      "type": "event"
    },
    {
      "anonymous": false,
      "inputs": [
        {
          "indexed": false,
          "internalType": "uint256",
          "name": "auctionId",
          "type": "uint256"
        },
        {
          "indexed": false,
          "internalType": "address",
          "name": "by",
          "type": "address"
        }
      ],
      "name": "NewBid",
      "type": "event"
    },
    {
      "anonymous": false,
      "inputs": [
        {
          "indexed": false,
          "internalType": "uint256",
          "name": "auctionId",
          "type": "uint256"
        },
        {
          "indexed": false,
          "internalType": "address",
          "name": "by",
          "type": "address"
        }
      ],
      "name": "NewReveal",
      "type": "event"
    },
    {
      "anonymous": false,
      "inputs": [
        {
          "indexed": false,
          "internalType": "uint256",
          "name": "auctionId",
          "type": "uint256"
        },
        {
          "indexed": false,
          "internalType": "address",
          "name": "by",
          "type": "address"
        }
      ],
      "name": "ObjectionPlaced",
      "type": "event"
    },
    {
      "anonymous": false,
      "inputs": [
        {
          "indexed": false,
          "internalType": "uint256",
          "name": "auctionId",
          "type": "uint256"
        },
        {
          "indexed": false,
          "internalType": "address",
          "name": "who",
          "type": "address"
        }
      ],
      "name": "WinnerDecided",
      "type": "event"
    },
    {
      "inputs": [],
      "name": "getNumberOfRegisteredAuctions",
      "outputs": [
        {
          "internalType": "uint256",
          "name": "",
          "type": "uint256"
        }
      ],
      "stateMutability": "view",
      "type": "function",
      "constant": true
    },
    {
      "inputs": [
        {
          "components": [
            {
              "internalType": "address payable",
              "name": "owner",
              "type": "address"
            },
            {
              "internalType": "bytes",
              "name": "params",
              "type": "bytes"
            },
            {
              "internalType": "bytes",
              "name": "owner_pkey",
              "type": "bytes"
            },
            {
              "internalType": "string",
              "name": "itemName",
              "type": "string"
            },
            {
              "internalType": "string",
              "name": "itemDesc",
              "type": "string"
            },
            {
              "internalType": "string",
              "name": "itemPicture",
              "type": "string"
            },
            {
              "internalType": "uint256",
              "name": "minimumPrice",
              "type": "uint256"
            },
            {
              "internalType": "uint256",
              "name": "securityDeposit",
              "type": "uint256"
            },
            {
              "internalType": "uint256",
              "name": "biddingEndDate",
              "type": "uint256"
            },
            {
              "internalType": "uint256",
              "name": "revealingEndDate",
              "type": "uint256"
            },
            {
              "internalType": "uint256",
              "name": "sortingEndDate",
              "type": "uint256"
            }
          ],
          "internalType": "struct SealedBidAuctionManager.UserSetAuctionInfo",
          "name": "info",
          "type": "tuple"
        }
      ],
      "name": "createAuction",
      "outputs": [
        {
          "internalType": "uint256",
          "name": "",
          "type": "uint256"
        }
      ],
      "stateMutability": "payable",
      "type": "function",
      "payable": true
    },
    {
      "inputs": [
        {
          "internalType": "enum SealedBidAuctionManager.AuctionState",
          "name": "state",
          "type": "uint8"
        }
      ],
      "name": "getAuctionsByState",
      "outputs": [
        {
          "components": [
            {
              "internalType": "uint256",
              "name": "id",
              "type": "uint256"
            },
            {
              "components": [
                {
                  "internalType": "address payable",
                  "name": "owner",
                  "type": "address"
                },
                {
                  "internalType": "bytes",
                  "name": "params",
                  "type": "bytes"
                },
                {
                  "internalType": "bytes",
                  "name": "owner_pkey",
                  "type": "bytes"
                },
                {
                  "internalType": "string",
                  "name": "itemName",
                  "type": "string"
                },
                {
                  "internalType": "string",
                  "name": "itemDesc",
                  "type": "string"
                },
                {
                  "internalType": "string",
                  "name": "itemPicture",
                  "type": "string"
                },
                {
                  "internalType": "uint256",
                  "name": "minimumPrice",
                  "type": "uint256"
                },
                {
                  "internalType": "uint256",
                  "name": "securityDeposit",
                  "type": "uint256"
                },
                {
                  "internalType": "uint256",
                  "name": "biddingEndDate",
                  "type": "uint256"
                },
                {
                  "internalType": "uint256",
                  "name": "revealingEndDate",
                  "type": "uint256"
                },
                {
                  "internalType": "uint256",
                  "name": "sortingEndDate",
                  "type": "uint256"
                }
              ],
              "internalType": "struct SealedBidAuctionManager.UserSetAuctionInfo",
              "name": "info",
              "type": "tuple"
            }
          ],
          "internalType": "struct SealedBidAuctionManager.AuctionByState[]",
          "name": "",
          "type": "tuple[]"
        }
      ],
      "stateMutability": "view",
      "type": "function",
      "constant": true
    },
    {
      "inputs": [
        {
          "internalType": "uint256",
          "name": "auctionId",
          "type": "uint256"
        }
      ],
      "name": "getAuctionInfo",
      "outputs": [
        {
          "components": [
            {
              "internalType": "address payable",
              "name": "owner",
              "type": "address"
            },
            {
              "internalType": "bytes",
              "name": "params",
              "type": "bytes"
            },
            {
              "internalType": "bytes",
              "name": "owner_pkey",
              "type": "bytes"
            },
            {
              "internalType": "string",
              "name": "itemName",
              "type": "string"
            },
            {
              "internalType": "string",
              "name": "itemDesc",
              "type": "string"
            },
            {
              "internalType": "string",
              "name": "itemPicture",
              "type": "string"
            },
            {
              "internalType": "uint256",
              "name": "minimumPrice",
              "type": "uint256"
            },
            {
              "internalType": "uint256",
              "name": "securityDeposit",
              "type": "uint256"
            },
            {
              "internalType": "uint256",
              "name": "biddingEndDate",
              "type": "uint256"
            },
            {
              "internalType": "uint256",
              "name": "revealingEndDate",
              "type": "uint256"
            },
            {
              "internalType": "uint256",
              "name": "sortingEndDate",
              "type": "uint256"
            }
          ],
          "internalType": "struct SealedBidAuctionManager.UserSetAuctionInfo",
          "name": "",
          "type": "tuple"
        }
      ],
      "stateMutability": "view",
      "type": "function",
      "constant": true
    },
    {
      "inputs": [
        {
          "internalType": "uint256",
          "name": "auctionId",
          "type": "uint256"
        },
        {
          "internalType": "bytes",
          "name": "c",
          "type": "bytes"
        },
        {
          "internalType": "bytes",
          "name": "d",
          "type": "bytes"
        }
      ],
      "name": "placeBid",
      "outputs": [],
      "stateMutability": "payable",
      "type": "function",
      "payable": true
    },
    {
      "inputs": [
        {
          "internalType": "uint256",
          "name": "auctionId",
          "type": "uint256"
        },
        {
          "internalType": "bytes",
          "name": "z",
          "type": "bytes"
        }
      ],
      "name": "revealBid",
      "outputs": [],
      "stateMutability": "nonpayable",
      "type": "function"
    },
    {
      "inputs": [
        {
          "internalType": "uint256",
          "name": "auctionId",
          "type": "uint256"
        }
      ],
      "name": "getReveals",
      "outputs": [
        {
          "internalType": "bytes[]",
          "name": "",
          "type": "bytes[]"
        }
      ],
      "stateMutability": "nonpayable",
      "type": "function"
    },
    {
      "inputs": [
        {
          "internalType": "uint256",
          "name": "auctionId",
          "type": "uint256"
        },
        {
          "components": [
            {
              "internalType": "bytes",
              "name": "y",
              "type": "bytes"
            },
            {
              "internalType": "address",
              "name": "bidder",
              "type": "address"
            }
          ],
          "internalType": "struct SealedBidAuctionManager.AuctionWinner",
          "name": "winner",
          "type": "tuple"
        }
      ],
      "name": "declareWinner",
      "outputs": [],
      "stateMutability": "nonpayable",
      "type": "function"
    },
    {
      "inputs": [
        {
          "internalType": "uint256",
          "name": "auctionId",
          "type": "uint256"
        }
      ],
      "name": "getWinner",
      "outputs": [
        {
          "components": [
            {
              "internalType": "bytes",
              "name": "y",
              "type": "bytes"
            },
            {
              "internalType": "address",
              "name": "bidder",
              "type": "address"
            }
          ],
          "internalType": "struct SealedBidAuctionManager.AuctionWinner",
          "name": "",
          "type": "tuple"
        }
      ],
      "stateMutability": "view",
      "type": "function",
      "constant": true
    },
    {
      "inputs": [
        {
          "internalType": "uint256",
          "name": "auctionId",
          "type": "uint256"
        }
      ],
      "name": "returnDeposit",
      "outputs": [],
      "stateMutability": "nonpayable",
      "type": "function"
    },
    {
      "inputs": [
        {
          "internalType": "uint256",
          "name": "auctionId",
          "type": "uint256"
        },
        {
          "internalType": "bytes",
          "name": "y",
          "type": "bytes"
        }
      ],
      "name": "objectToTheWinner",
      "outputs": [],
      "stateMutability": "nonpayable",
      "type": "function"
    }
  ],
  "bytecode": "0x608060405234801561001057600080fd5b50614fe4806100206000396000f3fe60806040526004361061009c5760003560e01c8063684e38ee11610064578063684e38ee146101775780638b10b875146101b457806397d9ee52146101dd578063b8e8fcc51461021a578063cea3241814610243578063fc3fc4ed146102735761009c565b806310e9f549146100a157806318b683fb146100ca5780634129b2c9146100f357806345e481a31461013057806347bf5e2c1461015b575b600080fd5b3480156100ad57600080fd5b506100c860048036038101906100c39190613622565b6102b0565b005b3480156100d657600080fd5b506100f160048036038101906100ec9190613682565b6107c5565b005b3480156100ff57600080fd5b5061011a60048036038101906101159190613682565b610d1f565b60405161012791906137c6565b60405180910390f35b34801561013c57600080fd5b50610145610e8f565b60405161015291906137f7565b60405180910390f35b61017560048036038101906101709190613812565b610e9b565b005b34801561018357600080fd5b5061019e600480360381019061019991906138cc565b611511565b6040516101ab9190613b88565b60405180910390f35b3480156101c057600080fd5b506101db60048036038101906101d69190613bce565b611a96565b005b3480156101e957600080fd5b5061020460048036038101906101ff9190613682565b611fa9565b6040516102119190613cec565b60405180910390f35b34801561022657600080fd5b50610241600480360381019061023c9190613622565b6126ae565b005b61025d60048036038101906102589190613d2e565b612bec565b60405161026a91906137f7565b60405180910390f35b34801561027f57600080fd5b5061029a60048036038101906102959190613682565b612df2565b6040516102a79190613e82565b60405180910390f35b8260008054905081106102f8576040517f08c379a00000000000000000000000000000000000000000000000000000000081526004016102ef90613f01565b60405180910390fd5b83600080828154811061030e5761030d613f21565b5b9060005260206000209060120201600c0160003373ffffffffffffffffffffffffffffffffffffffff1673ffffffffffffffffffffffffffffffffffffffff16815260200190815260200160002050602060ff16036103a2576040517f08c379a000000000000000000000000000000000000000000000000000000000815260040161039990613f9c565b60405180910390fd5b846001600082815481106103b9576103b8613f21565b5b9060005260206000209060120201600101600801544210156104275760008083815481106103ea576103e9613f21565b5b9060005260206000209060120201600e0160006101000a81548160ff0219169083600381111561041d5761041c613fbc565b5b021790555061057e565b6000828154811061043b5761043a613f21565b5b9060005260206000209060120201600101600901544210156104aa5760016000838154811061046d5761046c613f21565b5b9060005260206000209060120201600e0160006101000a81548160ff021916908360038111156104a05761049f613fbc565b5b021790555061057d565b600082815481106104be576104bd613f21565b5b9060005260206000209060120201600101600a015442101561052d576002600083815481106104f0576104ef613f21565b5b9060005260206000209060120201600e0160006101000a81548160ff0219169083600381111561052357610522613fbc565b5b021790555061057c565b60036000838154811061054357610542613f21565b5b9060005260206000209060120201600e0160006101000a81548160ff0219169083600381111561057657610575613fbc565b5b02179055505b5b5b6000828154811061059257610591613f21565b5b9060005260206000209060120201600e0160009054906101000a900460ff1660038111156105c3576105c2613fbc565b5b8160038111156105d6576105d5613fbc565b5b14610616576040517f08c379a000000000000000000000000000000000000000000000000000000000815260040161060d90614037565b60405180910390fd5b6000878154811061062a57610629613f21565b5b9060005260206000209060120201600c0160003373ffffffffffffffffffffffffffffffffffffffff1673ffffffffffffffffffffffffffffffffffffffff168152602001908152602001600020600201546002878760405161068e929190614096565b602060405180830381855afa1580156106ab573d6000803e3d6000fd5b5050506040513d601f19601f820116820180604052508101906106ce91906140e5565b1461070e576040517f08c379a00000000000000000000000000000000000000000000000000000000081526004016107059061415e565b60405180910390fd5b85856000898154811061072457610723613f21565b5b9060005260206000209060120201600c0160003373ffffffffffffffffffffffffffffffffffffffff1673ffffffffffffffffffffffffffffffffffffffff1681526020019081526020016000206003019190610782929190613394565b507fda9ad1af3b211e24edbe9ac3a27ce5cde27c6f44ae790099959efa1472c6be3e87336040516107b492919061418d565b60405180910390a150505050505050565b80600080549050811061080d576040517f08c379a000000000000000000000000000000000000000000000000000000000815260040161080490613f01565b60405180910390fd5b81600080828154811061082357610822613f21565b5b9060005260206000209060120201600c0160003373ffffffffffffffffffffffffffffffffffffffff1673ffffffffffffffffffffffffffffffffffffffff16815260200190815260200160002050602060ff16036108b7576040517f08c379a00000000000000000000000000000000000000000000000000000000081526004016108ae90613f9c565b60405180910390fd5b826003600082815481106108ce576108cd613f21565b5b90600052602060002090601202016001016008015442101561093c5760008083815481106108ff576108fe613f21565b5b9060005260206000209060120201600e0160006101000a81548160ff0219169083600381111561093257610931613fbc565b5b0217905550610a93565b600082815481106109505761094f613f21565b5b9060005260206000209060120201600101600901544210156109bf5760016000838154811061098257610981613f21565b5b9060005260206000209060120201600e0160006101000a81548160ff021916908360038111156109b5576109b4613fbc565b5b0217905550610a92565b600082815481106109d3576109d2613f21565b5b9060005260206000209060120201600101600a0154421015610a4257600260008381548110610a0557610a04613f21565b5b9060005260206000209060120201600e0160006101000a81548160ff02191690836003811115610a3857610a37613fbc565b5b0217905550610a91565b600360008381548110610a5857610a57613f21565b5b9060005260206000209060120201600e0160006101000a81548160ff02191690836003811115610a8b57610a8a613fbc565b5b02179055505b5b5b60008281548110610aa757610aa6613f21565b5b9060005260206000209060120201600e0160009054906101000a900460ff166003811115610ad857610ad7613fbc565b5b816003811115610aeb57610aea613fbc565b5b14610b2b576040517f08c379a0000000000000000000000000000000000000000000000000000000008152600401610b2290614037565b60405180910390fd5b6000151560008681548110610b4357610b42613f21565b5b9060005260206000209060120201600c0160003373ffffffffffffffffffffffffffffffffffffffff1673ffffffffffffffffffffffffffffffffffffffff16815260200190815260200160002060000160009054906101000a900460ff161515148015610c25575060008581548110610bc057610bbf613f21565b5b9060005260206000209060120201600f0160010160009054906101000a900473ffffffffffffffffffffffffffffffffffffffff1673ffffffffffffffffffffffffffffffffffffffff163373ffffffffffffffffffffffffffffffffffffffff1614155b15610ca957600160008681548110610c4057610c3f613f21565b5b9060005260206000209060120201600c0160003373ffffffffffffffffffffffffffffffffffffffff1673ffffffffffffffffffffffffffffffffffffffff16815260200190815260200160002060000160006101000a81548160ff0219169083151502179055505b3373ffffffffffffffffffffffffffffffffffffffff166108fc60008781548110610cd757610cd6613f21565b5b9060005260206000209060120201600101600701549081150290604051600060405180830381858888f19350505050158015610d17573d6000803e3d6000fd5b505050505050565b610d2761341a565b816000805490508110610d6f576040517f08c379a0000000000000000000000000000000000000000000000000000000008152600401610d6690613f01565b60405180910390fd5b60008381548110610d8357610d82613f21565b5b9060005260206000209060120201600f01604051806040016040529081600082018054610daf906141e5565b80601f0160208091040260200160405190810160405280929190818152602001828054610ddb906141e5565b8015610e285780601f10610dfd57610100808354040283529160200191610e28565b820191906000526020600020905b815481529060010190602001808311610e0b57829003601f168201915b505050505081526020016001820160009054906101000a900473ffffffffffffffffffffffffffffffffffffffff1673ffffffffffffffffffffffffffffffffffffffff1673ffffffffffffffffffffffffffffffffffffffff1681525050915050919050565b60008080549050905090565b846000805490508110610ee3576040517f08c379a0000000000000000000000000000000000000000000000000000000008152600401610eda90613f01565b60405180910390fd5b8560008181548110610ef857610ef7613f21565b5b906000526020600020906012020160010160000160009054906101000a900473ffffffffffffffffffffffffffffffffffffffff1673ffffffffffffffffffffffffffffffffffffffff163373ffffffffffffffffffffffffffffffffffffffff1614610f9a576040517f08c379a0000000000000000000000000000000000000000000000000000000008152600401610f9190614262565b60405180910390fd5b866000808281548110610fb057610faf613f21565b5b9060005260206000209060120201600c0160003373ffffffffffffffffffffffffffffffffffffffff1673ffffffffffffffffffffffffffffffffffffffff16815260200190815260200160002050602060ff1614611044576040517f08c379a000000000000000000000000000000000000000000000000000000000815260040161103b906142ce565b60405180910390fd5b87600080828154811061105a57611059613f21565b5b9060005260206000209060120201600101600801544210156110c857600080838154811061108b5761108a613f21565b5b9060005260206000209060120201600e0160006101000a81548160ff021916908360038111156110be576110bd613fbc565b5b021790555061121f565b600082815481106110dc576110db613f21565b5b90600052602060002090601202016001016009015442101561114b5760016000838154811061110e5761110d613f21565b5b9060005260206000209060120201600e0160006101000a81548160ff0219169083600381111561114157611140613fbc565b5b021790555061121e565b6000828154811061115f5761115e613f21565b5b9060005260206000209060120201600101600a01544210156111ce5760026000838154811061119157611190613f21565b5b9060005260206000209060120201600e0160006101000a81548160ff021916908360038111156111c4576111c3613fbc565b5b021790555061121d565b6003600083815481106111e4576111e3613f21565b5b9060005260206000209060120201600e0160006101000a81548160ff0219169083600381111561121757611216613fbc565b5b02179055505b5b5b6000828154811061123357611232613f21565b5b9060005260206000209060120201600e0160009054906101000a900460ff16600381111561126457611263613fbc565b5b81600381111561127757611276613fbc565b5b146112b7576040517f08c379a00000000000000000000000000000000000000000000000000000000081526004016112ae90614037565b60405180910390fd5b60008a815481106112cb576112ca613f21565b5b906000526020600020906012020160010160070154803414611322576040517f08c379a00000000000000000000000000000000000000000000000000000000081526004016113199061433a565b60405180910390fd5b60405180608001604052806000151581526020018b8b906113439190614372565b81526020018989906113559190614372565b81526020016040518060200160405280600081525081525060008c8154811061138157611380613f21565b5b9060005260206000209060120201600c0160003373ffffffffffffffffffffffffffffffffffffffff1673ffffffffffffffffffffffffffffffffffffffff16815260200190815260200160002060008201518160000160006101000a81548160ff0219169083151502179055506020820151816001015560408201518160020155606082015181600301908051906020019061141f92919061344a565b509050503360008c8154811061143857611437613f21565b5b9060005260206000209060120201600d0160008d8154811061145d5761145c613f21565b5b9060005260206000209060120201600d01805490508154811061148357611482613f21565b5b9060005260206000200160006101000a81548173ffffffffffffffffffffffffffffffffffffffff021916908373ffffffffffffffffffffffffffffffffffffffff1602179055507f45401769c1d58f70bd6b63e1a66bfc17d712ce0dc4ffb8d2dd0ad7177d56a3868b336040516114fc92919061418d565b60405180910390a15050505050505050505050565b60606000805b6000805490508110156115a35783600381111561153757611536613fbc565b5b6000828154811061154b5761154a613f21565b5b9060005260206000209060120201600e0160009054906101000a900460ff16600381111561157c5761157b613fbc565b5b0361159057818061158c90614400565b9250505b808061159b90614400565b915050611517565b5060008167ffffffffffffffff8111156115c0576115bf614448565b5b6040519080825280602002602001820160405280156115f957816020015b6115e66134d0565b8152602001906001900390816115de5790505b5090506000805b600080549050811015611a8a578560038111156116205761161f613fbc565b5b6000828154811061163457611633613f21565b5b9060005260206000209060120201600e0160009054906101000a900460ff16600381111561166557611664613fbc565b5b03611a77576000818154811061167e5761167d613f21565b5b9060005260206000209060120201600101604051806101600160405290816000820160009054906101000a900473ffffffffffffffffffffffffffffffffffffffff1673ffffffffffffffffffffffffffffffffffffffff1673ffffffffffffffffffffffffffffffffffffffff168152602001600182018054611701906141e5565b80601f016020809104026020016040519081016040528092919081815260200182805461172d906141e5565b801561177a5780601f1061174f5761010080835404028352916020019161177a565b820191906000526020600020905b81548152906001019060200180831161175d57829003601f168201915b50505050508152602001600282018054611793906141e5565b80601f01602080910402602001604051908101604052809291908181526020018280546117bf906141e5565b801561180c5780601f106117e15761010080835404028352916020019161180c565b820191906000526020600020905b8154815290600101906020018083116117ef57829003601f168201915b50505050508152602001600382018054611825906141e5565b80601f0160208091040260200160405190810160405280929190818152602001828054611851906141e5565b801561189e5780601f106118735761010080835404028352916020019161189e565b820191906000526020600020905b81548152906001019060200180831161188157829003601f168201915b505050505081526020016004820180546118b7906141e5565b80601f01602080910402602001604051908101604052809291908181526020018280546118e3906141e5565b80156119305780601f1061190557610100808354040283529160200191611930565b820191906000526020600020905b81548152906001019060200180831161191357829003601f168201915b50505050508152602001600582018054611949906141e5565b80601f0160208091040260200160405190810160405280929190818152602001828054611975906141e5565b80156119c25780601f10611997576101008083540402835291602001916119c2565b820191906000526020600020905b8154815290600101906020018083116119a557829003601f168201915b5050505050815260200160068201548152602001600782015481526020016008820154815260200160098201548152602001600a82015481525050838381518110611a1057611a0f613f21565b5b60200260200101516020018190525060008181548110611a3357611a32613f21565b5b906000526020600020906012020160000154838381518110611a5857611a57613f21565b5b602002602001015160000181815250508180611a7390614400565b9250505b8080611a8290614400565b915050611600565b50819350505050919050565b816000805490508110611ade576040517f08c379a0000000000000000000000000000000000000000000000000000000008152600401611ad590613f01565b60405180910390fd5b8260008181548110611af357611af2613f21565b5b906000526020600020906012020160010160000160009054906101000a900473ffffffffffffffffffffffffffffffffffffffff1673ffffffffffffffffffffffffffffffffffffffff163373ffffffffffffffffffffffffffffffffffffffff1614611b95576040517f08c379a0000000000000000000000000000000000000000000000000000000008152600401611b8c906144c3565b60405180910390fd5b83600260008281548110611bac57611bab613f21565b5b906000526020600020906012020160010160080154421015611c1a576000808381548110611bdd57611bdc613f21565b5b9060005260206000209060120201600e0160006101000a81548160ff02191690836003811115611c1057611c0f613fbc565b5b0217905550611d71565b60008281548110611c2e57611c2d613f21565b5b906000526020600020906012020160010160090154421015611c9d57600160008381548110611c6057611c5f613f21565b5b9060005260206000209060120201600e0160006101000a81548160ff02191690836003811115611c9357611c92613fbc565b5b0217905550611d70565b60008281548110611cb157611cb0613f21565b5b9060005260206000209060120201600101600a0154421015611d2057600260008381548110611ce357611ce2613f21565b5b9060005260206000209060120201600e0160006101000a81548160ff02191690836003811115611d1657611d15613fbc565b5b0217905550611d6f565b600360008381548110611d3657611d35613f21565b5b9060005260206000209060120201600e0160006101000a81548160ff02191690836003811115611d6957611d68613fbc565b5b02179055505b5b5b60008281548110611d8557611d84613f21565b5b9060005260206000209060120201600e0160009054906101000a900460ff166003811115611db657611db5613fbc565b5b816003811115611dc957611dc8613fbc565b5b14611e09576040517f08c379a0000000000000000000000000000000000000000000000000000000008152600401611e0090614037565b60405180910390fd5b60008681548110611e1d57611e1c613f21565b5b9060005260206000209060120201600c016000866020016020810190611e43919061450f565b73ffffffffffffffffffffffffffffffffffffffff1673ffffffffffffffffffffffffffffffffffffffff168152602001908152602001600020600101546002868060000190611e93919061454b565b604051611ea1929190614096565b602060405180830381855afa158015611ebe573d6000803e3d6000fd5b5050506040513d601f19601f82011682018060405250810190611ee191906140e5565b14611f21576040517f08c379a0000000000000000000000000000000000000000000000000000000008152600401611f189061415e565b60405180910390fd5b8460008781548110611f3657611f35613f21565b5b9060005260206000209060120201600f018181611f53919061493f565b9050507fa40d3f1f8d57e9254ad685693391db32c603b6ba0c2296366db2706bc0bd4f2c86866020016020810190611f8b919061450f565b604051611f9992919061418d565b60405180910390a1505050505050565b6060816000805490508110611ff3576040517f08c379a0000000000000000000000000000000000000000000000000000000008152600401611fea90613f01565b60405180910390fd5b826000818154811061200857612007613f21565b5b906000526020600020906012020160010160000160009054906101000a900473ffffffffffffffffffffffffffffffffffffffff1673ffffffffffffffffffffffffffffffffffffffff163373ffffffffffffffffffffffffffffffffffffffff16146120aa576040517f08c379a00000000000000000000000000000000000000000000000000000000081526004016120a1906144c3565b60405180910390fd5b836002600082815481106120c1576120c0613f21565b5b90600052602060002090601202016001016008015442101561212f5760008083815481106120f2576120f1613f21565b5b9060005260206000209060120201600e0160006101000a81548160ff0219169083600381111561212557612124613fbc565b5b0217905550612286565b6000828154811061214357612142613f21565b5b9060005260206000209060120201600101600901544210156121b25760016000838154811061217557612174613f21565b5b9060005260206000209060120201600e0160006101000a81548160ff021916908360038111156121a8576121a7613fbc565b5b0217905550612285565b600082815481106121c6576121c5613f21565b5b9060005260206000209060120201600101600a0154421015612235576002600083815481106121f8576121f7613f21565b5b9060005260206000209060120201600e0160006101000a81548160ff0219169083600381111561222b5761222a613fbc565b5b0217905550612284565b60036000838154811061224b5761224a613f21565b5b9060005260206000209060120201600e0160006101000a81548160ff0219169083600381111561227e5761227d613fbc565b5b02179055505b5b5b6000828154811061229a57612299613f21565b5b9060005260206000209060120201600e0160009054906101000a900460ff1660038111156122cb576122ca613fbc565b5b8160038111156122de576122dd613fbc565b5b1461231e576040517f08c379a000000000000000000000000000000000000000000000000000000000815260040161231590614037565b60405180910390fd5b6000805b6000888154811061233657612335613f21565b5b9060005260206000209060120201600d018054905081101561249a57600080898154811061236757612366613f21565b5b9060005260206000209060120201600d01828154811061238a57612389613f21565b5b9060005260206000200160009054906101000a900473ffffffffffffffffffffffffffffffffffffffff1690506000808a815481106123cc576123cb613f21565b5b9060005260206000209060120201600c0160008373ffffffffffffffffffffffffffffffffffffffff1673ffffffffffffffffffffffffffffffffffffffff1681526020019081526020016000206003018054612428906141e5565b9050036124775761243989836131dd565b7f4ddf4c0e94fa7c3fcf8474005bf8b72858bbc3afbeecaee663000ca4eeb2b9bd898260405161246a92919061418d565b60405180910390a1612486565b828061248290614400565b9350505b50808061249290614400565b915050612322565b5060008167ffffffffffffffff8111156124b7576124b6614448565b5b6040519080825280602002602001820160405280156124ea57816020015b60608152602001906001900390816124d55790505b50905060005b6000898154811061250457612503613f21565b5b9060005260206000209060120201600d018054905081101561269f576000898154811061253457612533613f21565b5b9060005260206000209060120201600c016000808b8154811061255a57612559613f21565b5b9060005260206000209060120201600d01838154811061257d5761257c613f21565b5b9060005260206000200160009054906101000a900473ffffffffffffffffffffffffffffffffffffffff1673ffffffffffffffffffffffffffffffffffffffff1673ffffffffffffffffffffffffffffffffffffffff16815260200190815260200160002060030180546125f0906141e5565b80601f016020809104026020016040519081016040528092919081815260200182805461261c906141e5565b80156126695780601f1061263e57610100808354040283529160200191612669565b820191906000526020600020905b81548152906001019060200180831161264c57829003601f168201915b505050505082828151811061268157612680613f21565b5b6020026020010181905250808061269790614400565b9150506124f0565b50809650505050505050919050565b8260008054905081106126f6576040517f08c379a00000000000000000000000000000000000000000000000000000000081526004016126ed90613f01565b60405180910390fd5b83600080828154811061270c5761270b613f21565b5b9060005260206000209060120201600c0160003373ffffffffffffffffffffffffffffffffffffffff1673ffffffffffffffffffffffffffffffffffffffff16815260200190815260200160002050602060ff16036127a0576040517f08c379a000000000000000000000000000000000000000000000000000000000815260040161279790613f9c565b60405180910390fd5b846003600082815481106127b7576127b6613f21565b5b9060005260206000209060120201600101600801544210156128255760008083815481106127e8576127e7613f21565b5b9060005260206000209060120201600e0160006101000a81548160ff0219169083600381111561281b5761281a613fbc565b5b021790555061297c565b6000828154811061283957612838613f21565b5b9060005260206000209060120201600101600901544210156128a85760016000838154811061286b5761286a613f21565b5b9060005260206000209060120201600e0160006101000a81548160ff0219169083600381111561289e5761289d613fbc565b5b021790555061297b565b600082815481106128bc576128bb613f21565b5b9060005260206000209060120201600101600a015442101561292b576002600083815481106128ee576128ed613f21565b5b9060005260206000209060120201600e0160006101000a81548160ff0219169083600381111561292157612920613fbc565b5b021790555061297a565b60036000838154811061294157612940613f21565b5b9060005260206000209060120201600e0160006101000a81548160ff0219169083600381111561297457612973613fbc565b5b02179055505b5b5b600082815481106129905761298f613f21565b5b9060005260206000209060120201600e0160009054906101000a900460ff1660038111156129c1576129c0613fbc565b5b8160038111156129d4576129d3613fbc565b5b14612a14576040517f08c379a0000000000000000000000000000000000000000000000000000000008152600401612a0b90614037565b60405180910390fd5b60008781548110612a2857612a27613f21565b5b9060005260206000209060120201600c0160003373ffffffffffffffffffffffffffffffffffffffff1673ffffffffffffffffffffffffffffffffffffffff1681526020019081526020016000206001015460028787604051612a8c929190614096565b602060405180830381855afa158015612aa9573d6000803e3d6000fd5b5050506040513d601f19601f82011682018060405250810190612acc91906140e5565b14612b0c576040517f08c379a0000000000000000000000000000000000000000000000000000000008152600401612b039061415e565b60405180910390fd5b6000808881548110612b2157612b20613f21565b5b906000526020600020906012020160110160018160018154018082558091505003906000526020600020906002020190508686826000019190612b65929190613394565b50338160010160006101000a81548173ffffffffffffffffffffffffffffffffffffffff021916908373ffffffffffffffffffffffffffffffffffffffff1602179055507fb1183a40c3bfb5582ec9b08605f698b46e5d4084bb316f378e05318927221b908833604051612bda92919061418d565b60405180910390a15050505050505050565b60008160e00135803414612c35576040517f08c379a0000000000000000000000000000000000000000000000000000000008152600401612c2c9061433a565b60405180910390fd5b60008360c0013503612c7c576040517f08c379a0000000000000000000000000000000000000000000000000000000008152600401612c73906149bf565b60405180910390fd5b8260c001358360e001351180612c96575060008360e00135145b15612cd6576040517f08c379a0000000000000000000000000000000000000000000000000000000008152600401612ccd90614a77565b60405180910390fd5b826101200135836101400135118015612cf85750826101000135836101200135115b612d37576040517f08c379a0000000000000000000000000000000000000000000000000000000008152600401612d2e90614b09565b60405180910390fd5b6000806001816001815401808255809150500390600052602060002090601202019050600080549050816000018190555083816001018181612d799190614f3d565b905050600081600e0160006101000a81548160ff02191690836003811115612da457612da3613fbc565b5b02179055507fbdba0fc2c85fe021acfa560c047f0a846648b1b504aa94ab6557cabb04b942588160000154604051612ddc91906137f7565b60405180910390a1806000015492505050919050565b612dfa6134f0565b816000805490508110612e42576040517f08c379a0000000000000000000000000000000000000000000000000000000008152600401612e3990613f01565b60405180910390fd5b60008381548110612e5657612e55613f21565b5b9060005260206000209060120201600101604051806101600160405290816000820160009054906101000a900473ffffffffffffffffffffffffffffffffffffffff1673ffffffffffffffffffffffffffffffffffffffff1673ffffffffffffffffffffffffffffffffffffffff168152602001600182018054612ed9906141e5565b80601f0160208091040260200160405190810160405280929190818152602001828054612f05906141e5565b8015612f525780601f10612f2757610100808354040283529160200191612f52565b820191906000526020600020905b815481529060010190602001808311612f3557829003601f168201915b50505050508152602001600282018054612f6b906141e5565b80601f0160208091040260200160405190810160405280929190818152602001828054612f97906141e5565b8015612fe45780601f10612fb957610100808354040283529160200191612fe4565b820191906000526020600020905b815481529060010190602001808311612fc757829003601f168201915b50505050508152602001600382018054612ffd906141e5565b80601f0160208091040260200160405190810160405280929190818152602001828054613029906141e5565b80156130765780601f1061304b57610100808354040283529160200191613076565b820191906000526020600020905b81548152906001019060200180831161305957829003601f168201915b5050505050815260200160048201805461308f906141e5565b80601f01602080910402602001604051908101604052809291908181526020018280546130bb906141e5565b80156131085780601f106130dd57610100808354040283529160200191613108565b820191906000526020600020905b8154815290600101906020018083116130eb57829003601f168201915b50505050508152602001600582018054613121906141e5565b80601f016020809104026020016040519081016040528092919081815260200182805461314d906141e5565b801561319a5780601f1061316f5761010080835404028352916020019161319a565b820191906000526020600020905b81548152906001019060200180831161317d57829003601f168201915b5050505050815260200160068201548152602001600782015481526020016008820154815260200160098201548152602001600a82015481525050915050919050565b600082815481106131f1576131f0613f21565b5b9060005260206000209060120201600d0180549050811061321157600080fd5b6000828154811061322557613224613f21565b5b9060005260206000209060120201600d0160016000848154811061324c5761324b613f21565b5b9060005260206000209060120201600d018054905061326b9190614f4b565b8154811061327c5761327b613f21565b5b9060005260206000200160009054906101000a900473ffffffffffffffffffffffffffffffffffffffff16600083815481106132bb576132ba613f21565b5b9060005260206000209060120201600d0182815481106132de576132dd613f21565b5b9060005260206000200160006101000a81548173ffffffffffffffffffffffffffffffffffffffff021916908373ffffffffffffffffffffffffffffffffffffffff1602179055506000828154811061333a57613339613f21565b5b9060005260206000209060120201600d0180548061335b5761335a614f7f565b5b6001900381819060005260206000200160006101000a81549073ffffffffffffffffffffffffffffffffffffffff021916905590555050565b8280546133a0906141e5565b90600052602060002090601f0160209004810192826133c25760008555613409565b82601f106133db57803560ff1916838001178555613409565b82800160010185558215613409579182015b828111156134085782358255916020019190600101906133ed565b5b5090506134169190613560565b5090565b604051806040016040528060608152602001600073ffffffffffffffffffffffffffffffffffffffff1681525090565b828054613456906141e5565b90600052602060002090601f01602090048101928261347857600085556134bf565b82601f1061349157805160ff19168380011785556134bf565b828001600101855582156134bf579182015b828111156134be5782518255916020019190600101906134a3565b5b5090506134cc9190613560565b5090565b6040518060400160405280600081526020016134ea6134f0565b81525090565b604051806101600160405280600073ffffffffffffffffffffffffffffffffffffffff168152602001606081526020016060815260200160608152602001606081526020016060815260200160008152602001600081526020016000815260200160008152602001600081525090565b5b80821115613579576000816000905550600101613561565b5090565b600080fd5b600080fd5b6000819050919050565b61359a81613587565b81146135a557600080fd5b50565b6000813590506135b781613591565b92915050565b600080fd5b600080fd5b600080fd5b60008083601f8401126135e2576135e16135bd565b5b8235905067ffffffffffffffff8111156135ff576135fe6135c2565b5b60208301915083600182028301111561361b5761361a6135c7565b5b9250929050565b60008060006040848603121561363b5761363a61357d565b5b6000613649868287016135a8565b935050602084013567ffffffffffffffff81111561366a57613669613582565b5b613676868287016135cc565b92509250509250925092565b6000602082840312156136985761369761357d565b5b60006136a6848285016135a8565b91505092915050565b600081519050919050565b600082825260208201905092915050565b60005b838110156136e95780820151818401526020810190506136ce565b838111156136f8576000848401525b50505050565b6000601f19601f8301169050919050565b600061371a826136af565b61372481856136ba565b93506137348185602086016136cb565b61373d816136fe565b840191505092915050565b600073ffffffffffffffffffffffffffffffffffffffff82169050919050565b600061377382613748565b9050919050565b61378381613768565b82525050565b600060408301600083015184820360008601526137a6828261370f565b91505060208301516137bb602086018261377a565b508091505092915050565b600060208201905081810360008301526137e08184613789565b905092915050565b6137f181613587565b82525050565b600060208201905061380c60008301846137e8565b92915050565b60008060008060006060868803121561382e5761382d61357d565b5b600061383c888289016135a8565b955050602086013567ffffffffffffffff81111561385d5761385c613582565b5b613869888289016135cc565b9450945050604086013567ffffffffffffffff81111561388c5761388b613582565b5b613898888289016135cc565b92509250509295509295909350565b600481106138b457600080fd5b50565b6000813590506138c6816138a7565b92915050565b6000602082840312156138e2576138e161357d565b5b60006138f0848285016138b7565b91505092915050565b600081519050919050565b600082825260208201905092915050565b6000819050602082019050919050565b61392e81613587565b82525050565b600061393f82613748565b9050919050565b61394f81613934565b82525050565b600081519050919050565b600082825260208201905092915050565b600061397c82613955565b6139868185613960565b93506139968185602086016136cb565b61399f816136fe565b840191505092915050565b6000610160830160008301516139c36000860182613946565b50602083015184820360208601526139db828261370f565b915050604083015184820360408601526139f5828261370f565b91505060608301518482036060860152613a0f8282613971565b91505060808301518482036080860152613a298282613971565b91505060a083015184820360a0860152613a438282613971565b91505060c0830151613a5860c0860182613925565b5060e0830151613a6b60e0860182613925565b50610100830151613a80610100860182613925565b50610120830151613a95610120860182613925565b50610140830151613aaa610140860182613925565b508091505092915050565b6000604083016000830151613acd6000860182613925565b5060208301518482036020860152613ae582826139aa565b9150508091505092915050565b6000613afe8383613ab5565b905092915050565b6000602082019050919050565b6000613b1e826138f9565b613b288185613904565b935083602082028501613b3a85613915565b8060005b85811015613b765784840389528151613b578582613af2565b9450613b6283613b06565b925060208a01995050600181019050613b3e565b50829750879550505050505092915050565b60006020820190508181036000830152613ba28184613b13565b905092915050565b600080fd5b600060408284031215613bc557613bc4613baa565b5b81905092915050565b60008060408385031215613be557613be461357d565b5b6000613bf3858286016135a8565b925050602083013567ffffffffffffffff811115613c1457613c13613582565b5b613c2085828601613baf565b9150509250929050565b600081519050919050565b600082825260208201905092915050565b6000819050602082019050919050565b6000613c62838361370f565b905092915050565b6000602082019050919050565b6000613c8282613c2a565b613c8c8185613c35565b935083602082028501613c9e85613c46565b8060005b85811015613cda5784840389528151613cbb8582613c56565b9450613cc683613c6a565b925060208a01995050600181019050613ca2565b50829750879550505050505092915050565b60006020820190508181036000830152613d068184613c77565b905092915050565b60006101608284031215613d2557613d24613baa565b5b81905092915050565b600060208284031215613d4457613d4361357d565b5b600082013567ffffffffffffffff811115613d6257613d61613582565b5b613d6e84828501613d0e565b91505092915050565b600061016083016000830151613d906000860182613946565b5060208301518482036020860152613da8828261370f565b91505060408301518482036040860152613dc2828261370f565b91505060608301518482036060860152613ddc8282613971565b91505060808301518482036080860152613df68282613971565b91505060a083015184820360a0860152613e108282613971565b91505060c0830151613e2560c0860182613925565b5060e0830151613e3860e0860182613925565b50610100830151613e4d610100860182613925565b50610120830151613e62610120860182613925565b50610140830151613e77610140860182613925565b508091505092915050565b60006020820190508181036000830152613e9c8184613d77565b905092915050565b600082825260208201905092915050565b7f41756374696f6e204944206973206e6f742076616c6964210000000000000000600082015250565b6000613eeb601883613ea4565b9150613ef682613eb5565b602082019050919050565b60006020820190508181036000830152613f1a81613ede565b9050919050565b7f4e487b7100000000000000000000000000000000000000000000000000000000600052603260045260246000fd5b7f53656e64657220686173206e6f7420706c616365642061206269642100000000600082015250565b6000613f86601c83613ea4565b9150613f9182613f50565b602082019050919050565b60006020820190508181036000830152613fb581613f79565b9050919050565b7f4e487b7100000000000000000000000000000000000000000000000000000000600052602160045260246000fd5b7f496e617070726f707269617465206f7065726174696f6e210000000000000000600082015250565b6000614021601883613ea4565b915061402c82613feb565b602082019050919050565b6000602082019050818103600083015261405081614014565b9050919050565b600081905092915050565b82818337600083830152505050565b600061407d8385614057565b935061408a838584614062565b82840190509392505050565b60006140a3828486614071565b91508190509392505050565b6000819050919050565b6140c2816140af565b81146140cd57600080fd5b50565b6000815190506140df816140b9565b92915050565b6000602082840312156140fb576140fa61357d565b5b6000614109848285016140d0565b91505092915050565b7f4861736820697320696e76616c69642100000000000000000000000000000000600082015250565b6000614148601083613ea4565b915061415382614112565b602082019050919050565b600060208201905081810360008301526141778161413b565b9050919050565b61418781613768565b82525050565b60006040820190506141a260008301856137e8565b6141af602083018461417e565b9392505050565b7f4e487b7100000000000000000000000000000000000000000000000000000000600052602260045260246000fd5b600060028204905060018216806141fd57607f821691505b6020821081036142105761420f6141b6565b5b50919050565b7f53656e64657220697320746865206f776e657221000000000000000000000000600082015250565b600061424c601483613ea4565b915061425782614216565b602082019050919050565b6000602082019050818103600083015261427b8161423f565b9050919050565b7f53656e6465722068617320616c726561647920706c6163656420612062696421600082015250565b60006142b8602083613ea4565b91506142c382614282565b602082019050919050565b600060208201905081810360008301526142e7816142ab565b9050919050565b7f53656e742076616c7565206973206e6f74207269676874210000000000000000600082015250565b6000614324601883613ea4565b915061432f826142ee565b602082019050919050565b6000602082019050818103600083015261435381614317565b9050919050565b600082905092915050565b600082821b905092915050565b600061437e838361435a565b8261438981356140af565b925060208210156143c9576143c47fffffffffffffffffffffffffffffffffffffffffffffffffffffffffffffffff83602003600802614365565b831692505b505092915050565b7f4e487b7100000000000000000000000000000000000000000000000000000000600052601160045260246000fd5b600061440b82613587565b91507fffffffffffffffffffffffffffffffffffffffffffffffffffffffffffffffff820361443d5761443c6143d1565b5b600182019050919050565b7f4e487b7100000000000000000000000000000000000000000000000000000000600052604160045260246000fd5b7f53656e646572206973206e6f7420746865206f776e6572210000000000000000600082015250565b60006144ad601883613ea4565b91506144b882614477565b602082019050919050565b600060208201905081810360008301526144dc816144a0565b9050919050565b6144ec81613768565b81146144f757600080fd5b50565b600081359050614509816144e3565b92915050565b6000602082840312156145255761452461357d565b5b6000614533848285016144fa565b91505092915050565b600080fd5b600080fd5b600080fd5b600080833560016020038436030381126145685761456761453c565b5b80840192508235915067ffffffffffffffff82111561458a57614589614541565b5b6020830192506001820236038313156145a6576145a5614546565b5b509250929050565b60008190508160005260206000209050919050565b60006020601f8301049050919050565b6000600883026146037fffffffffffffffffffffffffffffffffffffffffffffffffffffffffffffffff82614365565b61460d8683614365565b95508019841693508086168417925050509392505050565b6000819050919050565b600061464a61464561464084613587565b614625565b613587565b9050919050565b6000819050919050565b6146648361462f565b61467861467082614651565b8484546145d3565b825550505050565b600090565b61468d614680565b61469881848461465b565b505050565b5b818110156146bc576146b1600082614685565b60018101905061469e565b5050565b601f821115614701576146d2816145ae565b6146db846145c3565b810160208510156146ea578190505b6146fe6146f6856145c3565b83018261469d565b50505b505050565b600082821c905092915050565b600061472460001984600802614706565b1980831691505092915050565b600061473d8383614713565b9150826002028217905092915050565b614757838361435a565b67ffffffffffffffff8111156147705761476f614448565b5b61477a82546141e5565b6147858282856146c0565b6000601f8311600181146147b457600084156147a2578287013590505b6147ac8582614731565b865550614814565b601f1984166147c2866145ae565b60005b828110156147ea578489013582556001820191506020850194506020810190506147c5565b868310156148075784890135614803601f891682614713565b8355505b6001600288020188555050505b50505050505050565b61482883838361474d565b505050565b6000813561483a816144e3565b80915050919050565b60008160001b9050919050565b600073ffffffffffffffffffffffffffffffffffffffff61487084614843565b9350801983169250808416831791505092915050565b60006148a161489c61489784613748565b614625565b613748565b9050919050565b60006148b382614886565b9050919050565b60006148c5826148a8565b9050919050565b6000819050919050565b6148df826148ba565b6148f26148eb826148cc565b8354614850565b8255505050565b600081016000830161490b818561454b565b61491681838661481d565b5050505060018101602083018061492c8161482d565b905061493881846148d6565b5050505050565b61494982826148f9565b5050565b7f4d696e696d756d207072696365206d757374206265206120706f73697469766560008201527f206e756d62657200000000000000000000000000000000000000000000000000602082015250565b60006149a9602783613ea4565b91506149b48261494d565b604082019050919050565b600060208201905081810360008301526149d88161499c565b9050919050565b7f5468652072656c6174696f6e202830203c205365637572697479204465706f7360008201527f6974203c204d696e696d756d20507269636529206973206e6f7420736174697360208201527f666965642e000000000000000000000000000000000000000000000000000000604082015250565b6000614a61604583613ea4565b9150614a6c826149df565b606082019050919050565b60006020820190508181036000830152614a9081614a54565b9050919050565b7f446174657320617265206e6f7420696e20746865207269676874206f7264657260008201527f2e00000000000000000000000000000000000000000000000000000000000000602082015250565b6000614af3602183613ea4565b9150614afe82614a97565b604082019050919050565b60006020820190508181036000830152614b2281614ae6565b9050919050565b614b3281613934565b8114614b3d57600080fd5b50565b60008135614b4d81614b29565b80915050919050565b6000614b6182614886565b9050919050565b6000614b7382614b56565b9050919050565b6000819050919050565b614b8d82614b68565b614ba0614b9982614b7a565b8354614850565b8255505050565b60008083356001602003843603038112614bc457614bc361453c565b5b80840192508235915067ffffffffffffffff821115614be657614be5614541565b5b602083019250600182023603831315614c0257614c01614546565b5b509250929050565b600082905092915050565b60008190508160005260206000209050919050565b601f821115614c6b57614c3c81614c15565b614c45846145c3565b81016020851015614c54578190505b614c68614c60856145c3565b83018261469d565b50505b505050565b614c7a8383614c0a565b67ffffffffffffffff811115614c9357614c92614448565b5b614c9d82546141e5565b614ca8828285614c2a565b6000601f831160018114614cd75760008415614cc5578287013590505b614ccf8582614731565b865550614d37565b601f198416614ce586614c15565b60005b82811015614d0d57848901358255600182019150602085019450602081019050614ce8565b86831015614d2a5784890135614d26601f891682614713565b8355505b6001600288020188555050505b50505050505050565b614d4b838383614c70565b505050565b60008135614d5d81613591565b80915050919050565b60007fffffffffffffffffffffffffffffffffffffffffffffffffffffffffffffffff614d9284614843565b9350801983169250808416831791505092915050565b614db18261462f565b614dc4614dbd82614651565b8354614d66565b8255505050565b600081016000830180614ddd81614b40565b9050614de98184614b84565b5050506001810160208301614dfe818561454b565b614e0981838661481d565b505050506002810160408301614e1f818561454b565b614e2a81838661481d565b505050506003810160608301614e408185614ba7565b614e4b818386614d40565b505050506004810160808301614e618185614ba7565b614e6c818386614d40565b505050506005810160a08301614e828185614ba7565b614e8d818386614d40565b505050506006810160c0830180614ea381614d50565b9050614eaf8184614da8565b5050506007810160e0830180614ec481614d50565b9050614ed08184614da8565b50505060088101610100830180614ee681614d50565b9050614ef28184614da8565b50505060098101610120830180614f0881614d50565b9050614f148184614da8565b505050600a8101610140830180614f2a81614d50565b9050614f368184614da8565b5050505050565b614f478282614dcb565b5050565b6000614f5682613587565b9150614f6183613587565b925082821015614f7457614f736143d1565b5b828203905092915050565b7f4e487b7100000000000000000000000000000000000000000000000000000000600052603160045260246000fdfea26469706673582212207b05a3cb0af193cbe2728c575e3749c664ddd1190fbd3cbb72c5b2a857e0694264736f6c634300080d0033",
  "immutableReferences": {},
  "source": "// SPDX-License-Identifier: MIT\npragma solidity ^0.8.13;\n\n// NOTE: all currency is wei\n\ncontract SealedBidAuctionManager {\n    struct UserSetAuctionInfo {\n        // administrative\n        address payable owner;\n        bytes params;\n        bytes owner_pkey;\n        // item\n        string itemName;\n        string itemDesc;\n        string itemPicture;\n        // transactional\n        uint256 minimumPrice;\n        uint256 securityDeposit;\n        // dates\n        uint256 biddingEndDate;\n        uint256 revealingEndDate;\n        uint256 sortingEndDate;\n    }\n\n    struct Bid {\n        bool done;\n        // to bid\n        bytes32 c;\n        bytes32 d;\n        // to reveal\n        bytes z;\n    }\n\n    struct AuctionWinner {\n        bytes y;\n        address bidder;\n    }\n\n    struct Auction {\n        uint256 id;\n        UserSetAuctionInfo info;\n        mapping(address => Bid) bids;\n        address[] bidders;\n        AuctionState state;\n        AuctionWinner winner;\n        AuctionWinner[] objections;\n    }\n    struct AuctionByState {\n        uint256 id;\n        UserSetAuctionInfo info;\n    }\n    enum AuctionState {\n        BiddingPhase,\n        RevealingPhase,\n        SortingPhase,\n        Ended\n    }\n\n    Auction[] private auctions;\n\n    // events for logging and subscription\n\n    event NewAuction(uint256 auctionId);\n    event NewBid(uint256 auctionId, address by);\n    event NewReveal(uint256 auctionId, address by);\n    event BidderRemoved(uint256, address who);\n    event WinnerDecided(uint256 auctionId, address who);\n    event ObjectionPlaced(uint256 auctionId, address by);\n    event AuctionEnds(uint256 auctionId, bool success);\n\n    // modifiers for modularity\n\n    modifier SenderDidNotPlaceABid(uint256 auctionId) {\n        if (auctions[auctionId].bids[msg.sender].c.length != 0)\n            revert(\"Sender has already placed a bid!\");\n        _;\n    }\n\n    modifier SenderPlacedABid(uint256 auctionId) {\n        if (auctions[auctionId].bids[msg.sender].c.length == 0)\n            revert(\"Sender has not placed a bid!\");\n        _;\n    }\n\n    modifier SenderIsOwner(uint256 auctionId) {\n        if (msg.sender != auctions[auctionId].info.owner)\n            revert(\"Sender is not the owner!\");\n        _;\n    }\n\n    modifier SenderIsNotOwner(uint256 auctionId) {\n        if (msg.sender != auctions[auctionId].info.owner)\n            revert(\"Sender is the owner!\");\n        _;\n    }\n\n    modifier AuctionIDIsValid(uint256 auctionId) {\n        if (auctionId >= auctions.length) revert(\"Auction ID is not valid!\");\n        _;\n    }\n\n    modifier CheckAuctionState(uint256 auctionId, AuctionState state) {\n        // set it\n        if (block.timestamp < auctions[auctionId].info.biddingEndDate)\n            auctions[auctionId].state = AuctionState.BiddingPhase;\n        else if (block.timestamp < auctions[auctionId].info.revealingEndDate)\n            auctions[auctionId].state = AuctionState.RevealingPhase;\n        else if (block.timestamp < auctions[auctionId].info.sortingEndDate)\n            auctions[auctionId].state = AuctionState.SortingPhase;\n        else auctions[auctionId].state = AuctionState.Ended;\n\n        // check it\n        if (state != auctions[auctionId].state) {\n            revert(\"Inappropriate operation!\");\n        }\n        _;\n    }\n\n    modifier ValueEquals(uint v) {\n        if (msg.value != v) revert(\"Sent value is not right!\");\n        _;\n    }\n\n    // private functions\n\n    function _removeBidder(uint256 auctionId, uint index) internal {\n        require(index < auctions[auctionId].bidders.length);\n\n        auctions[auctionId].bidders[index] = auctions[auctionId].bidders[\n            auctions[auctionId].bidders.length - 1\n        ];\n        auctions[auctionId].bidders.pop();\n    }\n\n    // external functions to be called at any time\n\n    function getNumberOfRegisteredAuctions() external view returns (uint256) {\n        return auctions.length;\n    }\n\n    function createAuction(\n        UserSetAuctionInfo calldata info\n    ) external payable ValueEquals(info.securityDeposit) returns (uint256) {\n        // validation of auction parameters\n        if (info.minimumPrice == 0)\n            revert(\"Minimum price must be a positive number\");\n\n        if (\n            info.securityDeposit > info.minimumPrice ||\n            info.securityDeposit == 0\n        )\n            revert(\n                \"The relation (0 < Security Deposit < Minimum Price) is not satisfied.\"\n            );\n\n        if (\n            !(// info.verificationEndDate > info.sortingEndDate &&\n            info.sortingEndDate > info.revealingEndDate &&\n                info.revealingEndDate > info.biddingEndDate)\n        ) revert(\"Dates are not in the right order.\");\n\n        // valid? add it\n        Auction storage auction = auctions.push();\n\n        auction.id = auctions.length;\n        auction.info = info;\n        auction.state = AuctionState.BiddingPhase;\n\n        emit NewAuction(auction.id);\n        return auction.id;\n    }\n\n    function getAuctionsByState(\n        AuctionState state\n    ) external view returns (AuctionByState[] memory) {\n        uint256 count = 0;\n        for (uint256 i = 0; i < auctions.length; i++) {\n            if (auctions[i].state == state) {\n                count++;\n            }\n        }\n\n        AuctionByState[] memory data = new AuctionByState[](count);\n        uint256 j = 0;\n        for (uint256 i = 0; i < auctions.length; i++) {\n            if (auctions[i].state == state) {\n                data[j].info = auctions[i].info;\n                data[j].id = auctions[i].id;\n                j++;\n            }\n        }\n\n        return data;\n    }\n\n    function getAuctionInfo(\n        uint256 auctionId\n    )\n        external\n        view\n        AuctionIDIsValid(auctionId)\n        returns (UserSetAuctionInfo memory)\n    {\n        return auctions[auctionId].info;\n    }\n\n    // functions to be called throughout the auction process\n\n    function placeBid(\n        uint256 auctionId,\n        bytes calldata c,\n        bytes calldata d\n    )\n        external\n        payable\n        AuctionIDIsValid(auctionId)\n        SenderIsNotOwner(auctionId)\n        SenderDidNotPlaceABid(auctionId)\n        CheckAuctionState(auctionId, AuctionState.BiddingPhase)\n        ValueEquals(auctions[auctionId].info.securityDeposit)\n    {\n        auctions[auctionId].bids[msg.sender] = Bid({\n            done: false,\n            c: bytes32(c),\n            d: bytes32(d),\n            z: bytes(\"\")\n        });\n        auctions[auctionId].bidders[auctions[auctionId].bidders.length] = msg\n            .sender;\n        emit NewBid(auctionId, msg.sender);\n    }\n\n    function revealBid(\n        uint256 auctionId,\n        bytes calldata z\n    )\n        external\n        AuctionIDIsValid(auctionId)\n        SenderPlacedABid(auctionId)\n        CheckAuctionState(auctionId, AuctionState.RevealingPhase)\n    {\n        // verify commitment\n        if (sha256(z) != auctions[auctionId].bids[msg.sender].d)\n            revert(\"Hash is invalid!\");\n\n        auctions[auctionId].bids[msg.sender].z = z;\n        emit NewReveal(auctionId, msg.sender);\n    }\n\n    function getReveals(\n        uint256 auctionId\n    )\n        external\n        AuctionIDIsValid(auctionId)\n        SenderIsOwner(auctionId)\n        CheckAuctionState(auctionId, AuctionState.SortingPhase)\n        returns (bytes[] memory)\n    {\n        uint256 count = 0;\n        for (uint256 i = 0; i < auctions[auctionId].bidders.length; i++) {\n            address bidder = auctions[auctionId].bidders[i];\n            if (auctions[auctionId].bids[bidder].z.length == 0) {\n                // remove them, no refunds\n                _removeBidder(auctionId, i);\n                emit BidderRemoved(auctionId, bidder);\n            } else {\n                count++;\n            }\n        }\n\n        bytes[] memory zs = new bytes[](count);\n        for (uint256 i = 0; i < auctions[auctionId].bidders.length; i++) {\n            zs[i] = auctions[auctionId].bids[auctions[auctionId].bidders[i]].z;\n        }\n\n        return zs;\n    }\n\n    function declareWinner(\n        uint256 auctionId,\n        AuctionWinner calldata winner\n    )\n        external\n        AuctionIDIsValid(auctionId)\n        SenderIsOwner(auctionId)\n        CheckAuctionState(auctionId, AuctionState.SortingPhase)\n    {\n        // verify commitment\n        if (sha256(winner.y) != auctions[auctionId].bids[winner.bidder].c)\n            revert(\"Hash is invalid!\");\n\n        auctions[auctionId].winner = winner;\n        emit WinnerDecided(auctionId, winner.bidder);\n    }\n\n    function getWinner(\n        uint256 auctionId\n    ) external view AuctionIDIsValid(auctionId) returns (AuctionWinner memory) {\n        return auctions[auctionId].winner;\n    }\n\n    function returnDeposit(\n        uint256 auctionId\n    )\n        external\n        AuctionIDIsValid(auctionId)\n        SenderPlacedABid(auctionId)\n        CheckAuctionState(auctionId, AuctionState.Ended)\n    {\n        // no re-entrancy attacks!\n        if (\n            auctions[auctionId].bids[msg.sender].done == false &&\n            msg.sender != auctions[auctionId].winner.bidder\n        ) {\n            auctions[auctionId].bids[msg.sender].done = true;\n        }\n        payable(msg.sender).transfer(auctions[auctionId].info.securityDeposit);\n    }\n\n    function objectToTheWinner(\n        uint256 auctionId,\n        bytes calldata y\n    )\n        external\n        AuctionIDIsValid(auctionId)\n        SenderPlacedABid(auctionId)\n        CheckAuctionState(auctionId, AuctionState.Ended)\n    {\n        if (sha256(y) != auctions[auctionId].bids[msg.sender].c)\n            revert(\"Hash is invalid!\");\n\n        AuctionWinner storage objection = auctions[auctionId].objections.push();\n        objection.y = y;\n        objection.bidder = msg.sender;\n        emit ObjectionPlaced(auctionId, msg.sender);\n    }\n}\n",
  "sourcePath": "/home/amr/fghdh/auction-system-webapp/contracts/contracts/SealedBidAuctionManager.sol",
  "compiler": {
    "name": "solc",
    "version": "0.8.13+commit.abaa5c0e.Emscripten.clang"
  },
  "schemaVersion": "3.4.13",
  "updatedAt": "2023-07-05T11:59:54.419Z",
  "networkType": "ethereum",
  "devdoc": {
    "kind": "dev",
    "methods": {},
    "version": 1
  },
  "userdoc": {
    "kind": "user",
    "methods": {},
    "version": 1
  }
}