{
  "contractName": "SealedBidAuctionManager",
  "abi": [
    {
      "anonymous": false,
      "inputs": [
        {
          "indexed": false,
          "internalType": "uint256",
          "name": "auctionId",
          "type": "uint256"
        },
        {
          "indexed": false,
          "internalType": "bool",
          "name": "success",
          "type": "bool"
        }
      ],
      "name": "AuctionEnds",
      "type": "event"
    },
    {
      "anonymous": false,
      "inputs": [
        {
          "indexed": false,
          "internalType": "uint256",
          "name": "",
          "type": "uint256"
        },
        {
          "indexed": false,
          "internalType": "address",
          "name": "who",
          "type": "address"
        }
      ],
      "name": "BidderRemoved",
      "type": "event"
    },
    {
      "anonymous": false,
      "inputs": [
        {
          "indexed": false,
          "internalType": "uint256",
          "name": "auctionId",
          "type": "uint256"
        }
      ],
      "name": "NewAuction",
      "type": "event"
    },
    {
      "anonymous": false,
      "inputs": [
        {
          "indexed": false,
          "internalType": "uint256",
          "name": "auctionId",
          "type": "uint256"
        },
        {
          "indexed": false,
          "internalType": "address",
          "name": "by",
          "type": "address"
        }
      ],
      "name": "NewBid",
      "type": "event"
    },
    {
      "anonymous": false,
      "inputs": [
        {
          "indexed": false,
          "internalType": "uint256",
          "name": "auctionId",
          "type": "uint256"
        },
        {
          "indexed": false,
          "internalType": "address",
          "name": "by",
          "type": "address"
        }
      ],
      "name": "NewReveal",
      "type": "event"
    },
    {
      "anonymous": false,
      "inputs": [
        {
          "indexed": false,
          "internalType": "uint256",
          "name": "auctionId",
          "type": "uint256"
        }
      ],
      "name": "WinnerDecided",
      "type": "event"
    },
    {
      "inputs": [],
      "name": "getNumberOfRegisteredAuctions",
      "outputs": [
        {
          "internalType": "uint256",
          "name": "",
          "type": "uint256"
        }
      ],
      "stateMutability": "view",
      "type": "function",
      "constant": true
    },
    {
      "inputs": [
        {
          "components": [
            {
              "internalType": "address payable",
              "name": "owner",
              "type": "address"
            },
            {
              "internalType": "string",
              "name": "params",
              "type": "string"
            },
            {
              "internalType": "string",
              "name": "owner_pkey",
              "type": "string"
            },
            {
              "internalType": "string",
              "name": "itemName",
              "type": "string"
            },
            {
              "internalType": "string",
              "name": "itemDesc",
              "type": "string"
            },
            {
              "internalType": "string",
              "name": "itemPicture",
              "type": "string"
            },
            {
              "internalType": "uint256",
              "name": "minimumPrice",
              "type": "uint256"
            },
            {
              "internalType": "uint256",
              "name": "securityDeposit",
              "type": "uint256"
            },
            {
              "internalType": "uint256",
              "name": "biddingEndDate",
              "type": "uint256"
            },
            {
              "internalType": "uint256",
              "name": "revealingEndDate",
              "type": "uint256"
            },
            {
              "internalType": "uint256",
              "name": "sortingEndDate",
              "type": "uint256"
            }
          ],
          "internalType": "struct SealedBidAuctionManager.UserSetAuctionInfo",
          "name": "info",
          "type": "tuple"
        }
      ],
      "name": "createAuction",
      "outputs": [
        {
          "internalType": "uint256",
          "name": "",
          "type": "uint256"
        }
      ],
      "stateMutability": "payable",
      "type": "function",
      "payable": true
    },
    {
      "inputs": [
        {
          "internalType": "enum SealedBidAuctionManager.AuctionState",
          "name": "state",
          "type": "uint8"
        }
      ],
      "name": "getAuctionsByState",
      "outputs": [
        {
          "components": [
            {
              "internalType": "address payable",
              "name": "owner",
              "type": "address"
            },
            {
              "internalType": "string",
              "name": "params",
              "type": "string"
            },
            {
              "internalType": "string",
              "name": "owner_pkey",
              "type": "string"
            },
            {
              "internalType": "string",
              "name": "itemName",
              "type": "string"
            },
            {
              "internalType": "string",
              "name": "itemDesc",
              "type": "string"
            },
            {
              "internalType": "string",
              "name": "itemPicture",
              "type": "string"
            },
            {
              "internalType": "uint256",
              "name": "minimumPrice",
              "type": "uint256"
            },
            {
              "internalType": "uint256",
              "name": "securityDeposit",
              "type": "uint256"
            },
            {
              "internalType": "uint256",
              "name": "biddingEndDate",
              "type": "uint256"
            },
            {
              "internalType": "uint256",
              "name": "revealingEndDate",
              "type": "uint256"
            },
            {
              "internalType": "uint256",
              "name": "sortingEndDate",
              "type": "uint256"
            }
          ],
          "internalType": "struct SealedBidAuctionManager.UserSetAuctionInfo[]",
          "name": "",
          "type": "tuple[]"
        }
      ],
      "stateMutability": "view",
      "type": "function",
      "constant": true
    },
    {
      "inputs": [
        {
          "internalType": "uint256",
          "name": "auctionId",
          "type": "uint256"
        }
      ],
      "name": "getAuctionInfo",
      "outputs": [
        {
          "components": [
            {
              "internalType": "address payable",
              "name": "owner",
              "type": "address"
            },
            {
              "internalType": "string",
              "name": "params",
              "type": "string"
            },
            {
              "internalType": "string",
              "name": "owner_pkey",
              "type": "string"
            },
            {
              "internalType": "string",
              "name": "itemName",
              "type": "string"
            },
            {
              "internalType": "string",
              "name": "itemDesc",
              "type": "string"
            },
            {
              "internalType": "string",
              "name": "itemPicture",
              "type": "string"
            },
            {
              "internalType": "uint256",
              "name": "minimumPrice",
              "type": "uint256"
            },
            {
              "internalType": "uint256",
              "name": "securityDeposit",
              "type": "uint256"
            },
            {
              "internalType": "uint256",
              "name": "biddingEndDate",
              "type": "uint256"
            },
            {
              "internalType": "uint256",
              "name": "revealingEndDate",
              "type": "uint256"
            },
            {
              "internalType": "uint256",
              "name": "sortingEndDate",
              "type": "uint256"
            }
          ],
          "internalType": "struct SealedBidAuctionManager.UserSetAuctionInfo",
          "name": "",
          "type": "tuple"
        }
      ],
      "stateMutability": "view",
      "type": "function",
      "constant": true
    },
    {
      "inputs": [
        {
          "internalType": "uint256",
          "name": "auctionId",
          "type": "uint256"
        },
        {
          "internalType": "string",
          "name": "c",
          "type": "string"
        },
        {
          "internalType": "string",
          "name": "d",
          "type": "string"
        }
      ],
      "name": "placeBid",
      "outputs": [],
      "stateMutability": "payable",
      "type": "function",
      "payable": true
    },
    {
      "inputs": [
        {
          "internalType": "uint256",
          "name": "auctionId",
          "type": "uint256"
        },
        {
          "internalType": "string",
          "name": "z",
          "type": "string"
        }
      ],
      "name": "revealBid",
      "outputs": [],
      "stateMutability": "nonpayable",
      "type": "function"
    },
    {
      "inputs": [
        {
          "internalType": "uint256",
          "name": "auctionId",
          "type": "uint256"
        }
      ],
      "name": "getReveals",
      "outputs": [
        {
          "internalType": "string[]",
          "name": "",
          "type": "string[]"
        }
      ],
      "stateMutability": "nonpayable",
      "type": "function"
    },
    {
      "inputs": [
        {
          "internalType": "uint256",
          "name": "auctionId",
          "type": "uint256"
        },
        {
          "components": [
            {
              "internalType": "string",
              "name": "y",
              "type": "string"
            },
            {
              "internalType": "address",
              "name": "bidder",
              "type": "address"
            }
          ],
          "internalType": "struct SealedBidAuctionManager.AuctionWinner",
          "name": "winner",
          "type": "tuple"
        }
      ],
      "name": "declareWinner",
      "outputs": [],
      "stateMutability": "nonpayable",
      "type": "function"
    },
    {
      "inputs": [
        {
          "internalType": "uint256",
          "name": "auctionId",
          "type": "uint256"
        }
      ],
      "name": "getWinner",
      "outputs": [
        {
          "components": [
            {
              "internalType": "string",
              "name": "y",
              "type": "string"
            },
            {
              "internalType": "address",
              "name": "bidder",
              "type": "address"
            }
          ],
          "internalType": "struct SealedBidAuctionManager.AuctionWinner",
          "name": "",
          "type": "tuple"
        }
      ],
      "stateMutability": "view",
      "type": "function",
      "constant": true
    },
    {
      "inputs": [
        {
          "internalType": "uint256",
          "name": "auctionId",
          "type": "uint256"
        }
      ],
      "name": "returnDeposit",
      "outputs": [],
      "stateMutability": "nonpayable",
      "type": "function"
    }
  ],
  "bytecode": "0x608060405234801561001057600080fd5b506148a6806100206000396000f3fe6080604052600436106100915760003560e01c806345e481a31161005957806345e481a31461016a578063684e38ee1461019557806397d9ee52146101d2578063cd332b221461020f578063fc3fc4ed1461023f57610091565b806318b683fb146100965780632093b667146100bf5780632163b8c5146100e85780632b58fb3c146101115780634129b2c91461012d575b600080fd5b3480156100a257600080fd5b506100bd60048036038101906100b89190613119565b61027c565b005b3480156100cb57600080fd5b506100e660048036038101906100e1919061316a565b6107d6565b005b3480156100f457600080fd5b5061010f600480360381019061010a919061322b565b610cd5565b005b61012b6004803603810190610126919061328b565b6111ea565b005b34801561013957600080fd5b50610154600480360381019061014f9190613119565b6118e0565b6040516101619190613437565b60405180910390f35b34801561017657600080fd5b5061017f611a50565b60405161018c9190613468565b60405180910390f35b3480156101a157600080fd5b506101bc60048036038101906101b791906134a8565b611a5c565b6040516101c991906136d2565b60405180910390f35b3480156101de57600080fd5b506101f960048036038101906101f49190613119565b611f94565b60405161020691906137b6565b60405180910390f35b610229600480360381019061022491906137f8565b612699565b6040516102369190613468565b60405180910390f35b34801561024b57600080fd5b5061026660048036038101906102619190613119565b612945565b604051610273919061394c565b60405180910390f35b8060008054905081106102c4576040517f08c379a00000000000000000000000000000000000000000000000000000000081526004016102bb906139cb565b60405180910390fd5b8160008082815481106102da576102d96139eb565b5b9060005260206000209060110201600c0160003373ffffffffffffffffffffffffffffffffffffffff1673ffffffffffffffffffffffffffffffffffffffff16815260200190815260200160002050602060ff160361036e576040517f08c379a000000000000000000000000000000000000000000000000000000000815260040161036590613a66565b60405180910390fd5b82600360008281548110610385576103846139eb565b5b9060005260206000209060110201600101600801544210156103f35760008083815481106103b6576103b56139eb565b5b9060005260206000209060110201600e0160006101000a81548160ff021916908360038111156103e9576103e8613a86565b5b021790555061054a565b60008281548110610407576104066139eb565b5b90600052602060002090601102016001016009015442101561047657600160008381548110610439576104386139eb565b5b9060005260206000209060110201600e0160006101000a81548160ff0219169083600381111561046c5761046b613a86565b5b0217905550610549565b6000828154811061048a576104896139eb565b5b9060005260206000209060110201600101600a01544210156104f9576002600083815481106104bc576104bb6139eb565b5b9060005260206000209060110201600e0160006101000a81548160ff021916908360038111156104ef576104ee613a86565b5b0217905550610548565b60036000838154811061050f5761050e6139eb565b5b9060005260206000209060110201600e0160006101000a81548160ff0219169083600381111561054257610541613a86565b5b02179055505b5b5b6000828154811061055e5761055d6139eb565b5b9060005260206000209060110201600e0160009054906101000a900460ff16600381111561058f5761058e613a86565b5b8160038111156105a2576105a1613a86565b5b146105e2576040517f08c379a00000000000000000000000000000000000000000000000000000000081526004016105d990613b01565b60405180910390fd5b60001515600086815481106105fa576105f96139eb565b5b9060005260206000209060110201600c0160003373ffffffffffffffffffffffffffffffffffffffff1673ffffffffffffffffffffffffffffffffffffffff16815260200190815260200160002060000160009054906101000a900460ff1615151480156106dc575060008581548110610677576106766139eb565b5b9060005260206000209060110201600f0160010160009054906101000a900473ffffffffffffffffffffffffffffffffffffffff1673ffffffffffffffffffffffffffffffffffffffff163373ffffffffffffffffffffffffffffffffffffffff1614155b15610760576001600086815481106106f7576106f66139eb565b5b9060005260206000209060110201600c0160003373ffffffffffffffffffffffffffffffffffffffff1673ffffffffffffffffffffffffffffffffffffffff16815260200190815260200160002060000160006101000a81548160ff0219169083151502179055505b3373ffffffffffffffffffffffffffffffffffffffff166108fc6000878154811061078e5761078d6139eb565b5b9060005260206000209060110201600101600701549081150290604051600060405180830381858888f193505050501580156107ce573d6000803e3d6000fd5b505050505050565b81600080549050811061081e576040517f08c379a0000000000000000000000000000000000000000000000000000000008152600401610815906139cb565b60405180910390fd5b8260008181548110610833576108326139eb565b5b906000526020600020906011020160010160000160009054906101000a900473ffffffffffffffffffffffffffffffffffffffff1673ffffffffffffffffffffffffffffffffffffffff163373ffffffffffffffffffffffffffffffffffffffff16146108d5576040517f08c379a00000000000000000000000000000000000000000000000000000000081526004016108cc90613b6d565b60405180910390fd5b836002600082815481106108ec576108eb6139eb565b5b90600052602060002090601102016001016008015442101561095a57600080838154811061091d5761091c6139eb565b5b9060005260206000209060110201600e0160006101000a81548160ff021916908360038111156109505761094f613a86565b5b0217905550610ab1565b6000828154811061096e5761096d6139eb565b5b9060005260206000209060110201600101600901544210156109dd576001600083815481106109a05761099f6139eb565b5b9060005260206000209060110201600e0160006101000a81548160ff021916908360038111156109d3576109d2613a86565b5b0217905550610ab0565b600082815481106109f1576109f06139eb565b5b9060005260206000209060110201600101600a0154421015610a6057600260008381548110610a2357610a226139eb565b5b9060005260206000209060110201600e0160006101000a81548160ff02191690836003811115610a5657610a55613a86565b5b0217905550610aaf565b600360008381548110610a7657610a756139eb565b5b9060005260206000209060110201600e0160006101000a81548160ff02191690836003811115610aa957610aa8613a86565b5b02179055505b5b5b60008281548110610ac557610ac46139eb565b5b9060005260206000209060110201600e0160009054906101000a900460ff166003811115610af657610af5613a86565b5b816003811115610b0957610b08613a86565b5b14610b49576040517f08c379a0000000000000000000000000000000000000000000000000000000008152600401610b4090613b01565b60405180910390fd5b60008681548110610b5d57610b5c6139eb565b5b9060005260206000209060110201600c016000866020016020810190610b839190613bb9565b73ffffffffffffffffffffffffffffffffffffffff1673ffffffffffffffffffffffffffffffffffffffff168152602001908152602001600020600101546002868060000190610bd39190613bf5565b604051610be1929190613c97565b602060405180830381855afa158015610bfe573d6000803e3d6000fd5b5050506040513d601f19601f82011682018060405250810190610c219190613ce6565b14610c61576040517f08c379a0000000000000000000000000000000000000000000000000000000008152600401610c5890613d5f565b60405180910390fd5b8460008781548110610c7657610c756139eb565b5b9060005260206000209060110201600f018181610c9391906141b7565b9050507f0dfe3c139eda10ac8ad090855d58512ef7e6d48784a57307084c1903ff26f4f986604051610cc59190613468565b60405180910390a1505050505050565b826000805490508110610d1d576040517f08c379a0000000000000000000000000000000000000000000000000000000008152600401610d14906139cb565b60405180910390fd5b836000808281548110610d3357610d326139eb565b5b9060005260206000209060110201600c0160003373ffffffffffffffffffffffffffffffffffffffff1673ffffffffffffffffffffffffffffffffffffffff16815260200190815260200160002050602060ff1603610dc7576040517f08c379a0000000000000000000000000000000000000000000000000000000008152600401610dbe90613a66565b60405180910390fd5b84600160008281548110610dde57610ddd6139eb565b5b906000526020600020906011020160010160080154421015610e4c576000808381548110610e0f57610e0e6139eb565b5b9060005260206000209060110201600e0160006101000a81548160ff02191690836003811115610e4257610e41613a86565b5b0217905550610fa3565b60008281548110610e6057610e5f6139eb565b5b906000526020600020906011020160010160090154421015610ecf57600160008381548110610e9257610e916139eb565b5b9060005260206000209060110201600e0160006101000a81548160ff02191690836003811115610ec557610ec4613a86565b5b0217905550610fa2565b60008281548110610ee357610ee26139eb565b5b9060005260206000209060110201600101600a0154421015610f5257600260008381548110610f1557610f146139eb565b5b9060005260206000209060110201600e0160006101000a81548160ff02191690836003811115610f4857610f47613a86565b5b0217905550610fa1565b600360008381548110610f6857610f676139eb565b5b9060005260206000209060110201600e0160006101000a81548160ff02191690836003811115610f9b57610f9a613a86565b5b02179055505b5b5b60008281548110610fb757610fb66139eb565b5b9060005260206000209060110201600e0160009054906101000a900460ff166003811115610fe857610fe7613a86565b5b816003811115610ffb57610ffa613a86565b5b1461103b576040517f08c379a000000000000000000000000000000000000000000000000000000000815260040161103290613b01565b60405180910390fd5b6000878154811061104f5761104e6139eb565b5b9060005260206000209060110201600c0160003373ffffffffffffffffffffffffffffffffffffffff1673ffffffffffffffffffffffffffffffffffffffff16815260200190815260200160002060020154600287876040516110b3929190613c97565b602060405180830381855afa1580156110d0573d6000803e3d6000fd5b5050506040513d601f19601f820116820180604052508101906110f39190613ce6565b14611133576040517f08c379a000000000000000000000000000000000000000000000000000000000815260040161112a90613d5f565b60405180910390fd5b858560008981548110611149576111486139eb565b5b9060005260206000209060110201600c0160003373ffffffffffffffffffffffffffffffffffffffff1673ffffffffffffffffffffffffffffffffffffffff16815260200190815260200160002060030191906111a7929190612f10565b507fda9ad1af3b211e24edbe9ac3a27ce5cde27c6f44ae790099959efa1472c6be3e87336040516111d99291906141d4565b60405180910390a150505050505050565b846000805490508110611232576040517f08c379a0000000000000000000000000000000000000000000000000000000008152600401611229906139cb565b60405180910390fd5b8560008181548110611247576112466139eb565b5b906000526020600020906011020160010160000160009054906101000a900473ffffffffffffffffffffffffffffffffffffffff1673ffffffffffffffffffffffffffffffffffffffff163373ffffffffffffffffffffffffffffffffffffffff16146112e9576040517f08c379a00000000000000000000000000000000000000000000000000000000081526004016112e090614249565b60405180910390fd5b8660008082815481106112ff576112fe6139eb565b5b9060005260206000209060110201600c0160003373ffffffffffffffffffffffffffffffffffffffff1673ffffffffffffffffffffffffffffffffffffffff16815260200190815260200160002050602060ff1614611393576040517f08c379a000000000000000000000000000000000000000000000000000000000815260040161138a906142b5565b60405180910390fd5b8760008082815481106113a9576113a86139eb565b5b9060005260206000209060110201600101600801544210156114175760008083815481106113da576113d96139eb565b5b9060005260206000209060110201600e0160006101000a81548160ff0219169083600381111561140d5761140c613a86565b5b021790555061156e565b6000828154811061142b5761142a6139eb565b5b90600052602060002090601102016001016009015442101561149a5760016000838154811061145d5761145c6139eb565b5b9060005260206000209060110201600e0160006101000a81548160ff021916908360038111156114905761148f613a86565b5b021790555061156d565b600082815481106114ae576114ad6139eb565b5b9060005260206000209060110201600101600a015442101561151d576002600083815481106114e0576114df6139eb565b5b9060005260206000209060110201600e0160006101000a81548160ff0219169083600381111561151357611512613a86565b5b021790555061156c565b600360008381548110611533576115326139eb565b5b9060005260206000209060110201600e0160006101000a81548160ff0219169083600381111561156657611565613a86565b5b02179055505b5b5b60008281548110611582576115816139eb565b5b9060005260206000209060110201600e0160009054906101000a900460ff1660038111156115b3576115b2613a86565b5b8160038111156115c6576115c5613a86565b5b14611606576040517f08c379a00000000000000000000000000000000000000000000000000000000081526004016115fd90613b01565b60405180910390fd5b60008a8154811061161a576116196139eb565b5b906000526020600020906011020160010160070154803414611671576040517f08c379a000000000000000000000000000000000000000000000000000000000815260040161166890614321565b60405180910390fd5b60405180608001604052806000151581526020016116d28c8c8080601f016020809104026020016040519081016040528093929190818152602001838380828437600081840152601f19601f82011690508083019250505050505050612d30565b81526020016117248a8a8080601f016020809104026020016040519081016040528093929190818152602001838380828437600081840152601f19601f82011690508083019250505050505050612d30565b81526020016040518060200160405280600081525081525060008c815481106117505761174f6139eb565b5b9060005260206000209060110201600c0160003373ffffffffffffffffffffffffffffffffffffffff1673ffffffffffffffffffffffffffffffffffffffff16815260200190815260200160002060008201518160000160006101000a81548160ff021916908315150217905550602082015181600101556040820151816002015560608201518160030190805190602001906117ee929190612f96565b509050503360008c81548110611807576118066139eb565b5b9060005260206000209060110201600d0160008d8154811061182c5761182b6139eb565b5b9060005260206000209060110201600d018054905081548110611852576118516139eb565b5b9060005260206000200160006101000a81548173ffffffffffffffffffffffffffffffffffffffff021916908373ffffffffffffffffffffffffffffffffffffffff1602179055507f45401769c1d58f70bd6b63e1a66bfc17d712ce0dc4ffb8d2dd0ad7177d56a3868b336040516118cb9291906141d4565b60405180910390a15050505050505050505050565b6118e861301c565b816000805490508110611930576040517f08c379a0000000000000000000000000000000000000000000000000000000008152600401611927906139cb565b60405180910390fd5b60008381548110611944576119436139eb565b5b9060005260206000209060110201600f0160405180604001604052908160008201805461197090613de8565b80601f016020809104026020016040519081016040528092919081815260200182805461199c90613de8565b80156119e95780601f106119be576101008083540402835291602001916119e9565b820191906000526020600020905b8154815290600101906020018083116119cc57829003601f168201915b505050505081526020016001820160009054906101000a900473ffffffffffffffffffffffffffffffffffffffff1673ffffffffffffffffffffffffffffffffffffffff1673ffffffffffffffffffffffffffffffffffffffff1681525050915050919050565b60008080549050905090565b60606000805b600080549050811015611aee57836003811115611a8257611a81613a86565b5b60008281548110611a9657611a956139eb565b5b9060005260206000209060110201600e0160009054906101000a900460ff166003811115611ac757611ac6613a86565b5b03611adb578180611ad790614370565b9250505b8080611ae690614370565b915050611a62565b5060008167ffffffffffffffff811115611b0b57611b0a613d8a565b5b604051908082528060200260200182016040528015611b4457816020015b611b3161304c565b815260200190600190039081611b295790505b5090506000805b600080549050811015611f8857856003811115611b6b57611b6a613a86565b5b60008281548110611b7f57611b7e6139eb565b5b9060005260206000209060110201600e0160009054906101000a900460ff166003811115611bb057611baf613a86565b5b03611f755760008181548110611bc957611bc86139eb565b5b9060005260206000209060110201600101604051806101600160405290816000820160009054906101000a900473ffffffffffffffffffffffffffffffffffffffff1673ffffffffffffffffffffffffffffffffffffffff1673ffffffffffffffffffffffffffffffffffffffff168152602001600182018054611c4c90613de8565b80601f0160208091040260200160405190810160405280929190818152602001828054611c7890613de8565b8015611cc55780601f10611c9a57610100808354040283529160200191611cc5565b820191906000526020600020905b815481529060010190602001808311611ca857829003601f168201915b50505050508152602001600282018054611cde90613de8565b80601f0160208091040260200160405190810160405280929190818152602001828054611d0a90613de8565b8015611d575780601f10611d2c57610100808354040283529160200191611d57565b820191906000526020600020905b815481529060010190602001808311611d3a57829003601f168201915b50505050508152602001600382018054611d7090613de8565b80601f0160208091040260200160405190810160405280929190818152602001828054611d9c90613de8565b8015611de95780601f10611dbe57610100808354040283529160200191611de9565b820191906000526020600020905b815481529060010190602001808311611dcc57829003601f168201915b50505050508152602001600482018054611e0290613de8565b80601f0160208091040260200160405190810160405280929190818152602001828054611e2e90613de8565b8015611e7b5780601f10611e5057610100808354040283529160200191611e7b565b820191906000526020600020905b815481529060010190602001808311611e5e57829003601f168201915b50505050508152602001600582018054611e9490613de8565b80601f0160208091040260200160405190810160405280929190818152602001828054611ec090613de8565b8015611f0d5780601f10611ee257610100808354040283529160200191611f0d565b820191906000526020600020905b815481529060010190602001808311611ef057829003601f168201915b5050505050815260200160068201548152602001600782015481526020016008820154815260200160098201548152602001600a82015481525050838381518110611f5b57611f5a6139eb565b5b60200260200101819052508180611f7190614370565b9250505b8080611f8090614370565b915050611b4b565b50819350505050919050565b6060816000805490508110611fde576040517f08c379a0000000000000000000000000000000000000000000000000000000008152600401611fd5906139cb565b60405180910390fd5b8260008181548110611ff357611ff26139eb565b5b906000526020600020906011020160010160000160009054906101000a900473ffffffffffffffffffffffffffffffffffffffff1673ffffffffffffffffffffffffffffffffffffffff163373ffffffffffffffffffffffffffffffffffffffff1614612095576040517f08c379a000000000000000000000000000000000000000000000000000000000815260040161208c90613b6d565b60405180910390fd5b836002600082815481106120ac576120ab6139eb565b5b90600052602060002090601102016001016008015442101561211a5760008083815481106120dd576120dc6139eb565b5b9060005260206000209060110201600e0160006101000a81548160ff021916908360038111156121105761210f613a86565b5b0217905550612271565b6000828154811061212e5761212d6139eb565b5b90600052602060002090601102016001016009015442101561219d576001600083815481106121605761215f6139eb565b5b9060005260206000209060110201600e0160006101000a81548160ff0219169083600381111561219357612192613a86565b5b0217905550612270565b600082815481106121b1576121b06139eb565b5b9060005260206000209060110201600101600a0154421015612220576002600083815481106121e3576121e26139eb565b5b9060005260206000209060110201600e0160006101000a81548160ff0219169083600381111561221657612215613a86565b5b021790555061226f565b600360008381548110612236576122356139eb565b5b9060005260206000209060110201600e0160006101000a81548160ff0219169083600381111561226957612268613a86565b5b02179055505b5b5b60008281548110612285576122846139eb565b5b9060005260206000209060110201600e0160009054906101000a900460ff1660038111156122b6576122b5613a86565b5b8160038111156122c9576122c8613a86565b5b14612309576040517f08c379a000000000000000000000000000000000000000000000000000000000815260040161230090613b01565b60405180910390fd5b6000805b60008881548110612321576123206139eb565b5b9060005260206000209060110201600d0180549050811015612485576000808981548110612352576123516139eb565b5b9060005260206000209060110201600d018281548110612375576123746139eb565b5b9060005260206000200160009054906101000a900473ffffffffffffffffffffffffffffffffffffffff1690506000808a815481106123b7576123b66139eb565b5b9060005260206000209060110201600c0160008373ffffffffffffffffffffffffffffffffffffffff1673ffffffffffffffffffffffffffffffffffffffff168152602001908152602001600020600301805461241390613de8565b905003612462576124248983612d59565b7f4ddf4c0e94fa7c3fcf8474005bf8b72858bbc3afbeecaee663000ca4eeb2b9bd89826040516124559291906141d4565b60405180910390a1612471565b828061246d90614370565b9350505b50808061247d90614370565b91505061230d565b5060008167ffffffffffffffff8111156124a2576124a1613d8a565b5b6040519080825280602002602001820160405280156124d557816020015b60608152602001906001900390816124c05790505b50905060005b600089815481106124ef576124ee6139eb565b5b9060005260206000209060110201600d018054905081101561268a576000898154811061251f5761251e6139eb565b5b9060005260206000209060110201600c016000808b81548110612545576125446139eb565b5b9060005260206000209060110201600d018381548110612568576125676139eb565b5b9060005260206000200160009054906101000a900473ffffffffffffffffffffffffffffffffffffffff1673ffffffffffffffffffffffffffffffffffffffff1673ffffffffffffffffffffffffffffffffffffffff16815260200190815260200160002060030180546125db90613de8565b80601f016020809104026020016040519081016040528092919081815260200182805461260790613de8565b80156126545780601f1061262957610100808354040283529160200191612654565b820191906000526020600020905b81548152906001019060200180831161263757829003601f168201915b505050505082828151811061266c5761266b6139eb565b5b6020026020010181905250808061268290614370565b9150506124db565b50809650505050505050919050565b60008160e001358034146126e2576040517f08c379a00000000000000000000000000000000000000000000000000000000081526004016126d990614321565b60405180910390fd5b60008360c0013503612729576040517f08c379a00000000000000000000000000000000000000000000000000000000081526004016127209061442a565b60405180910390fd5b8260c001358360e001351180612743575060008360e00135145b15612783576040517f08c379a000000000000000000000000000000000000000000000000000000000815260040161277a906144e2565b60405180910390fd5b8261012001358361014001351180156127a55750826101000135836101200135115b6127e4576040517f08c379a00000000000000000000000000000000000000000000000000000000081526004016127db90614574565b60405180910390fd5b600080600181600181540180825580915050039060005260206000209060110201905060008054905081600001819055508381600101818161282691906147ff565b905050600081600e0160006101000a81548160ff0219169083600381111561285157612850613a86565b5b02179055506040518060400160405280604051806020016040528060008152508152602001600073ffffffffffffffffffffffffffffffffffffffff1681525081600f0160008201518160000190805190602001906128b1929190612f96565b5060208201518160010160006101000a81548173ffffffffffffffffffffffffffffffffffffffff021916908373ffffffffffffffffffffffffffffffffffffffff1602179055509050507fbdba0fc2c85fe021acfa560c047f0a846648b1b504aa94ab6557cabb04b94258816000015460405161292f9190613468565b60405180910390a1806000015492505050919050565b61294d61304c565b816000805490508110612995576040517f08c379a000000000000000000000000000000000000000000000000000000000815260040161298c906139cb565b60405180910390fd5b600083815481106129a9576129a86139eb565b5b9060005260206000209060110201600101604051806101600160405290816000820160009054906101000a900473ffffffffffffffffffffffffffffffffffffffff1673ffffffffffffffffffffffffffffffffffffffff1673ffffffffffffffffffffffffffffffffffffffff168152602001600182018054612a2c90613de8565b80601f0160208091040260200160405190810160405280929190818152602001828054612a5890613de8565b8015612aa55780601f10612a7a57610100808354040283529160200191612aa5565b820191906000526020600020905b815481529060010190602001808311612a8857829003601f168201915b50505050508152602001600282018054612abe90613de8565b80601f0160208091040260200160405190810160405280929190818152602001828054612aea90613de8565b8015612b375780601f10612b0c57610100808354040283529160200191612b37565b820191906000526020600020905b815481529060010190602001808311612b1a57829003601f168201915b50505050508152602001600382018054612b5090613de8565b80601f0160208091040260200160405190810160405280929190818152602001828054612b7c90613de8565b8015612bc95780601f10612b9e57610100808354040283529160200191612bc9565b820191906000526020600020905b815481529060010190602001808311612bac57829003601f168201915b50505050508152602001600482018054612be290613de8565b80601f0160208091040260200160405190810160405280929190818152602001828054612c0e90613de8565b8015612c5b5780601f10612c3057610100808354040283529160200191612c5b565b820191906000526020600020905b815481529060010190602001808311612c3e57829003601f168201915b50505050508152602001600582018054612c7490613de8565b80601f0160208091040260200160405190810160405280929190818152602001828054612ca090613de8565b8015612ced5780601f10612cc257610100808354040283529160200191612ced565b820191906000526020600020905b815481529060010190602001808311612cd057829003601f168201915b5050505050815260200160068201548152602001600782015481526020016008820154815260200160098201548152602001600a82015481525050915050919050565b6000808290506000815103612d4b576000801b915050612d54565b60208301519150505b919050565b60008281548110612d6d57612d6c6139eb565b5b9060005260206000209060110201600d01805490508110612d8d57600080fd5b60008281548110612da157612da06139eb565b5b9060005260206000209060110201600d01600160008481548110612dc857612dc76139eb565b5b9060005260206000209060110201600d0180549050612de7919061480d565b81548110612df857612df76139eb565b5b9060005260206000200160009054906101000a900473ffffffffffffffffffffffffffffffffffffffff1660008381548110612e3757612e366139eb565b5b9060005260206000209060110201600d018281548110612e5a57612e596139eb565b5b9060005260206000200160006101000a81548173ffffffffffffffffffffffffffffffffffffffff021916908373ffffffffffffffffffffffffffffffffffffffff16021790555060008281548110612eb657612eb56139eb565b5b9060005260206000209060110201600d01805480612ed757612ed6614841565b5b6001900381819060005260206000200160006101000a81549073ffffffffffffffffffffffffffffffffffffffff021916905590555050565b828054612f1c90613de8565b90600052602060002090601f016020900481019282612f3e5760008555612f85565b82601f10612f5757803560ff1916838001178555612f85565b82800160010185558215612f85579182015b82811115612f84578235825591602001919060010190612f69565b5b509050612f9291906130bc565b5090565b828054612fa290613de8565b90600052602060002090601f016020900481019282612fc4576000855561300b565b82601f10612fdd57805160ff191683800117855561300b565b8280016001018555821561300b579182015b8281111561300a578251825591602001919060010190612fef565b5b50905061301891906130bc565b5090565b604051806040016040528060608152602001600073ffffffffffffffffffffffffffffffffffffffff1681525090565b604051806101600160405280600073ffffffffffffffffffffffffffffffffffffffff168152602001606081526020016060815260200160608152602001606081526020016060815260200160008152602001600081526020016000815260200160008152602001600081525090565b5b808211156130d55760008160009055506001016130bd565b5090565b600080fd5b600080fd5b6000819050919050565b6130f6816130e3565b811461310157600080fd5b50565b600081359050613113816130ed565b92915050565b60006020828403121561312f5761312e6130d9565b5b600061313d84828501613104565b91505092915050565b600080fd5b60006040828403121561316157613160613146565b5b81905092915050565b60008060408385031215613181576131806130d9565b5b600061318f85828601613104565b925050602083013567ffffffffffffffff8111156131b0576131af6130de565b5b6131bc8582860161314b565b9150509250929050565b600080fd5b600080fd5b600080fd5b60008083601f8401126131eb576131ea6131c6565b5b8235905067ffffffffffffffff811115613208576132076131cb565b5b602083019150836001820283011115613224576132236131d0565b5b9250929050565b600080600060408486031215613244576132436130d9565b5b600061325286828701613104565b935050602084013567ffffffffffffffff811115613273576132726130de565b5b61327f868287016131d5565b92509250509250925092565b6000806000806000606086880312156132a7576132a66130d9565b5b60006132b588828901613104565b955050602086013567ffffffffffffffff8111156132d6576132d56130de565b5b6132e2888289016131d5565b9450945050604086013567ffffffffffffffff811115613305576133046130de565b5b613311888289016131d5565b92509250509295509295909350565b600081519050919050565b600082825260208201905092915050565b60005b8381101561335a57808201518184015260208101905061333f565b83811115613369576000848401525b50505050565b6000601f19601f8301169050919050565b600061338b82613320565b613395818561332b565b93506133a581856020860161333c565b6133ae8161336f565b840191505092915050565b600073ffffffffffffffffffffffffffffffffffffffff82169050919050565b60006133e4826133b9565b9050919050565b6133f4816133d9565b82525050565b600060408301600083015184820360008601526134178282613380565b915050602083015161342c60208601826133eb565b508091505092915050565b6000602082019050818103600083015261345181846133fa565b905092915050565b613462816130e3565b82525050565b600060208201905061347d6000830184613459565b92915050565b6004811061349057600080fd5b50565b6000813590506134a281613483565b92915050565b6000602082840312156134be576134bd6130d9565b5b60006134cc84828501613493565b91505092915050565b600081519050919050565b600082825260208201905092915050565b6000819050602082019050919050565b600061350c826133b9565b9050919050565b61351c81613501565b82525050565b61352b816130e3565b82525050565b60006101608301600083015161354a6000860182613513565b50602083015184820360208601526135628282613380565b9150506040830151848203604086015261357c8282613380565b915050606083015184820360608601526135968282613380565b915050608083015184820360808601526135b08282613380565b91505060a083015184820360a08601526135ca8282613380565b91505060c08301516135df60c0860182613522565b5060e08301516135f260e0860182613522565b50610100830151613607610100860182613522565b5061012083015161361c610120860182613522565b50610140830151613631610140860182613522565b508091505092915050565b60006136488383613531565b905092915050565b6000602082019050919050565b6000613668826134d5565b61367281856134e0565b935083602082028501613684856134f1565b8060005b858110156136c057848403895281516136a1858261363c565b94506136ac83613650565b925060208a01995050600181019050613688565b50829750879550505050505092915050565b600060208201905081810360008301526136ec818461365d565b905092915050565b600081519050919050565b600082825260208201905092915050565b6000819050602082019050919050565b600061372c8383613380565b905092915050565b6000602082019050919050565b600061374c826136f4565b61375681856136ff565b93508360208202850161376885613710565b8060005b858110156137a457848403895281516137858582613720565b945061379083613734565b925060208a0199505060018101905061376c565b50829750879550505050505092915050565b600060208201905081810360008301526137d08184613741565b905092915050565b600061016082840312156137ef576137ee613146565b5b81905092915050565b60006020828403121561380e5761380d6130d9565b5b600082013567ffffffffffffffff81111561382c5761382b6130de565b5b613838848285016137d8565b91505092915050565b60006101608301600083015161385a6000860182613513565b50602083015184820360208601526138728282613380565b9150506040830151848203604086015261388c8282613380565b915050606083015184820360608601526138a68282613380565b915050608083015184820360808601526138c08282613380565b91505060a083015184820360a08601526138da8282613380565b91505060c08301516138ef60c0860182613522565b5060e083015161390260e0860182613522565b50610100830151613917610100860182613522565b5061012083015161392c610120860182613522565b50610140830151613941610140860182613522565b508091505092915050565b600060208201905081810360008301526139668184613841565b905092915050565b600082825260208201905092915050565b7f41756374696f6e204944206973206e6f742076616c6964210000000000000000600082015250565b60006139b560188361396e565b91506139c08261397f565b602082019050919050565b600060208201905081810360008301526139e4816139a8565b9050919050565b7f4e487b7100000000000000000000000000000000000000000000000000000000600052603260045260246000fd5b7f53656e64657220686173206e6f7420706c616365642061206269642100000000600082015250565b6000613a50601c8361396e565b9150613a5b82613a1a565b602082019050919050565b60006020820190508181036000830152613a7f81613a43565b9050919050565b7f4e487b7100000000000000000000000000000000000000000000000000000000600052602160045260246000fd5b7f496e617070726f707269617465206f7065726174696f6e210000000000000000600082015250565b6000613aeb60188361396e565b9150613af682613ab5565b602082019050919050565b60006020820190508181036000830152613b1a81613ade565b9050919050565b7f53656e646572206973206e6f7420746865206f776e6572210000000000000000600082015250565b6000613b5760188361396e565b9150613b6282613b21565b602082019050919050565b60006020820190508181036000830152613b8681613b4a565b9050919050565b613b96816133d9565b8114613ba157600080fd5b50565b600081359050613bb381613b8d565b92915050565b600060208284031215613bcf57613bce6130d9565b5b6000613bdd84828501613ba4565b91505092915050565b600080fd5b600080fd5b600080fd5b60008083356001602003843603038112613c1257613c11613be6565b5b80840192508235915067ffffffffffffffff821115613c3457613c33613beb565b5b602083019250600182023603831315613c5057613c4f613bf0565b5b509250929050565b600081905092915050565b82818337600083830152505050565b6000613c7e8385613c58565b9350613c8b838584613c63565b82840190509392505050565b6000613ca4828486613c72565b91508190509392505050565b6000819050919050565b613cc381613cb0565b8114613cce57600080fd5b50565b600081519050613ce081613cba565b92915050565b600060208284031215613cfc57613cfb6130d9565b5b6000613d0a84828501613cd1565b91505092915050565b7f4861736820697320696e76616c69642100000000000000000000000000000000600082015250565b6000613d4960108361396e565b9150613d5482613d13565b602082019050919050565b60006020820190508181036000830152613d7881613d3c565b9050919050565b600082905092915050565b7f4e487b7100000000000000000000000000000000000000000000000000000000600052604160045260246000fd5b7f4e487b7100000000000000000000000000000000000000000000000000000000600052602260045260246000fd5b60006002820490506001821680613e0057607f821691505b602082108103613e1357613e12613db9565b5b50919050565b60008190508160005260206000209050919050565b60006020601f8301049050919050565b600082821b905092915050565b600060088302613e7b7fffffffffffffffffffffffffffffffffffffffffffffffffffffffffffffffff82613e3e565b613e858683613e3e565b95508019841693508086168417925050509392505050565b6000819050919050565b6000613ec2613ebd613eb8846130e3565b613e9d565b6130e3565b9050919050565b6000819050919050565b613edc83613ea7565b613ef0613ee882613ec9565b848454613e4b565b825550505050565b600090565b613f05613ef8565b613f10818484613ed3565b505050565b5b81811015613f3457613f29600082613efd565b600181019050613f16565b5050565b601f821115613f7957613f4a81613e19565b613f5384613e2e565b81016020851015613f62578190505b613f76613f6e85613e2e565b830182613f15565b50505b505050565b600082821c905092915050565b6000613f9c60001984600802613f7e565b1980831691505092915050565b6000613fb58383613f8b565b9150826002028217905092915050565b613fcf8383613d7f565b67ffffffffffffffff811115613fe857613fe7613d8a565b5b613ff28254613de8565b613ffd828285613f38565b6000601f83116001811461402c576000841561401a578287013590505b6140248582613fa9565b86555061408c565b601f19841661403a86613e19565b60005b828110156140625784890135825560018201915060208501945060208101905061403d565b8683101561407f578489013561407b601f891682613f8b565b8355505b6001600288020188555050505b50505050505050565b6140a0838383613fc5565b505050565b600081356140b281613b8d565b80915050919050565b60008160001b9050919050565b600073ffffffffffffffffffffffffffffffffffffffff6140e8846140bb565b9350801983169250808416831791505092915050565b600061411961411461410f846133b9565b613e9d565b6133b9565b9050919050565b600061412b826140fe565b9050919050565b600061413d82614120565b9050919050565b6000819050919050565b61415782614132565b61416a61416382614144565b83546140c8565b8255505050565b60008101600083016141838185613bf5565b61418e818386614095565b505050506001810160208301806141a4816140a5565b90506141b0818461414e565b5050505050565b6141c18282614171565b5050565b6141ce816133d9565b82525050565b60006040820190506141e96000830185613459565b6141f660208301846141c5565b9392505050565b7f53656e64657220697320746865206f776e657221000000000000000000000000600082015250565b600061423360148361396e565b915061423e826141fd565b602082019050919050565b6000602082019050818103600083015261426281614226565b9050919050565b7f53656e6465722068617320616c726561647920706c6163656420612062696421600082015250565b600061429f60208361396e565b91506142aa82614269565b602082019050919050565b600060208201905081810360008301526142ce81614292565b9050919050565b7f53656e742076616c7565206973206e6f74207269676874210000000000000000600082015250565b600061430b60188361396e565b9150614316826142d5565b602082019050919050565b6000602082019050818103600083015261433a816142fe565b9050919050565b7f4e487b7100000000000000000000000000000000000000000000000000000000600052601160045260246000fd5b600061437b826130e3565b91507fffffffffffffffffffffffffffffffffffffffffffffffffffffffffffffffff82036143ad576143ac614341565b5b600182019050919050565b7f4d696e696d756d207072696365206d757374206265206120706f73697469766560008201527f206e756d62657200000000000000000000000000000000000000000000000000602082015250565b600061441460278361396e565b915061441f826143b8565b604082019050919050565b6000602082019050818103600083015261444381614407565b9050919050565b7f5468652072656c6174696f6e202830203c205365637572697479204465706f7360008201527f6974203c204d696e696d756d20507269636529206973206e6f7420736174697360208201527f666965642e000000000000000000000000000000000000000000000000000000604082015250565b60006144cc60458361396e565b91506144d78261444a565b606082019050919050565b600060208201905081810360008301526144fb816144bf565b9050919050565b7f446174657320617265206e6f7420696e20746865207269676874206f7264657260008201527f2e00000000000000000000000000000000000000000000000000000000000000602082015250565b600061455e60218361396e565b915061456982614502565b604082019050919050565b6000602082019050818103600083015261458d81614551565b9050919050565b61459d81613501565b81146145a857600080fd5b50565b600081356145b881614594565b80915050919050565b60006145cc826140fe565b9050919050565b60006145de826145c1565b9050919050565b6000819050919050565b6145f8826145d3565b61460b614604826145e5565b83546140c8565b8255505050565b6000813561461f816130ed565b80915050919050565b60007fffffffffffffffffffffffffffffffffffffffffffffffffffffffffffffffff614654846140bb565b9350801983169250808416831791505092915050565b61467382613ea7565b61468661467f82613ec9565b8354614628565b8255505050565b60008101600083018061469f816145ab565b90506146ab81846145ef565b50505060018101602083016146c08185613bf5565b6146cb818386614095565b5050505060028101604083016146e18185613bf5565b6146ec818386614095565b5050505060038101606083016147028185613bf5565b61470d818386614095565b5050505060048101608083016147238185613bf5565b61472e818386614095565b505050506005810160a083016147448185613bf5565b61474f818386614095565b505050506006810160c083018061476581614612565b9050614771818461466a565b5050506007810160e083018061478681614612565b9050614792818461466a565b505050600881016101008301806147a881614612565b90506147b4818461466a565b505050600981016101208301806147ca81614612565b90506147d6818461466a565b505050600a81016101408301806147ec81614612565b90506147f8818461466a565b5050505050565b614809828261468d565b5050565b6000614818826130e3565b9150614823836130e3565b92508282101561483657614835614341565b5b828203905092915050565b7f4e487b7100000000000000000000000000000000000000000000000000000000600052603160045260246000fdfea2646970667358221220baf98ab820b6f93617dcc97bd6ee1fc77eb28b6c8013fbd1624429c40ac168d064736f6c634300080d0033",
  "immutableReferences": {},
  "source": "// SPDX-License-Identifier: MIT\npragma solidity ^0.8.13;\n\n// NOTE: all currency is wei\n\ncontract SealedBidAuctionManager {\n    struct UserSetAuctionInfo {\n        // administrative\n        address payable owner;\n        string params;\n        string owner_pkey;\n        // item\n        string itemName;\n        string itemDesc;\n        string itemPicture;\n        // transactional\n        uint256 minimumPrice;\n        uint256 securityDeposit;\n        // dates\n        uint256 biddingEndDate;\n        uint256 revealingEndDate;\n        uint256 sortingEndDate;\n    }\n\n    struct Bid {\n        bool done;\n        // to bid\n        bytes32 c;\n        bytes32 d;\n        // to reveal\n        string z;\n    }\n\n    struct AuctionWinner {\n        string y;\n        address bidder;\n    }\n\n    struct Auction {\n        uint256 id;\n        UserSetAuctionInfo info;\n        mapping(address => Bid) bids;\n        address[] bidders;\n        AuctionState state;\n        AuctionWinner winner;\n    }\n\n    enum AuctionState {\n        BiddingPhase,\n        RevealingPhase,\n        SortingPhase,\n        Ended\n    }\n\n    Auction[] private auctions;\n\n    // events for logging and subscription\n\n    event NewAuction(uint256 auctionId);\n    event NewBid(uint256 auctionId, address by);\n    event NewReveal(uint256 auctionId, address by);\n    event BidderRemoved(uint256, address who);\n    event WinnerDecided(uint256 auctionId);\n    event AuctionEnds(uint256 auctionId, bool success);\n\n    // modifiers for modularity\n\n    modifier SenderDidNotPlaceABid(uint256 auctionId) {\n        if (auctions[auctionId].bids[msg.sender].c.length != 0)\n            revert(\"Sender has already placed a bid!\");\n        _;\n    }\n\n    modifier SenderPlacedABid(uint256 auctionId) {\n        if (auctions[auctionId].bids[msg.sender].c.length == 0)\n            revert(\"Sender has not placed a bid!\");\n        _;\n    }\n\n    modifier SenderIsOwner(uint256 auctionId) {\n        if (msg.sender != auctions[auctionId].info.owner)\n            revert(\"Sender is not the owner!\");\n        _;\n    }\n\n    modifier SenderIsNotOwner(uint256 auctionId) {\n        if (msg.sender != auctions[auctionId].info.owner)\n            revert(\"Sender is the owner!\");\n        _;\n    }\n\n    modifier AuctionIDIsValid(uint256 auctionId) {\n        if (auctionId >= auctions.length) revert(\"Auction ID is not valid!\");\n        _;\n    }\n\n    modifier CheckAuctionState(uint256 auctionId, AuctionState state) {\n        // set it\n        if (block.timestamp < auctions[auctionId].info.biddingEndDate)\n            auctions[auctionId].state = AuctionState.BiddingPhase;\n        else if (block.timestamp < auctions[auctionId].info.revealingEndDate)\n            auctions[auctionId].state = AuctionState.RevealingPhase;\n        else if (block.timestamp < auctions[auctionId].info.sortingEndDate)\n            auctions[auctionId].state = AuctionState.SortingPhase;\n        else auctions[auctionId].state = AuctionState.Ended;\n\n        // check it\n        if (state != auctions[auctionId].state) {\n            revert(\"Inappropriate operation!\");\n        }\n        _;\n    }\n\n    modifier ValueEquals(uint v) {\n        if (msg.value != v) revert(\"Sent value is not right!\");\n        _;\n    }\n\n    // private functions\n\n    function _stringToBytes32(\n        string memory source\n    ) private pure returns (bytes32 result) {\n        bytes memory b = bytes(source);\n        if (b.length == 0) return 0;\n\n        assembly {\n            result := mload(add(source, 32))\n        }\n    }\n\n    function _removeBidder(uint256 auctionId, uint index) internal {\n        require(index < auctions[auctionId].bidders.length);\n\n        auctions[auctionId].bidders[index] = auctions[auctionId].bidders[\n            auctions[auctionId].bidders.length - 1\n        ];\n        auctions[auctionId].bidders.pop();\n    }\n\n    // external functions to be called at any time\n\n    function getNumberOfRegisteredAuctions() external view returns (uint256) {\n        return auctions.length;\n    }\n\n    function createAuction(\n        UserSetAuctionInfo calldata info\n    ) external payable ValueEquals(info.securityDeposit) returns (uint256) {\n        // validation of auction parameters\n        if (info.minimumPrice == 0)\n            revert(\"Minimum price must be a positive number\");\n\n        if (\n            info.securityDeposit > info.minimumPrice ||\n            info.securityDeposit == 0\n        )\n            revert(\n                \"The relation (0 < Security Deposit < Minimum Price) is not satisfied.\"\n            );\n\n        if (\n            !(// info.verificationEndDate > info.sortingEndDate &&\n            info.sortingEndDate > info.revealingEndDate &&\n                info.revealingEndDate > info.biddingEndDate)\n        ) revert(\"Dates are not in the right order.\");\n\n        // valid? add it\n        Auction storage auction = auctions.push();\n\n        auction.id = auctions.length;\n        auction.info = info;\n        auction.state = AuctionState.BiddingPhase;\n        auction.winner = AuctionWinner({y: \"\", bidder: address(0)});\n\n        emit NewAuction(auction.id);\n        return auction.id;\n    }\n\n    function getAuctionsByState(\n        AuctionState state\n    ) external view returns (UserSetAuctionInfo[] memory) {\n        uint256 count = 0;\n        for (uint256 i = 0; i < auctions.length; i++) {\n            if (auctions[i].state == state) {\n                count++;\n            }\n        }\n\n        UserSetAuctionInfo[] memory data = new UserSetAuctionInfo[](count);\n        uint256 j = 0;\n        for (uint256 i = 0; i < auctions.length; i++) {\n            if (auctions[i].state == state) {\n                data[j] = auctions[i].info;\n                j++;\n            }\n        }\n\n        return data;\n    }\n\n    function getAuctionInfo(\n        uint256 auctionId\n    )\n        external\n        view\n        AuctionIDIsValid(auctionId)\n        returns (UserSetAuctionInfo memory)\n    {\n        return auctions[auctionId].info;\n    }\n\n    // functions to be called throughout the auction process\n\n    function placeBid(\n        uint256 auctionId,\n        string calldata c,\n        string calldata d\n    )\n        external\n        payable\n        AuctionIDIsValid(auctionId)\n        SenderIsNotOwner(auctionId)\n        SenderDidNotPlaceABid(auctionId)\n        CheckAuctionState(auctionId, AuctionState.BiddingPhase)\n        ValueEquals(auctions[auctionId].info.securityDeposit)\n    {\n        auctions[auctionId].bids[msg.sender] = Bid({\n            done: false,\n            c: _stringToBytes32(c),\n            d: _stringToBytes32(d),\n            z: \"\"\n        });\n        auctions[auctionId].bidders[auctions[auctionId].bidders.length] = msg\n            .sender;\n        emit NewBid(auctionId, msg.sender);\n    }\n\n    function revealBid(\n        uint256 auctionId,\n        string calldata z\n    )\n        external\n        AuctionIDIsValid(auctionId)\n        SenderPlacedABid(auctionId)\n        CheckAuctionState(auctionId, AuctionState.RevealingPhase)\n    {\n        // verify commitment\n        if (sha256(bytes(z)) != auctions[auctionId].bids[msg.sender].d)\n            revert(\"Hash is invalid!\");\n\n        auctions[auctionId].bids[msg.sender].z = z;\n        emit NewReveal(auctionId, msg.sender);\n    }\n\n    function getReveals(\n        uint256 auctionId\n    )\n        external\n        AuctionIDIsValid(auctionId)\n        SenderIsOwner(auctionId)\n        CheckAuctionState(auctionId, AuctionState.SortingPhase)\n        returns (string[] memory)\n    {\n        uint256 count = 0;\n        for (uint256 i = 0; i < auctions[auctionId].bidders.length; i++) {\n            address bidder = auctions[auctionId].bidders[i];\n            if (bytes(auctions[auctionId].bids[bidder].z).length == 0) {\n                // remove them, no refunds\n                _removeBidder(auctionId, i);\n                emit BidderRemoved(auctionId, bidder);\n            } else {\n                count++;\n            }\n        }\n\n        string[] memory zs = new string[](count);\n        for (uint256 i = 0; i < auctions[auctionId].bidders.length; i++) {\n            zs[i] = auctions[auctionId].bids[auctions[auctionId].bidders[i]].z;\n        }\n\n        return zs;\n    }\n\n    function declareWinner(\n        uint256 auctionId,\n        AuctionWinner calldata winner\n    )\n        external\n        AuctionIDIsValid(auctionId)\n        SenderIsOwner(auctionId)\n        CheckAuctionState(auctionId, AuctionState.SortingPhase)\n    {\n        // verify commitment\n        if (\n            sha256(bytes(winner.y)) != auctions[auctionId].bids[winner.bidder].c\n        ) revert(\"Hash is invalid!\");\n\n        auctions[auctionId].winner = winner;\n        emit WinnerDecided(auctionId);\n    }\n\n    function getWinner(\n        uint256 auctionId\n    ) external view AuctionIDIsValid(auctionId) returns (AuctionWinner memory) {\n        return auctions[auctionId].winner;\n    }\n\n    function returnDeposit(\n        uint256 auctionId\n    )\n        external\n        AuctionIDIsValid(auctionId)\n        SenderPlacedABid(auctionId)\n        CheckAuctionState(auctionId, AuctionState.Ended)\n    {\n        // no re-entrancy attacks!\n        if (\n            auctions[auctionId].bids[msg.sender].done == false &&\n            msg.sender != auctions[auctionId].winner.bidder\n        ) {\n            auctions[auctionId].bids[msg.sender].done = true;\n        }\n        payable(msg.sender).transfer(auctions[auctionId].info.securityDeposit);\n    }\n}\n",
  "sourcePath": "/home/amr/fghdh/auction-system-webapp/contracts/contracts/SealedBidAuctionManager.sol",
  "compiler": {
    "name": "solc",
    "version": "0.8.13+commit.abaa5c0e.Emscripten.clang"
  },
  "schemaVersion": "3.4.13",
  "updatedAt": "2023-07-04T18:14:10.444Z",
  "networkType": "ethereum",
  "devdoc": {
    "kind": "dev",
    "methods": {},
    "version": 1
  },
  "userdoc": {
    "kind": "user",
    "methods": {},
    "version": 1
  }
}