{
  "contractName": "SealedBidAuctionManager",
  "abi": [
    {
      "anonymous": false,
      "inputs": [
        {
          "indexed": false,
          "internalType": "uint256",
          "name": "auctionId",
          "type": "uint256"
        },
        {
          "indexed": false,
          "internalType": "bool",
          "name": "success",
          "type": "bool"
        }
      ],
      "name": "AuctionEnds",
      "type": "event"
    },
    {
      "anonymous": false,
      "inputs": [
        {
          "indexed": false,
          "internalType": "uint256",
          "name": "",
          "type": "uint256"
        },
        {
          "indexed": false,
          "internalType": "address",
          "name": "who",
          "type": "address"
        }
      ],
      "name": "BidderRemoved",
      "type": "event"
    },
    {
      "anonymous": false,
      "inputs": [
        {
          "indexed": false,
          "internalType": "uint256",
          "name": "auctionId",
          "type": "uint256"
        }
      ],
      "name": "NewAuction",
      "type": "event"
    },
    {
      "anonymous": false,
      "inputs": [
        {
          "indexed": false,
          "internalType": "uint256",
          "name": "auctionId",
          "type": "uint256"
        },
        {
          "indexed": false,
          "internalType": "address",
          "name": "by",
          "type": "address"
        }
      ],
      "name": "NewBid",
      "type": "event"
    },
    {
      "anonymous": false,
      "inputs": [
        {
          "indexed": false,
          "internalType": "uint256",
          "name": "auctionId",
          "type": "uint256"
        },
        {
          "indexed": false,
          "internalType": "address",
          "name": "by",
          "type": "address"
        }
      ],
      "name": "NewReveal",
      "type": "event"
    },
    {
      "anonymous": false,
      "inputs": [
        {
          "indexed": false,
          "internalType": "uint256",
          "name": "auctionId",
          "type": "uint256"
        },
        {
          "indexed": false,
          "internalType": "address",
          "name": "by",
          "type": "address"
        }
      ],
      "name": "ObjectionSuccessful",
      "type": "event"
    },
    {
      "anonymous": false,
      "inputs": [
        {
          "indexed": false,
          "internalType": "uint256",
          "name": "auctionId",
          "type": "uint256"
        }
      ],
      "name": "WinnerDecided",
      "type": "event"
    },
    {
      "inputs": [],
      "name": "getNumberOfRegisteredAuctions",
      "outputs": [
        {
          "internalType": "uint256",
          "name": "",
          "type": "uint256"
        }
      ],
      "stateMutability": "view",
      "type": "function",
      "constant": true
    },
    {
      "inputs": [
        {
          "components": [
            {
              "internalType": "address payable",
              "name": "owner",
              "type": "address"
            },
            {
              "internalType": "string",
              "name": "params",
              "type": "string"
            },
            {
              "internalType": "string",
              "name": "owner_pkey",
              "type": "string"
            },
            {
              "internalType": "string",
              "name": "itemName",
              "type": "string"
            },
            {
              "internalType": "string",
              "name": "itemDesc",
              "type": "string"
            },
            {
              "internalType": "string",
              "name": "itemPicture",
              "type": "string"
            },
            {
              "internalType": "uint256",
              "name": "minimumPrice",
              "type": "uint256"
            },
            {
              "internalType": "uint256",
              "name": "securityDeposit",
              "type": "uint256"
            },
            {
              "internalType": "uint256",
              "name": "biddingEndDate",
              "type": "uint256"
            },
            {
              "internalType": "uint256",
              "name": "revealingEndDate",
              "type": "uint256"
            },
            {
              "internalType": "uint256",
              "name": "sortingEndDate",
              "type": "uint256"
            },
            {
              "internalType": "uint256",
              "name": "verificationEndDate",
              "type": "uint256"
            }
          ],
          "internalType": "struct SealedBidAuctionManager.UserSetAuctionInfo",
          "name": "info",
          "type": "tuple"
        }
      ],
      "name": "createAuction",
      "outputs": [
        {
          "internalType": "uint256",
          "name": "",
          "type": "uint256"
        }
      ],
      "stateMutability": "payable",
      "type": "function",
      "payable": true
    },
    {
      "inputs": [
        {
          "internalType": "enum SealedBidAuctionManager.AuctionState",
          "name": "state",
          "type": "uint8"
        }
      ],
      "name": "getAuctionsByState",
      "outputs": [
        {
          "components": [
            {
              "internalType": "address payable",
              "name": "owner",
              "type": "address"
            },
            {
              "internalType": "string",
              "name": "params",
              "type": "string"
            },
            {
              "internalType": "string",
              "name": "owner_pkey",
              "type": "string"
            },
            {
              "internalType": "string",
              "name": "itemName",
              "type": "string"
            },
            {
              "internalType": "string",
              "name": "itemDesc",
              "type": "string"
            },
            {
              "internalType": "string",
              "name": "itemPicture",
              "type": "string"
            },
            {
              "internalType": "uint256",
              "name": "minimumPrice",
              "type": "uint256"
            },
            {
              "internalType": "uint256",
              "name": "securityDeposit",
              "type": "uint256"
            },
            {
              "internalType": "uint256",
              "name": "biddingEndDate",
              "type": "uint256"
            },
            {
              "internalType": "uint256",
              "name": "revealingEndDate",
              "type": "uint256"
            },
            {
              "internalType": "uint256",
              "name": "sortingEndDate",
              "type": "uint256"
            },
            {
              "internalType": "uint256",
              "name": "verificationEndDate",
              "type": "uint256"
            }
          ],
          "internalType": "struct SealedBidAuctionManager.UserSetAuctionInfo[]",
          "name": "",
          "type": "tuple[]"
        }
      ],
      "stateMutability": "view",
      "type": "function",
      "constant": true
    },
    {
      "inputs": [
        {
          "internalType": "uint256",
          "name": "auctionId",
          "type": "uint256"
        }
      ],
      "name": "getAuctionInfo",
      "outputs": [
        {
          "components": [
            {
              "internalType": "address payable",
              "name": "owner",
              "type": "address"
            },
            {
              "internalType": "string",
              "name": "params",
              "type": "string"
            },
            {
              "internalType": "string",
              "name": "owner_pkey",
              "type": "string"
            },
            {
              "internalType": "string",
              "name": "itemName",
              "type": "string"
            },
            {
              "internalType": "string",
              "name": "itemDesc",
              "type": "string"
            },
            {
              "internalType": "string",
              "name": "itemPicture",
              "type": "string"
            },
            {
              "internalType": "uint256",
              "name": "minimumPrice",
              "type": "uint256"
            },
            {
              "internalType": "uint256",
              "name": "securityDeposit",
              "type": "uint256"
            },
            {
              "internalType": "uint256",
              "name": "biddingEndDate",
              "type": "uint256"
            },
            {
              "internalType": "uint256",
              "name": "revealingEndDate",
              "type": "uint256"
            },
            {
              "internalType": "uint256",
              "name": "sortingEndDate",
              "type": "uint256"
            },
            {
              "internalType": "uint256",
              "name": "verificationEndDate",
              "type": "uint256"
            }
          ],
          "internalType": "struct SealedBidAuctionManager.UserSetAuctionInfo",
          "name": "",
          "type": "tuple"
        }
      ],
      "stateMutability": "view",
      "type": "function",
      "constant": true
    },
    {
      "inputs": [
        {
          "internalType": "uint256",
          "name": "auctionId",
          "type": "uint256"
        },
        {
          "internalType": "string",
          "name": "c",
          "type": "string"
        },
        {
          "internalType": "string",
          "name": "d",
          "type": "string"
        }
      ],
      "name": "placeBid",
      "outputs": [],
      "stateMutability": "payable",
      "type": "function",
      "payable": true
    },
    {
      "inputs": [
        {
          "internalType": "uint256",
          "name": "auctionId",
          "type": "uint256"
        },
        {
          "internalType": "string",
          "name": "z",
          "type": "string"
        }
      ],
      "name": "revealBid",
      "outputs": [],
      "stateMutability": "nonpayable",
      "type": "function"
    },
    {
      "inputs": [
        {
          "internalType": "uint256",
          "name": "auctionId",
          "type": "uint256"
        }
      ],
      "name": "getReveals",
      "outputs": [
        {
          "internalType": "string[]",
          "name": "",
          "type": "string[]"
        }
      ],
      "stateMutability": "nonpayable",
      "type": "function"
    },
    {
      "inputs": [
        {
          "internalType": "uint256",
          "name": "auctionId",
          "type": "uint256"
        },
        {
          "components": [
            {
              "internalType": "string",
              "name": "y",
              "type": "string"
            },
            {
              "internalType": "address",
              "name": "bidder",
              "type": "address"
            }
          ],
          "internalType": "struct SealedBidAuctionManager.AuctionWinner",
          "name": "winner",
          "type": "tuple"
        }
      ],
      "name": "declareWinner",
      "outputs": [],
      "stateMutability": "nonpayable",
      "type": "function"
    },
    {
      "inputs": [
        {
          "internalType": "uint256",
          "name": "auctionId",
          "type": "uint256"
        }
      ],
      "name": "getWinner",
      "outputs": [
        {
          "components": [
            {
              "internalType": "string",
              "name": "y",
              "type": "string"
            },
            {
              "internalType": "address",
              "name": "bidder",
              "type": "address"
            }
          ],
          "internalType": "struct SealedBidAuctionManager.AuctionWinner",
          "name": "",
          "type": "tuple"
        }
      ],
      "stateMutability": "view",
      "type": "function",
      "constant": true
    },
    {
      "inputs": [
        {
          "internalType": "uint256",
          "name": "auctionId",
          "type": "uint256"
        },
        {
          "internalType": "string",
          "name": "y",
          "type": "string"
        }
      ],
      "name": "objectToWinner",
      "outputs": [],
      "stateMutability": "nonpayable",
      "type": "function"
    }
  ],
  "bytecode": "0x608060405234801561001057600080fd5b50614999806100206000396000f3fe6080604052600436106100915760003560e01c8063599a1ca611610059578063599a1ca61461016c5780636167fad914610195578063684e38ee146101c557806397d9ee5214610202578063fc3fc4ed1461023f57610091565b80632093b667146100965780632163b8c5146100bf5780632b58fb3c146100e85780634129b2c91461010457806345e481a314610141575b600080fd5b3480156100a257600080fd5b506100bd60048036038101906100b89190613178565b61027c565b005b3480156100cb57600080fd5b506100e660048036038101906100e19190613239565b6107ac565b005b61010260048036038101906100fd9190613299565b610cf2565b005b34801561011057600080fd5b5061012b6004803603810190610126919061332e565b6113f0565b6040516101389190613472565b60405180910390f35b34801561014d57600080fd5b50610156611560565b60405161016391906134a3565b60405180910390f35b34801561017857600080fd5b50610193600480360381019061018e9190613239565b61156c565b005b6101af60048036038101906101aa91906134de565b611a36565b6040516101bc91906134a3565b60405180910390f35b3480156101d157600080fd5b506101ec60048036038101906101e7919061354c565b611cf7565b6040516101f9919061378b565b60405180910390f35b34801561020e57600080fd5b506102296004803603810190610224919061332e565b612239565b604051610236919061386f565b60405180910390f35b34801561024b57600080fd5b506102666004803603810190610261919061332e565b61296f565b60405161027391906139b1565b60405180910390f35b8160008054905081106102c4576040517f08c379a00000000000000000000000000000000000000000000000000000000081526004016102bb90613a30565b60405180910390fd5b82600081815481106102d9576102d8613a50565b5b906000526020600020906012020160010160000160009054906101000a900473ffffffffffffffffffffffffffffffffffffffff1673ffffffffffffffffffffffffffffffffffffffff163373ffffffffffffffffffffffffffffffffffffffff161461037b576040517f08c379a000000000000000000000000000000000000000000000000000000000815260040161037290613acb565b60405180910390fd5b8360026000828154811061039257610391613a50565b5b9060005260206000209060120201600101600801544210156104005760008083815481106103c3576103c2613a50565b5b9060005260206000209060120201600f0160006101000a81548160ff021916908360058111156103f6576103f5613aeb565b5b0217905550610588565b6000828154811061041457610413613a50565b5b9060005260206000209060120201600101600901544210156104835760016000838154811061044657610445613a50565b5b9060005260206000209060120201600f0160006101000a81548160ff0219169083600581111561047957610478613aeb565b5b0217905550610587565b6000828154811061049757610496613a50565b5b9060005260206000209060120201600101600a0154421015610506576002600083815481106104c9576104c8613a50565b5b9060005260206000209060120201600f0160006101000a81548160ff021916908360058111156104fc576104fb613aeb565b5b0217905550610586565b6000828154811061051a57610519613a50565b5b9060005260206000209060120201600101600b01544210156105855760036000838154811061054c5761054b613a50565b5b9060005260206000209060120201600f0160006101000a81548160ff0219169083600581111561057f5761057e613aeb565b5b02179055505b5b5b5b6000828154811061059c5761059b613a50565b5b9060005260206000209060120201600f0160009054906101000a900460ff1660058111156105cd576105cc613aeb565b5b8160058111156105e0576105df613aeb565b5b14610620576040517f08c379a000000000000000000000000000000000000000000000000000000000815260040161061790613b66565b60405180910390fd5b6000868154811061063457610633613a50565b5b9060005260206000209060120201600d01600086602001602081019061065a9190613bb2565b73ffffffffffffffffffffffffffffffffffffffff1673ffffffffffffffffffffffffffffffffffffffff1681526020019081526020016000206000015460028680600001906106aa9190613bee565b6040516106b8929190613c90565b602060405180830381855afa1580156106d5573d6000803e3d6000fd5b5050506040513d601f19601f820116820180604052508101906106f89190613cdf565b14610738576040517f08c379a000000000000000000000000000000000000000000000000000000000815260040161072f90613d58565b60405180910390fd5b846000878154811061074d5761074c613a50565b5b9060005260206000209060120201601001818161076a91906141b0565b9050507f0dfe3c139eda10ac8ad090855d58512ef7e6d48784a57307084c1903ff26f4f98660405161079c91906134a3565b60405180910390a1505050505050565b8260008054905081106107f4576040517f08c379a00000000000000000000000000000000000000000000000000000000081526004016107eb90613a30565b60405180910390fd5b83600080828154811061080a57610809613a50565b5b9060005260206000209060120201600d0160003373ffffffffffffffffffffffffffffffffffffffff1673ffffffffffffffffffffffffffffffffffffffff16815260200190815260200160002050602060ff160361089e576040517f08c379a00000000000000000000000000000000000000000000000000000000081526004016108959061420a565b60405180910390fd5b846001600082815481106108b5576108b4613a50565b5b9060005260206000209060120201600101600801544210156109235760008083815481106108e6576108e5613a50565b5b9060005260206000209060120201600f0160006101000a81548160ff0219169083600581111561091957610918613aeb565b5b0217905550610aab565b6000828154811061093757610936613a50565b5b9060005260206000209060120201600101600901544210156109a65760016000838154811061096957610968613a50565b5b9060005260206000209060120201600f0160006101000a81548160ff0219169083600581111561099c5761099b613aeb565b5b0217905550610aaa565b600082815481106109ba576109b9613a50565b5b9060005260206000209060120201600101600a0154421015610a29576002600083815481106109ec576109eb613a50565b5b9060005260206000209060120201600f0160006101000a81548160ff02191690836005811115610a1f57610a1e613aeb565b5b0217905550610aa9565b60008281548110610a3d57610a3c613a50565b5b9060005260206000209060120201600101600b0154421015610aa857600360008381548110610a6f57610a6e613a50565b5b9060005260206000209060120201600f0160006101000a81548160ff02191690836005811115610aa257610aa1613aeb565b5b02179055505b5b5b5b60008281548110610abf57610abe613a50565b5b9060005260206000209060120201600f0160009054906101000a900460ff166005811115610af057610aef613aeb565b5b816005811115610b0357610b02613aeb565b5b14610b43576040517f08c379a0000000000000000000000000000000000000000000000000000000008152600401610b3a90613b66565b60405180910390fd5b60008781548110610b5757610b56613a50565b5b9060005260206000209060120201600d0160003373ffffffffffffffffffffffffffffffffffffffff1673ffffffffffffffffffffffffffffffffffffffff1681526020019081526020016000206001015460028787604051610bbb929190613c90565b602060405180830381855afa158015610bd8573d6000803e3d6000fd5b5050506040513d601f19601f82011682018060405250810190610bfb9190613cdf565b14610c3b576040517f08c379a0000000000000000000000000000000000000000000000000000000008152600401610c3290613d58565b60405180910390fd5b858560008981548110610c5157610c50613a50565b5b9060005260206000209060120201600d0160003373ffffffffffffffffffffffffffffffffffffffff1673ffffffffffffffffffffffffffffffffffffffff1681526020019081526020016000206002019190610caf929190612f44565b507fda9ad1af3b211e24edbe9ac3a27ce5cde27c6f44ae790099959efa1472c6be3e8733604051610ce1929190614239565b60405180910390a150505050505050565b846000805490508110610d3a576040517f08c379a0000000000000000000000000000000000000000000000000000000008152600401610d3190613a30565b60405180910390fd5b8560008181548110610d4f57610d4e613a50565b5b906000526020600020906012020160010160000160009054906101000a900473ffffffffffffffffffffffffffffffffffffffff1673ffffffffffffffffffffffffffffffffffffffff163373ffffffffffffffffffffffffffffffffffffffff1614610df1576040517f08c379a0000000000000000000000000000000000000000000000000000000008152600401610de8906142ae565b60405180910390fd5b866000808281548110610e0757610e06613a50565b5b9060005260206000209060120201600d0160003373ffffffffffffffffffffffffffffffffffffffff1673ffffffffffffffffffffffffffffffffffffffff16815260200190815260200160002050602060ff1614610e9b576040517f08c379a0000000000000000000000000000000000000000000000000000000008152600401610e929061431a565b60405180910390fd5b876000808281548110610eb157610eb0613a50565b5b906000526020600020906012020160010160080154421015610f1f576000808381548110610ee257610ee1613a50565b5b9060005260206000209060120201600f0160006101000a81548160ff02191690836005811115610f1557610f14613aeb565b5b02179055506110a7565b60008281548110610f3357610f32613a50565b5b906000526020600020906012020160010160090154421015610fa257600160008381548110610f6557610f64613a50565b5b9060005260206000209060120201600f0160006101000a81548160ff02191690836005811115610f9857610f97613aeb565b5b02179055506110a6565b60008281548110610fb657610fb5613a50565b5b9060005260206000209060120201600101600a015442101561102557600260008381548110610fe857610fe7613a50565b5b9060005260206000209060120201600f0160006101000a81548160ff0219169083600581111561101b5761101a613aeb565b5b02179055506110a5565b6000828154811061103957611038613a50565b5b9060005260206000209060120201600101600b01544210156110a45760036000838154811061106b5761106a613a50565b5b9060005260206000209060120201600f0160006101000a81548160ff0219169083600581111561109e5761109d613aeb565b5b02179055505b5b5b5b600082815481106110bb576110ba613a50565b5b9060005260206000209060120201600f0160009054906101000a900460ff1660058111156110ec576110eb613aeb565b5b8160058111156110ff576110fe613aeb565b5b1461113f576040517f08c379a000000000000000000000000000000000000000000000000000000000815260040161113690613b66565b60405180910390fd5b60008a8154811061115357611152613a50565b5b9060005260206000209060120201600101600701548034146111aa576040517f08c379a00000000000000000000000000000000000000000000000000000000081526004016111a190614386565b60405180910390fd5b60405180606001604052806112028c8c8080601f016020809104026020016040519081016040528093929190818152602001838380828437600081840152601f19601f82011690508083019250505050505050612d64565b81526020016112548a8a8080601f016020809104026020016040519081016040528093929190818152602001838380828437600081840152601f19601f82011690508083019250505050505050612d64565b81526020016040518060200160405280600081525081525060008c815481106112805761127f613a50565b5b9060005260206000209060120201600d0160003373ffffffffffffffffffffffffffffffffffffffff1673ffffffffffffffffffffffffffffffffffffffff168152602001908152602001600020600082015181600001556020820151816001015560408201518160020190805190602001906112fe929190612fca565b509050503360008c8154811061131757611316613a50565b5b9060005260206000209060120201600e0160008d8154811061133c5761133b613a50565b5b9060005260206000209060120201600e01805490508154811061136257611361613a50565b5b9060005260206000200160006101000a81548173ffffffffffffffffffffffffffffffffffffffff021916908373ffffffffffffffffffffffffffffffffffffffff1602179055507f45401769c1d58f70bd6b63e1a66bfc17d712ce0dc4ffb8d2dd0ad7177d56a3868b336040516113db929190614239565b60405180910390a15050505050505050505050565b6113f8613050565b816000805490508110611440576040517f08c379a000000000000000000000000000000000000000000000000000000000815260040161143790613a30565b60405180910390fd5b6000838154811061145457611453613a50565b5b906000526020600020906012020160100160405180604001604052908160008201805461148090613de1565b80601f01602080910402602001604051908101604052809291908181526020018280546114ac90613de1565b80156114f95780601f106114ce576101008083540402835291602001916114f9565b820191906000526020600020905b8154815290600101906020018083116114dc57829003601f168201915b505050505081526020016001820160009054906101000a900473ffffffffffffffffffffffffffffffffffffffff1673ffffffffffffffffffffffffffffffffffffffff1673ffffffffffffffffffffffffffffffffffffffff1681525050915050919050565b60008080549050905090565b8260008054905081106115b4576040517f08c379a00000000000000000000000000000000000000000000000000000000081526004016115ab90613a30565b60405180910390fd5b8360008082815481106115ca576115c9613a50565b5b9060005260206000209060120201600d0160003373ffffffffffffffffffffffffffffffffffffffff1673ffffffffffffffffffffffffffffffffffffffff16815260200190815260200160002050602060ff160361165e576040517f08c379a00000000000000000000000000000000000000000000000000000000081526004016116559061420a565b60405180910390fd5b8460036000828154811061167557611674613a50565b5b9060005260206000209060120201600101600801544210156116e35760008083815481106116a6576116a5613a50565b5b9060005260206000209060120201600f0160006101000a81548160ff021916908360058111156116d9576116d8613aeb565b5b021790555061186b565b600082815481106116f7576116f6613a50565b5b9060005260206000209060120201600101600901544210156117665760016000838154811061172957611728613a50565b5b9060005260206000209060120201600f0160006101000a81548160ff0219169083600581111561175c5761175b613aeb565b5b021790555061186a565b6000828154811061177a57611779613a50565b5b9060005260206000209060120201600101600a01544210156117e9576002600083815481106117ac576117ab613a50565b5b9060005260206000209060120201600f0160006101000a81548160ff021916908360058111156117df576117de613aeb565b5b0217905550611869565b600082815481106117fd576117fc613a50565b5b9060005260206000209060120201600101600b01544210156118685760036000838154811061182f5761182e613a50565b5b9060005260206000209060120201600f0160006101000a81548160ff0219169083600581111561186257611861613aeb565b5b02179055505b5b5b5b6000828154811061187f5761187e613a50565b5b9060005260206000209060120201600f0160009054906101000a900460ff1660058111156118b0576118af613aeb565b5b8160058111156118c3576118c2613aeb565b5b14611903576040517f08c379a00000000000000000000000000000000000000000000000000000000081526004016118fa90613b66565b60405180910390fd5b6000878154811061191757611916613a50565b5b9060005260206000209060120201600d0160003373ffffffffffffffffffffffffffffffffffffffff1673ffffffffffffffffffffffffffffffffffffffff168152602001908152602001600020600001546002878760405161197b929190613c90565b602060405180830381855afa158015611998573d6000803e3d6000fd5b5050506040513d601f19601f820116820180604052508101906119bb9190613cdf565b146119fb576040517f08c379a00000000000000000000000000000000000000000000000000000000081526004016119f290613d58565b60405180910390fd5b6040517f08c379a0000000000000000000000000000000000000000000000000000000008152600401611a2d906143f2565b60405180910390fd5b60008160e00135803414611a7f576040517f08c379a0000000000000000000000000000000000000000000000000000000008152600401611a7690614386565b60405180910390fd5b60008360c0013503611ac6576040517f08c379a0000000000000000000000000000000000000000000000000000000008152600401611abd90614484565b60405180910390fd5b8260c001358360e001351180611ae0575060008360e00135145b15611b20576040517f08c379a0000000000000000000000000000000000000000000000000000000008152600401611b179061453c565b60405180910390fd5b826101400135836101600135118015611b425750826101200135836101400135115b8015611b575750826101000135836101200135115b611b96576040517f08c379a0000000000000000000000000000000000000000000000000000000008152600401611b8d906145ce565b60405180910390fd5b6000806001816001815401808255809150500390600052602060002090601202019050600080549050816000018190555083816001018181611bd8919061487b565b905050600081600f0160006101000a81548160ff02191690836005811115611c0357611c02613aeb565b5b02179055506040518060400160405280604051806020016040528060008152508152602001600073ffffffffffffffffffffffffffffffffffffffff16815250816010016000820151816000019080519060200190611c63929190612fca565b5060208201518160010160006101000a81548173ffffffffffffffffffffffffffffffffffffffff021916908373ffffffffffffffffffffffffffffffffffffffff1602179055509050507fbdba0fc2c85fe021acfa560c047f0a846648b1b504aa94ab6557cabb04b942588160000154604051611ce191906134a3565b60405180910390a1806000015492505050919050565b60606000805b600080549050811015611d8957836005811115611d1d57611d1c613aeb565b5b60008281548110611d3157611d30613a50565b5b9060005260206000209060120201600f0160009054906101000a900460ff166005811115611d6257611d61613aeb565b5b03611d76578180611d72906148b8565b9250505b8080611d81906148b8565b915050611cfd565b5060008167ffffffffffffffff811115611da657611da5613d83565b5b604051908082528060200260200182016040528015611ddf57816020015b611dcc613080565b815260200190600190039081611dc45790505b5090506000805b60008054905081101561222d57856005811115611e0657611e05613aeb565b5b60008281548110611e1a57611e19613a50565b5b9060005260206000209060120201600f0160009054906101000a900460ff166005811115611e4b57611e4a613aeb565b5b0361221a5760008181548110611e6457611e63613a50565b5b9060005260206000209060120201600101604051806101800160405290816000820160009054906101000a900473ffffffffffffffffffffffffffffffffffffffff1673ffffffffffffffffffffffffffffffffffffffff1673ffffffffffffffffffffffffffffffffffffffff168152602001600182018054611ee790613de1565b80601f0160208091040260200160405190810160405280929190818152602001828054611f1390613de1565b8015611f605780601f10611f3557610100808354040283529160200191611f60565b820191906000526020600020905b815481529060010190602001808311611f4357829003601f168201915b50505050508152602001600282018054611f7990613de1565b80601f0160208091040260200160405190810160405280929190818152602001828054611fa590613de1565b8015611ff25780601f10611fc757610100808354040283529160200191611ff2565b820191906000526020600020905b815481529060010190602001808311611fd557829003601f168201915b5050505050815260200160038201805461200b90613de1565b80601f016020809104026020016040519081016040528092919081815260200182805461203790613de1565b80156120845780601f1061205957610100808354040283529160200191612084565b820191906000526020600020905b81548152906001019060200180831161206757829003601f168201915b5050505050815260200160048201805461209d90613de1565b80601f01602080910402602001604051908101604052809291908181526020018280546120c990613de1565b80156121165780601f106120eb57610100808354040283529160200191612116565b820191906000526020600020905b8154815290600101906020018083116120f957829003601f168201915b5050505050815260200160058201805461212f90613de1565b80601f016020809104026020016040519081016040528092919081815260200182805461215b90613de1565b80156121a85780601f1061217d576101008083540402835291602001916121a8565b820191906000526020600020905b81548152906001019060200180831161218b57829003601f168201915b5050505050815260200160068201548152602001600782015481526020016008820154815260200160098201548152602001600a8201548152602001600b82015481525050838381518110612200576121ff613a50565b5b60200260200101819052508180612216906148b8565b9250505b8080612225906148b8565b915050611de6565b50819350505050919050565b6060816000805490508110612283576040517f08c379a000000000000000000000000000000000000000000000000000000000815260040161227a90613a30565b60405180910390fd5b826000818154811061229857612297613a50565b5b906000526020600020906012020160010160000160009054906101000a900473ffffffffffffffffffffffffffffffffffffffff1673ffffffffffffffffffffffffffffffffffffffff163373ffffffffffffffffffffffffffffffffffffffff161461233a576040517f08c379a000000000000000000000000000000000000000000000000000000000815260040161233190613acb565b60405180910390fd5b8360026000828154811061235157612350613a50565b5b9060005260206000209060120201600101600801544210156123bf57600080838154811061238257612381613a50565b5b9060005260206000209060120201600f0160006101000a81548160ff021916908360058111156123b5576123b4613aeb565b5b0217905550612547565b600082815481106123d3576123d2613a50565b5b9060005260206000209060120201600101600901544210156124425760016000838154811061240557612404613a50565b5b9060005260206000209060120201600f0160006101000a81548160ff0219169083600581111561243857612437613aeb565b5b0217905550612546565b6000828154811061245657612455613a50565b5b9060005260206000209060120201600101600a01544210156124c55760026000838154811061248857612487613a50565b5b9060005260206000209060120201600f0160006101000a81548160ff021916908360058111156124bb576124ba613aeb565b5b0217905550612545565b600082815481106124d9576124d8613a50565b5b9060005260206000209060120201600101600b01544210156125445760036000838154811061250b5761250a613a50565b5b9060005260206000209060120201600f0160006101000a81548160ff0219169083600581111561253e5761253d613aeb565b5b02179055505b5b5b5b6000828154811061255b5761255a613a50565b5b9060005260206000209060120201600f0160009054906101000a900460ff16600581111561258c5761258b613aeb565b5b81600581111561259f5761259e613aeb565b5b146125df576040517f08c379a00000000000000000000000000000000000000000000000000000000081526004016125d690613b66565b60405180910390fd5b6000805b600088815481106125f7576125f6613a50565b5b9060005260206000209060120201600e018054905081101561275b57600080898154811061262857612627613a50565b5b9060005260206000209060120201600e01828154811061264b5761264a613a50565b5b9060005260206000200160009054906101000a900473ffffffffffffffffffffffffffffffffffffffff1690506000808a8154811061268d5761268c613a50565b5b9060005260206000209060120201600d0160008373ffffffffffffffffffffffffffffffffffffffff1673ffffffffffffffffffffffffffffffffffffffff16815260200190815260200160002060020180546126e990613de1565b905003612738576126fa8983612d8d565b7f4ddf4c0e94fa7c3fcf8474005bf8b72858bbc3afbeecaee663000ca4eeb2b9bd898260405161272b929190614239565b60405180910390a1612747565b8280612743906148b8565b9350505b508080612753906148b8565b9150506125e3565b5060008167ffffffffffffffff81111561277857612777613d83565b5b6040519080825280602002602001820160405280156127ab57816020015b60608152602001906001900390816127965790505b50905060005b600089815481106127c5576127c4613a50565b5b9060005260206000209060120201600e018054905081101561296057600089815481106127f5576127f4613a50565b5b9060005260206000209060120201600d016000808b8154811061281b5761281a613a50565b5b9060005260206000209060120201600e01838154811061283e5761283d613a50565b5b9060005260206000200160009054906101000a900473ffffffffffffffffffffffffffffffffffffffff1673ffffffffffffffffffffffffffffffffffffffff1673ffffffffffffffffffffffffffffffffffffffff16815260200190815260200160002060020180546128b190613de1565b80601f01602080910402602001604051908101604052809291908181526020018280546128dd90613de1565b801561292a5780601f106128ff5761010080835404028352916020019161292a565b820191906000526020600020905b81548152906001019060200180831161290d57829003601f168201915b505050505082828151811061294257612941613a50565b5b60200260200101819052508080612958906148b8565b9150506127b1565b50809650505050505050919050565b612977613080565b8160008054905081106129bf576040517f08c379a00000000000000000000000000000000000000000000000000000000081526004016129b690613a30565b60405180910390fd5b600083815481106129d3576129d2613a50565b5b9060005260206000209060120201600101604051806101800160405290816000820160009054906101000a900473ffffffffffffffffffffffffffffffffffffffff1673ffffffffffffffffffffffffffffffffffffffff1673ffffffffffffffffffffffffffffffffffffffff168152602001600182018054612a5690613de1565b80601f0160208091040260200160405190810160405280929190818152602001828054612a8290613de1565b8015612acf5780601f10612aa457610100808354040283529160200191612acf565b820191906000526020600020905b815481529060010190602001808311612ab257829003601f168201915b50505050508152602001600282018054612ae890613de1565b80601f0160208091040260200160405190810160405280929190818152602001828054612b1490613de1565b8015612b615780601f10612b3657610100808354040283529160200191612b61565b820191906000526020600020905b815481529060010190602001808311612b4457829003601f168201915b50505050508152602001600382018054612b7a90613de1565b80601f0160208091040260200160405190810160405280929190818152602001828054612ba690613de1565b8015612bf35780601f10612bc857610100808354040283529160200191612bf3565b820191906000526020600020905b815481529060010190602001808311612bd657829003601f168201915b50505050508152602001600482018054612c0c90613de1565b80601f0160208091040260200160405190810160405280929190818152602001828054612c3890613de1565b8015612c855780601f10612c5a57610100808354040283529160200191612c85565b820191906000526020600020905b815481529060010190602001808311612c6857829003601f168201915b50505050508152602001600582018054612c9e90613de1565b80601f0160208091040260200160405190810160405280929190818152602001828054612cca90613de1565b8015612d175780601f10612cec57610100808354040283529160200191612d17565b820191906000526020600020905b815481529060010190602001808311612cfa57829003601f168201915b5050505050815260200160068201548152602001600782015481526020016008820154815260200160098201548152602001600a8201548152602001600b82015481525050915050919050565b6000808290506000815103612d7f576000801b915050612d88565b60208301519150505b919050565b60008281548110612da157612da0613a50565b5b9060005260206000209060120201600e01805490508110612dc157600080fd5b60008281548110612dd557612dd4613a50565b5b9060005260206000209060120201600e01600160008481548110612dfc57612dfb613a50565b5b9060005260206000209060120201600e0180549050612e1b9190614900565b81548110612e2c57612e2b613a50565b5b9060005260206000200160009054906101000a900473ffffffffffffffffffffffffffffffffffffffff1660008381548110612e6b57612e6a613a50565b5b9060005260206000209060120201600e018281548110612e8e57612e8d613a50565b5b9060005260206000200160006101000a81548173ffffffffffffffffffffffffffffffffffffffff021916908373ffffffffffffffffffffffffffffffffffffffff16021790555060008281548110612eea57612ee9613a50565b5b9060005260206000209060120201600e01805480612f0b57612f0a614934565b5b6001900381819060005260206000200160006101000a81549073ffffffffffffffffffffffffffffffffffffffff021916905590555050565b828054612f5090613de1565b90600052602060002090601f016020900481019282612f725760008555612fb9565b82601f10612f8b57803560ff1916838001178555612fb9565b82800160010185558215612fb9579182015b82811115612fb8578235825591602001919060010190612f9d565b5b509050612fc691906130f7565b5090565b828054612fd690613de1565b90600052602060002090601f016020900481019282612ff8576000855561303f565b82601f1061301157805160ff191683800117855561303f565b8280016001018555821561303f579182015b8281111561303e578251825591602001919060010190613023565b5b50905061304c91906130f7565b5090565b604051806040016040528060608152602001600073ffffffffffffffffffffffffffffffffffffffff1681525090565b604051806101800160405280600073ffffffffffffffffffffffffffffffffffffffff16815260200160608152602001606081526020016060815260200160608152602001606081526020016000815260200160008152602001600081526020016000815260200160008152602001600081525090565b5b808211156131105760008160009055506001016130f8565b5090565b600080fd5b600080fd5b6000819050919050565b6131318161311e565b811461313c57600080fd5b50565b60008135905061314e81613128565b92915050565b600080fd5b60006040828403121561316f5761316e613154565b5b81905092915050565b6000806040838503121561318f5761318e613114565b5b600061319d8582860161313f565b925050602083013567ffffffffffffffff8111156131be576131bd613119565b5b6131ca85828601613159565b9150509250929050565b600080fd5b600080fd5b600080fd5b60008083601f8401126131f9576131f86131d4565b5b8235905067ffffffffffffffff811115613216576132156131d9565b5b602083019150836001820283011115613232576132316131de565b5b9250929050565b60008060006040848603121561325257613251613114565b5b60006132608682870161313f565b935050602084013567ffffffffffffffff81111561328157613280613119565b5b61328d868287016131e3565b92509250509250925092565b6000806000806000606086880312156132b5576132b4613114565b5b60006132c38882890161313f565b955050602086013567ffffffffffffffff8111156132e4576132e3613119565b5b6132f0888289016131e3565b9450945050604086013567ffffffffffffffff81111561331357613312613119565b5b61331f888289016131e3565b92509250509295509295909350565b60006020828403121561334457613343613114565b5b60006133528482850161313f565b91505092915050565b600081519050919050565b600082825260208201905092915050565b60005b8381101561339557808201518184015260208101905061337a565b838111156133a4576000848401525b50505050565b6000601f19601f8301169050919050565b60006133c68261335b565b6133d08185613366565b93506133e0818560208601613377565b6133e9816133aa565b840191505092915050565b600073ffffffffffffffffffffffffffffffffffffffff82169050919050565b600061341f826133f4565b9050919050565b61342f81613414565b82525050565b6000604083016000830151848203600086015261345282826133bb565b91505060208301516134676020860182613426565b508091505092915050565b6000602082019050818103600083015261348c8184613435565b905092915050565b61349d8161311e565b82525050565b60006020820190506134b86000830184613494565b92915050565b600061018082840312156134d5576134d4613154565b5b81905092915050565b6000602082840312156134f4576134f3613114565b5b600082013567ffffffffffffffff81111561351257613511613119565b5b61351e848285016134be565b91505092915050565b6006811061353457600080fd5b50565b60008135905061354681613527565b92915050565b60006020828403121561356257613561613114565b5b600061357084828501613537565b91505092915050565b600081519050919050565b600082825260208201905092915050565b6000819050602082019050919050565b60006135b0826133f4565b9050919050565b6135c0816135a5565b82525050565b6135cf8161311e565b82525050565b6000610180830160008301516135ee60008601826135b7565b506020830151848203602086015261360682826133bb565b9150506040830151848203604086015261362082826133bb565b9150506060830151848203606086015261363a82826133bb565b9150506080830151848203608086015261365482826133bb565b91505060a083015184820360a086015261366e82826133bb565b91505060c083015161368360c08601826135c6565b5060e083015161369660e08601826135c6565b506101008301516136ab6101008601826135c6565b506101208301516136c06101208601826135c6565b506101408301516136d56101408601826135c6565b506101608301516136ea6101608601826135c6565b508091505092915050565b600061370183836135d5565b905092915050565b6000602082019050919050565b600061372182613579565b61372b8185613584565b93508360208202850161373d85613595565b8060005b85811015613779578484038952815161375a85826136f5565b945061376583613709565b925060208a01995050600181019050613741565b50829750879550505050505092915050565b600060208201905081810360008301526137a58184613716565b905092915050565b600081519050919050565b600082825260208201905092915050565b6000819050602082019050919050565b60006137e583836133bb565b905092915050565b6000602082019050919050565b6000613805826137ad565b61380f81856137b8565b935083602082028501613821856137c9565b8060005b8581101561385d578484038952815161383e85826137d9565b9450613849836137ed565b925060208a01995050600181019050613825565b50829750879550505050505092915050565b6000602082019050818103600083015261388981846137fa565b905092915050565b6000610180830160008301516138aa60008601826135b7565b50602083015184820360208601526138c282826133bb565b915050604083015184820360408601526138dc82826133bb565b915050606083015184820360608601526138f682826133bb565b9150506080830151848203608086015261391082826133bb565b91505060a083015184820360a086015261392a82826133bb565b91505060c083015161393f60c08601826135c6565b5060e083015161395260e08601826135c6565b506101008301516139676101008601826135c6565b5061012083015161397c6101208601826135c6565b506101408301516139916101408601826135c6565b506101608301516139a66101608601826135c6565b508091505092915050565b600060208201905081810360008301526139cb8184613891565b905092915050565b600082825260208201905092915050565b7f41756374696f6e204944206973206e6f742076616c6964210000000000000000600082015250565b6000613a1a6018836139d3565b9150613a25826139e4565b602082019050919050565b60006020820190508181036000830152613a4981613a0d565b9050919050565b7f4e487b7100000000000000000000000000000000000000000000000000000000600052603260045260246000fd5b7f53656e646572206973206e6f7420746865206f776e6572210000000000000000600082015250565b6000613ab56018836139d3565b9150613ac082613a7f565b602082019050919050565b60006020820190508181036000830152613ae481613aa8565b9050919050565b7f4e487b7100000000000000000000000000000000000000000000000000000000600052602160045260246000fd5b7f496e617070726f707269617465206f7065726174696f6e210000000000000000600082015250565b6000613b506018836139d3565b9150613b5b82613b1a565b602082019050919050565b60006020820190508181036000830152613b7f81613b43565b9050919050565b613b8f81613414565b8114613b9a57600080fd5b50565b600081359050613bac81613b86565b92915050565b600060208284031215613bc857613bc7613114565b5b6000613bd684828501613b9d565b91505092915050565b600080fd5b600080fd5b600080fd5b60008083356001602003843603038112613c0b57613c0a613bdf565b5b80840192508235915067ffffffffffffffff821115613c2d57613c2c613be4565b5b602083019250600182023603831315613c4957613c48613be9565b5b509250929050565b600081905092915050565b82818337600083830152505050565b6000613c778385613c51565b9350613c84838584613c5c565b82840190509392505050565b6000613c9d828486613c6b565b91508190509392505050565b6000819050919050565b613cbc81613ca9565b8114613cc757600080fd5b50565b600081519050613cd981613cb3565b92915050565b600060208284031215613cf557613cf4613114565b5b6000613d0384828501613cca565b91505092915050565b7f4861736820697320696e76616c69642100000000000000000000000000000000600082015250565b6000613d426010836139d3565b9150613d4d82613d0c565b602082019050919050565b60006020820190508181036000830152613d7181613d35565b9050919050565b600082905092915050565b7f4e487b7100000000000000000000000000000000000000000000000000000000600052604160045260246000fd5b7f4e487b7100000000000000000000000000000000000000000000000000000000600052602260045260246000fd5b60006002820490506001821680613df957607f821691505b602082108103613e0c57613e0b613db2565b5b50919050565b60008190508160005260206000209050919050565b60006020601f8301049050919050565b600082821b905092915050565b600060088302613e747fffffffffffffffffffffffffffffffffffffffffffffffffffffffffffffffff82613e37565b613e7e8683613e37565b95508019841693508086168417925050509392505050565b6000819050919050565b6000613ebb613eb6613eb18461311e565b613e96565b61311e565b9050919050565b6000819050919050565b613ed583613ea0565b613ee9613ee182613ec2565b848454613e44565b825550505050565b600090565b613efe613ef1565b613f09818484613ecc565b505050565b5b81811015613f2d57613f22600082613ef6565b600181019050613f0f565b5050565b601f821115613f7257613f4381613e12565b613f4c84613e27565b81016020851015613f5b578190505b613f6f613f6785613e27565b830182613f0e565b50505b505050565b600082821c905092915050565b6000613f9560001984600802613f77565b1980831691505092915050565b6000613fae8383613f84565b9150826002028217905092915050565b613fc88383613d78565b67ffffffffffffffff811115613fe157613fe0613d83565b5b613feb8254613de1565b613ff6828285613f31565b6000601f8311600181146140255760008415614013578287013590505b61401d8582613fa2565b865550614085565b601f19841661403386613e12565b60005b8281101561405b57848901358255600182019150602085019450602081019050614036565b868310156140785784890135614074601f891682613f84565b8355505b6001600288020188555050505b50505050505050565b614099838383613fbe565b505050565b600081356140ab81613b86565b80915050919050565b60008160001b9050919050565b600073ffffffffffffffffffffffffffffffffffffffff6140e1846140b4565b9350801983169250808416831791505092915050565b600061411261410d614108846133f4565b613e96565b6133f4565b9050919050565b6000614124826140f7565b9050919050565b600061413682614119565b9050919050565b6000819050919050565b6141508261412b565b61416361415c8261413d565b83546140c1565b8255505050565b600081016000830161417c8185613bee565b61418781838661408e565b5050505060018101602083018061419d8161409e565b90506141a98184614147565b5050505050565b6141ba828261416a565b5050565b7f53656e64657220686173206e6f7420706c616365642061206269642100000000600082015250565b60006141f4601c836139d3565b91506141ff826141be565b602082019050919050565b60006020820190508181036000830152614223816141e7565b9050919050565b61423381613414565b82525050565b600060408201905061424e6000830185613494565b61425b602083018461422a565b9392505050565b7f53656e64657220697320746865206f776e657221000000000000000000000000600082015250565b60006142986014836139d3565b91506142a382614262565b602082019050919050565b600060208201905081810360008301526142c78161428b565b9050919050565b7f53656e6465722068617320616c726561647920706c6163656420612062696421600082015250565b60006143046020836139d3565b915061430f826142ce565b602082019050919050565b60006020820190508181036000830152614333816142f7565b9050919050565b7f53656e742076616c7565206973206e6f74207269676874210000000000000000600082015250565b60006143706018836139d3565b915061437b8261433a565b602082019050919050565b6000602082019050818103600083015261439f81614363565b9050919050565b7f4e6f7420696d706c656d656e7465640000000000000000000000000000000000600082015250565b60006143dc600f836139d3565b91506143e7826143a6565b602082019050919050565b6000602082019050818103600083015261440b816143cf565b9050919050565b7f4d696e696d756d207072696365206d757374206265206120706f73697469766560008201527f206e756d62657200000000000000000000000000000000000000000000000000602082015250565b600061446e6027836139d3565b915061447982614412565b604082019050919050565b6000602082019050818103600083015261449d81614461565b9050919050565b7f5468652072656c6174696f6e202830203c205365637572697479204465706f7360008201527f6974203c204d696e696d756d20507269636529206973206e6f7420736174697360208201527f666965642e000000000000000000000000000000000000000000000000000000604082015250565b60006145266045836139d3565b9150614531826144a4565b606082019050919050565b6000602082019050818103600083015261455581614519565b9050919050565b7f446174657320617265206e6f7420696e20746865207269676874206f7264657260008201527f2e00000000000000000000000000000000000000000000000000000000000000602082015250565b60006145b86021836139d3565b91506145c38261455c565b604082019050919050565b600060208201905081810360008301526145e7816145ab565b9050919050565b6145f7816135a5565b811461460257600080fd5b50565b60008135614612816145ee565b80915050919050565b6000614626826140f7565b9050919050565b60006146388261461b565b9050919050565b6000819050919050565b6146528261462d565b61466561465e8261463f565b83546140c1565b8255505050565b6000813561467981613128565b80915050919050565b60007fffffffffffffffffffffffffffffffffffffffffffffffffffffffffffffffff6146ae846140b4565b9350801983169250808416831791505092915050565b6146cd82613ea0565b6146e06146d982613ec2565b8354614682565b8255505050565b6000810160008301806146f981614605565b90506147058184614649565b505050600181016020830161471a8185613bee565b61472581838661408e565b50505050600281016040830161473b8185613bee565b61474681838661408e565b50505050600381016060830161475c8185613bee565b61476781838661408e565b50505050600481016080830161477d8185613bee565b61478881838661408e565b505050506005810160a0830161479e8185613bee565b6147a981838661408e565b505050506006810160c08301806147bf8161466c565b90506147cb81846146c4565b5050506007810160e08301806147e08161466c565b90506147ec81846146c4565b505050600881016101008301806148028161466c565b905061480e81846146c4565b505050600981016101208301806148248161466c565b905061483081846146c4565b505050600a81016101408301806148468161466c565b905061485281846146c4565b505050600b81016101608301806148688161466c565b905061487481846146c4565b5050505050565b61488582826146e7565b5050565b7f4e487b7100000000000000000000000000000000000000000000000000000000600052601160045260246000fd5b60006148c38261311e565b91507fffffffffffffffffffffffffffffffffffffffffffffffffffffffffffffffff82036148f5576148f4614889565b5b600182019050919050565b600061490b8261311e565b91506149168361311e565b92508282101561492957614928614889565b5b828203905092915050565b7f4e487b7100000000000000000000000000000000000000000000000000000000600052603160045260246000fdfea26469706673582212203abcd5ec02826db6c88166333b31dd7d18d2cc7141284484cd9b95b13d9b9d7764736f6c634300080d0033",
  "immutableReferences": {},
  "source": "// SPDX-License-Identifier: MIT\npragma solidity ^0.8.13;\n\n// NOTE: all currency is wei\n\ncontract SealedBidAuctionManager {\n    struct UserSetAuctionInfo {\n        // administrative\n        address payable owner;\n        string params;\n        string owner_pkey;\n        // item\n        string itemName;\n        string itemDesc;\n        string itemPicture;\n        // transactional\n        uint256 minimumPrice;\n        uint256 securityDeposit;\n        // dates\n        uint256 biddingEndDate;\n        uint256 revealingEndDate;\n        uint256 sortingEndDate;\n        uint256 verificationEndDate;\n    }\n\n    struct Bid {\n        // to bid\n        bytes32 c;\n        bytes32 d;\n        // to reveal\n        string z;\n    }\n\n    struct AuctionWinner {\n        string y;\n        address bidder;\n    }\n\n    struct Auction {\n        uint256 id;\n        UserSetAuctionInfo info;\n        mapping(address => Bid) bids;\n        address[] bidders;\n        AuctionState state;\n        AuctionWinner winner;\n    }\n\n    enum AuctionState {\n        BiddingPhase,\n        RevealingPhase,\n        SortingPhase,\n        VerificationPhase,\n        Success,\n        Failure\n    }\n\n    Auction[] private auctions;\n\n    // events for logging and subscription\n\n    event NewAuction(uint256 auctionId);\n    event NewBid(uint256 auctionId, address by);\n    event NewReveal(uint256 auctionId, address by);\n    event BidderRemoved(uint256, address who);\n    event WinnerDecided(uint256 auctionId);\n    event ObjectionSuccessful(uint256 auctionId, address by);\n    event AuctionEnds(uint256 auctionId, bool success);\n\n    // modifiers for modularity\n\n    modifier SenderDidNotPlaceABid(uint256 auctionId) {\n        if (auctions[auctionId].bids[msg.sender].c.length != 0)\n            revert(\"Sender has already placed a bid!\");\n        _;\n    }\n\n    modifier SenderPlacedABid(uint256 auctionId) {\n        if (auctions[auctionId].bids[msg.sender].c.length == 0)\n            revert(\"Sender has not placed a bid!\");\n        _;\n    }\n\n    modifier SenderIsOwner(uint256 auctionId) {\n        if (msg.sender != auctions[auctionId].info.owner)\n            revert(\"Sender is not the owner!\");\n        _;\n    }\n\n    modifier SenderIsNotOwner(uint256 auctionId) {\n        if (msg.sender != auctions[auctionId].info.owner)\n            revert(\"Sender is the owner!\");\n        _;\n    }\n\n    modifier AuctionIDIsValid(uint256 auctionId) {\n        if (auctionId >= auctions.length) revert(\"Auction ID is not valid!\");\n        _;\n    }\n\n    modifier CheckAuctionState(uint256 auctionId, AuctionState state) {\n        // set it\n        if (block.timestamp < auctions[auctionId].info.biddingEndDate)\n            auctions[auctionId].state = AuctionState.BiddingPhase;\n        else if (block.timestamp < auctions[auctionId].info.revealingEndDate)\n            auctions[auctionId].state = AuctionState.RevealingPhase;\n        else if (block.timestamp < auctions[auctionId].info.sortingEndDate)\n            auctions[auctionId].state = AuctionState.SortingPhase;\n        else if (block.timestamp < auctions[auctionId].info.verificationEndDate)\n            auctions[auctionId].state = AuctionState.VerificationPhase;\n        // else, state == AuctionState.Success || state == AuctionState.Failure\n\n        // check it\n        if (state != auctions[auctionId].state) {\n            revert(\"Inappropriate operation!\");\n        }\n        _;\n    }\n\n    modifier ValueEquals(uint v) {\n        if (msg.value != v) revert(\"Sent value is not right!\");\n        _;\n    }\n\n    // private functions\n\n    function _stringToBytes32(\n        string memory source\n    ) private pure returns (bytes32 result) {\n        bytes memory b = bytes(source);\n        if (b.length == 0) return 0;\n\n        assembly {\n            result := mload(add(source, 32))\n        }\n    }\n\n    function _removeBidder(uint256 auctionId, uint index) internal {\n        require(index < auctions[auctionId].bidders.length);\n\n        auctions[auctionId].bidders[index] = auctions[auctionId].bidders[\n            auctions[auctionId].bidders.length - 1\n        ];\n        auctions[auctionId].bidders.pop();\n    }\n\n    // external functions to be called at any time\n\n    function getNumberOfRegisteredAuctions() external view returns (uint256) {\n        return auctions.length;\n    }\n\n    function createAuction(\n        UserSetAuctionInfo calldata info\n    ) external payable ValueEquals(info.securityDeposit) returns (uint256) {\n        // validation of auction parameters\n        if (info.minimumPrice == 0)\n            revert(\"Minimum price must be a positive number\");\n\n        if (\n            info.securityDeposit > info.minimumPrice ||\n            info.securityDeposit == 0\n        )\n            revert(\n                \"The relation (0 < Security Deposit < Minimum Price) is not satisfied.\"\n            );\n\n        if (\n            !(info.verificationEndDate > info.sortingEndDate &&\n                info.sortingEndDate > info.revealingEndDate &&\n                info.revealingEndDate > info.biddingEndDate)\n        ) revert(\"Dates are not in the right order.\");\n\n        // valid? add it\n        Auction storage auction = auctions.push();\n\n        auction.id = auctions.length;\n        auction.info = info;\n        auction.state = AuctionState.BiddingPhase;\n        auction.winner = AuctionWinner({y: \"\", bidder: address(0)});\n\n        emit NewAuction(auction.id);\n        return auction.id;\n    }\n\n    function getAuctionsByState(\n        AuctionState state\n    ) external view returns (UserSetAuctionInfo[] memory) {\n        uint256 count = 0;\n        for (uint256 i = 0; i < auctions.length; i++) {\n            if (auctions[i].state == state) {\n                count++;\n            }\n        }\n\n        UserSetAuctionInfo[] memory data = new UserSetAuctionInfo[](count);\n        uint256 j = 0;\n        for (uint256 i = 0; i < auctions.length; i++) {\n            if (auctions[i].state == state) {\n                data[j] = auctions[i].info;\n                j++;\n            }\n        }\n\n        return data;\n    }\n\n    function getAuctionInfo(\n        uint256 auctionId\n    )\n        external\n        view\n        AuctionIDIsValid(auctionId)\n        returns (UserSetAuctionInfo memory)\n    {\n        return auctions[auctionId].info;\n    }\n\n    // functions to be called throughout the auction process\n\n    function placeBid(\n        uint256 auctionId,\n        string calldata c,\n        string calldata d\n    )\n        external\n        payable\n        AuctionIDIsValid(auctionId)\n        SenderIsNotOwner(auctionId)\n        SenderDidNotPlaceABid(auctionId)\n        CheckAuctionState(auctionId, AuctionState.BiddingPhase)\n        ValueEquals(auctions[auctionId].info.securityDeposit)\n    {\n        auctions[auctionId].bids[msg.sender] = Bid({\n            c: _stringToBytes32(c),\n            d: _stringToBytes32(d),\n            z: \"\"\n        });\n        auctions[auctionId].bidders[auctions[auctionId].bidders.length] = msg\n            .sender;\n        emit NewBid(auctionId, msg.sender);\n    }\n\n    function revealBid(\n        uint256 auctionId,\n        string calldata z\n    )\n        external\n        AuctionIDIsValid(auctionId)\n        SenderPlacedABid(auctionId)\n        CheckAuctionState(auctionId, AuctionState.RevealingPhase)\n    {\n        // verify commitment\n        if (sha256(bytes(z)) != auctions[auctionId].bids[msg.sender].d)\n            revert(\"Hash is invalid!\");\n\n        auctions[auctionId].bids[msg.sender].z = z;\n        emit NewReveal(auctionId, msg.sender);\n    }\n\n    function getReveals(\n        uint256 auctionId\n    )\n        external\n        AuctionIDIsValid(auctionId)\n        SenderIsOwner(auctionId)\n        CheckAuctionState(auctionId, AuctionState.SortingPhase)\n        returns (string[] memory)\n    {\n        uint256 count = 0;\n        for (uint256 i = 0; i < auctions[auctionId].bidders.length; i++) {\n            address bidder = auctions[auctionId].bidders[i];\n            if (bytes(auctions[auctionId].bids[bidder].z).length == 0) {\n                // remove them, no refunds\n                _removeBidder(auctionId, i);\n                emit BidderRemoved(auctionId, bidder);\n            } else {\n                count++;\n            }\n        }\n\n        string[] memory zs = new string[](count);\n        for (uint256 i = 0; i < auctions[auctionId].bidders.length; i++) {\n            zs[i] = auctions[auctionId].bids[auctions[auctionId].bidders[i]].z;\n        }\n\n        return zs;\n    }\n\n    function declareWinner(\n        uint256 auctionId,\n        AuctionWinner calldata winner\n    )\n        external\n        AuctionIDIsValid(auctionId)\n        SenderIsOwner(auctionId)\n        CheckAuctionState(auctionId, AuctionState.SortingPhase)\n    {\n        // verify commitment\n        if (\n            sha256(bytes(winner.y)) != auctions[auctionId].bids[winner.bidder].c\n        ) revert(\"Hash is invalid!\");\n\n        auctions[auctionId].winner = winner;\n        emit WinnerDecided(auctionId);\n    }\n\n    function getWinner(\n        uint256 auctionId\n    ) external view AuctionIDIsValid(auctionId) returns (AuctionWinner memory) {\n        return auctions[auctionId].winner;\n    }\n\n    function objectToWinner(\n        uint256 auctionId,\n        string calldata y\n    )\n        external\n        AuctionIDIsValid(auctionId)\n        SenderPlacedABid(auctionId)\n        CheckAuctionState(auctionId, AuctionState.VerificationPhase)\n    {\n        // verify commitment\n        if (sha256(bytes(y)) != auctions[auctionId].bids[msg.sender].c)\n            revert(\"Hash is invalid!\");\n\n        // verify that it is bigger\n        revert(\"Not implemented\"); // FIXME\n\n        // auctions[auctionId].winner = winner;\n        // emit WinnerDecided(auctionId, winner.bidder);\n    }\n}\n",
  "sourcePath": "/home/amr/fghdh/auction-system-webapp/contracts/contracts/SealedBidAuctionManager.sol",
  "compiler": {
    "name": "solc",
    "version": "0.8.13+commit.abaa5c0e.Emscripten.clang"
  },
  "schemaVersion": "3.4.13",
  "updatedAt": "2023-07-04T13:31:36.141Z",
  "networkType": "ethereum",
  "devdoc": {
    "kind": "dev",
    "methods": {},
    "version": 1
  },
  "userdoc": {
    "kind": "user",
    "methods": {},
    "version": 1
  }
}