{
  "contractName": "SealedBidAuctionManager",
  "abi": [
    {
      "anonymous": false,
      "inputs": [
        {
          "indexed": false,
          "internalType": "uint256",
          "name": "auctionId",
          "type": "uint256"
        },
        {
          "indexed": false,
          "internalType": "bool",
          "name": "success",
          "type": "bool"
        }
      ],
      "name": "AuctionEnds",
      "type": "event"
    },
    {
      "anonymous": false,
      "inputs": [
        {
          "indexed": false,
          "internalType": "uint256",
          "name": "",
          "type": "uint256"
        },
        {
          "indexed": false,
          "internalType": "address",
          "name": "who",
          "type": "address"
        }
      ],
      "name": "BidderRemoved",
      "type": "event"
    },
    {
      "anonymous": false,
      "inputs": [
        {
          "indexed": false,
          "internalType": "uint256",
          "name": "auctionId",
          "type": "uint256"
        }
      ],
      "name": "NewAuction",
      "type": "event"
    },
    {
      "anonymous": false,
      "inputs": [
        {
          "indexed": false,
          "internalType": "uint256",
          "name": "auctionId",
          "type": "uint256"
        },
        {
          "indexed": false,
          "internalType": "address",
          "name": "by",
          "type": "address"
        }
      ],
      "name": "NewBid",
      "type": "event"
    },
    {
      "anonymous": false,
      "inputs": [
        {
          "indexed": false,
          "internalType": "uint256",
          "name": "auctionId",
          "type": "uint256"
        },
        {
          "indexed": false,
          "internalType": "address",
          "name": "by",
          "type": "address"
        }
      ],
      "name": "NewReveal",
      "type": "event"
    },
    {
      "anonymous": false,
      "inputs": [
        {
          "indexed": false,
          "internalType": "uint256",
          "name": "auctionId",
          "type": "uint256"
        },
        {
          "indexed": false,
          "internalType": "address",
          "name": "by",
          "type": "address"
        }
      ],
      "name": "ObjectionPlaced",
      "type": "event"
    },
    {
      "anonymous": false,
      "inputs": [
        {
          "indexed": false,
          "internalType": "uint256",
          "name": "auctionId",
          "type": "uint256"
        },
        {
          "indexed": false,
          "internalType": "address",
          "name": "who",
          "type": "address"
        }
      ],
      "name": "WinnerDecided",
      "type": "event"
    },
    {
      "inputs": [],
      "name": "getNumberOfRegisteredAuctions",
      "outputs": [
        {
          "internalType": "uint256",
          "name": "",
          "type": "uint256"
        }
      ],
      "stateMutability": "view",
      "type": "function"
    },
    {
      "inputs": [
        {
          "components": [
            {
              "internalType": "address payable",
              "name": "owner",
              "type": "address"
            },
            {
              "internalType": "bytes",
              "name": "params",
              "type": "bytes"
            },
            {
              "internalType": "bytes",
              "name": "owner_pkey",
              "type": "bytes"
            },
            {
              "internalType": "string",
              "name": "itemName",
              "type": "string"
            },
            {
              "internalType": "string",
              "name": "itemDesc",
              "type": "string"
            },
            {
              "internalType": "string",
              "name": "itemPicture",
              "type": "string"
            },
            {
              "internalType": "uint256",
              "name": "minimumPrice",
              "type": "uint256"
            },
            {
              "internalType": "uint256",
              "name": "securityDeposit",
              "type": "uint256"
            },
            {
              "internalType": "uint256",
              "name": "biddingEndDate",
              "type": "uint256"
            },
            {
              "internalType": "uint256",
              "name": "revealingEndDate",
              "type": "uint256"
            },
            {
              "internalType": "uint256",
              "name": "sortingEndDate",
              "type": "uint256"
            }
          ],
          "internalType": "struct SealedBidAuctionManager.UserSetAuctionInfo",
          "name": "info",
          "type": "tuple"
        }
      ],
      "name": "createAuction",
      "outputs": [
        {
          "internalType": "uint256",
          "name": "",
          "type": "uint256"
        }
      ],
      "stateMutability": "payable",
      "type": "function"
    },
    {
      "inputs": [
        {
          "internalType": "enum SealedBidAuctionManager.AuctionState",
          "name": "state",
          "type": "uint8"
        }
      ],
      "name": "getAuctionsByState",
      "outputs": [
        {
          "components": [
            {
              "internalType": "uint256",
              "name": "id",
              "type": "uint256"
            },
            {
              "components": [
                {
                  "internalType": "address payable",
                  "name": "owner",
                  "type": "address"
                },
                {
                  "internalType": "bytes",
                  "name": "params",
                  "type": "bytes"
                },
                {
                  "internalType": "bytes",
                  "name": "owner_pkey",
                  "type": "bytes"
                },
                {
                  "internalType": "string",
                  "name": "itemName",
                  "type": "string"
                },
                {
                  "internalType": "string",
                  "name": "itemDesc",
                  "type": "string"
                },
                {
                  "internalType": "string",
                  "name": "itemPicture",
                  "type": "string"
                },
                {
                  "internalType": "uint256",
                  "name": "minimumPrice",
                  "type": "uint256"
                },
                {
                  "internalType": "uint256",
                  "name": "securityDeposit",
                  "type": "uint256"
                },
                {
                  "internalType": "uint256",
                  "name": "biddingEndDate",
                  "type": "uint256"
                },
                {
                  "internalType": "uint256",
                  "name": "revealingEndDate",
                  "type": "uint256"
                },
                {
                  "internalType": "uint256",
                  "name": "sortingEndDate",
                  "type": "uint256"
                }
              ],
              "internalType": "struct SealedBidAuctionManager.UserSetAuctionInfo",
              "name": "info",
              "type": "tuple"
            }
          ],
          "internalType": "struct SealedBidAuctionManager.AuctionByState[]",
          "name": "",
          "type": "tuple[]"
        }
      ],
      "stateMutability": "view",
      "type": "function"
    },
    {
      "inputs": [
        {
          "internalType": "uint256",
          "name": "auctionId",
          "type": "uint256"
        }
      ],
      "name": "getAuctionInfo",
      "outputs": [
        {
          "components": [
            {
              "internalType": "address payable",
              "name": "owner",
              "type": "address"
            },
            {
              "internalType": "bytes",
              "name": "params",
              "type": "bytes"
            },
            {
              "internalType": "bytes",
              "name": "owner_pkey",
              "type": "bytes"
            },
            {
              "internalType": "string",
              "name": "itemName",
              "type": "string"
            },
            {
              "internalType": "string",
              "name": "itemDesc",
              "type": "string"
            },
            {
              "internalType": "string",
              "name": "itemPicture",
              "type": "string"
            },
            {
              "internalType": "uint256",
              "name": "minimumPrice",
              "type": "uint256"
            },
            {
              "internalType": "uint256",
              "name": "securityDeposit",
              "type": "uint256"
            },
            {
              "internalType": "uint256",
              "name": "biddingEndDate",
              "type": "uint256"
            },
            {
              "internalType": "uint256",
              "name": "revealingEndDate",
              "type": "uint256"
            },
            {
              "internalType": "uint256",
              "name": "sortingEndDate",
              "type": "uint256"
            }
          ],
          "internalType": "struct SealedBidAuctionManager.UserSetAuctionInfo",
          "name": "",
          "type": "tuple"
        }
      ],
      "stateMutability": "view",
      "type": "function"
    },
    {
      "inputs": [
        {
          "internalType": "uint256",
          "name": "auctionId",
          "type": "uint256"
        },
        {
          "internalType": "bytes",
          "name": "c",
          "type": "bytes"
        },
        {
          "internalType": "bytes",
          "name": "d",
          "type": "bytes"
        }
      ],
      "name": "placeBid",
      "outputs": [],
      "stateMutability": "payable",
      "type": "function"
    },
    {
      "inputs": [
        {
          "internalType": "uint256",
          "name": "auctionId",
          "type": "uint256"
        },
        {
          "internalType": "bytes",
          "name": "z",
          "type": "bytes"
        }
      ],
      "name": "revealBid",
      "outputs": [],
      "stateMutability": "nonpayable",
      "type": "function"
    },
    {
      "inputs": [
        {
          "internalType": "uint256",
          "name": "auctionId",
          "type": "uint256"
        }
      ],
      "name": "getReveals",
      "outputs": [
        {
          "internalType": "bytes[]",
          "name": "",
          "type": "bytes[]"
        }
      ],
      "stateMutability": "nonpayable",
      "type": "function"
    },
    {
      "inputs": [
        {
          "internalType": "uint256",
          "name": "auctionId",
          "type": "uint256"
        },
        {
          "components": [
            {
              "internalType": "bytes",
              "name": "y",
              "type": "bytes"
            },
            {
              "internalType": "address",
              "name": "bidder",
              "type": "address"
            }
          ],
          "internalType": "struct SealedBidAuctionManager.AuctionWinner",
          "name": "winner",
          "type": "tuple"
        }
      ],
      "name": "declareWinner",
      "outputs": [],
      "stateMutability": "nonpayable",
      "type": "function"
    },
    {
      "inputs": [
        {
          "internalType": "uint256",
          "name": "auctionId",
          "type": "uint256"
        }
      ],
      "name": "getWinner",
      "outputs": [
        {
          "components": [
            {
              "internalType": "bytes",
              "name": "y",
              "type": "bytes"
            },
            {
              "internalType": "address",
              "name": "bidder",
              "type": "address"
            }
          ],
          "internalType": "struct SealedBidAuctionManager.AuctionWinner",
          "name": "",
          "type": "tuple"
        }
      ],
      "stateMutability": "view",
      "type": "function"
    },
    {
      "inputs": [
        {
          "internalType": "uint256",
          "name": "auctionId",
          "type": "uint256"
        }
      ],
      "name": "returnDeposit",
      "outputs": [],
      "stateMutability": "nonpayable",
      "type": "function"
    },
    {
      "inputs": [
        {
          "internalType": "uint256",
          "name": "auctionId",
          "type": "uint256"
        },
        {
          "internalType": "bytes",
          "name": "y",
          "type": "bytes"
        }
      ],
      "name": "objectToTheWinner",
      "outputs": [],
      "stateMutability": "nonpayable",
      "type": "function"
    },
    {
      "inputs": [
        {
          "internalType": "uint256",
          "name": "auctionId",
          "type": "uint256"
        }
      ],
      "name": "getObjections",
      "outputs": [
        {
          "components": [
            {
              "internalType": "bytes",
              "name": "y",
              "type": "bytes"
            },
            {
              "internalType": "address",
              "name": "bidder",
              "type": "address"
            }
          ],
          "internalType": "struct SealedBidAuctionManager.AuctionWinner[]",
          "name": "",
          "type": "tuple[]"
        }
      ],
      "stateMutability": "nonpayable",
      "type": "function"
    }
  ],
  "bytecode": "0x608060405234801561001057600080fd5b50615578806100206000396000f3fe6080604052600436106100a75760003560e01c80638b10b875116100645780638b10b875146101bf5780639690d621146101e857806397d9ee5214610225578063b8e8fcc514610262578063cea324181461028b578063fc3fc4ed146102bb576100a7565b806310e9f549146100ac57806318b683fb146100d55780634129b2c9146100fe57806345e481a31461013b57806347bf5e2c14610166578063684e38ee14610182575b600080fd5b3480156100b857600080fd5b506100d360048036038101906100ce9190613a95565b6102f8565b005b3480156100e157600080fd5b506100fc60048036038101906100f79190613af5565b61080d565b005b34801561010a57600080fd5b5061012560048036038101906101209190613af5565b610d67565b6040516101329190613c39565b60405180910390f35b34801561014757600080fd5b50610150610ed7565b60405161015d9190613c6a565b60405180910390f35b610180600480360381019061017b9190613c85565b610ee3565b005b34801561018e57600080fd5b506101a960048036038101906101a49190613d3f565b611559565b6040516101b69190613ffb565b60405180910390f35b3480156101cb57600080fd5b506101e660048036038101906101e19190614041565b611ade565b005b3480156101f457600080fd5b5061020f600480360381019061020a9190613af5565b611ff1565b60405161021c919061419c565b60405180910390f35b34801561023157600080fd5b5061024c60048036038101906102479190613af5565b61241c565b6040516102599190614280565b60405180910390f35b34801561026e57600080fd5b5061028960048036038101906102849190613a95565b612b21565b005b6102a560048036038101906102a091906142c2565b61305f565b6040516102b29190613c6a565b60405180910390f35b3480156102c757600080fd5b506102e260048036038101906102dd9190613af5565b613265565b6040516102ef9190614416565b60405180910390f35b826000805490508110610340576040517f08c379a000000000000000000000000000000000000000000000000000000000815260040161033790614495565b60405180910390fd5b836000808281548110610356576103556144b5565b5b9060005260206000209060120201600c0160003373ffffffffffffffffffffffffffffffffffffffff1673ffffffffffffffffffffffffffffffffffffffff16815260200190815260200160002050602060ff16036103ea576040517f08c379a00000000000000000000000000000000000000000000000000000000081526004016103e190614530565b60405180910390fd5b84600160008281548110610401576104006144b5565b5b90600052602060002090601202016001016008015442101561046f576000808381548110610432576104316144b5565b5b9060005260206000209060120201600e0160006101000a81548160ff0219169083600381111561046557610464614550565b5b02179055506105c6565b60008281548110610483576104826144b5565b5b9060005260206000209060120201600101600901544210156104f2576001600083815481106104b5576104b46144b5565b5b9060005260206000209060120201600e0160006101000a81548160ff021916908360038111156104e8576104e7614550565b5b02179055506105c5565b60008281548110610506576105056144b5565b5b9060005260206000209060120201600101600a015442101561057557600260008381548110610538576105376144b5565b5b9060005260206000209060120201600e0160006101000a81548160ff0219169083600381111561056b5761056a614550565b5b02179055506105c4565b60036000838154811061058b5761058a6144b5565b5b9060005260206000209060120201600e0160006101000a81548160ff021916908360038111156105be576105bd614550565b5b02179055505b5b5b600082815481106105da576105d96144b5565b5b9060005260206000209060120201600e0160009054906101000a900460ff16600381111561060b5761060a614550565b5b81600381111561061e5761061d614550565b5b1461065e576040517f08c379a0000000000000000000000000000000000000000000000000000000008152600401610655906145cb565b60405180910390fd5b60008781548110610672576106716144b5565b5b9060005260206000209060120201600c0160003373ffffffffffffffffffffffffffffffffffffffff1673ffffffffffffffffffffffffffffffffffffffff16815260200190815260200160002060020154600287876040516106d692919061462a565b602060405180830381855afa1580156106f3573d6000803e3d6000fd5b5050506040513d601f19601f820116820180604052508101906107169190614679565b14610756576040517f08c379a000000000000000000000000000000000000000000000000000000000815260040161074d906146f2565b60405180910390fd5b85856000898154811061076c5761076b6144b5565b5b9060005260206000209060120201600c0160003373ffffffffffffffffffffffffffffffffffffffff1673ffffffffffffffffffffffffffffffffffffffff16815260200190815260200160002060030191906107ca929190613807565b507fda9ad1af3b211e24edbe9ac3a27ce5cde27c6f44ae790099959efa1472c6be3e87336040516107fc929190614721565b60405180910390a150505050505050565b806000805490508110610855576040517f08c379a000000000000000000000000000000000000000000000000000000000815260040161084c90614495565b60405180910390fd5b81600080828154811061086b5761086a6144b5565b5b9060005260206000209060120201600c0160003373ffffffffffffffffffffffffffffffffffffffff1673ffffffffffffffffffffffffffffffffffffffff16815260200190815260200160002050602060ff16036108ff576040517f08c379a00000000000000000000000000000000000000000000000000000000081526004016108f690614530565b60405180910390fd5b82600360008281548110610916576109156144b5565b5b906000526020600020906012020160010160080154421015610984576000808381548110610947576109466144b5565b5b9060005260206000209060120201600e0160006101000a81548160ff0219169083600381111561097a57610979614550565b5b0217905550610adb565b60008281548110610998576109976144b5565b5b906000526020600020906012020160010160090154421015610a07576001600083815481106109ca576109c96144b5565b5b9060005260206000209060120201600e0160006101000a81548160ff021916908360038111156109fd576109fc614550565b5b0217905550610ada565b60008281548110610a1b57610a1a6144b5565b5b9060005260206000209060120201600101600a0154421015610a8a57600260008381548110610a4d57610a4c6144b5565b5b9060005260206000209060120201600e0160006101000a81548160ff02191690836003811115610a8057610a7f614550565b5b0217905550610ad9565b600360008381548110610aa057610a9f6144b5565b5b9060005260206000209060120201600e0160006101000a81548160ff02191690836003811115610ad357610ad2614550565b5b02179055505b5b5b60008281548110610aef57610aee6144b5565b5b9060005260206000209060120201600e0160009054906101000a900460ff166003811115610b2057610b1f614550565b5b816003811115610b3357610b32614550565b5b14610b73576040517f08c379a0000000000000000000000000000000000000000000000000000000008152600401610b6a906145cb565b60405180910390fd5b6000151560008681548110610b8b57610b8a6144b5565b5b9060005260206000209060120201600c0160003373ffffffffffffffffffffffffffffffffffffffff1673ffffffffffffffffffffffffffffffffffffffff16815260200190815260200160002060000160009054906101000a900460ff161515148015610c6d575060008581548110610c0857610c076144b5565b5b9060005260206000209060120201600f0160010160009054906101000a900473ffffffffffffffffffffffffffffffffffffffff1673ffffffffffffffffffffffffffffffffffffffff163373ffffffffffffffffffffffffffffffffffffffff1614155b15610cf157600160008681548110610c8857610c876144b5565b5b9060005260206000209060120201600c0160003373ffffffffffffffffffffffffffffffffffffffff1673ffffffffffffffffffffffffffffffffffffffff16815260200190815260200160002060000160006101000a81548160ff0219169083151502179055505b3373ffffffffffffffffffffffffffffffffffffffff166108fc60008781548110610d1f57610d1e6144b5565b5b9060005260206000209060120201600101600701549081150290604051600060405180830381858888f19350505050158015610d5f573d6000803e3d6000fd5b505050505050565b610d6f61388d565b816000805490508110610db7576040517f08c379a0000000000000000000000000000000000000000000000000000000008152600401610dae90614495565b60405180910390fd5b60008381548110610dcb57610dca6144b5565b5b9060005260206000209060120201600f01604051806040016040529081600082018054610df790614779565b80601f0160208091040260200160405190810160405280929190818152602001828054610e2390614779565b8015610e705780601f10610e4557610100808354040283529160200191610e70565b820191906000526020600020905b815481529060010190602001808311610e5357829003601f168201915b505050505081526020016001820160009054906101000a900473ffffffffffffffffffffffffffffffffffffffff1673ffffffffffffffffffffffffffffffffffffffff1673ffffffffffffffffffffffffffffffffffffffff1681525050915050919050565b60008080549050905090565b846000805490508110610f2b576040517f08c379a0000000000000000000000000000000000000000000000000000000008152600401610f2290614495565b60405180910390fd5b8560008181548110610f4057610f3f6144b5565b5b906000526020600020906012020160010160000160009054906101000a900473ffffffffffffffffffffffffffffffffffffffff1673ffffffffffffffffffffffffffffffffffffffff163373ffffffffffffffffffffffffffffffffffffffff1614610fe2576040517f08c379a0000000000000000000000000000000000000000000000000000000008152600401610fd9906147f6565b60405180910390fd5b866000808281548110610ff857610ff76144b5565b5b9060005260206000209060120201600c0160003373ffffffffffffffffffffffffffffffffffffffff1673ffffffffffffffffffffffffffffffffffffffff16815260200190815260200160002050602060ff161461108c576040517f08c379a000000000000000000000000000000000000000000000000000000000815260040161108390614862565b60405180910390fd5b8760008082815481106110a2576110a16144b5565b5b9060005260206000209060120201600101600801544210156111105760008083815481106110d3576110d26144b5565b5b9060005260206000209060120201600e0160006101000a81548160ff0219169083600381111561110657611105614550565b5b0217905550611267565b60008281548110611124576111236144b5565b5b90600052602060002090601202016001016009015442101561119357600160008381548110611156576111556144b5565b5b9060005260206000209060120201600e0160006101000a81548160ff0219169083600381111561118957611188614550565b5b0217905550611266565b600082815481106111a7576111a66144b5565b5b9060005260206000209060120201600101600a0154421015611216576002600083815481106111d9576111d86144b5565b5b9060005260206000209060120201600e0160006101000a81548160ff0219169083600381111561120c5761120b614550565b5b0217905550611265565b60036000838154811061122c5761122b6144b5565b5b9060005260206000209060120201600e0160006101000a81548160ff0219169083600381111561125f5761125e614550565b5b02179055505b5b5b6000828154811061127b5761127a6144b5565b5b9060005260206000209060120201600e0160009054906101000a900460ff1660038111156112ac576112ab614550565b5b8160038111156112bf576112be614550565b5b146112ff576040517f08c379a00000000000000000000000000000000000000000000000000000000081526004016112f6906145cb565b60405180910390fd5b60008a81548110611313576113126144b5565b5b90600052602060002090601202016001016007015480341461136a576040517f08c379a0000000000000000000000000000000000000000000000000000000008152600401611361906148ce565b60405180910390fd5b60405180608001604052806000151581526020018b8b9061138b9190614906565b815260200189899061139d9190614906565b81526020016040518060200160405280600081525081525060008c815481106113c9576113c86144b5565b5b9060005260206000209060120201600c0160003373ffffffffffffffffffffffffffffffffffffffff1673ffffffffffffffffffffffffffffffffffffffff16815260200190815260200160002060008201518160000160006101000a81548160ff021916908315150217905550602082015181600101556040820151816002015560608201518160030190805190602001906114679291906138bd565b509050503360008c815481106114805761147f6144b5565b5b9060005260206000209060120201600d0160008d815481106114a5576114a46144b5565b5b9060005260206000209060120201600d0180549050815481106114cb576114ca6144b5565b5b9060005260206000200160006101000a81548173ffffffffffffffffffffffffffffffffffffffff021916908373ffffffffffffffffffffffffffffffffffffffff1602179055507f45401769c1d58f70bd6b63e1a66bfc17d712ce0dc4ffb8d2dd0ad7177d56a3868b33604051611544929190614721565b60405180910390a15050505050505050505050565b60606000805b6000805490508110156115eb5783600381111561157f5761157e614550565b5b60008281548110611593576115926144b5565b5b9060005260206000209060120201600e0160009054906101000a900460ff1660038111156115c4576115c3614550565b5b036115d85781806115d490614994565b9250505b80806115e390614994565b91505061155f565b5060008167ffffffffffffffff811115611608576116076149dc565b5b60405190808252806020026020018201604052801561164157816020015b61162e613943565b8152602001906001900390816116265790505b5090506000805b600080549050811015611ad25785600381111561166857611667614550565b5b6000828154811061167c5761167b6144b5565b5b9060005260206000209060120201600e0160009054906101000a900460ff1660038111156116ad576116ac614550565b5b03611abf57600081815481106116c6576116c56144b5565b5b9060005260206000209060120201600101604051806101600160405290816000820160009054906101000a900473ffffffffffffffffffffffffffffffffffffffff1673ffffffffffffffffffffffffffffffffffffffff1673ffffffffffffffffffffffffffffffffffffffff16815260200160018201805461174990614779565b80601f016020809104026020016040519081016040528092919081815260200182805461177590614779565b80156117c25780601f10611797576101008083540402835291602001916117c2565b820191906000526020600020905b8154815290600101906020018083116117a557829003601f168201915b505050505081526020016002820180546117db90614779565b80601f016020809104026020016040519081016040528092919081815260200182805461180790614779565b80156118545780601f1061182957610100808354040283529160200191611854565b820191906000526020600020905b81548152906001019060200180831161183757829003601f168201915b5050505050815260200160038201805461186d90614779565b80601f016020809104026020016040519081016040528092919081815260200182805461189990614779565b80156118e65780601f106118bb576101008083540402835291602001916118e6565b820191906000526020600020905b8154815290600101906020018083116118c957829003601f168201915b505050505081526020016004820180546118ff90614779565b80601f016020809104026020016040519081016040528092919081815260200182805461192b90614779565b80156119785780601f1061194d57610100808354040283529160200191611978565b820191906000526020600020905b81548152906001019060200180831161195b57829003601f168201915b5050505050815260200160058201805461199190614779565b80601f01602080910402602001604051908101604052809291908181526020018280546119bd90614779565b8015611a0a5780601f106119df57610100808354040283529160200191611a0a565b820191906000526020600020905b8154815290600101906020018083116119ed57829003601f168201915b5050505050815260200160068201548152602001600782015481526020016008820154815260200160098201548152602001600a82015481525050838381518110611a5857611a576144b5565b5b60200260200101516020018190525060008181548110611a7b57611a7a6144b5565b5b906000526020600020906012020160000154838381518110611aa057611a9f6144b5565b5b602002602001015160000181815250508180611abb90614994565b9250505b8080611aca90614994565b915050611648565b50819350505050919050565b816000805490508110611b26576040517f08c379a0000000000000000000000000000000000000000000000000000000008152600401611b1d90614495565b60405180910390fd5b8260008181548110611b3b57611b3a6144b5565b5b906000526020600020906012020160010160000160009054906101000a900473ffffffffffffffffffffffffffffffffffffffff1673ffffffffffffffffffffffffffffffffffffffff163373ffffffffffffffffffffffffffffffffffffffff1614611bdd576040517f08c379a0000000000000000000000000000000000000000000000000000000008152600401611bd490614a57565b60405180910390fd5b83600260008281548110611bf457611bf36144b5565b5b906000526020600020906012020160010160080154421015611c62576000808381548110611c2557611c246144b5565b5b9060005260206000209060120201600e0160006101000a81548160ff02191690836003811115611c5857611c57614550565b5b0217905550611db9565b60008281548110611c7657611c756144b5565b5b906000526020600020906012020160010160090154421015611ce557600160008381548110611ca857611ca76144b5565b5b9060005260206000209060120201600e0160006101000a81548160ff02191690836003811115611cdb57611cda614550565b5b0217905550611db8565b60008281548110611cf957611cf86144b5565b5b9060005260206000209060120201600101600a0154421015611d6857600260008381548110611d2b57611d2a6144b5565b5b9060005260206000209060120201600e0160006101000a81548160ff02191690836003811115611d5e57611d5d614550565b5b0217905550611db7565b600360008381548110611d7e57611d7d6144b5565b5b9060005260206000209060120201600e0160006101000a81548160ff02191690836003811115611db157611db0614550565b5b02179055505b5b5b60008281548110611dcd57611dcc6144b5565b5b9060005260206000209060120201600e0160009054906101000a900460ff166003811115611dfe57611dfd614550565b5b816003811115611e1157611e10614550565b5b14611e51576040517f08c379a0000000000000000000000000000000000000000000000000000000008152600401611e48906145cb565b60405180910390fd5b60008681548110611e6557611e646144b5565b5b9060005260206000209060120201600c016000866020016020810190611e8b9190614aa3565b73ffffffffffffffffffffffffffffffffffffffff1673ffffffffffffffffffffffffffffffffffffffff168152602001908152602001600020600101546002868060000190611edb9190614adf565b604051611ee992919061462a565b602060405180830381855afa158015611f06573d6000803e3d6000fd5b5050506040513d601f19601f82011682018060405250810190611f299190614679565b14611f69576040517f08c379a0000000000000000000000000000000000000000000000000000000008152600401611f60906146f2565b60405180910390fd5b8460008781548110611f7e57611f7d6144b5565b5b9060005260206000209060120201600f018181611f9b9190614ed3565b9050507fa40d3f1f8d57e9254ad685693391db32c603b6ba0c2296366db2706bc0bd4f2c86866020016020810190611fd39190614aa3565b604051611fe1929190614721565b60405180910390a1505050505050565b606081600080549050811061203b576040517f08c379a000000000000000000000000000000000000000000000000000000000815260040161203290614495565b60405180910390fd5b82600360008281548110612052576120516144b5565b5b9060005260206000209060120201600101600801544210156120c0576000808381548110612083576120826144b5565b5b9060005260206000209060120201600e0160006101000a81548160ff021916908360038111156120b6576120b5614550565b5b0217905550612217565b600082815481106120d4576120d36144b5565b5b90600052602060002090601202016001016009015442101561214357600160008381548110612106576121056144b5565b5b9060005260206000209060120201600e0160006101000a81548160ff0219169083600381111561213957612138614550565b5b0217905550612216565b60008281548110612157576121566144b5565b5b9060005260206000209060120201600101600a01544210156121c657600260008381548110612189576121886144b5565b5b9060005260206000209060120201600e0160006101000a81548160ff021916908360038111156121bc576121bb614550565b5b0217905550612215565b6003600083815481106121dc576121db6144b5565b5b9060005260206000209060120201600e0160006101000a81548160ff0219169083600381111561220f5761220e614550565b5b02179055505b5b5b6000828154811061222b5761222a6144b5565b5b9060005260206000209060120201600e0160009054906101000a900460ff16600381111561225c5761225b614550565b5b81600381111561226f5761226e614550565b5b146122af576040517f08c379a00000000000000000000000000000000000000000000000000000000081526004016122a6906145cb565b60405180910390fd5b600085815481106122c3576122c26144b5565b5b9060005260206000209060120201601101805480602002602001604051908101604052809291908181526020016000905b8282101561240e578382906000526020600020906002020160405180604001604052908160008201805461232790614779565b80601f016020809104026020016040519081016040528092919081815260200182805461235390614779565b80156123a05780601f10612375576101008083540402835291602001916123a0565b820191906000526020600020905b81548152906001019060200180831161238357829003601f168201915b505050505081526020016001820160009054906101000a900473ffffffffffffffffffffffffffffffffffffffff1673ffffffffffffffffffffffffffffffffffffffff1673ffffffffffffffffffffffffffffffffffffffff1681525050815260200190600101906122f4565b505050509350505050919050565b6060816000805490508110612466576040517f08c379a000000000000000000000000000000000000000000000000000000000815260040161245d90614495565b60405180910390fd5b826000818154811061247b5761247a6144b5565b5b906000526020600020906012020160010160000160009054906101000a900473ffffffffffffffffffffffffffffffffffffffff1673ffffffffffffffffffffffffffffffffffffffff163373ffffffffffffffffffffffffffffffffffffffff161461251d576040517f08c379a000000000000000000000000000000000000000000000000000000000815260040161251490614a57565b60405180910390fd5b83600260008281548110612534576125336144b5565b5b9060005260206000209060120201600101600801544210156125a2576000808381548110612565576125646144b5565b5b9060005260206000209060120201600e0160006101000a81548160ff0219169083600381111561259857612597614550565b5b02179055506126f9565b600082815481106125b6576125b56144b5565b5b906000526020600020906012020160010160090154421015612625576001600083815481106125e8576125e76144b5565b5b9060005260206000209060120201600e0160006101000a81548160ff0219169083600381111561261b5761261a614550565b5b02179055506126f8565b60008281548110612639576126386144b5565b5b9060005260206000209060120201600101600a01544210156126a85760026000838154811061266b5761266a6144b5565b5b9060005260206000209060120201600e0160006101000a81548160ff0219169083600381111561269e5761269d614550565b5b02179055506126f7565b6003600083815481106126be576126bd6144b5565b5b9060005260206000209060120201600e0160006101000a81548160ff021916908360038111156126f1576126f0614550565b5b02179055505b5b5b6000828154811061270d5761270c6144b5565b5b9060005260206000209060120201600e0160009054906101000a900460ff16600381111561273e5761273d614550565b5b81600381111561275157612750614550565b5b14612791576040517f08c379a0000000000000000000000000000000000000000000000000000000008152600401612788906145cb565b60405180910390fd5b6000805b600088815481106127a9576127a86144b5565b5b9060005260206000209060120201600d018054905081101561290d5760008089815481106127da576127d96144b5565b5b9060005260206000209060120201600d0182815481106127fd576127fc6144b5565b5b9060005260206000200160009054906101000a900473ffffffffffffffffffffffffffffffffffffffff1690506000808a8154811061283f5761283e6144b5565b5b9060005260206000209060120201600c0160008373ffffffffffffffffffffffffffffffffffffffff1673ffffffffffffffffffffffffffffffffffffffff168152602001908152602001600020600301805461289b90614779565b9050036128ea576128ac8983613650565b7f4ddf4c0e94fa7c3fcf8474005bf8b72858bbc3afbeecaee663000ca4eeb2b9bd89826040516128dd929190614721565b60405180910390a16128f9565b82806128f590614994565b9350505b50808061290590614994565b915050612795565b5060008167ffffffffffffffff81111561292a576129296149dc565b5b60405190808252806020026020018201604052801561295d57816020015b60608152602001906001900390816129485790505b50905060005b60008981548110612977576129766144b5565b5b9060005260206000209060120201600d0180549050811015612b1257600089815481106129a7576129a66144b5565b5b9060005260206000209060120201600c016000808b815481106129cd576129cc6144b5565b5b9060005260206000209060120201600d0183815481106129f0576129ef6144b5565b5b9060005260206000200160009054906101000a900473ffffffffffffffffffffffffffffffffffffffff1673ffffffffffffffffffffffffffffffffffffffff1673ffffffffffffffffffffffffffffffffffffffff1681526020019081526020016000206003018054612a6390614779565b80601f0160208091040260200160405190810160405280929190818152602001828054612a8f90614779565b8015612adc5780601f10612ab157610100808354040283529160200191612adc565b820191906000526020600020905b815481529060010190602001808311612abf57829003601f168201915b5050505050828281518110612af457612af36144b5565b5b60200260200101819052508080612b0a90614994565b915050612963565b50809650505050505050919050565b826000805490508110612b69576040517f08c379a0000000000000000000000000000000000000000000000000000000008152600401612b6090614495565b60405180910390fd5b836000808281548110612b7f57612b7e6144b5565b5b9060005260206000209060120201600c0160003373ffffffffffffffffffffffffffffffffffffffff1673ffffffffffffffffffffffffffffffffffffffff16815260200190815260200160002050602060ff1603612c13576040517f08c379a0000000000000000000000000000000000000000000000000000000008152600401612c0a90614530565b60405180910390fd5b84600360008281548110612c2a57612c296144b5565b5b906000526020600020906012020160010160080154421015612c98576000808381548110612c5b57612c5a6144b5565b5b9060005260206000209060120201600e0160006101000a81548160ff02191690836003811115612c8e57612c8d614550565b5b0217905550612def565b60008281548110612cac57612cab6144b5565b5b906000526020600020906012020160010160090154421015612d1b57600160008381548110612cde57612cdd6144b5565b5b9060005260206000209060120201600e0160006101000a81548160ff02191690836003811115612d1157612d10614550565b5b0217905550612dee565b60008281548110612d2f57612d2e6144b5565b5b9060005260206000209060120201600101600a0154421015612d9e57600260008381548110612d6157612d606144b5565b5b9060005260206000209060120201600e0160006101000a81548160ff02191690836003811115612d9457612d93614550565b5b0217905550612ded565b600360008381548110612db457612db36144b5565b5b9060005260206000209060120201600e0160006101000a81548160ff02191690836003811115612de757612de6614550565b5b02179055505b5b5b60008281548110612e0357612e026144b5565b5b9060005260206000209060120201600e0160009054906101000a900460ff166003811115612e3457612e33614550565b5b816003811115612e4757612e46614550565b5b14612e87576040517f08c379a0000000000000000000000000000000000000000000000000000000008152600401612e7e906145cb565b60405180910390fd5b60008781548110612e9b57612e9a6144b5565b5b9060005260206000209060120201600c0160003373ffffffffffffffffffffffffffffffffffffffff1673ffffffffffffffffffffffffffffffffffffffff1681526020019081526020016000206001015460028787604051612eff92919061462a565b602060405180830381855afa158015612f1c573d6000803e3d6000fd5b5050506040513d601f19601f82011682018060405250810190612f3f9190614679565b14612f7f576040517f08c379a0000000000000000000000000000000000000000000000000000000008152600401612f76906146f2565b60405180910390fd5b6000808881548110612f9457612f936144b5565b5b906000526020600020906012020160110160018160018154018082558091505003906000526020600020906002020190508686826000019190612fd8929190613807565b50338160010160006101000a81548173ffffffffffffffffffffffffffffffffffffffff021916908373ffffffffffffffffffffffffffffffffffffffff1602179055507fb1183a40c3bfb5582ec9b08605f698b46e5d4084bb316f378e05318927221b90883360405161304d929190614721565b60405180910390a15050505050505050565b60008160e001358034146130a8576040517f08c379a000000000000000000000000000000000000000000000000000000000815260040161309f906148ce565b60405180910390fd5b60008360c00135036130ef576040517f08c379a00000000000000000000000000000000000000000000000000000000081526004016130e690614f53565b60405180910390fd5b8260c001358360e001351180613109575060008360e00135145b15613149576040517f08c379a00000000000000000000000000000000000000000000000000000000081526004016131409061500b565b60405180910390fd5b82610120013583610140013511801561316b5750826101000135836101200135115b6131aa576040517f08c379a00000000000000000000000000000000000000000000000000000000081526004016131a19061509d565b60405180910390fd5b60008060018160018154018082558091505003906000526020600020906012020190506000805490508160000181905550838160010181816131ec91906154d1565b905050600081600e0160006101000a81548160ff0219169083600381111561321757613216614550565b5b02179055507fbdba0fc2c85fe021acfa560c047f0a846648b1b504aa94ab6557cabb04b94258816000015460405161324f9190613c6a565b60405180910390a1806000015492505050919050565b61326d613963565b8160008054905081106132b5576040517f08c379a00000000000000000000000000000000000000000000000000000000081526004016132ac90614495565b60405180910390fd5b600083815481106132c9576132c86144b5565b5b9060005260206000209060120201600101604051806101600160405290816000820160009054906101000a900473ffffffffffffffffffffffffffffffffffffffff1673ffffffffffffffffffffffffffffffffffffffff1673ffffffffffffffffffffffffffffffffffffffff16815260200160018201805461334c90614779565b80601f016020809104026020016040519081016040528092919081815260200182805461337890614779565b80156133c55780601f1061339a576101008083540402835291602001916133c5565b820191906000526020600020905b8154815290600101906020018083116133a857829003601f168201915b505050505081526020016002820180546133de90614779565b80601f016020809104026020016040519081016040528092919081815260200182805461340a90614779565b80156134575780601f1061342c57610100808354040283529160200191613457565b820191906000526020600020905b81548152906001019060200180831161343a57829003601f168201915b5050505050815260200160038201805461347090614779565b80601f016020809104026020016040519081016040528092919081815260200182805461349c90614779565b80156134e95780601f106134be576101008083540402835291602001916134e9565b820191906000526020600020905b8154815290600101906020018083116134cc57829003601f168201915b5050505050815260200160048201805461350290614779565b80601f016020809104026020016040519081016040528092919081815260200182805461352e90614779565b801561357b5780601f106135505761010080835404028352916020019161357b565b820191906000526020600020905b81548152906001019060200180831161355e57829003601f168201915b5050505050815260200160058201805461359490614779565b80601f01602080910402602001604051908101604052809291908181526020018280546135c090614779565b801561360d5780601f106135e25761010080835404028352916020019161360d565b820191906000526020600020905b8154815290600101906020018083116135f057829003601f168201915b5050505050815260200160068201548152602001600782015481526020016008820154815260200160098201548152602001600a82015481525050915050919050565b60008281548110613664576136636144b5565b5b9060005260206000209060120201600d0180549050811061368457600080fd5b60008281548110613698576136976144b5565b5b9060005260206000209060120201600d016001600084815481106136bf576136be6144b5565b5b9060005260206000209060120201600d01805490506136de91906154df565b815481106136ef576136ee6144b5565b5b9060005260206000200160009054906101000a900473ffffffffffffffffffffffffffffffffffffffff166000838154811061372e5761372d6144b5565b5b9060005260206000209060120201600d018281548110613751576137506144b5565b5b9060005260206000200160006101000a81548173ffffffffffffffffffffffffffffffffffffffff021916908373ffffffffffffffffffffffffffffffffffffffff160217905550600082815481106137ad576137ac6144b5565b5b9060005260206000209060120201600d018054806137ce576137cd615513565b5b6001900381819060005260206000200160006101000a81549073ffffffffffffffffffffffffffffffffffffffff021916905590555050565b82805461381390614779565b90600052602060002090601f016020900481019282613835576000855561387c565b82601f1061384e57803560ff191683800117855561387c565b8280016001018555821561387c579182015b8281111561387b578235825591602001919060010190613860565b5b50905061388991906139d3565b5090565b604051806040016040528060608152602001600073ffffffffffffffffffffffffffffffffffffffff1681525090565b8280546138c990614779565b90600052602060002090601f0160209004810192826138eb5760008555613932565b82601f1061390457805160ff1916838001178555613932565b82800160010185558215613932579182015b82811115613931578251825591602001919060010190613916565b5b50905061393f91906139d3565b5090565b60405180604001604052806000815260200161395d613963565b81525090565b604051806101600160405280600073ffffffffffffffffffffffffffffffffffffffff168152602001606081526020016060815260200160608152602001606081526020016060815260200160008152602001600081526020016000815260200160008152602001600081525090565b5b808211156139ec5760008160009055506001016139d4565b5090565b600080fd5b600080fd5b6000819050919050565b613a0d816139fa565b8114613a1857600080fd5b50565b600081359050613a2a81613a04565b92915050565b600080fd5b600080fd5b600080fd5b60008083601f840112613a5557613a54613a30565b5b8235905067ffffffffffffffff811115613a7257613a71613a35565b5b602083019150836001820283011115613a8e57613a8d613a3a565b5b9250929050565b600080600060408486031215613aae57613aad6139f0565b5b6000613abc86828701613a1b565b935050602084013567ffffffffffffffff811115613add57613adc6139f5565b5b613ae986828701613a3f565b92509250509250925092565b600060208284031215613b0b57613b0a6139f0565b5b6000613b1984828501613a1b565b91505092915050565b600081519050919050565b600082825260208201905092915050565b60005b83811015613b5c578082015181840152602081019050613b41565b83811115613b6b576000848401525b50505050565b6000601f19601f8301169050919050565b6000613b8d82613b22565b613b978185613b2d565b9350613ba7818560208601613b3e565b613bb081613b71565b840191505092915050565b600073ffffffffffffffffffffffffffffffffffffffff82169050919050565b6000613be682613bbb565b9050919050565b613bf681613bdb565b82525050565b60006040830160008301518482036000860152613c198282613b82565b9150506020830151613c2e6020860182613bed565b508091505092915050565b60006020820190508181036000830152613c538184613bfc565b905092915050565b613c64816139fa565b82525050565b6000602082019050613c7f6000830184613c5b565b92915050565b600080600080600060608688031215613ca157613ca06139f0565b5b6000613caf88828901613a1b565b955050602086013567ffffffffffffffff811115613cd057613ccf6139f5565b5b613cdc88828901613a3f565b9450945050604086013567ffffffffffffffff811115613cff57613cfe6139f5565b5b613d0b88828901613a3f565b92509250509295509295909350565b60048110613d2757600080fd5b50565b600081359050613d3981613d1a565b92915050565b600060208284031215613d5557613d546139f0565b5b6000613d6384828501613d2a565b91505092915050565b600081519050919050565b600082825260208201905092915050565b6000819050602082019050919050565b613da1816139fa565b82525050565b6000613db282613bbb565b9050919050565b613dc281613da7565b82525050565b600081519050919050565b600082825260208201905092915050565b6000613def82613dc8565b613df98185613dd3565b9350613e09818560208601613b3e565b613e1281613b71565b840191505092915050565b600061016083016000830151613e366000860182613db9565b5060208301518482036020860152613e4e8282613b82565b91505060408301518482036040860152613e688282613b82565b91505060608301518482036060860152613e828282613de4565b91505060808301518482036080860152613e9c8282613de4565b91505060a083015184820360a0860152613eb68282613de4565b91505060c0830151613ecb60c0860182613d98565b5060e0830151613ede60e0860182613d98565b50610100830151613ef3610100860182613d98565b50610120830151613f08610120860182613d98565b50610140830151613f1d610140860182613d98565b508091505092915050565b6000604083016000830151613f406000860182613d98565b5060208301518482036020860152613f588282613e1d565b9150508091505092915050565b6000613f718383613f28565b905092915050565b6000602082019050919050565b6000613f9182613d6c565b613f9b8185613d77565b935083602082028501613fad85613d88565b8060005b85811015613fe95784840389528151613fca8582613f65565b9450613fd583613f79565b925060208a01995050600181019050613fb1565b50829750879550505050505092915050565b600060208201905081810360008301526140158184613f86565b905092915050565b600080fd5b6000604082840312156140385761403761401d565b5b81905092915050565b60008060408385031215614058576140576139f0565b5b600061406685828601613a1b565b925050602083013567ffffffffffffffff811115614087576140866139f5565b5b61409385828601614022565b9150509250929050565b600081519050919050565b600082825260208201905092915050565b6000819050602082019050919050565b600060408301600083015184820360008601526140e68282613b82565b91505060208301516140fb6020860182613bed565b508091505092915050565b600061411283836140c9565b905092915050565b6000602082019050919050565b60006141328261409d565b61413c81856140a8565b93508360208202850161414e856140b9565b8060005b8581101561418a578484038952815161416b8582614106565b94506141768361411a565b925060208a01995050600181019050614152565b50829750879550505050505092915050565b600060208201905081810360008301526141b68184614127565b905092915050565b600081519050919050565b600082825260208201905092915050565b6000819050602082019050919050565b60006141f68383613b82565b905092915050565b6000602082019050919050565b6000614216826141be565b61422081856141c9565b935083602082028501614232856141da565b8060005b8581101561426e578484038952815161424f85826141ea565b945061425a836141fe565b925060208a01995050600181019050614236565b50829750879550505050505092915050565b6000602082019050818103600083015261429a818461420b565b905092915050565b600061016082840312156142b9576142b861401d565b5b81905092915050565b6000602082840312156142d8576142d76139f0565b5b600082013567ffffffffffffffff8111156142f6576142f56139f5565b5b614302848285016142a2565b91505092915050565b6000610160830160008301516143246000860182613db9565b506020830151848203602086015261433c8282613b82565b915050604083015184820360408601526143568282613b82565b915050606083015184820360608601526143708282613de4565b9150506080830151848203608086015261438a8282613de4565b91505060a083015184820360a08601526143a48282613de4565b91505060c08301516143b960c0860182613d98565b5060e08301516143cc60e0860182613d98565b506101008301516143e1610100860182613d98565b506101208301516143f6610120860182613d98565b5061014083015161440b610140860182613d98565b508091505092915050565b60006020820190508181036000830152614430818461430b565b905092915050565b600082825260208201905092915050565b7f41756374696f6e204944206973206e6f742076616c6964210000000000000000600082015250565b600061447f601883614438565b915061448a82614449565b602082019050919050565b600060208201905081810360008301526144ae81614472565b9050919050565b7f4e487b7100000000000000000000000000000000000000000000000000000000600052603260045260246000fd5b7f53656e64657220686173206e6f7420706c616365642061206269642100000000600082015250565b600061451a601c83614438565b9150614525826144e4565b602082019050919050565b600060208201905081810360008301526145498161450d565b9050919050565b7f4e487b7100000000000000000000000000000000000000000000000000000000600052602160045260246000fd5b7f496e617070726f707269617465206f7065726174696f6e210000000000000000600082015250565b60006145b5601883614438565b91506145c08261457f565b602082019050919050565b600060208201905081810360008301526145e4816145a8565b9050919050565b600081905092915050565b82818337600083830152505050565b600061461183856145eb565b935061461e8385846145f6565b82840190509392505050565b6000614637828486614605565b91508190509392505050565b6000819050919050565b61465681614643565b811461466157600080fd5b50565b6000815190506146738161464d565b92915050565b60006020828403121561468f5761468e6139f0565b5b600061469d84828501614664565b91505092915050565b7f4861736820697320696e76616c69642100000000000000000000000000000000600082015250565b60006146dc601083614438565b91506146e7826146a6565b602082019050919050565b6000602082019050818103600083015261470b816146cf565b9050919050565b61471b81613bdb565b82525050565b60006040820190506147366000830185613c5b565b6147436020830184614712565b9392505050565b7f4e487b7100000000000000000000000000000000000000000000000000000000600052602260045260246000fd5b6000600282049050600182168061479157607f821691505b6020821081036147a4576147a361474a565b5b50919050565b7f53656e64657220697320746865206f776e657221000000000000000000000000600082015250565b60006147e0601483614438565b91506147eb826147aa565b602082019050919050565b6000602082019050818103600083015261480f816147d3565b9050919050565b7f53656e6465722068617320616c726561647920706c6163656420612062696421600082015250565b600061484c602083614438565b915061485782614816565b602082019050919050565b6000602082019050818103600083015261487b8161483f565b9050919050565b7f53656e742076616c7565206973206e6f74207269676874210000000000000000600082015250565b60006148b8601883614438565b91506148c382614882565b602082019050919050565b600060208201905081810360008301526148e7816148ab565b9050919050565b600082905092915050565b600082821b905092915050565b600061491283836148ee565b8261491d8135614643565b9250602082101561495d576149587fffffffffffffffffffffffffffffffffffffffffffffffffffffffffffffffff836020036008026148f9565b831692505b505092915050565b7f4e487b7100000000000000000000000000000000000000000000000000000000600052601160045260246000fd5b600061499f826139fa565b91507fffffffffffffffffffffffffffffffffffffffffffffffffffffffffffffffff82036149d1576149d0614965565b5b600182019050919050565b7f4e487b7100000000000000000000000000000000000000000000000000000000600052604160045260246000fd5b7f53656e646572206973206e6f7420746865206f776e6572210000000000000000600082015250565b6000614a41601883614438565b9150614a4c82614a0b565b602082019050919050565b60006020820190508181036000830152614a7081614a34565b9050919050565b614a8081613bdb565b8114614a8b57600080fd5b50565b600081359050614a9d81614a77565b92915050565b600060208284031215614ab957614ab86139f0565b5b6000614ac784828501614a8e565b91505092915050565b600080fd5b600080fd5b600080fd5b60008083356001602003843603038112614afc57614afb614ad0565b5b80840192508235915067ffffffffffffffff821115614b1e57614b1d614ad5565b5b602083019250600182023603831315614b3a57614b39614ada565b5b509250929050565b60008190508160005260206000209050919050565b60006020601f8301049050919050565b600060088302614b977fffffffffffffffffffffffffffffffffffffffffffffffffffffffffffffffff826148f9565b614ba186836148f9565b95508019841693508086168417925050509392505050565b6000819050919050565b6000614bde614bd9614bd4846139fa565b614bb9565b6139fa565b9050919050565b6000819050919050565b614bf883614bc3565b614c0c614c0482614be5565b848454614b67565b825550505050565b600090565b614c21614c14565b614c2c818484614bef565b505050565b5b81811015614c5057614c45600082614c19565b600181019050614c32565b5050565b601f821115614c9557614c6681614b42565b614c6f84614b57565b81016020851015614c7e578190505b614c92614c8a85614b57565b830182614c31565b50505b505050565b600082821c905092915050565b6000614cb860001984600802614c9a565b1980831691505092915050565b6000614cd18383614ca7565b9150826002028217905092915050565b614ceb83836148ee565b67ffffffffffffffff811115614d0457614d036149dc565b5b614d0e8254614779565b614d19828285614c54565b6000601f831160018114614d485760008415614d36578287013590505b614d408582614cc5565b865550614da8565b601f198416614d5686614b42565b60005b82811015614d7e57848901358255600182019150602085019450602081019050614d59565b86831015614d9b5784890135614d97601f891682614ca7565b8355505b6001600288020188555050505b50505050505050565b614dbc838383614ce1565b505050565b60008135614dce81614a77565b80915050919050565b60008160001b9050919050565b600073ffffffffffffffffffffffffffffffffffffffff614e0484614dd7565b9350801983169250808416831791505092915050565b6000614e35614e30614e2b84613bbb565b614bb9565b613bbb565b9050919050565b6000614e4782614e1a565b9050919050565b6000614e5982614e3c565b9050919050565b6000819050919050565b614e7382614e4e565b614e86614e7f82614e60565b8354614de4565b8255505050565b6000810160008301614e9f8185614adf565b614eaa818386614db1565b50505050600181016020830180614ec081614dc1565b9050614ecc8184614e6a565b5050505050565b614edd8282614e8d565b5050565b7f4d696e696d756d207072696365206d757374206265206120706f73697469766560008201527f206e756d62657200000000000000000000000000000000000000000000000000602082015250565b6000614f3d602783614438565b9150614f4882614ee1565b604082019050919050565b60006020820190508181036000830152614f6c81614f30565b9050919050565b7f5468652072656c6174696f6e202830203c205365637572697479204465706f7360008201527f6974203c204d696e696d756d20507269636529206973206e6f7420736174697360208201527f666965642e000000000000000000000000000000000000000000000000000000604082015250565b6000614ff5604583614438565b915061500082614f73565b606082019050919050565b6000602082019050818103600083015261502481614fe8565b9050919050565b7f446174657320617265206e6f7420696e20746865207269676874206f7264657260008201527f2e00000000000000000000000000000000000000000000000000000000000000602082015250565b6000615087602183614438565b91506150928261502b565b604082019050919050565b600060208201905081810360008301526150b68161507a565b9050919050565b6150c681613da7565b81146150d157600080fd5b50565b600081356150e1816150bd565b80915050919050565b60006150f582614e1a565b9050919050565b6000615107826150ea565b9050919050565b6000819050919050565b615121826150fc565b61513461512d8261510e565b8354614de4565b8255505050565b6000808335600160200384360303811261515857615157614ad0565b5b80840192508235915067ffffffffffffffff82111561517a57615179614ad5565b5b60208301925060018202360383131561519657615195614ada565b5b509250929050565b600082905092915050565b60008190508160005260206000209050919050565b601f8211156151ff576151d0816151a9565b6151d984614b57565b810160208510156151e8578190505b6151fc6151f485614b57565b830182614c31565b50505b505050565b61520e838361519e565b67ffffffffffffffff811115615227576152266149dc565b5b6152318254614779565b61523c8282856151be565b6000601f83116001811461526b5760008415615259578287013590505b6152638582614cc5565b8655506152cb565b601f198416615279866151a9565b60005b828110156152a15784890135825560018201915060208501945060208101905061527c565b868310156152be57848901356152ba601f891682614ca7565b8355505b6001600288020188555050505b50505050505050565b6152df838383615204565b505050565b600081356152f181613a04565b80915050919050565b60007fffffffffffffffffffffffffffffffffffffffffffffffffffffffffffffffff61532684614dd7565b9350801983169250808416831791505092915050565b61534582614bc3565b61535861535182614be5565b83546152fa565b8255505050565b600081016000830180615371816150d4565b905061537d8184615118565b50505060018101602083016153928185614adf565b61539d818386614db1565b5050505060028101604083016153b38185614adf565b6153be818386614db1565b5050505060038101606083016153d4818561513b565b6153df8183866152d4565b5050505060048101608083016153f5818561513b565b6154008183866152d4565b505050506005810160a08301615416818561513b565b6154218183866152d4565b505050506006810160c0830180615437816152e4565b9050615443818461533c565b5050506007810160e0830180615458816152e4565b9050615464818461533c565b5050506008810161010083018061547a816152e4565b9050615486818461533c565b5050506009810161012083018061549c816152e4565b90506154a8818461533c565b505050600a81016101408301806154be816152e4565b90506154ca818461533c565b5050505050565b6154db828261535f565b5050565b60006154ea826139fa565b91506154f5836139fa565b92508282101561550857615507614965565b5b828203905092915050565b7f4e487b7100000000000000000000000000000000000000000000000000000000600052603160045260246000fdfea2646970667358221220e8f74062bb1c4799d23762b1c90104a19b766f34d65d8fff6e7ef00f3f5e164c64736f6c634300080d0033",
  "immutableReferences": {},
  "source": "// SPDX-License-Identifier: MIT\npragma solidity ^0.8.13;\n\n// NOTE: all currency is wei\n\ncontract SealedBidAuctionManager {\n    struct UserSetAuctionInfo {\n        // administrative\n        address payable owner;\n        bytes params;\n        bytes owner_pkey;\n        // item\n        string itemName;\n        string itemDesc;\n        string itemPicture;\n        // transactional\n        uint256 minimumPrice;\n        uint256 securityDeposit;\n        // dates\n        uint256 biddingEndDate;\n        uint256 revealingEndDate;\n        uint256 sortingEndDate;\n    }\n\n    struct Bid {\n        bool done;\n        // to bid\n        bytes32 c;\n        bytes32 d;\n        // to reveal\n        bytes z;\n    }\n\n    struct AuctionWinner {\n        bytes y;\n        address bidder;\n    }\n\n    struct Auction {\n        uint256 id;\n        UserSetAuctionInfo info;\n        mapping(address => Bid) bids;\n        address[] bidders;\n        AuctionState state;\n        AuctionWinner winner;\n        AuctionWinner[] objections;\n    }\n    struct AuctionByState {\n        uint256 id;\n        UserSetAuctionInfo info;\n    }\n    enum AuctionState {\n        BiddingPhase,\n        RevealingPhase,\n        SortingPhase,\n        Ended\n    }\n\n    Auction[] private auctions;\n\n    // events for logging and subscription\n\n    event NewAuction(uint256 auctionId);\n    event NewBid(uint256 auctionId, address by);\n    event NewReveal(uint256 auctionId, address by);\n    event BidderRemoved(uint256, address who);\n    event WinnerDecided(uint256 auctionId, address who);\n    event ObjectionPlaced(uint256 auctionId, address by);\n    event AuctionEnds(uint256 auctionId, bool success);\n\n    // modifiers for modularity\n\n    modifier SenderDidNotPlaceABid(uint256 auctionId) {\n        if (auctions[auctionId].bids[msg.sender].c.length != 0)\n            revert(\"Sender has already placed a bid!\");\n        _;\n    }\n\n    modifier SenderPlacedABid(uint256 auctionId) {\n        if (auctions[auctionId].bids[msg.sender].c.length == 0)\n            revert(\"Sender has not placed a bid!\");\n        _;\n    }\n\n    modifier SenderIsOwner(uint256 auctionId) {\n        if (msg.sender != auctions[auctionId].info.owner)\n            revert(\"Sender is not the owner!\");\n        _;\n    }\n\n    modifier SenderIsNotOwner(uint256 auctionId) {\n        if (msg.sender != auctions[auctionId].info.owner)\n            revert(\"Sender is the owner!\");\n        _;\n    }\n\n    modifier AuctionIDIsValid(uint256 auctionId) {\n        if (auctionId >= auctions.length) revert(\"Auction ID is not valid!\");\n        _;\n    }\n\n    modifier CheckAuctionState(uint256 auctionId, AuctionState state) {\n        // set it\n        if (block.timestamp < auctions[auctionId].info.biddingEndDate)\n            auctions[auctionId].state = AuctionState.BiddingPhase;\n        else if (block.timestamp < auctions[auctionId].info.revealingEndDate)\n            auctions[auctionId].state = AuctionState.RevealingPhase;\n        else if (block.timestamp < auctions[auctionId].info.sortingEndDate)\n            auctions[auctionId].state = AuctionState.SortingPhase;\n        else auctions[auctionId].state = AuctionState.Ended;\n\n        // check it\n        if (state != auctions[auctionId].state) {\n            revert(\"Inappropriate operation!\");\n        }\n        _;\n    }\n\n    modifier ValueEquals(uint v) {\n        if (msg.value != v) revert(\"Sent value is not right!\");\n        _;\n    }\n\n    // private functions\n\n    function _removeBidder(uint256 auctionId, uint index) internal {\n        require(index < auctions[auctionId].bidders.length);\n\n        auctions[auctionId].bidders[index] = auctions[auctionId].bidders[\n            auctions[auctionId].bidders.length - 1\n        ];\n        auctions[auctionId].bidders.pop();\n    }\n\n    // external functions to be called at any time\n\n    function getNumberOfRegisteredAuctions() external view returns (uint256) {\n        return auctions.length;\n    }\n\n    function createAuction(\n        UserSetAuctionInfo calldata info\n    ) external payable ValueEquals(info.securityDeposit) returns (uint256) {\n        // validation of auction parameters\n        if (info.minimumPrice == 0)\n            revert(\"Minimum price must be a positive number\");\n\n        if (\n            info.securityDeposit > info.minimumPrice ||\n            info.securityDeposit == 0\n        )\n            revert(\n                \"The relation (0 < Security Deposit < Minimum Price) is not satisfied.\"\n            );\n\n        if (\n            !(// info.verificationEndDate > info.sortingEndDate &&\n            info.sortingEndDate > info.revealingEndDate &&\n                info.revealingEndDate > info.biddingEndDate)\n        ) revert(\"Dates are not in the right order.\");\n\n        // valid? add it\n        Auction storage auction = auctions.push();\n\n        auction.id = auctions.length;\n        auction.info = info;\n        auction.state = AuctionState.BiddingPhase;\n\n        emit NewAuction(auction.id);\n        return auction.id;\n    }\n\n    function getAuctionsByState(\n        AuctionState state\n    ) external view returns (AuctionByState[] memory) {\n        uint256 count = 0;\n        for (uint256 i = 0; i < auctions.length; i++) {\n            if (auctions[i].state == state) {\n                count++;\n            }\n        }\n\n        AuctionByState[] memory data = new AuctionByState[](count);\n        uint256 j = 0;\n        for (uint256 i = 0; i < auctions.length; i++) {\n            if (auctions[i].state == state) {\n                data[j].info = auctions[i].info;\n                data[j].id = auctions[i].id;\n                j++;\n            }\n        }\n\n        return data;\n    }\n\n    function getAuctionInfo(\n        uint256 auctionId\n    )\n        external\n        view\n        AuctionIDIsValid(auctionId)\n        returns (UserSetAuctionInfo memory)\n    {\n        return auctions[auctionId].info;\n    }\n\n    // functions to be called throughout the auction process\n\n    function placeBid(\n        uint256 auctionId,\n        bytes calldata c,\n        bytes calldata d\n    )\n        external\n        payable\n        AuctionIDIsValid(auctionId)\n        SenderIsNotOwner(auctionId)\n        SenderDidNotPlaceABid(auctionId)\n        CheckAuctionState(auctionId, AuctionState.BiddingPhase)\n        ValueEquals(auctions[auctionId].info.securityDeposit)\n    {\n        auctions[auctionId].bids[msg.sender] = Bid({\n            done: false,\n            c: bytes32(c),\n            d: bytes32(d),\n            z: bytes(\"\")\n        });\n        auctions[auctionId].bidders[auctions[auctionId].bidders.length] = msg\n            .sender;\n        emit NewBid(auctionId, msg.sender);\n    }\n\n    function revealBid(\n        uint256 auctionId,\n        bytes calldata z\n    )\n        external\n        AuctionIDIsValid(auctionId)\n        SenderPlacedABid(auctionId)\n        CheckAuctionState(auctionId, AuctionState.RevealingPhase)\n    {\n        // verify commitment\n        if (sha256(z) != auctions[auctionId].bids[msg.sender].d)\n            revert(\"Hash is invalid!\");\n\n        auctions[auctionId].bids[msg.sender].z = z;\n        emit NewReveal(auctionId, msg.sender);\n    }\n\n    function getReveals(\n        uint256 auctionId\n    )\n        external\n        AuctionIDIsValid(auctionId)\n        SenderIsOwner(auctionId)\n        CheckAuctionState(auctionId, AuctionState.SortingPhase)\n        returns (bytes[] memory)\n    {\n        uint256 count = 0;\n        for (uint256 i = 0; i < auctions[auctionId].bidders.length; i++) {\n            address bidder = auctions[auctionId].bidders[i];\n            if (auctions[auctionId].bids[bidder].z.length == 0) {\n                // remove them, no refunds\n                _removeBidder(auctionId, i);\n                emit BidderRemoved(auctionId, bidder);\n            } else {\n                count++;\n            }\n        }\n\n        bytes[] memory zs = new bytes[](count);\n        for (uint256 i = 0; i < auctions[auctionId].bidders.length; i++) {\n            zs[i] = auctions[auctionId].bids[auctions[auctionId].bidders[i]].z;\n        }\n\n        return zs;\n    }\n\n    function declareWinner(\n        uint256 auctionId,\n        AuctionWinner calldata winner\n    )\n        external\n        AuctionIDIsValid(auctionId)\n        SenderIsOwner(auctionId)\n        CheckAuctionState(auctionId, AuctionState.SortingPhase)\n    {\n        // verify commitment\n        if (sha256(winner.y) != auctions[auctionId].bids[winner.bidder].c)\n            revert(\"Hash is invalid!\");\n\n        auctions[auctionId].winner = winner;\n        emit WinnerDecided(auctionId, winner.bidder);\n    }\n\n    function getWinner(\n        uint256 auctionId\n    ) external view AuctionIDIsValid(auctionId) returns (AuctionWinner memory) {\n        return auctions[auctionId].winner;\n    }\n\n    function returnDeposit(\n        uint256 auctionId\n    )\n        external\n        AuctionIDIsValid(auctionId)\n        SenderPlacedABid(auctionId)\n        CheckAuctionState(auctionId, AuctionState.Ended)\n    {\n        // no re-entrancy attacks!\n        if (\n            auctions[auctionId].bids[msg.sender].done == false &&\n            msg.sender != auctions[auctionId].winner.bidder\n        ) {\n            auctions[auctionId].bids[msg.sender].done = true;\n        }\n        payable(msg.sender).transfer(auctions[auctionId].info.securityDeposit);\n    }\n\n    function objectToTheWinner(\n        uint256 auctionId,\n        bytes calldata y\n    )\n        external\n        AuctionIDIsValid(auctionId)\n        SenderPlacedABid(auctionId)\n        CheckAuctionState(auctionId, AuctionState.Ended)\n    {\n        if (sha256(y) != auctions[auctionId].bids[msg.sender].c)\n            revert(\"Hash is invalid!\");\n\n        AuctionWinner storage objection = auctions[auctionId].objections.push();\n        objection.y = y;\n        objection.bidder = msg.sender;\n        emit ObjectionPlaced(auctionId, msg.sender);\n    }\n\n    function getObjections(\n        uint256 auctionId\n    )\n        external\n        AuctionIDIsValid(auctionId)\n        CheckAuctionState(auctionId, AuctionState.Ended)\n        returns (AuctionWinner[] memory)\n    {\n        return auctions[auctionId].objections;\n    }\n}\n",
  "sourcePath": "/home/amr/fghdh/auction-system-webapp/contracts/contracts/SealedBidAuctionManager.sol",
  "compiler": {
    "name": "solc",
    "version": "0.8.13+commit.abaa5c0e.Emscripten.clang"
  },
  "schemaVersion": "3.4.13",
  "updatedAt": "2023-07-05T13:47:11.258Z",
  "devdoc": {
    "kind": "dev",
    "methods": {},
    "version": 1
  },
  "userdoc": {
    "kind": "user",
    "methods": {},
    "version": 1
  }
}