{
  "contractName": "SealedBidAuctionManager",
  "abi": [
    {
      "anonymous": false,
      "inputs": [
        {
          "indexed": false,
          "internalType": "uint256",
          "name": "auctionId",
          "type": "uint256"
        },
        {
          "indexed": false,
          "internalType": "bool",
          "name": "success",
          "type": "bool"
        }
      ],
      "name": "AuctionEnds",
      "type": "event"
    },
    {
      "anonymous": false,
      "inputs": [
        {
          "indexed": false,
          "internalType": "uint256",
          "name": "",
          "type": "uint256"
        },
        {
          "indexed": false,
          "internalType": "address",
          "name": "who",
          "type": "address"
        }
      ],
      "name": "BidderRemoved",
      "type": "event"
    },
    {
      "anonymous": false,
      "inputs": [
        {
          "indexed": false,
          "internalType": "uint256",
          "name": "auctionId",
          "type": "uint256"
        }
      ],
      "name": "NewAuction",
      "type": "event"
    },
    {
      "anonymous": false,
      "inputs": [
        {
          "indexed": false,
          "internalType": "uint256",
          "name": "auctionId",
          "type": "uint256"
        },
        {
          "indexed": false,
          "internalType": "address",
          "name": "by",
          "type": "address"
        }
      ],
      "name": "NewBid",
      "type": "event"
    },
    {
      "anonymous": false,
      "inputs": [
        {
          "indexed": false,
          "internalType": "uint256",
          "name": "auctionId",
          "type": "uint256"
        },
        {
          "indexed": false,
          "internalType": "address",
          "name": "by",
          "type": "address"
        }
      ],
      "name": "NewReveal",
      "type": "event"
    },
    {
      "anonymous": false,
      "inputs": [
        {
          "indexed": false,
          "internalType": "uint256",
          "name": "auctionId",
          "type": "uint256"
        }
      ],
      "name": "WinnerDecided",
      "type": "event"
    },
    {
      "inputs": [],
      "name": "getNumberOfRegisteredAuctions",
      "outputs": [
        {
          "internalType": "uint256",
          "name": "",
          "type": "uint256"
        }
      ],
      "stateMutability": "view",
      "type": "function",
      "constant": true
    },
    {
      "inputs": [
        {
          "components": [
            {
              "internalType": "address payable",
              "name": "owner",
              "type": "address"
            },
            {
              "internalType": "bytes",
              "name": "params",
              "type": "bytes"
            },
            {
              "internalType": "bytes",
              "name": "owner_pkey",
              "type": "bytes"
            },
            {
              "internalType": "string",
              "name": "itemName",
              "type": "string"
            },
            {
              "internalType": "string",
              "name": "itemDesc",
              "type": "string"
            },
            {
              "internalType": "string",
              "name": "itemPicture",
              "type": "string"
            },
            {
              "internalType": "uint256",
              "name": "minimumPrice",
              "type": "uint256"
            },
            {
              "internalType": "uint256",
              "name": "securityDeposit",
              "type": "uint256"
            },
            {
              "internalType": "uint256",
              "name": "biddingEndDate",
              "type": "uint256"
            },
            {
              "internalType": "uint256",
              "name": "revealingEndDate",
              "type": "uint256"
            },
            {
              "internalType": "uint256",
              "name": "sortingEndDate",
              "type": "uint256"
            }
          ],
          "internalType": "struct SealedBidAuctionManager.UserSetAuctionInfo",
          "name": "info",
          "type": "tuple"
        }
      ],
      "name": "createAuction",
      "outputs": [
        {
          "internalType": "uint256",
          "name": "",
          "type": "uint256"
        }
      ],
      "stateMutability": "payable",
      "type": "function",
      "payable": true
    },
    {
      "inputs": [
        {
          "internalType": "enum SealedBidAuctionManager.AuctionState",
          "name": "state",
          "type": "uint8"
        }
      ],
      "name": "getAuctionsByState",
      "outputs": [
        {
          "components": [
            {
              "internalType": "address payable",
              "name": "owner",
              "type": "address"
            },
            {
              "internalType": "bytes",
              "name": "params",
              "type": "bytes"
            },
            {
              "internalType": "bytes",
              "name": "owner_pkey",
              "type": "bytes"
            },
            {
              "internalType": "string",
              "name": "itemName",
              "type": "string"
            },
            {
              "internalType": "string",
              "name": "itemDesc",
              "type": "string"
            },
            {
              "internalType": "string",
              "name": "itemPicture",
              "type": "string"
            },
            {
              "internalType": "uint256",
              "name": "minimumPrice",
              "type": "uint256"
            },
            {
              "internalType": "uint256",
              "name": "securityDeposit",
              "type": "uint256"
            },
            {
              "internalType": "uint256",
              "name": "biddingEndDate",
              "type": "uint256"
            },
            {
              "internalType": "uint256",
              "name": "revealingEndDate",
              "type": "uint256"
            },
            {
              "internalType": "uint256",
              "name": "sortingEndDate",
              "type": "uint256"
            }
          ],
          "internalType": "struct SealedBidAuctionManager.UserSetAuctionInfo[]",
          "name": "",
          "type": "tuple[]"
        }
      ],
      "stateMutability": "view",
      "type": "function",
      "constant": true
    },
    {
      "inputs": [
        {
          "internalType": "uint256",
          "name": "auctionId",
          "type": "uint256"
        }
      ],
      "name": "getAuctionInfo",
      "outputs": [
        {
          "components": [
            {
              "internalType": "address payable",
              "name": "owner",
              "type": "address"
            },
            {
              "internalType": "bytes",
              "name": "params",
              "type": "bytes"
            },
            {
              "internalType": "bytes",
              "name": "owner_pkey",
              "type": "bytes"
            },
            {
              "internalType": "string",
              "name": "itemName",
              "type": "string"
            },
            {
              "internalType": "string",
              "name": "itemDesc",
              "type": "string"
            },
            {
              "internalType": "string",
              "name": "itemPicture",
              "type": "string"
            },
            {
              "internalType": "uint256",
              "name": "minimumPrice",
              "type": "uint256"
            },
            {
              "internalType": "uint256",
              "name": "securityDeposit",
              "type": "uint256"
            },
            {
              "internalType": "uint256",
              "name": "biddingEndDate",
              "type": "uint256"
            },
            {
              "internalType": "uint256",
              "name": "revealingEndDate",
              "type": "uint256"
            },
            {
              "internalType": "uint256",
              "name": "sortingEndDate",
              "type": "uint256"
            }
          ],
          "internalType": "struct SealedBidAuctionManager.UserSetAuctionInfo",
          "name": "",
          "type": "tuple"
        }
      ],
      "stateMutability": "view",
      "type": "function",
      "constant": true
    },
    {
      "inputs": [
        {
          "internalType": "uint256",
          "name": "auctionId",
          "type": "uint256"
        },
        {
          "internalType": "bytes",
          "name": "c",
          "type": "bytes"
        },
        {
          "internalType": "bytes",
          "name": "d",
          "type": "bytes"
        }
      ],
      "name": "placeBid",
      "outputs": [],
      "stateMutability": "payable",
      "type": "function",
      "payable": true
    },
    {
      "inputs": [
        {
          "internalType": "uint256",
          "name": "auctionId",
          "type": "uint256"
        },
        {
          "internalType": "bytes",
          "name": "z",
          "type": "bytes"
        }
      ],
      "name": "revealBid",
      "outputs": [],
      "stateMutability": "nonpayable",
      "type": "function"
    },
    {
      "inputs": [
        {
          "internalType": "uint256",
          "name": "auctionId",
          "type": "uint256"
        }
      ],
      "name": "getReveals",
      "outputs": [
        {
          "internalType": "bytes[]",
          "name": "",
          "type": "bytes[]"
        }
      ],
      "stateMutability": "nonpayable",
      "type": "function"
    },
    {
      "inputs": [
        {
          "internalType": "uint256",
          "name": "auctionId",
          "type": "uint256"
        },
        {
          "components": [
            {
              "internalType": "bytes",
              "name": "y",
              "type": "bytes"
            },
            {
              "internalType": "address",
              "name": "bidder",
              "type": "address"
            }
          ],
          "internalType": "struct SealedBidAuctionManager.AuctionWinner",
          "name": "winner",
          "type": "tuple"
        }
      ],
      "name": "declareWinner",
      "outputs": [],
      "stateMutability": "nonpayable",
      "type": "function"
    },
    {
      "inputs": [
        {
          "internalType": "uint256",
          "name": "auctionId",
          "type": "uint256"
        }
      ],
      "name": "getWinner",
      "outputs": [
        {
          "components": [
            {
              "internalType": "bytes",
              "name": "y",
              "type": "bytes"
            },
            {
              "internalType": "address",
              "name": "bidder",
              "type": "address"
            }
          ],
          "internalType": "struct SealedBidAuctionManager.AuctionWinner",
          "name": "",
          "type": "tuple"
        }
      ],
      "stateMutability": "view",
      "type": "function",
      "constant": true
    },
    {
      "inputs": [
        {
          "internalType": "uint256",
          "name": "auctionId",
          "type": "uint256"
        }
      ],
      "name": "returnDeposit",
      "outputs": [],
      "stateMutability": "nonpayable",
      "type": "function"
    }
  ],
  "bytecode": "0x608060405234801561001057600080fd5b50614a5a806100206000396000f3fe6080604052600436106100915760003560e01c8063684e38ee11610059578063684e38ee1461016c5780638b10b875146101a957806397d9ee52146101d2578063cea324181461020f578063fc3fc4ed1461023f57610091565b806310e9f5491461009657806318b683fb146100bf5780634129b2c9146100e857806345e481a31461012557806347bf5e2c14610150575b600080fd5b3480156100a257600080fd5b506100bd60048036038101906100b891906130d5565b61027c565b005b3480156100cb57600080fd5b506100e660048036038101906100e19190613135565b610791565b005b3480156100f457600080fd5b5061010f600480360381019061010a9190613135565b610ceb565b60405161011c9190613279565b60405180910390f35b34801561013157600080fd5b5061013a610e5b565b60405161014791906132aa565b60405180910390f35b61016a600480360381019061016591906132c5565b610e67565b005b34801561017857600080fd5b50610193600480360381019061018e919061337f565b6114dd565b6040516101a091906135fe565b60405180910390f35b3480156101b557600080fd5b506101d060048036038101906101cb9190613644565b611a15565b005b3480156101de57600080fd5b506101f960048036038101906101f49190613135565b611f14565b6040516102069190613762565b60405180910390f35b610229600480360381019061022491906137a4565b612619565b60405161023691906132aa565b60405180910390f35b34801561024b57600080fd5b5061026660048036038101906102619190613135565b6128c5565b60405161027391906138f8565b60405180910390f35b8260008054905081106102c4576040517f08c379a00000000000000000000000000000000000000000000000000000000081526004016102bb90613977565b60405180910390fd5b8360008082815481106102da576102d9613997565b5b9060005260206000209060110201600c0160003373ffffffffffffffffffffffffffffffffffffffff1673ffffffffffffffffffffffffffffffffffffffff16815260200190815260200160002050602060ff160361036e576040517f08c379a000000000000000000000000000000000000000000000000000000000815260040161036590613a12565b60405180910390fd5b8460016000828154811061038557610384613997565b5b9060005260206000209060110201600101600801544210156103f35760008083815481106103b6576103b5613997565b5b9060005260206000209060110201600e0160006101000a81548160ff021916908360038111156103e9576103e8613a32565b5b021790555061054a565b6000828154811061040757610406613997565b5b9060005260206000209060110201600101600901544210156104765760016000838154811061043957610438613997565b5b9060005260206000209060110201600e0160006101000a81548160ff0219169083600381111561046c5761046b613a32565b5b0217905550610549565b6000828154811061048a57610489613997565b5b9060005260206000209060110201600101600a01544210156104f9576002600083815481106104bc576104bb613997565b5b9060005260206000209060110201600e0160006101000a81548160ff021916908360038111156104ef576104ee613a32565b5b0217905550610548565b60036000838154811061050f5761050e613997565b5b9060005260206000209060110201600e0160006101000a81548160ff0219169083600381111561054257610541613a32565b5b02179055505b5b5b6000828154811061055e5761055d613997565b5b9060005260206000209060110201600e0160009054906101000a900460ff16600381111561058f5761058e613a32565b5b8160038111156105a2576105a1613a32565b5b146105e2576040517f08c379a00000000000000000000000000000000000000000000000000000000081526004016105d990613aad565b60405180910390fd5b600087815481106105f6576105f5613997565b5b9060005260206000209060110201600c0160003373ffffffffffffffffffffffffffffffffffffffff1673ffffffffffffffffffffffffffffffffffffffff168152602001908152602001600020600201546002878760405161065a929190613b0c565b602060405180830381855afa158015610677573d6000803e3d6000fd5b5050506040513d601f19601f8201168201806040525081019061069a9190613b5b565b146106da576040517f08c379a00000000000000000000000000000000000000000000000000000000081526004016106d190613bd4565b60405180910390fd5b8585600089815481106106f0576106ef613997565b5b9060005260206000209060110201600c0160003373ffffffffffffffffffffffffffffffffffffffff1673ffffffffffffffffffffffffffffffffffffffff168152602001908152602001600020600301919061074e929190612e67565b507fda9ad1af3b211e24edbe9ac3a27ce5cde27c6f44ae790099959efa1472c6be3e8733604051610780929190613c03565b60405180910390a150505050505050565b8060008054905081106107d9576040517f08c379a00000000000000000000000000000000000000000000000000000000081526004016107d090613977565b60405180910390fd5b8160008082815481106107ef576107ee613997565b5b9060005260206000209060110201600c0160003373ffffffffffffffffffffffffffffffffffffffff1673ffffffffffffffffffffffffffffffffffffffff16815260200190815260200160002050602060ff1603610883576040517f08c379a000000000000000000000000000000000000000000000000000000000815260040161087a90613a12565b60405180910390fd5b8260036000828154811061089a57610899613997565b5b9060005260206000209060110201600101600801544210156109085760008083815481106108cb576108ca613997565b5b9060005260206000209060110201600e0160006101000a81548160ff021916908360038111156108fe576108fd613a32565b5b0217905550610a5f565b6000828154811061091c5761091b613997565b5b90600052602060002090601102016001016009015442101561098b5760016000838154811061094e5761094d613997565b5b9060005260206000209060110201600e0160006101000a81548160ff0219169083600381111561098157610980613a32565b5b0217905550610a5e565b6000828154811061099f5761099e613997565b5b9060005260206000209060110201600101600a0154421015610a0e576002600083815481106109d1576109d0613997565b5b9060005260206000209060110201600e0160006101000a81548160ff02191690836003811115610a0457610a03613a32565b5b0217905550610a5d565b600360008381548110610a2457610a23613997565b5b9060005260206000209060110201600e0160006101000a81548160ff02191690836003811115610a5757610a56613a32565b5b02179055505b5b5b60008281548110610a7357610a72613997565b5b9060005260206000209060110201600e0160009054906101000a900460ff166003811115610aa457610aa3613a32565b5b816003811115610ab757610ab6613a32565b5b14610af7576040517f08c379a0000000000000000000000000000000000000000000000000000000008152600401610aee90613aad565b60405180910390fd5b6000151560008681548110610b0f57610b0e613997565b5b9060005260206000209060110201600c0160003373ffffffffffffffffffffffffffffffffffffffff1673ffffffffffffffffffffffffffffffffffffffff16815260200190815260200160002060000160009054906101000a900460ff161515148015610bf1575060008581548110610b8c57610b8b613997565b5b9060005260206000209060110201600f0160010160009054906101000a900473ffffffffffffffffffffffffffffffffffffffff1673ffffffffffffffffffffffffffffffffffffffff163373ffffffffffffffffffffffffffffffffffffffff1614155b15610c7557600160008681548110610c0c57610c0b613997565b5b9060005260206000209060110201600c0160003373ffffffffffffffffffffffffffffffffffffffff1673ffffffffffffffffffffffffffffffffffffffff16815260200190815260200160002060000160006101000a81548160ff0219169083151502179055505b3373ffffffffffffffffffffffffffffffffffffffff166108fc60008781548110610ca357610ca2613997565b5b9060005260206000209060110201600101600701549081150290604051600060405180830381858888f19350505050158015610ce3573d6000803e3d6000fd5b505050505050565b610cf3612eed565b816000805490508110610d3b576040517f08c379a0000000000000000000000000000000000000000000000000000000008152600401610d3290613977565b60405180910390fd5b60008381548110610d4f57610d4e613997565b5b9060005260206000209060110201600f01604051806040016040529081600082018054610d7b90613c5b565b80601f0160208091040260200160405190810160405280929190818152602001828054610da790613c5b565b8015610df45780601f10610dc957610100808354040283529160200191610df4565b820191906000526020600020905b815481529060010190602001808311610dd757829003601f168201915b505050505081526020016001820160009054906101000a900473ffffffffffffffffffffffffffffffffffffffff1673ffffffffffffffffffffffffffffffffffffffff1673ffffffffffffffffffffffffffffffffffffffff1681525050915050919050565b60008080549050905090565b846000805490508110610eaf576040517f08c379a0000000000000000000000000000000000000000000000000000000008152600401610ea690613977565b60405180910390fd5b8560008181548110610ec457610ec3613997565b5b906000526020600020906011020160010160000160009054906101000a900473ffffffffffffffffffffffffffffffffffffffff1673ffffffffffffffffffffffffffffffffffffffff163373ffffffffffffffffffffffffffffffffffffffff1614610f66576040517f08c379a0000000000000000000000000000000000000000000000000000000008152600401610f5d90613cd8565b60405180910390fd5b866000808281548110610f7c57610f7b613997565b5b9060005260206000209060110201600c0160003373ffffffffffffffffffffffffffffffffffffffff1673ffffffffffffffffffffffffffffffffffffffff16815260200190815260200160002050602060ff1614611010576040517f08c379a000000000000000000000000000000000000000000000000000000000815260040161100790613d44565b60405180910390fd5b87600080828154811061102657611025613997565b5b90600052602060002090601102016001016008015442101561109457600080838154811061105757611056613997565b5b9060005260206000209060110201600e0160006101000a81548160ff0219169083600381111561108a57611089613a32565b5b02179055506111eb565b600082815481106110a8576110a7613997565b5b906000526020600020906011020160010160090154421015611117576001600083815481106110da576110d9613997565b5b9060005260206000209060110201600e0160006101000a81548160ff0219169083600381111561110d5761110c613a32565b5b02179055506111ea565b6000828154811061112b5761112a613997565b5b9060005260206000209060110201600101600a015442101561119a5760026000838154811061115d5761115c613997565b5b9060005260206000209060110201600e0160006101000a81548160ff021916908360038111156111905761118f613a32565b5b02179055506111e9565b6003600083815481106111b0576111af613997565b5b9060005260206000209060110201600e0160006101000a81548160ff021916908360038111156111e3576111e2613a32565b5b02179055505b5b5b600082815481106111ff576111fe613997565b5b9060005260206000209060110201600e0160009054906101000a900460ff1660038111156112305761122f613a32565b5b81600381111561124357611242613a32565b5b14611283576040517f08c379a000000000000000000000000000000000000000000000000000000000815260040161127a90613aad565b60405180910390fd5b60008a8154811061129757611296613997565b5b9060005260206000209060110201600101600701548034146112ee576040517f08c379a00000000000000000000000000000000000000000000000000000000081526004016112e590613db0565b60405180910390fd5b60405180608001604052806000151581526020018b8b9061130f9190613de8565b81526020018989906113219190613de8565b81526020016040518060200160405280600081525081525060008c8154811061134d5761134c613997565b5b9060005260206000209060110201600c0160003373ffffffffffffffffffffffffffffffffffffffff1673ffffffffffffffffffffffffffffffffffffffff16815260200190815260200160002060008201518160000160006101000a81548160ff021916908315150217905550602082015181600101556040820151816002015560608201518160030190805190602001906113eb929190612f1d565b509050503360008c8154811061140457611403613997565b5b9060005260206000209060110201600d0160008d8154811061142957611428613997565b5b9060005260206000209060110201600d01805490508154811061144f5761144e613997565b5b9060005260206000200160006101000a81548173ffffffffffffffffffffffffffffffffffffffff021916908373ffffffffffffffffffffffffffffffffffffffff1602179055507f45401769c1d58f70bd6b63e1a66bfc17d712ce0dc4ffb8d2dd0ad7177d56a3868b336040516114c8929190613c03565b60405180910390a15050505050505050505050565b60606000805b60008054905081101561156f5783600381111561150357611502613a32565b5b6000828154811061151757611516613997565b5b9060005260206000209060110201600e0160009054906101000a900460ff16600381111561154857611547613a32565b5b0361155c57818061155890613e76565b9250505b808061156790613e76565b9150506114e3565b5060008167ffffffffffffffff81111561158c5761158b613ebe565b5b6040519080825280602002602001820160405280156115c557816020015b6115b2612fa3565b8152602001906001900390816115aa5790505b5090506000805b600080549050811015611a09578560038111156115ec576115eb613a32565b5b60008281548110611600576115ff613997565b5b9060005260206000209060110201600e0160009054906101000a900460ff16600381111561163157611630613a32565b5b036119f6576000818154811061164a57611649613997565b5b9060005260206000209060110201600101604051806101600160405290816000820160009054906101000a900473ffffffffffffffffffffffffffffffffffffffff1673ffffffffffffffffffffffffffffffffffffffff1673ffffffffffffffffffffffffffffffffffffffff1681526020016001820180546116cd90613c5b565b80601f01602080910402602001604051908101604052809291908181526020018280546116f990613c5b565b80156117465780601f1061171b57610100808354040283529160200191611746565b820191906000526020600020905b81548152906001019060200180831161172957829003601f168201915b5050505050815260200160028201805461175f90613c5b565b80601f016020809104026020016040519081016040528092919081815260200182805461178b90613c5b565b80156117d85780601f106117ad576101008083540402835291602001916117d8565b820191906000526020600020905b8154815290600101906020018083116117bb57829003601f168201915b505050505081526020016003820180546117f190613c5b565b80601f016020809104026020016040519081016040528092919081815260200182805461181d90613c5b565b801561186a5780601f1061183f5761010080835404028352916020019161186a565b820191906000526020600020905b81548152906001019060200180831161184d57829003601f168201915b5050505050815260200160048201805461188390613c5b565b80601f01602080910402602001604051908101604052809291908181526020018280546118af90613c5b565b80156118fc5780601f106118d1576101008083540402835291602001916118fc565b820191906000526020600020905b8154815290600101906020018083116118df57829003601f168201915b5050505050815260200160058201805461191590613c5b565b80601f016020809104026020016040519081016040528092919081815260200182805461194190613c5b565b801561198e5780601f106119635761010080835404028352916020019161198e565b820191906000526020600020905b81548152906001019060200180831161197157829003601f168201915b5050505050815260200160068201548152602001600782015481526020016008820154815260200160098201548152602001600a820154815250508383815181106119dc576119db613997565b5b602002602001018190525081806119f290613e76565b9250505b8080611a0190613e76565b9150506115cc565b50819350505050919050565b816000805490508110611a5d576040517f08c379a0000000000000000000000000000000000000000000000000000000008152600401611a5490613977565b60405180910390fd5b8260008181548110611a7257611a71613997565b5b906000526020600020906011020160010160000160009054906101000a900473ffffffffffffffffffffffffffffffffffffffff1673ffffffffffffffffffffffffffffffffffffffff163373ffffffffffffffffffffffffffffffffffffffff1614611b14576040517f08c379a0000000000000000000000000000000000000000000000000000000008152600401611b0b90613f39565b60405180910390fd5b83600260008281548110611b2b57611b2a613997565b5b906000526020600020906011020160010160080154421015611b99576000808381548110611b5c57611b5b613997565b5b9060005260206000209060110201600e0160006101000a81548160ff02191690836003811115611b8f57611b8e613a32565b5b0217905550611cf0565b60008281548110611bad57611bac613997565b5b906000526020600020906011020160010160090154421015611c1c57600160008381548110611bdf57611bde613997565b5b9060005260206000209060110201600e0160006101000a81548160ff02191690836003811115611c1257611c11613a32565b5b0217905550611cef565b60008281548110611c3057611c2f613997565b5b9060005260206000209060110201600101600a0154421015611c9f57600260008381548110611c6257611c61613997565b5b9060005260206000209060110201600e0160006101000a81548160ff02191690836003811115611c9557611c94613a32565b5b0217905550611cee565b600360008381548110611cb557611cb4613997565b5b9060005260206000209060110201600e0160006101000a81548160ff02191690836003811115611ce857611ce7613a32565b5b02179055505b5b5b60008281548110611d0457611d03613997565b5b9060005260206000209060110201600e0160009054906101000a900460ff166003811115611d3557611d34613a32565b5b816003811115611d4857611d47613a32565b5b14611d88576040517f08c379a0000000000000000000000000000000000000000000000000000000008152600401611d7f90613aad565b60405180910390fd5b60008681548110611d9c57611d9b613997565b5b9060005260206000209060110201600c016000866020016020810190611dc29190613f85565b73ffffffffffffffffffffffffffffffffffffffff1673ffffffffffffffffffffffffffffffffffffffff168152602001908152602001600020600101546002868060000190611e129190613fc1565b604051611e20929190613b0c565b602060405180830381855afa158015611e3d573d6000803e3d6000fd5b5050506040513d601f19601f82011682018060405250810190611e609190613b5b565b14611ea0576040517f08c379a0000000000000000000000000000000000000000000000000000000008152600401611e9790613bd4565b60405180910390fd5b8460008781548110611eb557611eb4613997565b5b9060005260206000209060110201600f018181611ed291906143b5565b9050507f0dfe3c139eda10ac8ad090855d58512ef7e6d48784a57307084c1903ff26f4f986604051611f0491906132aa565b60405180910390a1505050505050565b6060816000805490508110611f5e576040517f08c379a0000000000000000000000000000000000000000000000000000000008152600401611f5590613977565b60405180910390fd5b8260008181548110611f7357611f72613997565b5b906000526020600020906011020160010160000160009054906101000a900473ffffffffffffffffffffffffffffffffffffffff1673ffffffffffffffffffffffffffffffffffffffff163373ffffffffffffffffffffffffffffffffffffffff1614612015576040517f08c379a000000000000000000000000000000000000000000000000000000000815260040161200c90613f39565b60405180910390fd5b8360026000828154811061202c5761202b613997565b5b90600052602060002090601102016001016008015442101561209a57600080838154811061205d5761205c613997565b5b9060005260206000209060110201600e0160006101000a81548160ff021916908360038111156120905761208f613a32565b5b02179055506121f1565b600082815481106120ae576120ad613997565b5b90600052602060002090601102016001016009015442101561211d576001600083815481106120e0576120df613997565b5b9060005260206000209060110201600e0160006101000a81548160ff0219169083600381111561211357612112613a32565b5b02179055506121f0565b6000828154811061213157612130613997565b5b9060005260206000209060110201600101600a01544210156121a05760026000838154811061216357612162613997565b5b9060005260206000209060110201600e0160006101000a81548160ff0219169083600381111561219657612195613a32565b5b02179055506121ef565b6003600083815481106121b6576121b5613997565b5b9060005260206000209060110201600e0160006101000a81548160ff021916908360038111156121e9576121e8613a32565b5b02179055505b5b5b6000828154811061220557612204613997565b5b9060005260206000209060110201600e0160009054906101000a900460ff16600381111561223657612235613a32565b5b81600381111561224957612248613a32565b5b14612289576040517f08c379a000000000000000000000000000000000000000000000000000000000815260040161228090613aad565b60405180910390fd5b6000805b600088815481106122a1576122a0613997565b5b9060005260206000209060110201600d01805490508110156124055760008089815481106122d2576122d1613997565b5b9060005260206000209060110201600d0182815481106122f5576122f4613997565b5b9060005260206000200160009054906101000a900473ffffffffffffffffffffffffffffffffffffffff1690506000808a8154811061233757612336613997565b5b9060005260206000209060110201600c0160008373ffffffffffffffffffffffffffffffffffffffff1673ffffffffffffffffffffffffffffffffffffffff168152602001908152602001600020600301805461239390613c5b565b9050036123e2576123a48983612cb0565b7f4ddf4c0e94fa7c3fcf8474005bf8b72858bbc3afbeecaee663000ca4eeb2b9bd89826040516123d5929190613c03565b60405180910390a16123f1565b82806123ed90613e76565b9350505b5080806123fd90613e76565b91505061228d565b5060008167ffffffffffffffff81111561242257612421613ebe565b5b60405190808252806020026020018201604052801561245557816020015b60608152602001906001900390816124405790505b50905060005b6000898154811061246f5761246e613997565b5b9060005260206000209060110201600d018054905081101561260a576000898154811061249f5761249e613997565b5b9060005260206000209060110201600c016000808b815481106124c5576124c4613997565b5b9060005260206000209060110201600d0183815481106124e8576124e7613997565b5b9060005260206000200160009054906101000a900473ffffffffffffffffffffffffffffffffffffffff1673ffffffffffffffffffffffffffffffffffffffff1673ffffffffffffffffffffffffffffffffffffffff168152602001908152602001600020600301805461255b90613c5b565b80601f016020809104026020016040519081016040528092919081815260200182805461258790613c5b565b80156125d45780601f106125a9576101008083540402835291602001916125d4565b820191906000526020600020905b8154815290600101906020018083116125b757829003601f168201915b50505050508282815181106125ec576125eb613997565b5b6020026020010181905250808061260290613e76565b91505061245b565b50809650505050505050919050565b60008160e00135803414612662576040517f08c379a000000000000000000000000000000000000000000000000000000000815260040161265990613db0565b60405180910390fd5b60008360c00135036126a9576040517f08c379a00000000000000000000000000000000000000000000000000000000081526004016126a090614435565b60405180910390fd5b8260c001358360e0013511806126c3575060008360e00135145b15612703576040517f08c379a00000000000000000000000000000000000000000000000000000000081526004016126fa906144ed565b60405180910390fd5b8261012001358361014001351180156127255750826101000135836101200135115b612764576040517f08c379a000000000000000000000000000000000000000000000000000000000815260040161275b9061457f565b60405180910390fd5b60008060018160018154018082558091505003906000526020600020906011020190506000805490508160000181905550838160010181816127a691906149b3565b905050600081600e0160006101000a81548160ff021916908360038111156127d1576127d0613a32565b5b02179055506040518060400160405280604051806020016040528060008152508152602001600073ffffffffffffffffffffffffffffffffffffffff1681525081600f016000820151816000019080519060200190612831929190612f1d565b5060208201518160010160006101000a81548173ffffffffffffffffffffffffffffffffffffffff021916908373ffffffffffffffffffffffffffffffffffffffff1602179055509050507fbdba0fc2c85fe021acfa560c047f0a846648b1b504aa94ab6557cabb04b9425881600001546040516128af91906132aa565b60405180910390a1806000015492505050919050565b6128cd612fa3565b816000805490508110612915576040517f08c379a000000000000000000000000000000000000000000000000000000000815260040161290c90613977565b60405180910390fd5b6000838154811061292957612928613997565b5b9060005260206000209060110201600101604051806101600160405290816000820160009054906101000a900473ffffffffffffffffffffffffffffffffffffffff1673ffffffffffffffffffffffffffffffffffffffff1673ffffffffffffffffffffffffffffffffffffffff1681526020016001820180546129ac90613c5b565b80601f01602080910402602001604051908101604052809291908181526020018280546129d890613c5b565b8015612a255780601f106129fa57610100808354040283529160200191612a25565b820191906000526020600020905b815481529060010190602001808311612a0857829003601f168201915b50505050508152602001600282018054612a3e90613c5b565b80601f0160208091040260200160405190810160405280929190818152602001828054612a6a90613c5b565b8015612ab75780601f10612a8c57610100808354040283529160200191612ab7565b820191906000526020600020905b815481529060010190602001808311612a9a57829003601f168201915b50505050508152602001600382018054612ad090613c5b565b80601f0160208091040260200160405190810160405280929190818152602001828054612afc90613c5b565b8015612b495780601f10612b1e57610100808354040283529160200191612b49565b820191906000526020600020905b815481529060010190602001808311612b2c57829003601f168201915b50505050508152602001600482018054612b6290613c5b565b80601f0160208091040260200160405190810160405280929190818152602001828054612b8e90613c5b565b8015612bdb5780601f10612bb057610100808354040283529160200191612bdb565b820191906000526020600020905b815481529060010190602001808311612bbe57829003601f168201915b50505050508152602001600582018054612bf490613c5b565b80601f0160208091040260200160405190810160405280929190818152602001828054612c2090613c5b565b8015612c6d5780601f10612c4257610100808354040283529160200191612c6d565b820191906000526020600020905b815481529060010190602001808311612c5057829003601f168201915b5050505050815260200160068201548152602001600782015481526020016008820154815260200160098201548152602001600a82015481525050915050919050565b60008281548110612cc457612cc3613997565b5b9060005260206000209060110201600d01805490508110612ce457600080fd5b60008281548110612cf857612cf7613997565b5b9060005260206000209060110201600d01600160008481548110612d1f57612d1e613997565b5b9060005260206000209060110201600d0180549050612d3e91906149c1565b81548110612d4f57612d4e613997565b5b9060005260206000200160009054906101000a900473ffffffffffffffffffffffffffffffffffffffff1660008381548110612d8e57612d8d613997565b5b9060005260206000209060110201600d018281548110612db157612db0613997565b5b9060005260206000200160006101000a81548173ffffffffffffffffffffffffffffffffffffffff021916908373ffffffffffffffffffffffffffffffffffffffff16021790555060008281548110612e0d57612e0c613997565b5b9060005260206000209060110201600d01805480612e2e57612e2d6149f5565b5b6001900381819060005260206000200160006101000a81549073ffffffffffffffffffffffffffffffffffffffff021916905590555050565b828054612e7390613c5b565b90600052602060002090601f016020900481019282612e955760008555612edc565b82601f10612eae57803560ff1916838001178555612edc565b82800160010185558215612edc579182015b82811115612edb578235825591602001919060010190612ec0565b5b509050612ee99190613013565b5090565b604051806040016040528060608152602001600073ffffffffffffffffffffffffffffffffffffffff1681525090565b828054612f2990613c5b565b90600052602060002090601f016020900481019282612f4b5760008555612f92565b82601f10612f6457805160ff1916838001178555612f92565b82800160010185558215612f92579182015b82811115612f91578251825591602001919060010190612f76565b5b509050612f9f9190613013565b5090565b604051806101600160405280600073ffffffffffffffffffffffffffffffffffffffff168152602001606081526020016060815260200160608152602001606081526020016060815260200160008152602001600081526020016000815260200160008152602001600081525090565b5b8082111561302c576000816000905550600101613014565b5090565b600080fd5b600080fd5b6000819050919050565b61304d8161303a565b811461305857600080fd5b50565b60008135905061306a81613044565b92915050565b600080fd5b600080fd5b600080fd5b60008083601f84011261309557613094613070565b5b8235905067ffffffffffffffff8111156130b2576130b1613075565b5b6020830191508360018202830111156130ce576130cd61307a565b5b9250929050565b6000806000604084860312156130ee576130ed613030565b5b60006130fc8682870161305b565b935050602084013567ffffffffffffffff81111561311d5761311c613035565b5b6131298682870161307f565b92509250509250925092565b60006020828403121561314b5761314a613030565b5b60006131598482850161305b565b91505092915050565b600081519050919050565b600082825260208201905092915050565b60005b8381101561319c578082015181840152602081019050613181565b838111156131ab576000848401525b50505050565b6000601f19601f8301169050919050565b60006131cd82613162565b6131d7818561316d565b93506131e781856020860161317e565b6131f0816131b1565b840191505092915050565b600073ffffffffffffffffffffffffffffffffffffffff82169050919050565b6000613226826131fb565b9050919050565b6132368161321b565b82525050565b6000604083016000830151848203600086015261325982826131c2565b915050602083015161326e602086018261322d565b508091505092915050565b60006020820190508181036000830152613293818461323c565b905092915050565b6132a48161303a565b82525050565b60006020820190506132bf600083018461329b565b92915050565b6000806000806000606086880312156132e1576132e0613030565b5b60006132ef8882890161305b565b955050602086013567ffffffffffffffff8111156133105761330f613035565b5b61331c8882890161307f565b9450945050604086013567ffffffffffffffff81111561333f5761333e613035565b5b61334b8882890161307f565b92509250509295509295909350565b6004811061336757600080fd5b50565b6000813590506133798161335a565b92915050565b60006020828403121561339557613394613030565b5b60006133a38482850161336a565b91505092915050565b600081519050919050565b600082825260208201905092915050565b6000819050602082019050919050565b60006133e3826131fb565b9050919050565b6133f3816133d8565b82525050565b600081519050919050565b600082825260208201905092915050565b6000613420826133f9565b61342a8185613404565b935061343a81856020860161317e565b613443816131b1565b840191505092915050565b6134578161303a565b82525050565b60006101608301600083015161347660008601826133ea565b506020830151848203602086015261348e82826131c2565b915050604083015184820360408601526134a882826131c2565b915050606083015184820360608601526134c28282613415565b915050608083015184820360808601526134dc8282613415565b91505060a083015184820360a08601526134f68282613415565b91505060c083015161350b60c086018261344e565b5060e083015161351e60e086018261344e565b5061010083015161353361010086018261344e565b5061012083015161354861012086018261344e565b5061014083015161355d61014086018261344e565b508091505092915050565b6000613574838361345d565b905092915050565b6000602082019050919050565b6000613594826133ac565b61359e81856133b7565b9350836020820285016135b0856133c8565b8060005b858110156135ec57848403895281516135cd8582613568565b94506135d88361357c565b925060208a019950506001810190506135b4565b50829750879550505050505092915050565b600060208201905081810360008301526136188184613589565b905092915050565b600080fd5b60006040828403121561363b5761363a613620565b5b81905092915050565b6000806040838503121561365b5761365a613030565b5b60006136698582860161305b565b925050602083013567ffffffffffffffff81111561368a57613689613035565b5b61369685828601613625565b9150509250929050565b600081519050919050565b600082825260208201905092915050565b6000819050602082019050919050565b60006136d883836131c2565b905092915050565b6000602082019050919050565b60006136f8826136a0565b61370281856136ab565b935083602082028501613714856136bc565b8060005b85811015613750578484038952815161373185826136cc565b945061373c836136e0565b925060208a01995050600181019050613718565b50829750879550505050505092915050565b6000602082019050818103600083015261377c81846136ed565b905092915050565b6000610160828403121561379b5761379a613620565b5b81905092915050565b6000602082840312156137ba576137b9613030565b5b600082013567ffffffffffffffff8111156137d8576137d7613035565b5b6137e484828501613784565b91505092915050565b60006101608301600083015161380660008601826133ea565b506020830151848203602086015261381e82826131c2565b9150506040830151848203604086015261383882826131c2565b915050606083015184820360608601526138528282613415565b9150506080830151848203608086015261386c8282613415565b91505060a083015184820360a08601526138868282613415565b91505060c083015161389b60c086018261344e565b5060e08301516138ae60e086018261344e565b506101008301516138c361010086018261344e565b506101208301516138d861012086018261344e565b506101408301516138ed61014086018261344e565b508091505092915050565b6000602082019050818103600083015261391281846137ed565b905092915050565b600082825260208201905092915050565b7f41756374696f6e204944206973206e6f742076616c6964210000000000000000600082015250565b600061396160188361391a565b915061396c8261392b565b602082019050919050565b6000602082019050818103600083015261399081613954565b9050919050565b7f4e487b7100000000000000000000000000000000000000000000000000000000600052603260045260246000fd5b7f53656e64657220686173206e6f7420706c616365642061206269642100000000600082015250565b60006139fc601c8361391a565b9150613a07826139c6565b602082019050919050565b60006020820190508181036000830152613a2b816139ef565b9050919050565b7f4e487b7100000000000000000000000000000000000000000000000000000000600052602160045260246000fd5b7f496e617070726f707269617465206f7065726174696f6e210000000000000000600082015250565b6000613a9760188361391a565b9150613aa282613a61565b602082019050919050565b60006020820190508181036000830152613ac681613a8a565b9050919050565b600081905092915050565b82818337600083830152505050565b6000613af38385613acd565b9350613b00838584613ad8565b82840190509392505050565b6000613b19828486613ae7565b91508190509392505050565b6000819050919050565b613b3881613b25565b8114613b4357600080fd5b50565b600081519050613b5581613b2f565b92915050565b600060208284031215613b7157613b70613030565b5b6000613b7f84828501613b46565b91505092915050565b7f4861736820697320696e76616c69642100000000000000000000000000000000600082015250565b6000613bbe60108361391a565b9150613bc982613b88565b602082019050919050565b60006020820190508181036000830152613bed81613bb1565b9050919050565b613bfd8161321b565b82525050565b6000604082019050613c18600083018561329b565b613c256020830184613bf4565b9392505050565b7f4e487b7100000000000000000000000000000000000000000000000000000000600052602260045260246000fd5b60006002820490506001821680613c7357607f821691505b602082108103613c8657613c85613c2c565b5b50919050565b7f53656e64657220697320746865206f776e657221000000000000000000000000600082015250565b6000613cc260148361391a565b9150613ccd82613c8c565b602082019050919050565b60006020820190508181036000830152613cf181613cb5565b9050919050565b7f53656e6465722068617320616c726561647920706c6163656420612062696421600082015250565b6000613d2e60208361391a565b9150613d3982613cf8565b602082019050919050565b60006020820190508181036000830152613d5d81613d21565b9050919050565b7f53656e742076616c7565206973206e6f74207269676874210000000000000000600082015250565b6000613d9a60188361391a565b9150613da582613d64565b602082019050919050565b60006020820190508181036000830152613dc981613d8d565b9050919050565b600082905092915050565b600082821b905092915050565b6000613df48383613dd0565b82613dff8135613b25565b92506020821015613e3f57613e3a7fffffffffffffffffffffffffffffffffffffffffffffffffffffffffffffffff83602003600802613ddb565b831692505b505092915050565b7f4e487b7100000000000000000000000000000000000000000000000000000000600052601160045260246000fd5b6000613e818261303a565b91507fffffffffffffffffffffffffffffffffffffffffffffffffffffffffffffffff8203613eb357613eb2613e47565b5b600182019050919050565b7f4e487b7100000000000000000000000000000000000000000000000000000000600052604160045260246000fd5b7f53656e646572206973206e6f7420746865206f776e6572210000000000000000600082015250565b6000613f2360188361391a565b9150613f2e82613eed565b602082019050919050565b60006020820190508181036000830152613f5281613f16565b9050919050565b613f628161321b565b8114613f6d57600080fd5b50565b600081359050613f7f81613f59565b92915050565b600060208284031215613f9b57613f9a613030565b5b6000613fa984828501613f70565b91505092915050565b600080fd5b600080fd5b600080fd5b60008083356001602003843603038112613fde57613fdd613fb2565b5b80840192508235915067ffffffffffffffff82111561400057613fff613fb7565b5b60208301925060018202360383131561401c5761401b613fbc565b5b509250929050565b60008190508160005260206000209050919050565b60006020601f8301049050919050565b6000600883026140797fffffffffffffffffffffffffffffffffffffffffffffffffffffffffffffffff82613ddb565b6140838683613ddb565b95508019841693508086168417925050509392505050565b6000819050919050565b60006140c06140bb6140b68461303a565b61409b565b61303a565b9050919050565b6000819050919050565b6140da836140a5565b6140ee6140e6826140c7565b848454614049565b825550505050565b600090565b6141036140f6565b61410e8184846140d1565b505050565b5b81811015614132576141276000826140fb565b600181019050614114565b5050565b601f8211156141775761414881614024565b61415184614039565b81016020851015614160578190505b61417461416c85614039565b830182614113565b50505b505050565b600082821c905092915050565b600061419a6000198460080261417c565b1980831691505092915050565b60006141b38383614189565b9150826002028217905092915050565b6141cd8383613dd0565b67ffffffffffffffff8111156141e6576141e5613ebe565b5b6141f08254613c5b565b6141fb828285614136565b6000601f83116001811461422a5760008415614218578287013590505b61422285826141a7565b86555061428a565b601f19841661423886614024565b60005b828110156142605784890135825560018201915060208501945060208101905061423b565b8683101561427d5784890135614279601f891682614189565b8355505b6001600288020188555050505b50505050505050565b61429e8383836141c3565b505050565b600081356142b081613f59565b80915050919050565b60008160001b9050919050565b600073ffffffffffffffffffffffffffffffffffffffff6142e6846142b9565b9350801983169250808416831791505092915050565b600061431761431261430d846131fb565b61409b565b6131fb565b9050919050565b6000614329826142fc565b9050919050565b600061433b8261431e565b9050919050565b6000819050919050565b61435582614330565b61436861436182614342565b83546142c6565b8255505050565b60008101600083016143818185613fc1565b61438c818386614293565b505050506001810160208301806143a2816142a3565b90506143ae818461434c565b5050505050565b6143bf828261436f565b5050565b7f4d696e696d756d207072696365206d757374206265206120706f73697469766560008201527f206e756d62657200000000000000000000000000000000000000000000000000602082015250565b600061441f60278361391a565b915061442a826143c3565b604082019050919050565b6000602082019050818103600083015261444e81614412565b9050919050565b7f5468652072656c6174696f6e202830203c205365637572697479204465706f7360008201527f6974203c204d696e696d756d20507269636529206973206e6f7420736174697360208201527f666965642e000000000000000000000000000000000000000000000000000000604082015250565b60006144d760458361391a565b91506144e282614455565b606082019050919050565b60006020820190508181036000830152614506816144ca565b9050919050565b7f446174657320617265206e6f7420696e20746865207269676874206f7264657260008201527f2e00000000000000000000000000000000000000000000000000000000000000602082015250565b600061456960218361391a565b91506145748261450d565b604082019050919050565b600060208201905081810360008301526145988161455c565b9050919050565b6145a8816133d8565b81146145b357600080fd5b50565b600081356145c38161459f565b80915050919050565b60006145d7826142fc565b9050919050565b60006145e9826145cc565b9050919050565b6000819050919050565b614603826145de565b61461661460f826145f0565b83546142c6565b8255505050565b6000808335600160200384360303811261463a57614639613fb2565b5b80840192508235915067ffffffffffffffff82111561465c5761465b613fb7565b5b60208301925060018202360383131561467857614677613fbc565b5b509250929050565b600082905092915050565b60008190508160005260206000209050919050565b601f8211156146e1576146b28161468b565b6146bb84614039565b810160208510156146ca578190505b6146de6146d685614039565b830182614113565b50505b505050565b6146f08383614680565b67ffffffffffffffff81111561470957614708613ebe565b5b6147138254613c5b565b61471e8282856146a0565b6000601f83116001811461474d576000841561473b578287013590505b61474585826141a7565b8655506147ad565b601f19841661475b8661468b565b60005b828110156147835784890135825560018201915060208501945060208101905061475e565b868310156147a0578489013561479c601f891682614189565b8355505b6001600288020188555050505b50505050505050565b6147c18383836146e6565b505050565b600081356147d381613044565b80915050919050565b60007fffffffffffffffffffffffffffffffffffffffffffffffffffffffffffffffff614808846142b9565b9350801983169250808416831791505092915050565b614827826140a5565b61483a614833826140c7565b83546147dc565b8255505050565b600081016000830180614853816145b6565b905061485f81846145fa565b50505060018101602083016148748185613fc1565b61487f818386614293565b5050505060028101604083016148958185613fc1565b6148a0818386614293565b5050505060038101606083016148b6818561461d565b6148c18183866147b6565b5050505060048101608083016148d7818561461d565b6148e28183866147b6565b505050506005810160a083016148f8818561461d565b6149038183866147b6565b505050506006810160c0830180614919816147c6565b9050614925818461481e565b5050506007810160e083018061493a816147c6565b9050614946818461481e565b5050506008810161010083018061495c816147c6565b9050614968818461481e565b5050506009810161012083018061497e816147c6565b905061498a818461481e565b505050600a81016101408301806149a0816147c6565b90506149ac818461481e565b5050505050565b6149bd8282614841565b5050565b60006149cc8261303a565b91506149d78361303a565b9250828210156149ea576149e9613e47565b5b828203905092915050565b7f4e487b7100000000000000000000000000000000000000000000000000000000600052603160045260246000fdfea26469706673582212201e8829d0c6468f815744b7cf05438c08deea3f0b9d929381ad65019b0ba6a4d264736f6c634300080d0033",
  "immutableReferences": {},
  "source": "// SPDX-License-Identifier: MIT\npragma solidity ^0.8.13;\n\n// NOTE: all currency is wei\n\ncontract SealedBidAuctionManager {\n    struct UserSetAuctionInfo {\n        // administrative\n        address payable owner;\n        bytes params;\n        bytes owner_pkey;\n        // item\n        string itemName;\n        string itemDesc;\n        string itemPicture;\n        // transactional\n        uint256 minimumPrice;\n        uint256 securityDeposit;\n        // dates\n        uint256 biddingEndDate;\n        uint256 revealingEndDate;\n        uint256 sortingEndDate;\n    }\n\n    struct Bid {\n        bool done;\n        // to bid\n        bytes32 c;\n        bytes32 d;\n        // to reveal\n        bytes z;\n    }\n\n    struct AuctionWinner {\n        bytes y;\n        address bidder;\n    }\n\n    struct Auction {\n        uint256 id;\n        UserSetAuctionInfo info;\n        mapping(address => Bid) bids;\n        address[] bidders;\n        AuctionState state;\n        AuctionWinner winner;\n    }\n\n    enum AuctionState {\n        BiddingPhase,\n        RevealingPhase,\n        SortingPhase,\n        Ended\n    }\n\n    Auction[] private auctions;\n\n    // events for logging and subscription\n\n    event NewAuction(uint256 auctionId);\n    event NewBid(uint256 auctionId, address by);\n    event NewReveal(uint256 auctionId, address by);\n    event BidderRemoved(uint256, address who);\n    event WinnerDecided(uint256 auctionId);\n    event AuctionEnds(uint256 auctionId, bool success);\n\n    // modifiers for modularity\n\n    modifier SenderDidNotPlaceABid(uint256 auctionId) {\n        if (auctions[auctionId].bids[msg.sender].c.length != 0)\n            revert(\"Sender has already placed a bid!\");\n        _;\n    }\n\n    modifier SenderPlacedABid(uint256 auctionId) {\n        if (auctions[auctionId].bids[msg.sender].c.length == 0)\n            revert(\"Sender has not placed a bid!\");\n        _;\n    }\n\n    modifier SenderIsOwner(uint256 auctionId) {\n        if (msg.sender != auctions[auctionId].info.owner)\n            revert(\"Sender is not the owner!\");\n        _;\n    }\n\n    modifier SenderIsNotOwner(uint256 auctionId) {\n        if (msg.sender != auctions[auctionId].info.owner)\n            revert(\"Sender is the owner!\");\n        _;\n    }\n\n    modifier AuctionIDIsValid(uint256 auctionId) {\n        if (auctionId >= auctions.length) revert(\"Auction ID is not valid!\");\n        _;\n    }\n\n    modifier CheckAuctionState(uint256 auctionId, AuctionState state) {\n        // set it\n        if (block.timestamp < auctions[auctionId].info.biddingEndDate)\n            auctions[auctionId].state = AuctionState.BiddingPhase;\n        else if (block.timestamp < auctions[auctionId].info.revealingEndDate)\n            auctions[auctionId].state = AuctionState.RevealingPhase;\n        else if (block.timestamp < auctions[auctionId].info.sortingEndDate)\n            auctions[auctionId].state = AuctionState.SortingPhase;\n        else auctions[auctionId].state = AuctionState.Ended;\n\n        // check it\n        if (state != auctions[auctionId].state) {\n            revert(\"Inappropriate operation!\");\n        }\n        _;\n    }\n\n    modifier ValueEquals(uint v) {\n        if (msg.value != v) revert(\"Sent value is not right!\");\n        _;\n    }\n\n    // private functions\n\n    function _removeBidder(uint256 auctionId, uint index) internal {\n        require(index < auctions[auctionId].bidders.length);\n\n        auctions[auctionId].bidders[index] = auctions[auctionId].bidders[\n            auctions[auctionId].bidders.length - 1\n        ];\n        auctions[auctionId].bidders.pop();\n    }\n\n    // external functions to be called at any time\n\n    function getNumberOfRegisteredAuctions() external view returns (uint256) {\n        return auctions.length;\n    }\n\n    function createAuction(\n        UserSetAuctionInfo calldata info\n    ) external payable ValueEquals(info.securityDeposit) returns (uint256) {\n        // validation of auction parameters\n        if (info.minimumPrice == 0)\n            revert(\"Minimum price must be a positive number\");\n\n        if (\n            info.securityDeposit > info.minimumPrice ||\n            info.securityDeposit == 0\n        )\n            revert(\n                \"The relation (0 < Security Deposit < Minimum Price) is not satisfied.\"\n            );\n\n        if (\n            !(// info.verificationEndDate > info.sortingEndDate &&\n            info.sortingEndDate > info.revealingEndDate &&\n                info.revealingEndDate > info.biddingEndDate)\n        ) revert(\"Dates are not in the right order.\");\n\n        // valid? add it\n        Auction storage auction = auctions.push();\n\n        auction.id = auctions.length;\n        auction.info = info;\n        auction.state = AuctionState.BiddingPhase;\n        auction.winner = AuctionWinner({y: \"\", bidder: address(0)});\n\n        emit NewAuction(auction.id);\n        return auction.id;\n    }\n\n    function getAuctionsByState(\n        AuctionState state\n    ) external view returns (UserSetAuctionInfo[] memory) {\n        uint256 count = 0;\n        for (uint256 i = 0; i < auctions.length; i++) {\n            if (auctions[i].state == state) {\n                count++;\n            }\n        }\n\n        UserSetAuctionInfo[] memory data = new UserSetAuctionInfo[](count);\n        uint256 j = 0;\n        for (uint256 i = 0; i < auctions.length; i++) {\n            if (auctions[i].state == state) {\n                data[j] = auctions[i].info;\n                j++;\n            }\n        }\n\n        return data;\n    }\n\n    function getAuctionInfo(\n        uint256 auctionId\n    )\n        external\n        view\n        AuctionIDIsValid(auctionId)\n        returns (UserSetAuctionInfo memory)\n    {\n        return auctions[auctionId].info;\n    }\n\n    // functions to be called throughout the auction process\n\n    function placeBid(\n        uint256 auctionId,\n        bytes calldata c,\n        bytes calldata d\n    )\n        external\n        payable\n        AuctionIDIsValid(auctionId)\n        SenderIsNotOwner(auctionId)\n        SenderDidNotPlaceABid(auctionId)\n        CheckAuctionState(auctionId, AuctionState.BiddingPhase)\n        ValueEquals(auctions[auctionId].info.securityDeposit)\n    {\n        auctions[auctionId].bids[msg.sender] = Bid({\n            done: false,\n            c: bytes32(c),\n            d: bytes32(d),\n            z: bytes(\"\")\n        });\n        auctions[auctionId].bidders[auctions[auctionId].bidders.length] = msg\n            .sender;\n        emit NewBid(auctionId, msg.sender);\n    }\n\n    function revealBid(\n        uint256 auctionId,\n        bytes calldata z\n    )\n        external\n        AuctionIDIsValid(auctionId)\n        SenderPlacedABid(auctionId)\n        CheckAuctionState(auctionId, AuctionState.RevealingPhase)\n    {\n        // verify commitment\n        if (sha256(z) != auctions[auctionId].bids[msg.sender].d)\n            revert(\"Hash is invalid!\");\n\n        auctions[auctionId].bids[msg.sender].z = z;\n        emit NewReveal(auctionId, msg.sender);\n    }\n\n    function getReveals(\n        uint256 auctionId\n    )\n        external\n        AuctionIDIsValid(auctionId)\n        SenderIsOwner(auctionId)\n        CheckAuctionState(auctionId, AuctionState.SortingPhase)\n        returns (bytes[] memory)\n    {\n        uint256 count = 0;\n        for (uint256 i = 0; i < auctions[auctionId].bidders.length; i++) {\n            address bidder = auctions[auctionId].bidders[i];\n            if (auctions[auctionId].bids[bidder].z.length == 0) {\n                // remove them, no refunds\n                _removeBidder(auctionId, i);\n                emit BidderRemoved(auctionId, bidder);\n            } else {\n                count++;\n            }\n        }\n\n        bytes[] memory zs = new bytes[](count);\n        for (uint256 i = 0; i < auctions[auctionId].bidders.length; i++) {\n            zs[i] = auctions[auctionId].bids[auctions[auctionId].bidders[i]].z;\n        }\n\n        return zs;\n    }\n\n    function declareWinner(\n        uint256 auctionId,\n        AuctionWinner calldata winner\n    )\n        external\n        AuctionIDIsValid(auctionId)\n        SenderIsOwner(auctionId)\n        CheckAuctionState(auctionId, AuctionState.SortingPhase)\n    {\n        // verify commitment\n        if (sha256(winner.y) != auctions[auctionId].bids[winner.bidder].c)\n            revert(\"Hash is invalid!\");\n\n        auctions[auctionId].winner = winner;\n        emit WinnerDecided(auctionId);\n    }\n\n    function getWinner(\n        uint256 auctionId\n    ) external view AuctionIDIsValid(auctionId) returns (AuctionWinner memory) {\n        return auctions[auctionId].winner;\n    }\n\n    function returnDeposit(\n        uint256 auctionId\n    )\n        external\n        AuctionIDIsValid(auctionId)\n        SenderPlacedABid(auctionId)\n        CheckAuctionState(auctionId, AuctionState.Ended)\n    {\n        // no re-entrancy attacks!\n        if (\n            auctions[auctionId].bids[msg.sender].done == false &&\n            msg.sender != auctions[auctionId].winner.bidder\n        ) {\n            auctions[auctionId].bids[msg.sender].done = true;\n        }\n        payable(msg.sender).transfer(auctions[auctionId].info.securityDeposit);\n    }\n}\n",
  "sourcePath": "/home/amr/fghdh/auction-system-webapp/contracts/contracts/SealedBidAuctionManager.sol",
  "compiler": {
    "name": "solc",
    "version": "0.8.13+commit.abaa5c0e.Emscripten.clang"
  },
  "schemaVersion": "3.4.13",
  "updatedAt": "2023-07-04T20:26:04.512Z",
  "networkType": "ethereum",
  "devdoc": {
    "kind": "dev",
    "methods": {},
    "version": 1
  },
  "userdoc": {
    "kind": "user",
    "methods": {},
    "version": 1
  }
}