{
  "contractName": "SealedBidAuctionManager",
  "abi": [
    {
      "inputs": [],
      "name": "AuctionHasNotEnded",
      "type": "error"
    },
    {
      "inputs": [],
      "name": "InvalidAuctionId",
      "type": "error"
    },
    {
      "inputs": [],
      "name": "InvalidDeposit",
      "type": "error"
    },
    {
      "inputs": [],
      "name": "NotDuringBiddingPeriod",
      "type": "error"
    },
    {
      "inputs": [],
      "name": "getNumberOfRegisteredAuctions",
      "outputs": [
        {
          "internalType": "uint256",
          "name": "",
          "type": "uint256"
        }
      ],
      "stateMutability": "view",
      "type": "function",
      "constant": true
    },
    {
      "inputs": [
        {
          "components": [
            {
              "internalType": "uint256",
              "name": "auctionId",
              "type": "uint256"
            },
            {
              "internalType": "address payable",
              "name": "seller",
              "type": "address"
            },
            {
              "internalType": "uint256",
              "name": "securityDeposit",
              "type": "uint256"
            },
            {
              "internalType": "uint256",
              "name": "biddingStart",
              "type": "uint256"
            },
            {
              "internalType": "uint256",
              "name": "revealStart",
              "type": "uint256"
            },
            {
              "internalType": "uint256",
              "name": "revealEnd",
              "type": "uint256"
            },
            {
              "internalType": "string",
              "name": "itemName",
              "type": "string"
            },
            {
              "internalType": "string",
              "name": "itemDesc",
              "type": "string"
            }
          ],
          "internalType": "struct SealedBidAuctionManager.PublicAuctionInfo",
          "name": "auctionInfo",
          "type": "tuple"
        }
      ],
      "name": "createAuction",
      "outputs": [
        {
          "internalType": "uint256",
          "name": "",
          "type": "uint256"
        }
      ],
      "stateMutability": "nonpayable",
      "type": "function"
    },
    {
      "inputs": [
        {
          "internalType": "uint256",
          "name": "auctionId",
          "type": "uint256"
        }
      ],
      "name": "getAuctionData",
      "outputs": [
        {
          "components": [
            {
              "internalType": "uint256",
              "name": "auctionId",
              "type": "uint256"
            },
            {
              "internalType": "address payable",
              "name": "seller",
              "type": "address"
            },
            {
              "internalType": "uint256",
              "name": "securityDeposit",
              "type": "uint256"
            },
            {
              "internalType": "uint256",
              "name": "biddingStart",
              "type": "uint256"
            },
            {
              "internalType": "uint256",
              "name": "revealStart",
              "type": "uint256"
            },
            {
              "internalType": "uint256",
              "name": "revealEnd",
              "type": "uint256"
            },
            {
              "internalType": "string",
              "name": "itemName",
              "type": "string"
            },
            {
              "internalType": "string",
              "name": "itemDesc",
              "type": "string"
            }
          ],
          "internalType": "struct SealedBidAuctionManager.PublicAuctionInfo",
          "name": "",
          "type": "tuple"
        }
      ],
      "stateMutability": "view",
      "type": "function",
      "constant": true
    },
    {
      "inputs": [
        {
          "internalType": "uint256",
          "name": "auctionId",
          "type": "uint256"
        },
        {
          "internalType": "uint32",
          "name": "bid",
          "type": "uint32"
        }
      ],
      "name": "placeBid",
      "outputs": [],
      "stateMutability": "payable",
      "type": "function",
      "payable": true
    },
    {
      "inputs": [
        {
          "internalType": "uint256",
          "name": "auctionId",
          "type": "uint256"
        }
      ],
      "name": "withdrawDeposit",
      "outputs": [],
      "stateMutability": "nonpayable",
      "type": "function"
    },
    {
      "inputs": [
        {
          "internalType": "uint256",
          "name": "auctionId",
          "type": "uint256"
        }
      ],
      "name": "transferWinningBidToOwner",
      "outputs": [],
      "stateMutability": "nonpayable",
      "type": "function"
    }
  ],
  "bytecode": "0x608060405234801561001057600080fd5b50611637806100206000396000f3fe6080604052600436106100555760003560e01c806333289a461461005a57806344f27e301461008357806345e481a3146100c05780638e94c14b146100eb5780639f750d8514610128578063dd5292e614610144575b600080fd5b34801561006657600080fd5b50610081600480360381019061007c9190610e49565b61016d565b005b34801561008f57600080fd5b506100aa60048036038101906100a59190610e49565b610478565b6040516100b79190611016565b60405180910390f35b3480156100cc57600080fd5b506100d56106a4565b6040516100e29190611047565b60405180910390f35b3480156100f757600080fd5b50610112600480360381019061010d91906112cf565b6106b0565b60405161011f9190611047565b60405180910390f35b610142600480360381019061013d9190611354565b6107aa565b005b34801561015057600080fd5b5061016b60048036038101906101669190610e49565b610adb565b005b8060008054905081106101ac576040517f6850579900000000000000000000000000000000000000000000000000000000815260040160405180910390fd5b81600081815481106101c1576101c0611394565b5b90600052602060002090600a02016000016005015442101561020f576040517f4e27235000000000000000000000000000000000000000000000000000000000815260040160405180910390fd5b826000818154811061022457610223611394565b5b90600052602060002090600a020160000160010160009054906101000a900473ffffffffffffffffffffffffffffffffffffffff1673ffffffffffffffffffffffffffffffffffffffff163373ffffffffffffffffffffffffffffffffffffffff16036102c6576040517f08c379a00000000000000000000000000000000000000000000000000000000081526004016102bd90611420565b60405180910390fd5b8360008082815481106102dc576102db611394565b5b90600052602060002090600a020160090160003373ffffffffffffffffffffffffffffffffffffffff1673ffffffffffffffffffffffffffffffffffffffff16815260200190815260200160002060009054906101000a900463ffffffff1663ffffffff1603610381576040517f08c379a00000000000000000000000000000000000000000000000000000000081526004016103789061148c565b60405180910390fd5b600080868154811061039657610395611394565b5b90600052602060002090600a020160090160003373ffffffffffffffffffffffffffffffffffffffff1673ffffffffffffffffffffffffffffffffffffffff16815260200190815260200160002060006101000a81548163ffffffff021916908363ffffffff1602179055503373ffffffffffffffffffffffffffffffffffffffff166108fc600087815481106104305761042f611394565b5b90600052602060002090600a0201600001600201549081150290604051600060405180830381858888f19350505050158015610470573d6000803e3d6000fd5b505050505050565b610480610d01565b8160008054905081106104bf576040517f6850579900000000000000000000000000000000000000000000000000000000815260040160405180910390fd5b600083815481106104d3576104d2611394565b5b90600052602060002090600a020160000160405180610100016040529081600082015481526020016001820160009054906101000a900473ffffffffffffffffffffffffffffffffffffffff1673ffffffffffffffffffffffffffffffffffffffff1673ffffffffffffffffffffffffffffffffffffffff16815260200160028201548152602001600382015481526020016004820154815260200160058201548152602001600682018054610588906114db565b80601f01602080910402602001604051908101604052809291908181526020018280546105b4906114db565b80156106015780601f106105d657610100808354040283529160200191610601565b820191906000526020600020905b8154815290600101906020018083116105e457829003601f168201915b5050505050815260200160078201805461061a906114db565b80601f0160208091040260200160405190810160405280929190818152602001828054610646906114db565b80156106935780601f1061066857610100808354040283529160200191610693565b820191906000526020600020905b81548152906001019060200180831161067657829003601f168201915b505050505081525050915050919050565b60008080549050905090565b60008060006001816001815401808255809150500390600052602060002090600a0201905082816000016000820151816000015560208201518160010160006101000a81548173ffffffffffffffffffffffffffffffffffffffff021916908373ffffffffffffffffffffffffffffffffffffffff16021790555060408201518160020155606082015181600301556080820151816004015560a0820151816005015560c082015181600601908051906020019061076f929190610d5c565b5060e082015181600701908051906020019061078c929190610d5c565b5090505060016000805490506107a2919061153b565b915050919050565b8160008054905081106107e9576040517f6850579900000000000000000000000000000000000000000000000000000000815260040160405180910390fd5b82600081815481106107fe576107fd611394565b5b90600052602060002090600a020160000160010160009054906101000a900473ffffffffffffffffffffffffffffffffffffffff1673ffffffffffffffffffffffffffffffffffffffff163373ffffffffffffffffffffffffffffffffffffffff16036108a0576040517f08c379a000000000000000000000000000000000000000000000000000000000815260040161089790611420565b60405180910390fd5b8360008082815481106108b6576108b5611394565b5b90600052602060002090600a020160090160003373ffffffffffffffffffffffffffffffffffffffff1673ffffffffffffffffffffffffffffffffffffffff16815260200190815260200160002060009054906101000a900463ffffffff1663ffffffff161461095b576040517f08c379a00000000000000000000000000000000000000000000000000000000081526004016109529061148c565b60405180910390fd5b84600081815481106109705761096f611394565b5b90600052602060002090600a02016000016003015442101580156109bb5750600081815481106109a3576109a2611394565b5b90600052602060002090600a02016000016004015442105b6109f1576040517feefeb1e400000000000000000000000000000000000000000000000000000000815260040160405180910390fd5b60008681548110610a0557610a04611394565b5b90600052602060002090600a0201600001600201543414610a52576040517fb2e532de00000000000000000000000000000000000000000000000000000000815260040160405180910390fd5b8460008781548110610a6757610a66611394565b5b90600052602060002090600a020160090160003373ffffffffffffffffffffffffffffffffffffffff1673ffffffffffffffffffffffffffffffffffffffff16815260200190815260200160002060006101000a81548163ffffffff021916908363ffffffff160217905550505050505050565b806000805490508110610b1a576040517f6850579900000000000000000000000000000000000000000000000000000000815260040160405180910390fd5b8160008181548110610b2f57610b2e611394565b5b90600052602060002090600a020160000160050154421015610b7d576040517f4e27235000000000000000000000000000000000000000000000000000000000815260040160405180910390fd5b8260008181548110610b9257610b91611394565b5b90600052602060002090600a020160000160010160009054906101000a900473ffffffffffffffffffffffffffffffffffffffff1673ffffffffffffffffffffffffffffffffffffffff163373ffffffffffffffffffffffffffffffffffffffff1614610c34576040517f08c379a0000000000000000000000000000000000000000000000000000000008152600401610c2b906115e1565b60405180910390fd5b60008481548110610c4857610c47611394565b5b90600052602060002090600a020160080160049054906101000a900473ffffffffffffffffffffffffffffffffffffffff1673ffffffffffffffffffffffffffffffffffffffff166108fc60008681548110610ca757610ca6611394565b5b90600052602060002090600a020160080160009054906101000a900463ffffffff1663ffffffff169081150290604051600060405180830381858888f19350505050158015610cfa573d6000803e3d6000fd5b5050505050565b60405180610100016040528060008152602001600073ffffffffffffffffffffffffffffffffffffffff1681526020016000815260200160008152602001600081526020016000815260200160608152602001606081525090565b828054610d68906114db565b90600052602060002090601f016020900481019282610d8a5760008555610dd1565b82601f10610da357805160ff1916838001178555610dd1565b82800160010185558215610dd1579182015b82811115610dd0578251825591602001919060010190610db5565b5b509050610dde9190610de2565b5090565b5b80821115610dfb576000816000905550600101610de3565b5090565b6000604051905090565b600080fd5b600080fd5b6000819050919050565b610e2681610e13565b8114610e3157600080fd5b50565b600081359050610e4381610e1d565b92915050565b600060208284031215610e5f57610e5e610e09565b5b6000610e6d84828501610e34565b91505092915050565b610e7f81610e13565b82525050565b600073ffffffffffffffffffffffffffffffffffffffff82169050919050565b6000610eb082610e85565b9050919050565b610ec081610ea5565b82525050565b600081519050919050565b600082825260208201905092915050565b60005b83811015610f00578082015181840152602081019050610ee5565b83811115610f0f576000848401525b50505050565b6000601f19601f8301169050919050565b6000610f3182610ec6565b610f3b8185610ed1565b9350610f4b818560208601610ee2565b610f5481610f15565b840191505092915050565b600061010083016000830151610f786000860182610e76565b506020830151610f8b6020860182610eb7565b506040830151610f9e6040860182610e76565b506060830151610fb16060860182610e76565b506080830151610fc46080860182610e76565b5060a0830151610fd760a0860182610e76565b5060c083015184820360c0860152610fef8282610f26565b91505060e083015184820360e08601526110098282610f26565b9150508091505092915050565b600060208201905081810360008301526110308184610f5f565b905092915050565b61104181610e13565b82525050565b600060208201905061105c6000830184611038565b92915050565b600080fd5b7f4e487b7100000000000000000000000000000000000000000000000000000000600052604160045260246000fd5b61109f82610f15565b810181811067ffffffffffffffff821117156110be576110bd611067565b5b80604052505050565b60006110d1610dff565b90506110dd8282611096565b919050565b600080fd5b6110f081610ea5565b81146110fb57600080fd5b50565b60008135905061110d816110e7565b92915050565b600080fd5b600080fd5b600067ffffffffffffffff82111561113857611137611067565b5b61114182610f15565b9050602081019050919050565b82818337600083830152505050565b600061117061116b8461111d565b6110c7565b90508281526020810184848401111561118c5761118b611118565b5b61119784828561114e565b509392505050565b600082601f8301126111b4576111b3611113565b5b81356111c484826020860161115d565b91505092915050565b600061010082840312156111e4576111e3611062565b5b6111ef6101006110c7565b905060006111ff84828501610e34565b6000830152506020611213848285016110fe565b602083015250604061122784828501610e34565b604083015250606061123b84828501610e34565b606083015250608061124f84828501610e34565b60808301525060a061126384828501610e34565b60a08301525060c082013567ffffffffffffffff811115611287576112866110e2565b5b6112938482850161119f565b60c08301525060e082013567ffffffffffffffff8111156112b7576112b66110e2565b5b6112c38482850161119f565b60e08301525092915050565b6000602082840312156112e5576112e4610e09565b5b600082013567ffffffffffffffff81111561130357611302610e0e565b5b61130f848285016111cd565b91505092915050565b600063ffffffff82169050919050565b61133181611318565b811461133c57600080fd5b50565b60008135905061134e81611328565b92915050565b6000806040838503121561136b5761136a610e09565b5b600061137985828601610e34565b925050602061138a8582860161133f565b9150509250929050565b7f4e487b7100000000000000000000000000000000000000000000000000000000600052603260045260246000fd5b600082825260208201905092915050565b7f73656c6c65722063616e6e6f7420626964210000000000000000000000000000600082015250565b600061140a6012836113c3565b9150611415826113d4565b602082019050919050565b60006020820190508181036000830152611439816113fd565b9050919050565b7f62696464657220616c7265616479206578697374732100000000000000000000600082015250565b60006114766016836113c3565b915061148182611440565b602082019050919050565b600060208201905081810360008301526114a581611469565b9050919050565b7f4e487b7100000000000000000000000000000000000000000000000000000000600052602260045260246000fd5b600060028204905060018216806114f357607f821691505b602082108103611506576115056114ac565b5b50919050565b7f4e487b7100000000000000000000000000000000000000000000000000000000600052601160045260246000fd5b600061154682610e13565b915061155183610e13565b9250828210156115645761156361150c565b5b828203905092915050565b7f796f75206d757374206265207468652073656c6c657220746f20646f2074686960008201527f7321000000000000000000000000000000000000000000000000000000000000602082015250565b60006115cb6022836113c3565b91506115d68261156f565b604082019050919050565b600060208201905081810360008301526115fa816115be565b905091905056fea2646970667358221220d713378b529bdc7be75632abed453979ac0b0a5e8b023751ae11ed399711b49364736f6c634300080d0033",
  "immutableReferences": {},
  "source": "// SPDX-License-Identifier: MIT\r\npragma solidity ^0.8.13;\r\n\r\n// NOTE: All currenct is wei\r\n\r\ncontract SealedBidAuctionManager {\r\n    /**\r\n     * types\r\n     */\r\n\r\n    struct PublicAuctionInfo {\r\n        uint256 auctionId;\r\n        address payable seller;\r\n        uint256 securityDeposit;\r\n        // dates\r\n        uint256 biddingStart; // or auctionStart\r\n        uint256 revealStart; // or biddingEnd\r\n        uint256 revealEnd;\r\n        // item\r\n        string itemName;\r\n        string itemDesc;\r\n    }\r\n\r\n    struct Auction {\r\n        PublicAuctionInfo info;\r\n        // protocol\r\n        uint32 highestBid; // redundant, but convenient\r\n        address payable highestBidder; // keys into bids\r\n        // participants\r\n        mapping(address => uint32) bids;\r\n        // bids are hashed using the bidder's public key.\r\n        // this is hiding, and binding: committed.\r\n    }\r\n\r\n    /**\r\n     * state variables\r\n     */\r\n\r\n    Auction[] private auctions;\r\n\r\n    /**\r\n     * time-aware modifiers\r\n     */\r\n\r\n    /**\r\n     * error types\r\n     */\r\n\r\n    /// Bidding has ended!\r\n    error NotDuringBiddingPeriod();\r\n\r\n    /// Auction ID is invalid!\r\n    error InvalidAuctionId();\r\n\r\n    /// Desposit is not equal to required security deposit!\r\n    error InvalidDeposit();\r\n\r\n    /// Auction is still active!\r\n    error AuctionHasNotEnded();\r\n\r\n    /**\r\n     * modifiers\r\n     */\r\n\r\n    modifier duringBiddingPeriod(uint256 auctionId) {\r\n        if (\r\n            !(block.timestamp >= auctions[auctionId].info.biddingStart &&\r\n                block.timestamp < auctions[auctionId].info.revealStart)\r\n        ) revert NotDuringBiddingPeriod();\r\n        _;\r\n    }\r\n\r\n    modifier afterAuctionEnded(uint256 auctionId) {\r\n        if (!(block.timestamp >= auctions[auctionId].info.revealEnd))\r\n            revert AuctionHasNotEnded();\r\n        _;\r\n    }\r\n\r\n    modifier newBidder(uint256 auctionId) {\r\n        require(\r\n            auctions[auctionId].bids[msg.sender] == 0,\r\n            \"bidder already exists!\"\r\n        );\r\n        _;\r\n    }\r\n\r\n    modifier existingBidder(uint256 auctionId) {\r\n        require(\r\n            auctions[auctionId].bids[msg.sender] != 0,\r\n            \"bidder already exists!\"\r\n        );\r\n        _;\r\n    }\r\n\r\n    modifier onlyBidder(uint256 auctionId) {\r\n        require(\r\n            msg.sender != auctions[auctionId].info.seller,\r\n            \"seller cannot bid!\"\r\n        );\r\n        _;\r\n    }\r\n\r\n    modifier onlyOwner(uint256 auctionId) {\r\n        require(\r\n            msg.sender == auctions[auctionId].info.seller,\r\n            \"you must be the seller to do this!\"\r\n        );\r\n        _;\r\n    }\r\n\r\n    modifier validAuctionId(uint256 auctionId) {\r\n        if (auctionId >= auctions.length) revert InvalidAuctionId();\r\n        _;\r\n    }\r\n\r\n    /**\r\n     * external functions\r\n     */\r\n\r\n    // functions to be called at any time\r\n\r\n    function getNumberOfRegisteredAuctions() external view returns (uint256) {\r\n        return auctions.length;\r\n    }\r\n\r\n    function createAuction(\r\n        PublicAuctionInfo memory auctionInfo\r\n    ) external returns (uint256) {\r\n        // create an auctionId, then add to table\r\n        Auction storage auction = auctions.push();\r\n        auction.info = auctionInfo;\r\n\r\n        return auctions.length - 1;\r\n    }\r\n\r\n    function getAuctionData(\r\n        uint256 auctionId\r\n    )\r\n        external\r\n        view\r\n        validAuctionId(auctionId)\r\n        returns (PublicAuctionInfo memory)\r\n    {\r\n        return auctions[auctionId].info;\r\n    }\r\n\r\n    // functions to be called during bidding period\r\n\r\n    function placeBid(\r\n        uint256 auctionId,\r\n        uint32 bid\r\n    )\r\n        external\r\n        payable\r\n        validAuctionId(auctionId)\r\n        onlyBidder(auctionId)\r\n        newBidder(auctionId)\r\n        duringBiddingPeriod(auctionId)\r\n    {\r\n        // transfer security deposit to contract\r\n        if (msg.value != auctions[auctionId].info.securityDeposit)\r\n            revert InvalidDeposit();\r\n        // hash bid by address (FIXME: ??)\r\n        // bytes32 b = hash(bid);\r\n        auctions[auctionId].bids[msg.sender] = bid;\r\n    }\r\n\r\n    // functions to be called after auction ends\r\n\r\n    function withdrawDeposit(\r\n        uint256 auctionId\r\n    )\r\n        external\r\n        validAuctionId(auctionId)\r\n        afterAuctionEnded(auctionId)\r\n        onlyBidder(auctionId)\r\n        existingBidder(auctionId)\r\n    {\r\n        auctions[auctionId].bids[msg.sender] = 0;\r\n        payable(msg.sender).transfer(auctions[auctionId].info.securityDeposit);\r\n    }\r\n\r\n    function transferWinningBidToOwner(\r\n        uint256 auctionId\r\n    )\r\n        external\r\n        validAuctionId(auctionId)\r\n        afterAuctionEnded(auctionId)\r\n        onlyOwner(auctionId)\r\n    {\r\n        // FIXME: \"unhash\" the bid\r\n        auctions[auctionId].highestBidder.transfer(\r\n            auctions[auctionId].highestBid\r\n        );\r\n    }\r\n}\r\n",
  "sourcePath": "F:\\college\\grad1\\learn solidity\\auction-system-webapp\\contracts\\contracts\\SealedBidAuctionManager.sol",
  "compiler": {
    "name": "solc",
    "version": "0.8.13+commit.abaa5c0e.Emscripten.clang"
  },
  "schemaVersion": "3.4.4",
  "updatedAt": "2023-05-07T13:48:03.713Z",
  "networkType": "ethereum",
  "devdoc": {
    "kind": "dev",
    "methods": {},
    "version": 1
  },
  "userdoc": {
    "errors": {
      "AuctionHasNotEnded()": [
        {
          "notice": "Auction is still active!"
        }
      ],
      "InvalidAuctionId()": [
        {
          "notice": "Auction ID is invalid!"
        }
      ],
      "InvalidDeposit()": [
        {
          "notice": "Desposit is not equal to required security deposit!"
        }
      ],
      "NotDuringBiddingPeriod()": [
        {
          "notice": "Bidding has ended!"
        }
      ]
    },
    "kind": "user",
    "methods": {
      "getNumberOfRegisteredAuctions()": {
        "notice": "external functions"
      }
    },
    "version": 1
  }
}