{
  "contractName": "SealedBidAuctionManager",
  "abi": [
    {
      "anonymous": false,
      "inputs": [
        {
          "indexed": false,
          "internalType": "bool",
          "name": "success",
          "type": "bool"
        }
      ],
      "name": "AuctionEnds",
      "type": "event"
    },
    {
      "anonymous": false,
      "inputs": [
        {
          "indexed": false,
          "internalType": "address",
          "name": "winner",
          "type": "address"
        }
      ],
      "name": "AuctionWasWon",
      "type": "event"
    },
    {
      "anonymous": false,
      "inputs": [
        {
          "indexed": false,
          "internalType": "uint256",
          "name": "auctionId",
          "type": "uint256"
        }
      ],
      "name": "NewAuction",
      "type": "event"
    },
    {
      "anonymous": false,
      "inputs": [
        {
          "indexed": false,
          "internalType": "address",
          "name": "by",
          "type": "address"
        }
      ],
      "name": "NewBid",
      "type": "event"
    },
    {
      "inputs": [],
      "name": "getNumberOfRegisteredAuctions",
      "outputs": [
        {
          "internalType": "uint256",
          "name": "",
          "type": "uint256"
        }
      ],
      "stateMutability": "view",
      "type": "function",
      "constant": true
    },
    {
      "inputs": [
        {
          "components": [
            {
              "internalType": "address payable",
              "name": "seller",
              "type": "address"
            },
            {
              "internalType": "uint256",
              "name": "securityDeposit",
              "type": "uint256"
            },
            {
              "internalType": "uint256",
              "name": "minimumPrice",
              "type": "uint256"
            },
            {
              "internalType": "uint256",
              "name": "biddingEndDate",
              "type": "uint256"
            },
            {
              "internalType": "uint256",
              "name": "confirmationEndDate",
              "type": "uint256"
            },
            {
              "internalType": "string",
              "name": "itemName",
              "type": "string"
            },
            {
              "internalType": "string",
              "name": "itemDesc",
              "type": "string"
            },
            {
              "internalType": "string",
              "name": "itemPicture",
              "type": "string"
            }
          ],
          "internalType": "struct SealedBidAuctionManager.UserSetAuctionInfo",
          "name": "auctionInfo",
          "type": "tuple"
        }
      ],
      "name": "createAuction",
      "outputs": [
        {
          "internalType": "uint256",
          "name": "auctionId",
          "type": "uint256"
        }
      ],
      "stateMutability": "nonpayable",
      "type": "function"
    },
    {
      "inputs": [
        {
          "internalType": "uint256",
          "name": "auctionId",
          "type": "uint256"
        }
      ],
      "name": "getAuctionData",
      "outputs": [
        {
          "components": [
            {
              "internalType": "uint256",
              "name": "auctionId",
              "type": "uint256"
            },
            {
              "components": [
                {
                  "internalType": "address payable",
                  "name": "seller",
                  "type": "address"
                },
                {
                  "internalType": "uint256",
                  "name": "securityDeposit",
                  "type": "uint256"
                },
                {
                  "internalType": "uint256",
                  "name": "minimumPrice",
                  "type": "uint256"
                },
                {
                  "internalType": "uint256",
                  "name": "biddingEndDate",
                  "type": "uint256"
                },
                {
                  "internalType": "uint256",
                  "name": "confirmationEndDate",
                  "type": "uint256"
                },
                {
                  "internalType": "string",
                  "name": "itemName",
                  "type": "string"
                },
                {
                  "internalType": "string",
                  "name": "itemDesc",
                  "type": "string"
                },
                {
                  "internalType": "string",
                  "name": "itemPicture",
                  "type": "string"
                }
              ],
              "internalType": "struct SealedBidAuctionManager.UserSetAuctionInfo",
              "name": "userSet",
              "type": "tuple"
            },
            {
              "internalType": "enum SealedBidAuctionManager.AuctionState",
              "name": "state",
              "type": "uint8"
            }
          ],
          "internalType": "struct SealedBidAuctionManager.PublicAuctionInfo",
          "name": "",
          "type": "tuple"
        }
      ],
      "stateMutability": "view",
      "type": "function",
      "constant": true
    },
    {
      "inputs": [
        {
          "internalType": "uint256",
          "name": "auctionId",
          "type": "uint256"
        },
        {
          "internalType": "uint32",
          "name": "bid",
          "type": "uint32"
        }
      ],
      "name": "placeBid",
      "outputs": [],
      "stateMutability": "payable",
      "type": "function",
      "payable": true
    },
    {
      "inputs": [
        {
          "internalType": "uint256",
          "name": "auctionId",
          "type": "uint256"
        }
      ],
      "name": "returnDeposit",
      "outputs": [],
      "stateMutability": "nonpayable",
      "type": "function"
    },
    {
      "inputs": [
        {
          "internalType": "uint256",
          "name": "auctionId",
          "type": "uint256"
        }
      ],
      "name": "transferWinningBidToOwner",
      "outputs": [],
      "stateMutability": "nonpayable",
      "type": "function"
    }
  ],
  "bytecode": "0x608060405234801561001057600080fd5b50612439806100206000396000f3fe6080604052600436106100555760003560e01c806318b683fb1461005a5780631d6287651461008357806344f27e30146100c057806345e481a3146100fd5780639f750d8514610128578063dd5292e614610144575b600080fd5b34801561006657600080fd5b50610081600480360381019061007c9190611946565b61016d565b005b34801561008f57600080fd5b506100aa60048036038101906100a59190611c3f565b6106b6565b6040516100b79190611c97565b60405180910390f35b3480156100cc57600080fd5b506100e760048036038101906100e29190611946565b61085f565b6040516100f49190611edd565b60405180910390f35b34801561010957600080fd5b50610112610b75565b60405161011f9190611c97565b60405180910390f35b610142600480360381019061013d9190611f3b565b610b81565b005b34801561015057600080fd5b5061016b60048036038101906101669190611946565b6111e6565b005b8060008054905081106101b5576040517f08c379a00000000000000000000000000000000000000000000000000000000081526004016101ac90611fd8565b60405180910390fd5b8160008082815481106101cb576101ca611ff8565b5b90600052602060002090600c0201600b0160003373ffffffffffffffffffffffffffffffffffffffff1673ffffffffffffffffffffffffffffffffffffffff16815260200190815260200160002060009054906101000a900463ffffffff1663ffffffff1603610270576040517f08c379a000000000000000000000000000000000000000000000000000000000815260040161026790612073565b60405180910390fd5b826000818154811061028557610284611ff8565b5b90600052602060002090600c0201600001600101600301544210156102f95760008082815481106102b9576102b8611ff8565b5b90600052602060002090600c020160000160090160006101000a81548160ff021916908360038111156102ef576102ee611e16565b5b02179055506104f1565b610302816117ba565b61035c5760016000828154811061031c5761031b611ff8565b5b90600052602060002090600c020160000160090160006101000a81548160ff0219169083600381111561035257610351611e16565b5b02179055506104f0565b600081815481106103705761036f611ff8565b5b90600052602060002090600c0201600001600101600401544210156103e5576003600082815481106103a5576103a4611ff8565b5b90600052602060002090600c020160000160090160006101000a81548160ff021916908360038111156103db576103da611e16565b5b02179055506104ef565b600260038111156103f9576103f8611e16565b5b6000828154811061040d5761040c611ff8565b5b90600052602060002090600c020160000160090160009054906101000a900460ff16600381111561044157610440611e16565b5b1461049c5760016000828154811061045c5761045b611ff8565b5b90600052602060002090600c020160000160090160006101000a81548160ff0219169083600381111561049257610491611e16565b5b02179055506104ee565b6002600082815481106104b2576104b1611ff8565b5b90600052602060002090600c020160000160090160006101000a81548160ff021916908360038111156104e8576104e7611e16565b5b02179055505b5b5b5b83600080828154811061050757610506611ff8565b5b90600052602060002090600c020160000160090160009054906101000a900460ff16600381111561053b5761053a611e16565b5b81600381111561054e5761054d611e16565b5b036105bb576000600381111561056757610566611e16565b5b81600381111561057a57610579611e16565b5b036105ba576040517f08c379a00000000000000000000000000000000000000000000000000000000081526004016105b1906120df565b60405180910390fd5b5b60008087815481106105d0576105cf611ff8565b5b90600052602060002090600c0201600b0160003373ffffffffffffffffffffffffffffffffffffffff1673ffffffffffffffffffffffffffffffffffffffff16815260200190815260200160002060006101000a81548163ffffffff021916908363ffffffff1602179055503373ffffffffffffffffffffffffffffffffffffffff166108fc6000888154811061066a57610669611ff8565b5b90600052602060002090600c0201600001600101600101549081150290604051600060405180830381858888f193505050501580156106ad573d6000803e3d6000fd5b50505050505050565b6000808054905090506000806001816001815401808255809150500390600052602060002090600c0201905060405180606001604052808381526020018481526020016000600381111561070d5761070c611e16565b5b815250816000016000820151816000015560208201518160010160008201518160000160006101000a81548173ffffffffffffffffffffffffffffffffffffffff021916908373ffffffffffffffffffffffffffffffffffffffff1602179055506020820151816001015560408201518160020155606082015181600301556080820151816004015560a08201518160050190805190602001906107b29291906117c5565b5060c08201518160060190805190602001906107cf9291906117c5565b5060e08201518160070190805190602001906107ec9291906117c5565b50505060408201518160090160006101000a81548160ff0219169083600381111561081a57610819611e16565b5b02179055509050507fbdba0fc2c85fe021acfa560c047f0a846648b1b504aa94ab6557cabb04b94258826040516108519190611c97565b60405180910390a150919050565b61086761184b565b8160008054905081106108af576040517f08c379a00000000000000000000000000000000000000000000000000000000081526004016108a690611fd8565b60405180910390fd5b600083815481106108c3576108c2611ff8565b5b90600052602060002090600c02016000016040518060600160405290816000820154815260200160018201604051806101000160405290816000820160009054906101000a900473ffffffffffffffffffffffffffffffffffffffff1673ffffffffffffffffffffffffffffffffffffffff1673ffffffffffffffffffffffffffffffffffffffff168152602001600182015481526020016002820154815260200160038201548152602001600482015481526020016005820180546109889061212e565b80601f01602080910402602001604051908101604052809291908181526020018280546109b49061212e565b8015610a015780601f106109d657610100808354040283529160200191610a01565b820191906000526020600020905b8154815290600101906020018083116109e457829003601f168201915b50505050508152602001600682018054610a1a9061212e565b80601f0160208091040260200160405190810160405280929190818152602001828054610a469061212e565b8015610a935780601f10610a6857610100808354040283529160200191610a93565b820191906000526020600020905b815481529060010190602001808311610a7657829003601f168201915b50505050508152602001600782018054610aac9061212e565b80601f0160208091040260200160405190810160405280929190818152602001828054610ad89061212e565b8015610b255780601f10610afa57610100808354040283529160200191610b25565b820191906000526020600020905b815481529060010190602001808311610b0857829003601f168201915b50505050508152505081526020016009820160009054906101000a900460ff166003811115610b5757610b56611e16565b5b6003811115610b6957610b68611e16565b5b81525050915050919050565b60008080549050905090565b816000805490508110610bc9576040517f08c379a0000000000000000000000000000000000000000000000000000000008152600401610bc090611fd8565b60405180910390fd5b823373ffffffffffffffffffffffffffffffffffffffff1660008281548110610bf557610bf4611ff8565b5b90600052602060002090600c020160000160010160000160009054906101000a900473ffffffffffffffffffffffffffffffffffffffff1673ffffffffffffffffffffffffffffffffffffffff161480610cc757506000808281548110610c5f57610c5e611ff8565b5b90600052602060002090600c0201600b0160003373ffffffffffffffffffffffffffffffffffffffff1673ffffffffffffffffffffffffffffffffffffffff16815260200190815260200160002060009054906101000a900463ffffffff1663ffffffff1614155b15610d07576040517f08c379a0000000000000000000000000000000000000000000000000000000008152600401610cfe906121d1565b60405180910390fd5b8360008181548110610d1c57610d1b611ff8565b5b90600052602060002090600c020160000160010160030154421015610d90576000808281548110610d5057610d4f611ff8565b5b90600052602060002090600c020160000160090160006101000a81548160ff02191690836003811115610d8657610d85611e16565b5b0217905550610f88565b610d99816117ba565b610df357600160008281548110610db357610db2611ff8565b5b90600052602060002090600c020160000160090160006101000a81548160ff02191690836003811115610de957610de8611e16565b5b0217905550610f87565b60008181548110610e0757610e06611ff8565b5b90600052602060002090600c020160000160010160040154421015610e7c57600360008281548110610e3c57610e3b611ff8565b5b90600052602060002090600c020160000160090160006101000a81548160ff02191690836003811115610e7257610e71611e16565b5b0217905550610f86565b60026003811115610e9057610e8f611e16565b5b60008281548110610ea457610ea3611ff8565b5b90600052602060002090600c020160000160090160009054906101000a900460ff166003811115610ed857610ed7611e16565b5b14610f3357600160008281548110610ef357610ef2611ff8565b5b90600052602060002090600c020160000160090160006101000a81548160ff02191690836003811115610f2957610f28611e16565b5b0217905550610f85565b600260008281548110610f4957610f48611ff8565b5b90600052602060002090600c020160000160090160006101000a81548160ff02191690836003811115610f7f57610f7e611e16565b5b02179055505b5b5b5b846000808281548110610f9e57610f9d611ff8565b5b90600052602060002090600c020160000160090160009054906101000a900460ff166003811115610fd257610fd1611e16565b5b816003811115610fe557610fe4611e16565b5b146110b85760006003811115610ffe57610ffd611e16565b5b81600381111561101157611010611e16565b5b03611051576040517f08c379a00000000000000000000000000000000000000000000000000000000081526004016110489061223d565b60405180910390fd5b60038081111561106457611063611e16565b5b81600381111561107757611076611e16565b5b036110b7576040517f08c379a00000000000000000000000000000000000000000000000000000000081526004016110ae906122a9565b60405180910390fd5b5b600087815481106110cc576110cb611ff8565b5b90600052602060002090600c0201600001600101600101543414611125576040517f08c379a000000000000000000000000000000000000000000000000000000000815260040161111c9061233b565b60405180910390fd5b856000888154811061113a57611139611ff8565b5b90600052602060002090600c0201600b0160003373ffffffffffffffffffffffffffffffffffffffff1673ffffffffffffffffffffffffffffffffffffffff16815260200190815260200160002060006101000a81548163ffffffff021916908363ffffffff1602179055507f1c10a18fffb6543afbf4d75ce6f3cfa56c73dd74e56fdc8c9474f30fc2712386336040516111d5919061237c565b60405180910390a150505050505050565b80600080549050811061122e576040517f08c379a000000000000000000000000000000000000000000000000000000000815260040161122590611fd8565b60405180910390fd5b816000818154811061124357611242611ff8565b5b90600052602060002090600c020160000160010160000160009054906101000a900473ffffffffffffffffffffffffffffffffffffffff1673ffffffffffffffffffffffffffffffffffffffff163373ffffffffffffffffffffffffffffffffffffffff16146112e8576040517f08c379a00000000000000000000000000000000000000000000000000000000081526004016112df906123e3565b60405180910390fd5b82600081815481106112fd576112fc611ff8565b5b90600052602060002090600c02016000016001016003015442101561137157600080828154811061133157611330611ff8565b5b90600052602060002090600c020160000160090160006101000a81548160ff0219169083600381111561136757611366611e16565b5b0217905550611569565b61137a816117ba565b6113d45760016000828154811061139457611393611ff8565b5b90600052602060002090600c020160000160090160006101000a81548160ff021916908360038111156113ca576113c9611e16565b5b0217905550611568565b600081815481106113e8576113e7611ff8565b5b90600052602060002090600c02016000016001016004015442101561145d5760036000828154811061141d5761141c611ff8565b5b90600052602060002090600c020160000160090160006101000a81548160ff0219169083600381111561145357611452611e16565b5b0217905550611567565b6002600381111561147157611470611e16565b5b6000828154811061148557611484611ff8565b5b90600052602060002090600c020160000160090160009054906101000a900460ff1660038111156114b9576114b8611e16565b5b14611514576001600082815481106114d4576114d3611ff8565b5b90600052602060002090600c020160000160090160006101000a81548160ff0219169083600381111561150a57611509611e16565b5b0217905550611566565b60026000828154811061152a57611529611ff8565b5b90600052602060002090600c020160000160090160006101000a81548160ff021916908360038111156115605761155f611e16565b5b02179055505b5b5b5b836003600082815481106115805761157f611ff8565b5b90600052602060002090600c020160000160090160009054906101000a900460ff1660038111156115b4576115b3611e16565b5b8160038111156115c7576115c6611e16565b5b1461169a57600060038111156115e0576115df611e16565b5b8160038111156115f3576115f2611e16565b5b03611633576040517f08c379a000000000000000000000000000000000000000000000000000000000815260040161162a9061223d565b60405180910390fd5b60038081111561164657611645611e16565b5b81600381111561165957611658611e16565b5b03611699576040517f08c379a0000000000000000000000000000000000000000000000000000000008152600401611690906122a9565b60405180910390fd5b5b6002600087815481106116b0576116af611ff8565b5b90600052602060002090600c020160000160090160006101000a81548160ff021916908360038111156116e6576116e5611e16565b5b0217905550600086815481106116ff576116fe611ff8565b5b90600052602060002090600c0201600a0160049054906101000a900473ffffffffffffffffffffffffffffffffffffffff1673ffffffffffffffffffffffffffffffffffffffff166108fc6000888154811061175e5761175d611ff8565b5b90600052602060002090600c0201600a0160009054906101000a900463ffffffff1663ffffffff169081150290604051600060405180830381858888f193505050501580156117b1573d6000803e3d6000fd5b50505050505050565b600060019050919050565b8280546117d19061212e565b90600052602060002090601f0160209004810192826117f3576000855561183a565b82601f1061180c57805160ff191683800117855561183a565b8280016001018555821561183a579182015b8281111561183957825182559160200191906001019061181e565b5b5090506118479190611884565b5090565b6040518060600160405280600081526020016118656118a1565b81526020016000600381111561187e5761187d611e16565b5b81525090565b5b8082111561189d576000816000905550600101611885565b5090565b604051806101000160405280600073ffffffffffffffffffffffffffffffffffffffff168152602001600081526020016000815260200160008152602001600081526020016060815260200160608152602001606081525090565b6000604051905090565b600080fd5b600080fd5b6000819050919050565b61192381611910565b811461192e57600080fd5b50565b6000813590506119408161191a565b92915050565b60006020828403121561195c5761195b611906565b5b600061196a84828501611931565b91505092915050565b600080fd5b6000601f19601f8301169050919050565b7f4e487b7100000000000000000000000000000000000000000000000000000000600052604160045260246000fd5b6119c182611978565b810181811067ffffffffffffffff821117156119e0576119df611989565b5b80604052505050565b60006119f36118fc565b90506119ff82826119b8565b919050565b600080fd5b600073ffffffffffffffffffffffffffffffffffffffff82169050919050565b6000611a3482611a09565b9050919050565b611a4481611a29565b8114611a4f57600080fd5b50565b600081359050611a6181611a3b565b92915050565b600080fd5b600080fd5b600067ffffffffffffffff821115611a8c57611a8b611989565b5b611a9582611978565b9050602081019050919050565b82818337600083830152505050565b6000611ac4611abf84611a71565b6119e9565b905082815260208101848484011115611ae057611adf611a6c565b5b611aeb848285611aa2565b509392505050565b600082601f830112611b0857611b07611a67565b5b8135611b18848260208601611ab1565b91505092915050565b60006101008284031215611b3857611b37611973565b5b611b436101006119e9565b90506000611b5384828501611a52565b6000830152506020611b6784828501611931565b6020830152506040611b7b84828501611931565b6040830152506060611b8f84828501611931565b6060830152506080611ba384828501611931565b60808301525060a082013567ffffffffffffffff811115611bc757611bc6611a04565b5b611bd384828501611af3565b60a08301525060c082013567ffffffffffffffff811115611bf757611bf6611a04565b5b611c0384828501611af3565b60c08301525060e082013567ffffffffffffffff811115611c2757611c26611a04565b5b611c3384828501611af3565b60e08301525092915050565b600060208284031215611c5557611c54611906565b5b600082013567ffffffffffffffff811115611c7357611c7261190b565b5b611c7f84828501611b21565b91505092915050565b611c9181611910565b82525050565b6000602082019050611cac6000830184611c88565b92915050565b611cbb81611910565b82525050565b611cca81611a29565b82525050565b600081519050919050565b600082825260208201905092915050565b60005b83811015611d0a578082015181840152602081019050611cef565b83811115611d19576000848401525b50505050565b6000611d2a82611cd0565b611d348185611cdb565b9350611d44818560208601611cec565b611d4d81611978565b840191505092915050565b600061010083016000830151611d716000860182611cc1565b506020830151611d846020860182611cb2565b506040830151611d976040860182611cb2565b506060830151611daa6060860182611cb2565b506080830151611dbd6080860182611cb2565b5060a083015184820360a0860152611dd58282611d1f565b91505060c083015184820360c0860152611def8282611d1f565b91505060e083015184820360e0860152611e098282611d1f565b9150508091505092915050565b7f4e487b7100000000000000000000000000000000000000000000000000000000600052602160045260246000fd5b60048110611e5657611e55611e16565b5b50565b6000819050611e6782611e45565b919050565b6000611e7782611e59565b9050919050565b611e8781611e6c565b82525050565b6000606083016000830151611ea56000860182611cb2565b5060208301518482036020860152611ebd8282611d58565b9150506040830151611ed26040860182611e7e565b508091505092915050565b60006020820190508181036000830152611ef78184611e8d565b905092915050565b600063ffffffff82169050919050565b611f1881611eff565b8114611f2357600080fd5b50565b600081359050611f3581611f0f565b92915050565b60008060408385031215611f5257611f51611906565b5b6000611f6085828601611931565b9250506020611f7185828601611f26565b9150509250929050565b600082825260208201905092915050565b7f496e76616c69642061756374696f6e2049442100000000000000000000000000600082015250565b6000611fc2601383611f7b565b9150611fcd82611f8c565b602082019050919050565b60006020820190508181036000830152611ff181611fb5565b9050919050565b7f4e487b7100000000000000000000000000000000000000000000000000000000600052603260045260246000fd5b7f53656e64657220686173206e6f7420706c616365642061206269642100000000600082015250565b600061205d601c83611f7b565b915061206882612027565b602082019050919050565b6000602082019050818103600083015261208c81612050565b9050919050565b7f41756374696f6e206973207374696c6c20616374697665210000000000000000600082015250565b60006120c9601883611f7b565b91506120d482612093565b602082019050919050565b600060208201905081810360008301526120f8816120bc565b9050919050565b7f4e487b7100000000000000000000000000000000000000000000000000000000600052602260045260246000fd5b6000600282049050600182168061214657607f821691505b602082108103612159576121586120ff565b5b50919050565b7f53656e64657220697320656974686572207468652073656c6c6572206f72206860008201527f617320616c726561647920706c61636564206120626964210000000000000000602082015250565b60006121bb603883611f7b565b91506121c68261215f565b604082019050919050565b600060208201905081810360008301526121ea816121ae565b9050919050565b7f42696464696e6720706572696f642068617320656e6465642100000000000000600082015250565b6000612227601983611f7b565b9150612232826121f1565b602082019050919050565b600060208201905081810360008301526122568161221a565b9050919050565b7f4e6f7420696e20636f6e6669726d6174696f6e20706572696f64210000000000600082015250565b6000612293601b83611f7b565b915061229e8261225d565b602082019050919050565b600060208201905081810360008301526122c281612286565b9050919050565b7f53656e74206465706f736974206973206e6f7420657175616c20746f2072657160008201527f7569726564206465706f73697421000000000000000000000000000000000000602082015250565b6000612325602e83611f7b565b9150612330826122c9565b604082019050919050565b6000602082019050818103600083015261235481612318565b9050919050565b600061236682611a09565b9050919050565b6123768161235b565b82525050565b6000602082019050612391600083018461236d565b92915050565b7f53656e646572206973206e6f74207468652073656c6c65722100000000000000600082015250565b60006123cd601983611f7b565b91506123d882612397565b602082019050919050565b600060208201905081810360008301526123fc816123c0565b905091905056fea264697066735822122027e21c93ce047fc8f2c298078b23bb147ecedcdb1ad1bd5a3807790d87ec271f64736f6c634300080d0033",
  "immutableReferences": {},
  "source": "// SPDX-License-Identifier: MIT\r\npragma solidity ^0.8.13;\r\n\r\n// NOTE: All currency is wei\r\n\r\n// BUG (Hide bidders) or bids?\r\n// (TODO Use mixing to blind bidders)\r\n\r\ncontract SealedBidAuctionManager {\r\n    /**\r\n     * types\r\n     */\r\n\r\n    struct UserSetAuctionInfo {\r\n        address payable seller;\r\n        // auction rules\r\n        uint256 securityDeposit;\r\n        uint256 minimumPrice;\r\n        // dates\r\n        uint256 biddingEndDate;\r\n        uint256 confirmationEndDate;\r\n        // item\r\n        string itemName;\r\n        string itemDesc;\r\n        string itemPicture; // FIXME\r\n    }\r\n\r\n    enum AuctionState {\r\n        Active,\r\n        Failure,\r\n        Success,\r\n        InConfirmation\r\n    }\r\n\r\n    struct PublicAuctionInfo {\r\n        uint256 auctionId;\r\n        UserSetAuctionInfo userSet;\r\n        AuctionState state;\r\n    }\r\n\r\n    struct Auction {\r\n        PublicAuctionInfo info;\r\n        // protocol; redundant, but convenient\r\n        uint32 highestBid;\r\n        address payable highestBidder; // keys into bids\r\n        // participants\r\n        mapping(address => uint32) bids;\r\n\r\n        // bids maps bidder to their pedersen-commited bid.\r\n    }\r\n\r\n    /**\r\n     * state variables\r\n     */\r\n\r\n    Auction[] private auctions;\r\n\r\n    /**\r\n     * events\r\n     */\r\n\r\n    // for logging\r\n    event NewAuction(uint256 auctionId);\r\n    event NewBid(address by);\r\n\r\n    // for subscription\r\n    event AuctionEnds(bool success);\r\n    event AuctionWasWon(address winner);\r\n\r\n    /**\r\n     * modifiers\r\n     */\r\n\r\n    modifier newBidder(uint256 auctionId) {\r\n        if (\r\n            auctions[auctionId].info.userSet.seller == msg.sender ||\r\n            auctions[auctionId].bids[msg.sender] != 0\r\n        ) revert(\"Sender is either the seller or has already placed a bid!\");\r\n        _;\r\n    }\r\n\r\n    modifier existingBidder(uint256 auctionId) {\r\n        if (auctions[auctionId].bids[msg.sender] == 0)\r\n            revert(\"Sender has not placed a bid!\");\r\n        _;\r\n    }\r\n\r\n    modifier onlySeller(uint256 auctionId) {\r\n        if (msg.sender != auctions[auctionId].info.userSet.seller)\r\n            revert(\"Sender is not the seller!\");\r\n        _;\r\n    }\r\n\r\n    modifier validAuctionId(uint256 auctionId) {\r\n        if (auctionId >= auctions.length) revert(\"Invalid auction ID!\");\r\n        _;\r\n    }\r\n\r\n    modifier setAuctionState(uint256 auctionId) {\r\n        if (block.timestamp < auctions[auctionId].info.userSet.biddingEndDate)\r\n            auctions[auctionId].info.state = AuctionState.Active;\r\n        else if (!minimumPriceRequirementMet(auctionId))\r\n            auctions[auctionId].info.state = AuctionState.Failure;\r\n        else if (\r\n            block.timestamp <\r\n            auctions[auctionId].info.userSet.confirmationEndDate\r\n        ) auctions[auctionId].info.state = AuctionState.InConfirmation;\r\n        else if (auctions[auctionId].info.state != AuctionState.Success)\r\n            auctions[auctionId].info.state = AuctionState.Failure;\r\n        else auctions[auctionId].info.state = AuctionState.Success;\r\n        _;\r\n    }\r\n\r\n    // make sure auction is active or in confirmation\r\n    modifier checkAuctionStateIs(uint256 auctionId, AuctionState state) {\r\n        if (state != auctions[auctionId].info.state) {\r\n            if (state == AuctionState.Active)\r\n                revert(\"Bidding period has ended!\");\r\n            if (state == AuctionState.InConfirmation)\r\n                revert(\"Not in confirmation period!\");\r\n        }\r\n        _;\r\n    }\r\n\r\n    // make sure auction is not active\r\n    modifier checkAuctionStateIsNot(uint256 auctionId, AuctionState state) {\r\n        if (state == auctions[auctionId].info.state) {\r\n            if (state == AuctionState.Active)\r\n                revert(\"Auction is still active!\");\r\n        }\r\n        _;\r\n    }\r\n\r\n    /**\r\n     * private functions\r\n     */\r\n\r\n    function checkThatCommitmentIsPositive(\r\n        string memory commitment\r\n    ) internal pure returns (bool) {}\r\n\r\n    function minimumPriceRequirementMet(\r\n        uint256 auctionId\r\n    ) internal pure returns (bool) {\r\n        return true; // FIXME\r\n    }\r\n\r\n    /**\r\n     * external functions\r\n     */\r\n\r\n    // functions to be called at any time\r\n\r\n    function getNumberOfRegisteredAuctions() external view returns (uint256) {\r\n        return auctions.length;\r\n    }\r\n\r\n    function createAuction(\r\n        UserSetAuctionInfo memory auctionInfo\r\n    ) external returns (uint256 auctionId) {\r\n        // create an auctionId, then add to table\r\n        auctionId = auctions.length;\r\n        Auction storage auction = auctions.push();\r\n        auction.info = PublicAuctionInfo({\r\n            auctionId: auctionId,\r\n            userSet: auctionInfo,\r\n            state: AuctionState.Active\r\n        });\r\n        emit NewAuction(auctionId);\r\n    }\r\n\r\n    function getAuctionData(\r\n        uint256 auctionId\r\n    )\r\n        external\r\n        view\r\n        validAuctionId(auctionId)\r\n        returns (PublicAuctionInfo memory)\r\n    {\r\n        return auctions[auctionId].info;\r\n    }\r\n\r\n    // functions to be called during bidding period\r\n\r\n    function placeBid(\r\n        uint256 auctionId,\r\n        uint32 bid\r\n    )\r\n        external\r\n        payable\r\n        validAuctionId(auctionId)\r\n        newBidder(auctionId)\r\n        setAuctionState(auctionId)\r\n        checkAuctionStateIs(auctionId, AuctionState.Active)\r\n    {\r\n        // transfer security deposit to contract\r\n        if (msg.value != auctions[auctionId].info.userSet.securityDeposit)\r\n            revert(\"Sent deposit is not equal to required deposit!\");\r\n        // hash bid by address (FIXME: ??)\r\n        // bytes32 b = hash(bid);\r\n        auctions[auctionId].bids[msg.sender] = bid;\r\n        emit NewBid(msg.sender);\r\n    }\r\n\r\n    // functions to be called after auction ends\r\n\r\n    function returnDeposit(\r\n        uint256 auctionId\r\n    )\r\n        external\r\n        validAuctionId(auctionId)\r\n        existingBidder(auctionId)\r\n        setAuctionState(auctionId)\r\n        checkAuctionStateIsNot(auctionId, AuctionState.Active)\r\n    {\r\n        // no re-entrancy attacks!\r\n        auctions[auctionId].bids[msg.sender] = 0;\r\n        payable(msg.sender).transfer(\r\n            auctions[auctionId].info.userSet.securityDeposit\r\n        );\r\n    }\r\n\r\n    // TODO two-sign\r\n    function transferWinningBidToOwner(\r\n        uint256 auctionId\r\n    )\r\n        external\r\n        validAuctionId(auctionId)\r\n        onlySeller(auctionId)\r\n        setAuctionState(auctionId)\r\n        checkAuctionStateIs(auctionId, AuctionState.InConfirmation)\r\n    {\r\n        auctions[auctionId].info.state = AuctionState.Success;\r\n        // FIXME: \"unhash\" the bid\r\n        auctions[auctionId].highestBidder.transfer(\r\n            auctions[auctionId].highestBid\r\n        );\r\n    }\r\n}\r\n",
  "sourcePath": "D:\\University\\Graduation Project\\repo\\auction-system-webapp\\contracts\\contracts\\SealedBidAuctionManager.sol",
  "compiler": {
    "name": "solc",
    "version": "0.8.13+commit.abaa5c0e.Emscripten.clang"
  },
  "schemaVersion": "3.4.14",
  "updatedAt": "2023-05-23T23:31:18.189Z",
  "networkType": "ethereum",
  "devdoc": {
    "kind": "dev",
    "methods": {},
    "version": 1
  },
  "userdoc": {
    "events": {
      "NewAuction(uint256)": {
        "notice": "events"
      }
    },
    "kind": "user",
    "methods": {
      "getNumberOfRegisteredAuctions()": {
        "notice": "external functions"
      }
    },
    "version": 1
  }
}