{
  "contractName": "SealedBidAuctionManager",
  "abi": [
    {
      "anonymous": false,
      "inputs": [
        {
          "indexed": false,
          "internalType": "uint256",
          "name": "auctionId",
          "type": "uint256"
        },
        {
          "indexed": false,
          "internalType": "bool",
          "name": "success",
          "type": "bool"
        }
      ],
      "name": "AuctionEnds",
      "type": "event"
    },
    {
      "anonymous": false,
      "inputs": [
        {
          "indexed": false,
          "internalType": "uint256",
          "name": "",
          "type": "uint256"
        },
        {
          "indexed": false,
          "internalType": "address",
          "name": "who",
          "type": "address"
        }
      ],
      "name": "BidderRemoved",
      "type": "event"
    },
    {
      "anonymous": false,
      "inputs": [
        {
          "indexed": false,
          "internalType": "uint256",
          "name": "auctionId",
          "type": "uint256"
        }
      ],
      "name": "NewAuction",
      "type": "event"
    },
    {
      "anonymous": false,
      "inputs": [
        {
          "indexed": false,
          "internalType": "uint256",
          "name": "auctionId",
          "type": "uint256"
        },
        {
          "indexed": false,
          "internalType": "address",
          "name": "by",
          "type": "address"
        }
      ],
      "name": "NewBid",
      "type": "event"
    },
    {
      "anonymous": false,
      "inputs": [
        {
          "indexed": false,
          "internalType": "uint256",
          "name": "auctionId",
          "type": "uint256"
        },
        {
          "indexed": false,
          "internalType": "address",
          "name": "by",
          "type": "address"
        }
      ],
      "name": "NewReveal",
      "type": "event"
    },
    {
      "anonymous": false,
      "inputs": [
        {
          "indexed": false,
          "internalType": "uint256",
          "name": "auctionId",
          "type": "uint256"
        },
        {
          "indexed": false,
          "internalType": "address",
          "name": "by",
          "type": "address"
        }
      ],
      "name": "ObjectionPlaced",
      "type": "event"
    },
    {
      "anonymous": false,
      "inputs": [
        {
          "indexed": false,
          "internalType": "uint256",
          "name": "auctionId",
          "type": "uint256"
        },
        {
          "indexed": false,
          "internalType": "address",
          "name": "who",
          "type": "address"
        }
      ],
      "name": "WinnerDecided",
      "type": "event"
    },
    {
      "inputs": [
        {
          "internalType": "uint256",
          "name": "auctionId",
          "type": "uint256"
        },
        {
          "internalType": "address",
          "name": "acc",
          "type": "address"
        }
      ],
      "name": "didNotPlaceABid",
      "outputs": [
        {
          "internalType": "bool",
          "name": "",
          "type": "bool"
        }
      ],
      "stateMutability": "view",
      "type": "function",
      "constant": true
    },
    {
      "inputs": [
        {
          "internalType": "uint256",
          "name": "auctionId",
          "type": "uint256"
        },
        {
          "internalType": "address",
          "name": "acc",
          "type": "address"
        }
      ],
      "name": "placedABid",
      "outputs": [
        {
          "internalType": "bool",
          "name": "",
          "type": "bool"
        }
      ],
      "stateMutability": "view",
      "type": "function",
      "constant": true
    },
    {
      "inputs": [],
      "name": "getNumberOfRegisteredAuctions",
      "outputs": [
        {
          "internalType": "uint256",
          "name": "",
          "type": "uint256"
        }
      ],
      "stateMutability": "view",
      "type": "function",
      "constant": true
    },
    {
      "inputs": [
        {
          "components": [
            {
              "internalType": "address payable",
              "name": "owner",
              "type": "address"
            },
            {
              "internalType": "bytes",
              "name": "params",
              "type": "bytes"
            },
            {
              "internalType": "bytes",
              "name": "owner_pkey",
              "type": "bytes"
            },
            {
              "internalType": "string",
              "name": "itemName",
              "type": "string"
            },
            {
              "internalType": "string",
              "name": "itemDesc",
              "type": "string"
            },
            {
              "internalType": "string",
              "name": "itemPicture",
              "type": "string"
            },
            {
              "internalType": "uint256",
              "name": "minimumPrice",
              "type": "uint256"
            },
            {
              "internalType": "uint256",
              "name": "securityDeposit",
              "type": "uint256"
            },
            {
              "internalType": "uint256",
              "name": "biddingEndDate",
              "type": "uint256"
            },
            {
              "internalType": "uint256",
              "name": "revealingEndDate",
              "type": "uint256"
            },
            {
              "internalType": "uint256",
              "name": "sortingEndDate",
              "type": "uint256"
            }
          ],
          "internalType": "struct SealedBidAuctionManager.UserSetAuctionInfo",
          "name": "info",
          "type": "tuple"
        }
      ],
      "name": "createAuction",
      "outputs": [
        {
          "internalType": "uint256",
          "name": "",
          "type": "uint256"
        }
      ],
      "stateMutability": "payable",
      "type": "function",
      "payable": true
    },
    {
      "inputs": [
        {
          "internalType": "enum SealedBidAuctionManager.AuctionState",
          "name": "state",
          "type": "uint8"
        }
      ],
      "name": "getAuctionsByState",
      "outputs": [
        {
          "components": [
            {
              "internalType": "uint256",
              "name": "id",
              "type": "uint256"
            },
            {
              "components": [
                {
                  "internalType": "address payable",
                  "name": "owner",
                  "type": "address"
                },
                {
                  "internalType": "bytes",
                  "name": "params",
                  "type": "bytes"
                },
                {
                  "internalType": "bytes",
                  "name": "owner_pkey",
                  "type": "bytes"
                },
                {
                  "internalType": "string",
                  "name": "itemName",
                  "type": "string"
                },
                {
                  "internalType": "string",
                  "name": "itemDesc",
                  "type": "string"
                },
                {
                  "internalType": "string",
                  "name": "itemPicture",
                  "type": "string"
                },
                {
                  "internalType": "uint256",
                  "name": "minimumPrice",
                  "type": "uint256"
                },
                {
                  "internalType": "uint256",
                  "name": "securityDeposit",
                  "type": "uint256"
                },
                {
                  "internalType": "uint256",
                  "name": "biddingEndDate",
                  "type": "uint256"
                },
                {
                  "internalType": "uint256",
                  "name": "revealingEndDate",
                  "type": "uint256"
                },
                {
                  "internalType": "uint256",
                  "name": "sortingEndDate",
                  "type": "uint256"
                }
              ],
              "internalType": "struct SealedBidAuctionManager.UserSetAuctionInfo",
              "name": "info",
              "type": "tuple"
            }
          ],
          "internalType": "struct SealedBidAuctionManager.AuctionInfoAndId[]",
          "name": "",
          "type": "tuple[]"
        }
      ],
      "stateMutability": "view",
      "type": "function",
      "constant": true
    },
    {
      "inputs": [
        {
          "internalType": "uint256",
          "name": "auctionId",
          "type": "uint256"
        }
      ],
      "name": "getAuctionInfo",
      "outputs": [
        {
          "components": [
            {
              "internalType": "address payable",
              "name": "owner",
              "type": "address"
            },
            {
              "internalType": "bytes",
              "name": "params",
              "type": "bytes"
            },
            {
              "internalType": "bytes",
              "name": "owner_pkey",
              "type": "bytes"
            },
            {
              "internalType": "string",
              "name": "itemName",
              "type": "string"
            },
            {
              "internalType": "string",
              "name": "itemDesc",
              "type": "string"
            },
            {
              "internalType": "string",
              "name": "itemPicture",
              "type": "string"
            },
            {
              "internalType": "uint256",
              "name": "minimumPrice",
              "type": "uint256"
            },
            {
              "internalType": "uint256",
              "name": "securityDeposit",
              "type": "uint256"
            },
            {
              "internalType": "uint256",
              "name": "biddingEndDate",
              "type": "uint256"
            },
            {
              "internalType": "uint256",
              "name": "revealingEndDate",
              "type": "uint256"
            },
            {
              "internalType": "uint256",
              "name": "sortingEndDate",
              "type": "uint256"
            }
          ],
          "internalType": "struct SealedBidAuctionManager.UserSetAuctionInfo",
          "name": "",
          "type": "tuple"
        }
      ],
      "stateMutability": "view",
      "type": "function",
      "constant": true
    },
    {
      "inputs": [
        {
          "internalType": "uint256",
          "name": "auctionId",
          "type": "uint256"
        },
        {
          "internalType": "bytes",
          "name": "c",
          "type": "bytes"
        },
        {
          "internalType": "bytes",
          "name": "d",
          "type": "bytes"
        }
      ],
      "name": "placeBid",
      "outputs": [],
      "stateMutability": "payable",
      "type": "function",
      "payable": true
    },
    {
      "inputs": [
        {
          "internalType": "uint256",
          "name": "auctionId",
          "type": "uint256"
        },
        {
          "internalType": "bytes",
          "name": "z",
          "type": "bytes"
        }
      ],
      "name": "revealBid",
      "outputs": [],
      "stateMutability": "nonpayable",
      "type": "function"
    },
    {
      "inputs": [
        {
          "internalType": "uint256",
          "name": "auctionId",
          "type": "uint256"
        }
      ],
      "name": "getReveals",
      "outputs": [
        {
          "internalType": "bytes[]",
          "name": "",
          "type": "bytes[]"
        }
      ],
      "stateMutability": "nonpayable",
      "type": "function"
    },
    {
      "inputs": [
        {
          "internalType": "uint256",
          "name": "auctionId",
          "type": "uint256"
        },
        {
          "components": [
            {
              "internalType": "bytes",
              "name": "y",
              "type": "bytes"
            },
            {
              "internalType": "address",
              "name": "bidder",
              "type": "address"
            }
          ],
          "internalType": "struct SealedBidAuctionManager.AuctionWinner",
          "name": "winner",
          "type": "tuple"
        }
      ],
      "name": "declareWinner",
      "outputs": [],
      "stateMutability": "nonpayable",
      "type": "function"
    },
    {
      "inputs": [
        {
          "internalType": "uint256",
          "name": "auctionId",
          "type": "uint256"
        }
      ],
      "name": "getWinner",
      "outputs": [
        {
          "components": [
            {
              "internalType": "bytes",
              "name": "y",
              "type": "bytes"
            },
            {
              "internalType": "address",
              "name": "bidder",
              "type": "address"
            }
          ],
          "internalType": "struct SealedBidAuctionManager.AuctionWinner",
          "name": "",
          "type": "tuple"
        }
      ],
      "stateMutability": "view",
      "type": "function",
      "constant": true
    },
    {
      "inputs": [
        {
          "internalType": "uint256",
          "name": "auctionId",
          "type": "uint256"
        }
      ],
      "name": "returnDeposit",
      "outputs": [],
      "stateMutability": "nonpayable",
      "type": "function"
    },
    {
      "inputs": [
        {
          "internalType": "uint256",
          "name": "auctionId",
          "type": "uint256"
        },
        {
          "internalType": "bytes",
          "name": "y",
          "type": "bytes"
        }
      ],
      "name": "objectToTheWinner",
      "outputs": [],
      "stateMutability": "nonpayable",
      "type": "function"
    },
    {
      "inputs": [
        {
          "internalType": "uint256",
          "name": "auctionId",
          "type": "uint256"
        }
      ],
      "name": "getObjections",
      "outputs": [
        {
          "components": [
            {
              "internalType": "bytes",
              "name": "y",
              "type": "bytes"
            },
            {
              "internalType": "address",
              "name": "bidder",
              "type": "address"
            }
          ],
          "internalType": "struct SealedBidAuctionManager.AuctionWinner[]",
          "name": "",
          "type": "tuple[]"
        }
      ],
      "stateMutability": "nonpayable",
      "type": "function"
    }
  ],
  "bytecode": "0x608060405234801561001057600080fd5b5061587d80620000216000396000f3fe6080604052600436106100dd5760003560e01c80639511f4c51161007f578063b8e8fcc511610059578063b8e8fcc5146102d5578063cea32418146102fe578063e25c08b41461032e578063fc3fc4ed1461036b576100dd565b80639511f4c51461021e5780639690d6211461025b57806397d9ee5214610298576100dd565b806345e481a3116100bb57806345e481a31461017157806347bf5e2c1461019c578063684e38ee146101b85780638b10b875146101f5576100dd565b806310e9f549146100e257806318b683fb1461010b5780634129b2c914610134575b600080fd5b3480156100ee57600080fd5b5061010960048036038101906101049190613cb8565b6103a8565b005b34801561011757600080fd5b50610132600480360381019061012d9190613d18565b6108be565b005b34801561014057600080fd5b5061015b60048036038101906101569190613d18565b610e19565b6040516101689190613e5c565b60405180910390f35b34801561017d57600080fd5b50610186610f89565b6040516101939190613e8d565b60405180910390f35b6101b660048036038101906101b19190613ea8565b610f95565b005b3480156101c457600080fd5b506101df60048036038101906101da9190613f62565b61160c565b6040516101ec919061421e565b60405180910390f35b34801561020157600080fd5b5061021c60048036038101906102179190614264565b611b91565b005b34801561022a57600080fd5b50610245600480360381019061024091906142ec565b61211c565b6040516102529190614347565b60405180910390f35b34801561026757600080fd5b50610282600480360381019061027d9190613d18565b612192565b60405161028f9190614461565b60405180910390f35b3480156102a457600080fd5b506102bf60048036038101906102ba9190613d18565b6125bd565b6040516102cc9190614545565b60405180910390f35b3480156102e157600080fd5b506102fc60048036038101906102f79190613cb8565b612cc2565b005b61031860048036038101906103139190614587565b613201565b6040516103259190613e8d565b60405180910390f35b34801561033a57600080fd5b50610355600480360381019061035091906142ec565b613413565b6040516103629190614347565b60405180910390f35b34801561037757600080fd5b50610392600480360381019061038d9190613d18565b613488565b60405161039f91906146db565b60405180910390f35b8260008054905081106103f0576040517f08c379a00000000000000000000000000000000000000000000000000000000081526004016103e79061475a565b60405180910390fd5b836000801b600082815481106104095761040861477a565b5b9060005260206000209060120201600c0160003373ffffffffffffffffffffffffffffffffffffffff1673ffffffffffffffffffffffffffffffffffffffff168152602001908152602001600020600101540361049b576040517f08c379a0000000000000000000000000000000000000000000000000000000008152600401610492906147f5565b60405180910390fd5b846001600082815481106104b2576104b161477a565b5b9060005260206000209060120201600101600801544210156105205760008083815481106104e3576104e261477a565b5b9060005260206000209060120201600e0160006101000a81548160ff0219169083600381111561051657610515614815565b5b0217905550610677565b600082815481106105345761053361477a565b5b9060005260206000209060120201600101600901544210156105a3576001600083815481106105665761056561477a565b5b9060005260206000209060120201600e0160006101000a81548160ff0219169083600381111561059957610598614815565b5b0217905550610676565b600082815481106105b7576105b661477a565b5b9060005260206000209060120201600101600a0154421015610626576002600083815481106105e9576105e861477a565b5b9060005260206000209060120201600e0160006101000a81548160ff0219169083600381111561061c5761061b614815565b5b0217905550610675565b60036000838154811061063c5761063b61477a565b5b9060005260206000209060120201600e0160006101000a81548160ff0219169083600381111561066f5761066e614815565b5b02179055505b5b5b6000828154811061068b5761068a61477a565b5b9060005260206000209060120201600e0160009054906101000a900460ff1660038111156106bc576106bb614815565b5b8160038111156106cf576106ce614815565b5b1461070f576040517f08c379a000000000000000000000000000000000000000000000000000000000815260040161070690614890565b60405180910390fd5b600087815481106107235761072261477a565b5b9060005260206000209060120201600c0160003373ffffffffffffffffffffffffffffffffffffffff1673ffffffffffffffffffffffffffffffffffffffff16815260200190815260200160002060020154600287876040516107879291906148ef565b602060405180830381855afa1580156107a4573d6000803e3d6000fd5b5050506040513d601f19601f820116820180604052508101906107c7919061493e565b14610807576040517f08c379a00000000000000000000000000000000000000000000000000000000081526004016107fe906149b7565b60405180910390fd5b85856000898154811061081d5761081c61477a565b5b9060005260206000209060120201600c0160003373ffffffffffffffffffffffffffffffffffffffff1673ffffffffffffffffffffffffffffffffffffffff168152602001908152602001600020600301919061087b929190613a2a565b507fda9ad1af3b211e24edbe9ac3a27ce5cde27c6f44ae790099959efa1472c6be3e87336040516108ad9291906149e6565b60405180910390a150505050505050565b806000805490508110610906576040517f08c379a00000000000000000000000000000000000000000000000000000000081526004016108fd9061475a565b60405180910390fd5b816000801b6000828154811061091f5761091e61477a565b5b9060005260206000209060120201600c0160003373ffffffffffffffffffffffffffffffffffffffff1673ffffffffffffffffffffffffffffffffffffffff16815260200190815260200160002060010154036109b1576040517f08c379a00000000000000000000000000000000000000000000000000000000081526004016109a8906147f5565b60405180910390fd5b826003600082815481106109c8576109c761477a565b5b906000526020600020906012020160010160080154421015610a365760008083815481106109f9576109f861477a565b5b9060005260206000209060120201600e0160006101000a81548160ff02191690836003811115610a2c57610a2b614815565b5b0217905550610b8d565b60008281548110610a4a57610a4961477a565b5b906000526020600020906012020160010160090154421015610ab957600160008381548110610a7c57610a7b61477a565b5b9060005260206000209060120201600e0160006101000a81548160ff02191690836003811115610aaf57610aae614815565b5b0217905550610b8c565b60008281548110610acd57610acc61477a565b5b9060005260206000209060120201600101600a0154421015610b3c57600260008381548110610aff57610afe61477a565b5b9060005260206000209060120201600e0160006101000a81548160ff02191690836003811115610b3257610b31614815565b5b0217905550610b8b565b600360008381548110610b5257610b5161477a565b5b9060005260206000209060120201600e0160006101000a81548160ff02191690836003811115610b8557610b84614815565b5b02179055505b5b5b60008281548110610ba157610ba061477a565b5b9060005260206000209060120201600e0160009054906101000a900460ff166003811115610bd257610bd1614815565b5b816003811115610be557610be4614815565b5b14610c25576040517f08c379a0000000000000000000000000000000000000000000000000000000008152600401610c1c90614890565b60405180910390fd5b6000151560008681548110610c3d57610c3c61477a565b5b9060005260206000209060120201600c0160003373ffffffffffffffffffffffffffffffffffffffff1673ffffffffffffffffffffffffffffffffffffffff16815260200190815260200160002060000160009054906101000a900460ff161515148015610d1f575060008581548110610cba57610cb961477a565b5b9060005260206000209060120201600f0160010160009054906101000a900473ffffffffffffffffffffffffffffffffffffffff1673ffffffffffffffffffffffffffffffffffffffff163373ffffffffffffffffffffffffffffffffffffffff1614155b15610da357600160008681548110610d3a57610d3961477a565b5b9060005260206000209060120201600c0160003373ffffffffffffffffffffffffffffffffffffffff1673ffffffffffffffffffffffffffffffffffffffff16815260200190815260200160002060000160006101000a81548160ff0219169083151502179055505b3373ffffffffffffffffffffffffffffffffffffffff166108fc60008781548110610dd157610dd061477a565b5b9060005260206000209060120201600101600701549081150290604051600060405180830381858888f19350505050158015610e11573d6000803e3d6000fd5b505050505050565b610e21613ab0565b816000805490508110610e69576040517f08c379a0000000000000000000000000000000000000000000000000000000008152600401610e609061475a565b60405180910390fd5b60008381548110610e7d57610e7c61477a565b5b9060005260206000209060120201600f01604051806040016040529081600082018054610ea990614a3e565b80601f0160208091040260200160405190810160405280929190818152602001828054610ed590614a3e565b8015610f225780601f10610ef757610100808354040283529160200191610f22565b820191906000526020600020905b815481529060010190602001808311610f0557829003601f168201915b505050505081526020016001820160009054906101000a900473ffffffffffffffffffffffffffffffffffffffff1673ffffffffffffffffffffffffffffffffffffffff1673ffffffffffffffffffffffffffffffffffffffff1681525050915050919050565b60008080549050905090565b846000805490508110610fdd576040517f08c379a0000000000000000000000000000000000000000000000000000000008152600401610fd49061475a565b60405180910390fd5b8560008181548110610ff257610ff161477a565b5b906000526020600020906012020160010160000160009054906101000a900473ffffffffffffffffffffffffffffffffffffffff1673ffffffffffffffffffffffffffffffffffffffff163373ffffffffffffffffffffffffffffffffffffffff1603611094576040517f08c379a000000000000000000000000000000000000000000000000000000000815260040161108b90614abb565b60405180910390fd5b866000801b600082815481106110ad576110ac61477a565b5b9060005260206000209060120201600c0160003373ffffffffffffffffffffffffffffffffffffffff1673ffffffffffffffffffffffffffffffffffffffff168152602001908152602001600020600101541461113f576040517f08c379a000000000000000000000000000000000000000000000000000000000815260040161113690614b27565b60405180910390fd5b8760008082815481106111555761115461477a565b5b9060005260206000209060120201600101600801544210156111c35760008083815481106111865761118561477a565b5b9060005260206000209060120201600e0160006101000a81548160ff021916908360038111156111b9576111b8614815565b5b021790555061131a565b600082815481106111d7576111d661477a565b5b906000526020600020906012020160010160090154421015611246576001600083815481106112095761120861477a565b5b9060005260206000209060120201600e0160006101000a81548160ff0219169083600381111561123c5761123b614815565b5b0217905550611319565b6000828154811061125a5761125961477a565b5b9060005260206000209060120201600101600a01544210156112c95760026000838154811061128c5761128b61477a565b5b9060005260206000209060120201600e0160006101000a81548160ff021916908360038111156112bf576112be614815565b5b0217905550611318565b6003600083815481106112df576112de61477a565b5b9060005260206000209060120201600e0160006101000a81548160ff0219169083600381111561131257611311614815565b5b02179055505b5b5b6000828154811061132e5761132d61477a565b5b9060005260206000209060120201600e0160009054906101000a900460ff16600381111561135f5761135e614815565b5b81600381111561137257611371614815565b5b146113b2576040517f08c379a00000000000000000000000000000000000000000000000000000000081526004016113a990614890565b60405180910390fd5b60008a815481106113c6576113c561477a565b5b90600052602060002090601202016001016007015480341461141d576040517f08c379a000000000000000000000000000000000000000000000000000000000815260040161141490614b93565b60405180910390fd5b60405180608001604052806000151581526020018b8b9061143e9190614bcb565b81526020018989906114509190614bcb565b81526020016040518060200160405280600081525081525060008c8154811061147c5761147b61477a565b5b9060005260206000209060120201600c0160003373ffffffffffffffffffffffffffffffffffffffff1673ffffffffffffffffffffffffffffffffffffffff16815260200190815260200160002060008201518160000160006101000a81548160ff0219169083151502179055506020820151816001015560408201518160020155606082015181600301908051906020019061151a929190613ae0565b509050503360008c815481106115335761153261477a565b5b9060005260206000209060120201600d0160008d815481106115585761155761477a565b5b9060005260206000209060120201600d01805490508154811061157e5761157d61477a565b5b9060005260206000200160006101000a81548173ffffffffffffffffffffffffffffffffffffffff021916908373ffffffffffffffffffffffffffffffffffffffff1602179055507f45401769c1d58f70bd6b63e1a66bfc17d712ce0dc4ffb8d2dd0ad7177d56a3868b336040516115f79291906149e6565b60405180910390a15050505050505050505050565b60606000805b60008054905081101561169e5783600381111561163257611631614815565b5b600082815481106116465761164561477a565b5b9060005260206000209060120201600e0160009054906101000a900460ff16600381111561167757611676614815565b5b0361168b57818061168790614c59565b9250505b808061169690614c59565b915050611612565b5060008167ffffffffffffffff8111156116bb576116ba614ca1565b5b6040519080825280602002602001820160405280156116f457816020015b6116e1613b66565b8152602001906001900390816116d95790505b5090506000805b600080549050811015611b855785600381111561171b5761171a614815565b5b6000828154811061172f5761172e61477a565b5b9060005260206000209060120201600e0160009054906101000a900460ff1660038111156117605761175f614815565b5b03611b7257600081815481106117795761177861477a565b5b9060005260206000209060120201600101604051806101600160405290816000820160009054906101000a900473ffffffffffffffffffffffffffffffffffffffff1673ffffffffffffffffffffffffffffffffffffffff1673ffffffffffffffffffffffffffffffffffffffff1681526020016001820180546117fc90614a3e565b80601f016020809104026020016040519081016040528092919081815260200182805461182890614a3e565b80156118755780601f1061184a57610100808354040283529160200191611875565b820191906000526020600020905b81548152906001019060200180831161185857829003601f168201915b5050505050815260200160028201805461188e90614a3e565b80601f01602080910402602001604051908101604052809291908181526020018280546118ba90614a3e565b80156119075780601f106118dc57610100808354040283529160200191611907565b820191906000526020600020905b8154815290600101906020018083116118ea57829003601f168201915b5050505050815260200160038201805461192090614a3e565b80601f016020809104026020016040519081016040528092919081815260200182805461194c90614a3e565b80156119995780601f1061196e57610100808354040283529160200191611999565b820191906000526020600020905b81548152906001019060200180831161197c57829003601f168201915b505050505081526020016004820180546119b290614a3e565b80601f01602080910402602001604051908101604052809291908181526020018280546119de90614a3e565b8015611a2b5780601f10611a0057610100808354040283529160200191611a2b565b820191906000526020600020905b815481529060010190602001808311611a0e57829003601f168201915b50505050508152602001600582018054611a4490614a3e565b80601f0160208091040260200160405190810160405280929190818152602001828054611a7090614a3e565b8015611abd5780601f10611a9257610100808354040283529160200191611abd565b820191906000526020600020905b815481529060010190602001808311611aa057829003601f168201915b5050505050815260200160068201548152602001600782015481526020016008820154815260200160098201548152602001600a82015481525050838381518110611b0b57611b0a61477a565b5b60200260200101516020018190525060008181548110611b2e57611b2d61477a565b5b906000526020600020906012020160000154838381518110611b5357611b5261477a565b5b602002602001015160000181815250508180611b6e90614c59565b9250505b8080611b7d90614c59565b9150506116fb565b50819350505050919050565b816000805490508110611bd9576040517f08c379a0000000000000000000000000000000000000000000000000000000008152600401611bd09061475a565b60405180910390fd5b8260008181548110611bee57611bed61477a565b5b906000526020600020906012020160010160000160009054906101000a900473ffffffffffffffffffffffffffffffffffffffff1673ffffffffffffffffffffffffffffffffffffffff163373ffffffffffffffffffffffffffffffffffffffff1614611c90576040517f08c379a0000000000000000000000000000000000000000000000000000000008152600401611c8790614d1c565b60405180910390fd5b83600260008281548110611ca757611ca661477a565b5b906000526020600020906012020160010160080154421015611d15576000808381548110611cd857611cd761477a565b5b9060005260206000209060120201600e0160006101000a81548160ff02191690836003811115611d0b57611d0a614815565b5b0217905550611e6c565b60008281548110611d2957611d2861477a565b5b906000526020600020906012020160010160090154421015611d9857600160008381548110611d5b57611d5a61477a565b5b9060005260206000209060120201600e0160006101000a81548160ff02191690836003811115611d8e57611d8d614815565b5b0217905550611e6b565b60008281548110611dac57611dab61477a565b5b9060005260206000209060120201600101600a0154421015611e1b57600260008381548110611dde57611ddd61477a565b5b9060005260206000209060120201600e0160006101000a81548160ff02191690836003811115611e1157611e10614815565b5b0217905550611e6a565b600360008381548110611e3157611e3061477a565b5b9060005260206000209060120201600e0160006101000a81548160ff02191690836003811115611e6457611e63614815565b5b02179055505b5b5b60008281548110611e8057611e7f61477a565b5b9060005260206000209060120201600e0160009054906101000a900460ff166003811115611eb157611eb0614815565b5b816003811115611ec457611ec3614815565b5b14611f04576040517f08c379a0000000000000000000000000000000000000000000000000000000008152600401611efb90614890565b60405180910390fd5b856000808281548110611f1a57611f1961477a565b5b9060005260206000209060120201600f016000018054611f3990614a3e565b905014611f7b576040517f08c379a0000000000000000000000000000000000000000000000000000000008152600401611f7290614d88565b60405180910390fd5b60008781548110611f8f57611f8e61477a565b5b9060005260206000209060120201600c016000876020016020810190611fb59190614da8565b73ffffffffffffffffffffffffffffffffffffffff1673ffffffffffffffffffffffffffffffffffffffff1681526020019081526020016000206001015460028780600001906120059190614de4565b6040516120139291906148ef565b602060405180830381855afa158015612030573d6000803e3d6000fd5b5050506040513d601f19601f82011682018060405250810190612053919061493e565b14612093576040517f08c379a000000000000000000000000000000000000000000000000000000000815260040161208a906149b7565b60405180910390fd5b85600088815481106120a8576120a761477a565b5b9060005260206000209060120201600f0181816120c591906151d8565b9050507fa40d3f1f8d57e9254ad685693391db32c603b6ba0c2296366db2706bc0bd4f2c878760200160208101906120fd9190614da8565b60405161210b9291906149e6565b60405180910390a150505050505050565b60008060001b600084815481106121365761213561477a565b5b9060005260206000209060120201600c0160008473ffffffffffffffffffffffffffffffffffffffff1673ffffffffffffffffffffffffffffffffffffffff168152602001908152602001600020600101541415905092915050565b60608160008054905081106121dc576040517f08c379a00000000000000000000000000000000000000000000000000000000081526004016121d39061475a565b60405180910390fd5b826003600082815481106121f3576121f261477a565b5b9060005260206000209060120201600101600801544210156122615760008083815481106122245761222361477a565b5b9060005260206000209060120201600e0160006101000a81548160ff0219169083600381111561225757612256614815565b5b02179055506123b8565b600082815481106122755761227461477a565b5b9060005260206000209060120201600101600901544210156122e4576001600083815481106122a7576122a661477a565b5b9060005260206000209060120201600e0160006101000a81548160ff021916908360038111156122da576122d9614815565b5b02179055506123b7565b600082815481106122f8576122f761477a565b5b9060005260206000209060120201600101600a01544210156123675760026000838154811061232a5761232961477a565b5b9060005260206000209060120201600e0160006101000a81548160ff0219169083600381111561235d5761235c614815565b5b02179055506123b6565b60036000838154811061237d5761237c61477a565b5b9060005260206000209060120201600e0160006101000a81548160ff021916908360038111156123b0576123af614815565b5b02179055505b5b5b600082815481106123cc576123cb61477a565b5b9060005260206000209060120201600e0160009054906101000a900460ff1660038111156123fd576123fc614815565b5b8160038111156124105761240f614815565b5b14612450576040517f08c379a000000000000000000000000000000000000000000000000000000000815260040161244790614890565b60405180910390fd5b600085815481106124645761246361477a565b5b9060005260206000209060120201601101805480602002602001604051908101604052809291908181526020016000905b828210156125af57838290600052602060002090600202016040518060400160405290816000820180546124c890614a3e565b80601f01602080910402602001604051908101604052809291908181526020018280546124f490614a3e565b80156125415780601f1061251657610100808354040283529160200191612541565b820191906000526020600020905b81548152906001019060200180831161252457829003601f168201915b505050505081526020016001820160009054906101000a900473ffffffffffffffffffffffffffffffffffffffff1673ffffffffffffffffffffffffffffffffffffffff1673ffffffffffffffffffffffffffffffffffffffff168152505081526020019060010190612495565b505050509350505050919050565b6060816000805490508110612607576040517f08c379a00000000000000000000000000000000000000000000000000000000081526004016125fe9061475a565b60405180910390fd5b826000818154811061261c5761261b61477a565b5b906000526020600020906012020160010160000160009054906101000a900473ffffffffffffffffffffffffffffffffffffffff1673ffffffffffffffffffffffffffffffffffffffff163373ffffffffffffffffffffffffffffffffffffffff16146126be576040517f08c379a00000000000000000000000000000000000000000000000000000000081526004016126b590614d1c565b60405180910390fd5b836002600082815481106126d5576126d461477a565b5b9060005260206000209060120201600101600801544210156127435760008083815481106127065761270561477a565b5b9060005260206000209060120201600e0160006101000a81548160ff0219169083600381111561273957612738614815565b5b021790555061289a565b600082815481106127575761275661477a565b5b9060005260206000209060120201600101600901544210156127c6576001600083815481106127895761278861477a565b5b9060005260206000209060120201600e0160006101000a81548160ff021916908360038111156127bc576127bb614815565b5b0217905550612899565b600082815481106127da576127d961477a565b5b9060005260206000209060120201600101600a01544210156128495760026000838154811061280c5761280b61477a565b5b9060005260206000209060120201600e0160006101000a81548160ff0219169083600381111561283f5761283e614815565b5b0217905550612898565b60036000838154811061285f5761285e61477a565b5b9060005260206000209060120201600e0160006101000a81548160ff0219169083600381111561289257612891614815565b5b02179055505b5b5b600082815481106128ae576128ad61477a565b5b9060005260206000209060120201600e0160009054906101000a900460ff1660038111156128df576128de614815565b5b8160038111156128f2576128f1614815565b5b14612932576040517f08c379a000000000000000000000000000000000000000000000000000000000815260040161292990614890565b60405180910390fd5b6000805b6000888154811061294a5761294961477a565b5b9060005260206000209060120201600d0180549050811015612aae57600080898154811061297b5761297a61477a565b5b9060005260206000209060120201600d01828154811061299e5761299d61477a565b5b9060005260206000200160009054906101000a900473ffffffffffffffffffffffffffffffffffffffff1690506000808a815481106129e0576129df61477a565b5b9060005260206000209060120201600c0160008373ffffffffffffffffffffffffffffffffffffffff1673ffffffffffffffffffffffffffffffffffffffff1681526020019081526020016000206003018054612a3c90614a3e565b905003612a8b57612a4d8983613873565b7f4ddf4c0e94fa7c3fcf8474005bf8b72858bbc3afbeecaee663000ca4eeb2b9bd8982604051612a7e9291906149e6565b60405180910390a1612a9a565b8280612a9690614c59565b9350505b508080612aa690614c59565b915050612936565b5060008167ffffffffffffffff811115612acb57612aca614ca1565b5b604051908082528060200260200182016040528015612afe57816020015b6060815260200190600190039081612ae95790505b50905060005b60008981548110612b1857612b1761477a565b5b9060005260206000209060120201600d0180549050811015612cb35760008981548110612b4857612b4761477a565b5b9060005260206000209060120201600c016000808b81548110612b6e57612b6d61477a565b5b9060005260206000209060120201600d018381548110612b9157612b9061477a565b5b9060005260206000200160009054906101000a900473ffffffffffffffffffffffffffffffffffffffff1673ffffffffffffffffffffffffffffffffffffffff1673ffffffffffffffffffffffffffffffffffffffff1681526020019081526020016000206003018054612c0490614a3e565b80601f0160208091040260200160405190810160405280929190818152602001828054612c3090614a3e565b8015612c7d5780601f10612c5257610100808354040283529160200191612c7d565b820191906000526020600020905b815481529060010190602001808311612c6057829003601f168201915b5050505050828281518110612c9557612c9461477a565b5b60200260200101819052508080612cab90614c59565b915050612b04565b50809650505050505050919050565b826000805490508110612d0a576040517f08c379a0000000000000000000000000000000000000000000000000000000008152600401612d019061475a565b60405180910390fd5b836000801b60008281548110612d2357612d2261477a565b5b9060005260206000209060120201600c0160003373ffffffffffffffffffffffffffffffffffffffff1673ffffffffffffffffffffffffffffffffffffffff1681526020019081526020016000206001015403612db5576040517f08c379a0000000000000000000000000000000000000000000000000000000008152600401612dac906147f5565b60405180910390fd5b84600360008281548110612dcc57612dcb61477a565b5b906000526020600020906012020160010160080154421015612e3a576000808381548110612dfd57612dfc61477a565b5b9060005260206000209060120201600e0160006101000a81548160ff02191690836003811115612e3057612e2f614815565b5b0217905550612f91565b60008281548110612e4e57612e4d61477a565b5b906000526020600020906012020160010160090154421015612ebd57600160008381548110612e8057612e7f61477a565b5b9060005260206000209060120201600e0160006101000a81548160ff02191690836003811115612eb357612eb2614815565b5b0217905550612f90565b60008281548110612ed157612ed061477a565b5b9060005260206000209060120201600101600a0154421015612f4057600260008381548110612f0357612f0261477a565b5b9060005260206000209060120201600e0160006101000a81548160ff02191690836003811115612f3657612f35614815565b5b0217905550612f8f565b600360008381548110612f5657612f5561477a565b5b9060005260206000209060120201600e0160006101000a81548160ff02191690836003811115612f8957612f88614815565b5b02179055505b5b5b60008281548110612fa557612fa461477a565b5b9060005260206000209060120201600e0160009054906101000a900460ff166003811115612fd657612fd5614815565b5b816003811115612fe957612fe8614815565b5b14613029576040517f08c379a000000000000000000000000000000000000000000000000000000000815260040161302090614890565b60405180910390fd5b6000878154811061303d5761303c61477a565b5b9060005260206000209060120201600c0160003373ffffffffffffffffffffffffffffffffffffffff1673ffffffffffffffffffffffffffffffffffffffff16815260200190815260200160002060010154600287876040516130a19291906148ef565b602060405180830381855afa1580156130be573d6000803e3d6000fd5b5050506040513d601f19601f820116820180604052508101906130e1919061493e565b14613121576040517f08c379a0000000000000000000000000000000000000000000000000000000008152600401613118906149b7565b60405180910390fd5b60008088815481106131365761313561477a565b5b90600052602060002090601202016011016001816001815401808255809150500390600052602060002090600202019050868682600001919061317a929190613a2a565b50338160010160006101000a81548173ffffffffffffffffffffffffffffffffffffffff021916908373ffffffffffffffffffffffffffffffffffffffff1602179055507fb1183a40c3bfb5582ec9b08605f698b46e5d4084bb316f378e05318927221b9088336040516131ef9291906149e6565b60405180910390a15050505050505050565b60008160e0013580341461324a576040517f08c379a000000000000000000000000000000000000000000000000000000000815260040161324190614b93565b60405180910390fd5b60008360c0013503613291576040517f08c379a000000000000000000000000000000000000000000000000000000000815260040161328890615258565b60405180910390fd5b8260c001358360e0013511806132ab575060008360e00135145b156132eb576040517f08c379a00000000000000000000000000000000000000000000000000000000081526004016132e290615310565b60405180910390fd5b82610120013583610140013511801561330d5750826101000135836101200135115b61334c576040517f08c379a0000000000000000000000000000000000000000000000000000000008152600401613343906153a2565b60405180910390fd5b6000806001816001815401808255809150500390600052602060002090601202019050600160008054905061338191906153c2565b81600001819055508381600101818161339a919061580a565b905050600081600e0160006101000a81548160ff021916908360038111156133c5576133c4614815565b5b02179055507fbdba0fc2c85fe021acfa560c047f0a846648b1b504aa94ab6557cabb04b9425881600001546040516133fd9190613e8d565b60405180910390a1806000015492505050919050565b60008060001b6000848154811061342d5761342c61477a565b5b9060005260206000209060120201600c0160008473ffffffffffffffffffffffffffffffffffffffff1673ffffffffffffffffffffffffffffffffffffffff1681526020019081526020016000206001015414905092915050565b613490613b86565b8160008054905081106134d8576040517f08c379a00000000000000000000000000000000000000000000000000000000081526004016134cf9061475a565b60405180910390fd5b600083815481106134ec576134eb61477a565b5b9060005260206000209060120201600101604051806101600160405290816000820160009054906101000a900473ffffffffffffffffffffffffffffffffffffffff1673ffffffffffffffffffffffffffffffffffffffff1673ffffffffffffffffffffffffffffffffffffffff16815260200160018201805461356f90614a3e565b80601f016020809104026020016040519081016040528092919081815260200182805461359b90614a3e565b80156135e85780601f106135bd576101008083540402835291602001916135e8565b820191906000526020600020905b8154815290600101906020018083116135cb57829003601f168201915b5050505050815260200160028201805461360190614a3e565b80601f016020809104026020016040519081016040528092919081815260200182805461362d90614a3e565b801561367a5780601f1061364f5761010080835404028352916020019161367a565b820191906000526020600020905b81548152906001019060200180831161365d57829003601f168201915b5050505050815260200160038201805461369390614a3e565b80601f01602080910402602001604051908101604052809291908181526020018280546136bf90614a3e565b801561370c5780601f106136e15761010080835404028352916020019161370c565b820191906000526020600020905b8154815290600101906020018083116136ef57829003601f168201915b5050505050815260200160048201805461372590614a3e565b80601f016020809104026020016040519081016040528092919081815260200182805461375190614a3e565b801561379e5780601f106137735761010080835404028352916020019161379e565b820191906000526020600020905b81548152906001019060200180831161378157829003601f168201915b505050505081526020016005820180546137b790614a3e565b80601f01602080910402602001604051908101604052809291908181526020018280546137e390614a3e565b80156138305780601f1061380557610100808354040283529160200191613830565b820191906000526020600020905b81548152906001019060200180831161381357829003601f168201915b5050505050815260200160068201548152602001600782015481526020016008820154815260200160098201548152602001600a82015481525050915050919050565b600082815481106138875761388661477a565b5b9060005260206000209060120201600d018054905081106138a757600080fd5b600082815481106138bb576138ba61477a565b5b9060005260206000209060120201600d016001600084815481106138e2576138e161477a565b5b9060005260206000209060120201600d018054905061390191906153c2565b815481106139125761391161477a565b5b9060005260206000200160009054906101000a900473ffffffffffffffffffffffffffffffffffffffff16600083815481106139515761395061477a565b5b9060005260206000209060120201600d0182815481106139745761397361477a565b5b9060005260206000200160006101000a81548173ffffffffffffffffffffffffffffffffffffffff021916908373ffffffffffffffffffffffffffffffffffffffff160217905550600082815481106139d0576139cf61477a565b5b9060005260206000209060120201600d018054806139f1576139f0615818565b5b6001900381819060005260206000200160006101000a81549073ffffffffffffffffffffffffffffffffffffffff021916905590555050565b828054613a3690614a3e565b90600052602060002090601f016020900481019282613a585760008555613a9f565b82601f10613a7157803560ff1916838001178555613a9f565b82800160010185558215613a9f579182015b82811115613a9e578235825591602001919060010190613a83565b5b509050613aac9190613bf6565b5090565b604051806040016040528060608152602001600073ffffffffffffffffffffffffffffffffffffffff1681525090565b828054613aec90614a3e565b90600052602060002090601f016020900481019282613b0e5760008555613b55565b82601f10613b2757805160ff1916838001178555613b55565b82800160010185558215613b55579182015b82811115613b54578251825591602001919060010190613b39565b5b509050613b629190613bf6565b5090565b604051806040016040528060008152602001613b80613b86565b81525090565b604051806101600160405280600073ffffffffffffffffffffffffffffffffffffffff168152602001606081526020016060815260200160608152602001606081526020016060815260200160008152602001600081526020016000815260200160008152602001600081525090565b5b80821115613c0f576000816000905550600101613bf7565b5090565b600080fd5b600080fd5b6000819050919050565b613c3081613c1d565b8114613c3b57600080fd5b50565b600081359050613c4d81613c27565b92915050565b600080fd5b600080fd5b600080fd5b60008083601f840112613c7857613c77613c53565b5b8235905067ffffffffffffffff811115613c9557613c94613c58565b5b602083019150836001820283011115613cb157613cb0613c5d565b5b9250929050565b600080600060408486031215613cd157613cd0613c13565b5b6000613cdf86828701613c3e565b935050602084013567ffffffffffffffff811115613d0057613cff613c18565b5b613d0c86828701613c62565b92509250509250925092565b600060208284031215613d2e57613d2d613c13565b5b6000613d3c84828501613c3e565b91505092915050565b600081519050919050565b600082825260208201905092915050565b60005b83811015613d7f578082015181840152602081019050613d64565b83811115613d8e576000848401525b50505050565b6000601f19601f8301169050919050565b6000613db082613d45565b613dba8185613d50565b9350613dca818560208601613d61565b613dd381613d94565b840191505092915050565b600073ffffffffffffffffffffffffffffffffffffffff82169050919050565b6000613e0982613dde565b9050919050565b613e1981613dfe565b82525050565b60006040830160008301518482036000860152613e3c8282613da5565b9150506020830151613e516020860182613e10565b508091505092915050565b60006020820190508181036000830152613e768184613e1f565b905092915050565b613e8781613c1d565b82525050565b6000602082019050613ea26000830184613e7e565b92915050565b600080600080600060608688031215613ec457613ec3613c13565b5b6000613ed288828901613c3e565b955050602086013567ffffffffffffffff811115613ef357613ef2613c18565b5b613eff88828901613c62565b9450945050604086013567ffffffffffffffff811115613f2257613f21613c18565b5b613f2e88828901613c62565b92509250509295509295909350565b60048110613f4a57600080fd5b50565b600081359050613f5c81613f3d565b92915050565b600060208284031215613f7857613f77613c13565b5b6000613f8684828501613f4d565b91505092915050565b600081519050919050565b600082825260208201905092915050565b6000819050602082019050919050565b613fc481613c1d565b82525050565b6000613fd582613dde565b9050919050565b613fe581613fca565b82525050565b600081519050919050565b600082825260208201905092915050565b600061401282613feb565b61401c8185613ff6565b935061402c818560208601613d61565b61403581613d94565b840191505092915050565b6000610160830160008301516140596000860182613fdc565b50602083015184820360208601526140718282613da5565b9150506040830151848203604086015261408b8282613da5565b915050606083015184820360608601526140a58282614007565b915050608083015184820360808601526140bf8282614007565b91505060a083015184820360a08601526140d98282614007565b91505060c08301516140ee60c0860182613fbb565b5060e083015161410160e0860182613fbb565b50610100830151614116610100860182613fbb565b5061012083015161412b610120860182613fbb565b50610140830151614140610140860182613fbb565b508091505092915050565b60006040830160008301516141636000860182613fbb565b506020830151848203602086015261417b8282614040565b9150508091505092915050565b6000614194838361414b565b905092915050565b6000602082019050919050565b60006141b482613f8f565b6141be8185613f9a565b9350836020820285016141d085613fab565b8060005b8581101561420c57848403895281516141ed8582614188565b94506141f88361419c565b925060208a019950506001810190506141d4565b50829750879550505050505092915050565b6000602082019050818103600083015261423881846141a9565b905092915050565b600080fd5b60006040828403121561425b5761425a614240565b5b81905092915050565b6000806040838503121561427b5761427a613c13565b5b600061428985828601613c3e565b925050602083013567ffffffffffffffff8111156142aa576142a9613c18565b5b6142b685828601614245565b9150509250929050565b6142c981613dfe565b81146142d457600080fd5b50565b6000813590506142e6816142c0565b92915050565b6000806040838503121561430357614302613c13565b5b600061431185828601613c3e565b9250506020614322858286016142d7565b9150509250929050565b60008115159050919050565b6143418161432c565b82525050565b600060208201905061435c6000830184614338565b92915050565b600081519050919050565b600082825260208201905092915050565b6000819050602082019050919050565b600060408301600083015184820360008601526143ab8282613da5565b91505060208301516143c06020860182613e10565b508091505092915050565b60006143d7838361438e565b905092915050565b6000602082019050919050565b60006143f782614362565b614401818561436d565b9350836020820285016144138561437e565b8060005b8581101561444f578484038952815161443085826143cb565b945061443b836143df565b925060208a01995050600181019050614417565b50829750879550505050505092915050565b6000602082019050818103600083015261447b81846143ec565b905092915050565b600081519050919050565b600082825260208201905092915050565b6000819050602082019050919050565b60006144bb8383613da5565b905092915050565b6000602082019050919050565b60006144db82614483565b6144e5818561448e565b9350836020820285016144f78561449f565b8060005b85811015614533578484038952815161451485826144af565b945061451f836144c3565b925060208a019950506001810190506144fb565b50829750879550505050505092915050565b6000602082019050818103600083015261455f81846144d0565b905092915050565b6000610160828403121561457e5761457d614240565b5b81905092915050565b60006020828403121561459d5761459c613c13565b5b600082013567ffffffffffffffff8111156145bb576145ba613c18565b5b6145c784828501614567565b91505092915050565b6000610160830160008301516145e96000860182613fdc565b50602083015184820360208601526146018282613da5565b9150506040830151848203604086015261461b8282613da5565b915050606083015184820360608601526146358282614007565b9150506080830151848203608086015261464f8282614007565b91505060a083015184820360a08601526146698282614007565b91505060c083015161467e60c0860182613fbb565b5060e083015161469160e0860182613fbb565b506101008301516146a6610100860182613fbb565b506101208301516146bb610120860182613fbb565b506101408301516146d0610140860182613fbb565b508091505092915050565b600060208201905081810360008301526146f581846145d0565b905092915050565b600082825260208201905092915050565b7f41756374696f6e204944206973206e6f742076616c6964210000000000000000600082015250565b60006147446018836146fd565b915061474f8261470e565b602082019050919050565b6000602082019050818103600083015261477381614737565b9050919050565b7f4e487b7100000000000000000000000000000000000000000000000000000000600052603260045260246000fd5b7f53656e64657220686173206e6f7420706c616365642061206269642100000000600082015250565b60006147df601c836146fd565b91506147ea826147a9565b602082019050919050565b6000602082019050818103600083015261480e816147d2565b9050919050565b7f4e487b7100000000000000000000000000000000000000000000000000000000600052602160045260246000fd5b7f496e617070726f707269617465206f7065726174696f6e210000000000000000600082015250565b600061487a6018836146fd565b915061488582614844565b602082019050919050565b600060208201905081810360008301526148a98161486d565b9050919050565b600081905092915050565b82818337600083830152505050565b60006148d683856148b0565b93506148e38385846148bb565b82840190509392505050565b60006148fc8284866148ca565b91508190509392505050565b6000819050919050565b61491b81614908565b811461492657600080fd5b50565b60008151905061493881614912565b92915050565b60006020828403121561495457614953613c13565b5b600061496284828501614929565b91505092915050565b7f4861736820697320696e76616c69642100000000000000000000000000000000600082015250565b60006149a16010836146fd565b91506149ac8261496b565b602082019050919050565b600060208201905081810360008301526149d081614994565b9050919050565b6149e081613dfe565b82525050565b60006040820190506149fb6000830185613e7e565b614a0860208301846149d7565b9392505050565b7f4e487b7100000000000000000000000000000000000000000000000000000000600052602260045260246000fd5b60006002820490506001821680614a5657607f821691505b602082108103614a6957614a68614a0f565b5b50919050565b7f53656e64657220697320746865206f776e657221000000000000000000000000600082015250565b6000614aa56014836146fd565b9150614ab082614a6f565b602082019050919050565b60006020820190508181036000830152614ad481614a98565b9050919050565b7f53656e6465722068617320616c726561647920706c6163656420612062696421600082015250565b6000614b116020836146fd565b9150614b1c82614adb565b602082019050919050565b60006020820190508181036000830152614b4081614b04565b9050919050565b7f53656e742076616c7565206973206e6f74207269676874210000000000000000600082015250565b6000614b7d6018836146fd565b9150614b8882614b47565b602082019050919050565b60006020820190508181036000830152614bac81614b70565b9050919050565b600082905092915050565b600082821b905092915050565b6000614bd78383614bb3565b82614be28135614908565b92506020821015614c2257614c1d7fffffffffffffffffffffffffffffffffffffffffffffffffffffffffffffffff83602003600802614bbe565b831692505b505092915050565b7f4e487b7100000000000000000000000000000000000000000000000000000000600052601160045260246000fd5b6000614c6482613c1d565b91507fffffffffffffffffffffffffffffffffffffffffffffffffffffffffffffffff8203614c9657614c95614c2a565b5b600182019050919050565b7f4e487b7100000000000000000000000000000000000000000000000000000000600052604160045260246000fd5b7f53656e646572206973206e6f7420746865206f776e6572210000000000000000600082015250565b6000614d066018836146fd565b9150614d1182614cd0565b602082019050919050565b60006020820190508181036000830152614d3581614cf9565b9050919050565b7f41756374696f6e2068617320612077696e6e6572210000000000000000000000600082015250565b6000614d726015836146fd565b9150614d7d82614d3c565b602082019050919050565b60006020820190508181036000830152614da181614d65565b9050919050565b600060208284031215614dbe57614dbd613c13565b5b6000614dcc848285016142d7565b91505092915050565b600080fd5b600080fd5b600080fd5b60008083356001602003843603038112614e0157614e00614dd5565b5b80840192508235915067ffffffffffffffff821115614e2357614e22614dda565b5b602083019250600182023603831315614e3f57614e3e614ddf565b5b509250929050565b60008190508160005260206000209050919050565b60006020601f8301049050919050565b600060088302614e9c7fffffffffffffffffffffffffffffffffffffffffffffffffffffffffffffffff82614bbe565b614ea68683614bbe565b95508019841693508086168417925050509392505050565b6000819050919050565b6000614ee3614ede614ed984613c1d565b614ebe565b613c1d565b9050919050565b6000819050919050565b614efd83614ec8565b614f11614f0982614eea565b848454614e6c565b825550505050565b600090565b614f26614f19565b614f31818484614ef4565b505050565b5b81811015614f5557614f4a600082614f1e565b600181019050614f37565b5050565b601f821115614f9a57614f6b81614e47565b614f7484614e5c565b81016020851015614f83578190505b614f97614f8f85614e5c565b830182614f36565b50505b505050565b600082821c905092915050565b6000614fbd60001984600802614f9f565b1980831691505092915050565b6000614fd68383614fac565b9150826002028217905092915050565b614ff08383614bb3565b67ffffffffffffffff81111561500957615008614ca1565b5b6150138254614a3e565b61501e828285614f59565b6000601f83116001811461504d576000841561503b578287013590505b6150458582614fca565b8655506150ad565b601f19841661505b86614e47565b60005b828110156150835784890135825560018201915060208501945060208101905061505e565b868310156150a0578489013561509c601f891682614fac565b8355505b6001600288020188555050505b50505050505050565b6150c1838383614fe6565b505050565b600081356150d3816142c0565b80915050919050565b60008160001b9050919050565b600073ffffffffffffffffffffffffffffffffffffffff615109846150dc565b9350801983169250808416831791505092915050565b600061513a61513561513084613dde565b614ebe565b613dde565b9050919050565b600061514c8261511f565b9050919050565b600061515e82615141565b9050919050565b6000819050919050565b61517882615153565b61518b61518482615165565b83546150e9565b8255505050565b60008101600083016151a48185614de4565b6151af8183866150b6565b505050506001810160208301806151c5816150c6565b90506151d1818461516f565b5050505050565b6151e28282615192565b5050565b7f4d696e696d756d207072696365206d757374206265206120706f73697469766560008201527f206e756d62657200000000000000000000000000000000000000000000000000602082015250565b60006152426027836146fd565b915061524d826151e6565b604082019050919050565b6000602082019050818103600083015261527181615235565b9050919050565b7f5468652072656c6174696f6e202830203c205365637572697479204465706f7360008201527f6974203c204d696e696d756d20507269636529206973206e6f7420736174697360208201527f666965642e000000000000000000000000000000000000000000000000000000604082015250565b60006152fa6045836146fd565b915061530582615278565b606082019050919050565b60006020820190508181036000830152615329816152ed565b9050919050565b7f446174657320617265206e6f7420696e20746865207269676874206f7264657260008201527f2e00000000000000000000000000000000000000000000000000000000000000602082015250565b600061538c6021836146fd565b915061539782615330565b604082019050919050565b600060208201905081810360008301526153bb8161537f565b9050919050565b60006153cd82613c1d565b91506153d883613c1d565b9250828210156153eb576153ea614c2a565b5b828203905092915050565b6153ff81613fca565b811461540a57600080fd5b50565b6000813561541a816153f6565b80915050919050565b600061542e8261511f565b9050919050565b600061544082615423565b9050919050565b6000819050919050565b61545a82615435565b61546d61546682615447565b83546150e9565b8255505050565b6000808335600160200384360303811261549157615490614dd5565b5b80840192508235915067ffffffffffffffff8211156154b3576154b2614dda565b5b6020830192506001820236038313156154cf576154ce614ddf565b5b509250929050565b600082905092915050565b60008190508160005260206000209050919050565b601f82111561553857615509816154e2565b61551284614e5c565b81016020851015615521578190505b61553561552d85614e5c565b830182614f36565b50505b505050565b61554783836154d7565b67ffffffffffffffff8111156155605761555f614ca1565b5b61556a8254614a3e565b6155758282856154f7565b6000601f8311600181146155a45760008415615592578287013590505b61559c8582614fca565b865550615604565b601f1984166155b2866154e2565b60005b828110156155da578489013582556001820191506020850194506020810190506155b5565b868310156155f757848901356155f3601f891682614fac565b8355505b6001600288020188555050505b50505050505050565b61561883838361553d565b505050565b6000813561562a81613c27565b80915050919050565b60007fffffffffffffffffffffffffffffffffffffffffffffffffffffffffffffffff61565f846150dc565b9350801983169250808416831791505092915050565b61567e82614ec8565b61569161568a82614eea565b8354615633565b8255505050565b6000810160008301806156aa8161540d565b90506156b68184615451565b50505060018101602083016156cb8185614de4565b6156d68183866150b6565b5050505060028101604083016156ec8185614de4565b6156f78183866150b6565b50505050600381016060830161570d8185615474565b61571881838661560d565b50505050600481016080830161572e8185615474565b61573981838661560d565b505050506005810160a0830161574f8185615474565b61575a81838661560d565b505050506006810160c08301806157708161561d565b905061577c8184615675565b5050506007810160e08301806157918161561d565b905061579d8184615675565b505050600881016101008301806157b38161561d565b90506157bf8184615675565b505050600981016101208301806157d58161561d565b90506157e18184615675565b505050600a81016101408301806157f78161561d565b90506158038184615675565b5050505050565b6158148282615698565b5050565b7f4e487b7100000000000000000000000000000000000000000000000000000000600052603160045260246000fdfea264697066735822122082c552b0f2e89134f93797ee689a7363e9cde2de69c99e30ee872736977d500164736f6c634300080d0033",
  "immutableReferences": {},
  "source": "// SPDX-License-Identifier: MIT\npragma solidity ^0.8.13;\n\n// NOTE: all currency is wei\n\ncontract SealedBidAuctionManager {\n    struct UserSetAuctionInfo {\n        // administrative\n        address payable owner;\n        bytes params;\n        bytes owner_pkey;\n        // item\n        string itemName;\n        string itemDesc;\n        string itemPicture;\n        // transactional\n        uint256 minimumPrice;\n        uint256 securityDeposit;\n        // dates\n        uint256 biddingEndDate;\n        uint256 revealingEndDate;\n        uint256 sortingEndDate;\n    }\n\n    struct Bid {\n        bool done;\n        // to bid\n        bytes32 c;\n        bytes32 d;\n        // to reveal\n        bytes z;\n    }\n\n    struct AuctionWinner {\n        bytes y;\n        address bidder;\n    }\n\n    struct Auction {\n        uint256 id;\n        UserSetAuctionInfo info;\n        mapping(address => Bid) bids;\n        address[] bidders;\n        AuctionState state;\n        AuctionWinner winner;\n        AuctionWinner[] objections;\n    }\n    struct AuctionInfoAndId {\n        uint256 id;\n        UserSetAuctionInfo info;\n    }\n    enum AuctionState {\n        BiddingPhase,\n        RevealingPhase,\n        SortingPhase,\n        Ended\n    }\n\n    Auction[] private auctions;\n\n    // events for logging and subscription\n\n    event NewAuction(uint256 auctionId);\n    event NewBid(uint256 auctionId, address by);\n    event NewReveal(uint256 auctionId, address by);\n    event BidderRemoved(uint256, address who);\n    event WinnerDecided(uint256 auctionId, address who);\n    event ObjectionPlaced(uint256 auctionId, address by);\n    event AuctionEnds(uint256 auctionId, bool success);\n\n    // modifiers for modularity\n\n    modifier SenderDidNotPlaceABid(uint256 auctionId) {\n        if (auctions[auctionId].bids[msg.sender].c != bytes32(0))\n            revert(\"Sender has already placed a bid!\");\n        _;\n    }\n\n    modifier SenderPlacedABid(uint256 auctionId) {\n        if (auctions[auctionId].bids[msg.sender].c == bytes32(0))\n            revert(\"Sender has not placed a bid!\");\n        _;\n    }\n\n    function didNotPlaceABid(\n        uint256 auctionId,\n        address acc\n    ) external view returns (bool) {\n        return auctions[auctionId].bids[acc].c == bytes32(0);\n    }\n\n    function placedABid(\n        uint256 auctionId,\n        address acc\n    ) external view returns (bool) {\n        return auctions[auctionId].bids[acc].c != bytes32(0);\n    }\n\n    // function getBid(uint256 auctionId) external view returns (uint8 len) {\n    //     return auctions[auctionId].bids[msg.sender].c.length;\n    // }\n\n    modifier SenderIsOwner(uint256 auctionId) {\n        if (msg.sender != auctions[auctionId].info.owner)\n            revert(\"Sender is not the owner!\");\n        _;\n    }\n\n    modifier SenderIsNotOwner(uint256 auctionId) {\n        if (msg.sender == auctions[auctionId].info.owner)\n            revert(\"Sender is the owner!\");\n        _;\n    }\n\n    modifier AuctionIDIsValid(uint256 auctionId) {\n        if (auctionId >= auctions.length) revert(\"Auction ID is not valid!\");\n        _;\n    }\n\n    modifier AuctionHasNoWinner(uint256 auctionId) {\n        if (auctions[auctionId].winner.y.length != 0)\n            revert(\"Auction has a winner!\");\n        _;\n    }\n\n    modifier CheckAuctionState(uint256 auctionId, AuctionState state) {\n        // set it\n        if (block.timestamp < auctions[auctionId].info.biddingEndDate)\n            auctions[auctionId].state = AuctionState.BiddingPhase;\n        else if (block.timestamp < auctions[auctionId].info.revealingEndDate)\n            auctions[auctionId].state = AuctionState.RevealingPhase;\n        else if (block.timestamp < auctions[auctionId].info.sortingEndDate)\n            auctions[auctionId].state = AuctionState.SortingPhase;\n        else auctions[auctionId].state = AuctionState.Ended;\n\n        // check it\n        if (state != auctions[auctionId].state) {\n            revert(\"Inappropriate operation!\");\n        }\n        _;\n    }\n\n    modifier ValueEquals(uint v) {\n        if (msg.value != v) revert(\"Sent value is not right!\");\n        _;\n    }\n\n    // private functions\n\n    function _removeBidder(uint256 auctionId, uint index) internal {\n        require(index < auctions[auctionId].bidders.length);\n\n        auctions[auctionId].bidders[index] = auctions[auctionId].bidders[\n            auctions[auctionId].bidders.length - 1\n        ];\n        auctions[auctionId].bidders.pop();\n    }\n\n    // external functions to be called at any time\n\n    function getNumberOfRegisteredAuctions() external view returns (uint256) {\n        return auctions.length;\n    }\n\n    function createAuction(\n        UserSetAuctionInfo calldata info\n    ) external payable ValueEquals(info.securityDeposit) returns (uint256) {\n        // validation of auction parameters\n        if (info.minimumPrice == 0)\n            revert(\"Minimum price must be a positive number\");\n\n        if (\n            info.securityDeposit > info.minimumPrice ||\n            info.securityDeposit == 0\n        )\n            revert(\n                \"The relation (0 < Security Deposit < Minimum Price) is not satisfied.\"\n            );\n\n        if (\n            !(// info.verificationEndDate > info.sortingEndDate &&\n            info.sortingEndDate > info.revealingEndDate &&\n                info.revealingEndDate > info.biddingEndDate)\n        ) revert(\"Dates are not in the right order.\");\n\n        // valid? add it\n        Auction storage auction = auctions.push();\n\n        auction.id = auctions.length - 1;\n        auction.info = info;\n        auction.state = AuctionState.BiddingPhase;\n\n        emit NewAuction(auction.id);\n        return auction.id;\n    }\n\n    function getAuctionsByState(\n        AuctionState state\n    ) external view returns (AuctionInfoAndId[] memory) {\n        uint256 count = 0;\n        for (uint256 i = 0; i < auctions.length; i++) {\n            if (auctions[i].state == state) {\n                count++;\n            }\n        }\n\n        AuctionInfoAndId[] memory data = new AuctionInfoAndId[](count);\n        uint256 j = 0;\n        for (uint256 i = 0; i < auctions.length; i++) {\n            if (auctions[i].state == state) {\n                data[j].info = auctions[i].info;\n                data[j].id = auctions[i].id;\n                j++;\n            }\n        }\n\n        return data;\n    }\n\n    function getAuctionInfo(\n        uint256 auctionId\n    )\n        external\n        view\n        AuctionIDIsValid(auctionId)\n        returns (UserSetAuctionInfo memory)\n    {\n        return auctions[auctionId].info;\n    }\n\n    // functions to be called throughout the auction process\n\n    function placeBid(\n        uint256 auctionId,\n        bytes calldata c,\n        bytes calldata d\n    )\n        external\n        payable\n        AuctionIDIsValid(auctionId)\n        SenderIsNotOwner(auctionId)\n        SenderDidNotPlaceABid(auctionId)\n        CheckAuctionState(auctionId, AuctionState.BiddingPhase)\n        ValueEquals(auctions[auctionId].info.securityDeposit)\n    {\n        auctions[auctionId].bids[msg.sender] = Bid({\n            done: false,\n            c: bytes32(c),\n            d: bytes32(d),\n            z: bytes(\"\")\n        });\n        auctions[auctionId].bidders[auctions[auctionId].bidders.length] = msg\n            .sender;\n        emit NewBid(auctionId, msg.sender);\n    }\n\n    function revealBid(\n        uint256 auctionId,\n        bytes calldata z\n    )\n        external\n        AuctionIDIsValid(auctionId)\n        SenderPlacedABid(auctionId)\n        CheckAuctionState(auctionId, AuctionState.RevealingPhase)\n    {\n        // verify commitment\n        if (sha256(z) != auctions[auctionId].bids[msg.sender].d)\n            revert(\"Hash is invalid!\");\n\n        auctions[auctionId].bids[msg.sender].z = z;\n        emit NewReveal(auctionId, msg.sender);\n    }\n\n    function getReveals(\n        uint256 auctionId\n    )\n        external\n        AuctionIDIsValid(auctionId)\n        SenderIsOwner(auctionId)\n        CheckAuctionState(auctionId, AuctionState.SortingPhase)\n        returns (bytes[] memory)\n    {\n        uint256 count = 0;\n        for (uint256 i = 0; i < auctions[auctionId].bidders.length; i++) {\n            address bidder = auctions[auctionId].bidders[i];\n            if (auctions[auctionId].bids[bidder].z.length == 0) {\n                // remove them, no refunds\n                _removeBidder(auctionId, i);\n                emit BidderRemoved(auctionId, bidder);\n            } else {\n                count++;\n            }\n        }\n\n        bytes[] memory zs = new bytes[](count);\n        for (uint256 i = 0; i < auctions[auctionId].bidders.length; i++) {\n            zs[i] = auctions[auctionId].bids[auctions[auctionId].bidders[i]].z;\n        }\n\n        return zs;\n    }\n\n    function declareWinner(\n        uint256 auctionId,\n        AuctionWinner calldata winner\n    )\n        external\n        AuctionIDIsValid(auctionId)\n        SenderIsOwner(auctionId)\n        CheckAuctionState(auctionId, AuctionState.SortingPhase)\n        AuctionHasNoWinner(auctionId)\n    {\n        // verify commitment\n        if (sha256(winner.y) != auctions[auctionId].bids[winner.bidder].c)\n            revert(\"Hash is invalid!\");\n\n        auctions[auctionId].winner = winner;\n        emit WinnerDecided(auctionId, winner.bidder);\n    }\n\n    function getWinner(\n        uint256 auctionId\n    ) external view AuctionIDIsValid(auctionId) returns (AuctionWinner memory) {\n        return auctions[auctionId].winner;\n    }\n\n    function returnDeposit(\n        uint256 auctionId\n    )\n        external\n        AuctionIDIsValid(auctionId)\n        SenderPlacedABid(auctionId)\n        CheckAuctionState(auctionId, AuctionState.Ended)\n    {\n        // no re-entrancy attacks!\n        if (\n            auctions[auctionId].bids[msg.sender].done == false &&\n            msg.sender != auctions[auctionId].winner.bidder\n        ) {\n            auctions[auctionId].bids[msg.sender].done = true;\n        }\n        payable(msg.sender).transfer(auctions[auctionId].info.securityDeposit);\n    }\n\n    function objectToTheWinner(\n        uint256 auctionId,\n        bytes calldata y\n    )\n        external\n        AuctionIDIsValid(auctionId)\n        SenderPlacedABid(auctionId)\n        CheckAuctionState(auctionId, AuctionState.Ended)\n    {\n        if (sha256(y) != auctions[auctionId].bids[msg.sender].c)\n            revert(\"Hash is invalid!\");\n\n        AuctionWinner storage objection = auctions[auctionId].objections.push();\n        objection.y = y;\n        objection.bidder = msg.sender;\n        emit ObjectionPlaced(auctionId, msg.sender);\n    }\n\n    function getObjections(\n        uint256 auctionId\n    )\n        external\n        AuctionIDIsValid(auctionId)\n        CheckAuctionState(auctionId, AuctionState.Ended)\n        returns (AuctionWinner[] memory)\n    {\n        return auctions[auctionId].objections;\n    }\n}\n",
  "sourcePath": "/home/amr/fghdh/auction-system-webapp/contracts/contracts/SealedBidAuctionManager.sol",
  "compiler": {
    "name": "solc",
    "version": "0.8.13+commit.abaa5c0e.Emscripten.clang"
  },
  "schemaVersion": "3.4.13",
  "updatedAt": "2023-07-07T11:23:42.083Z",
  "networkType": "ethereum",
  "devdoc": {
    "kind": "dev",
    "methods": {},
    "version": 1
  },
  "userdoc": {
    "kind": "user",
    "methods": {},
    "version": 1
  }
}