{
  "contractName": "SealedBidAuctionManager",
  "abi": [
    {
      "anonymous": false,
      "inputs": [
        {
          "indexed": false,
          "internalType": "uint256",
          "name": "auctionId",
          "type": "uint256"
        },
        {
          "indexed": false,
          "internalType": "bool",
          "name": "success",
          "type": "bool"
        }
      ],
      "name": "AuctionEnds",
      "type": "event"
    },
    {
      "anonymous": false,
      "inputs": [
        {
          "indexed": false,
          "internalType": "uint256",
          "name": "",
          "type": "uint256"
        },
        {
          "indexed": false,
          "internalType": "address",
          "name": "who",
          "type": "address"
        }
      ],
      "name": "BidderRemoved",
      "type": "event"
    },
    {
      "anonymous": false,
      "inputs": [
        {
          "indexed": false,
          "internalType": "uint256",
          "name": "auctionId",
          "type": "uint256"
        }
      ],
      "name": "NewAuction",
      "type": "event"
    },
    {
      "anonymous": false,
      "inputs": [
        {
          "indexed": false,
          "internalType": "uint256",
          "name": "auctionId",
          "type": "uint256"
        },
        {
          "indexed": false,
          "internalType": "address",
          "name": "by",
          "type": "address"
        }
      ],
      "name": "NewBid",
      "type": "event"
    },
    {
      "anonymous": false,
      "inputs": [
        {
          "indexed": false,
          "internalType": "uint256",
          "name": "auctionId",
          "type": "uint256"
        },
        {
          "indexed": false,
          "internalType": "address",
          "name": "by",
          "type": "address"
        }
      ],
      "name": "NewReveal",
      "type": "event"
    },
    {
      "anonymous": false,
      "inputs": [
        {
          "indexed": false,
          "internalType": "uint256",
          "name": "auctionId",
          "type": "uint256"
        }
      ],
      "name": "WinnerDecided",
      "type": "event"
    },
    {
      "inputs": [],
      "name": "getNumberOfRegisteredAuctions",
      "outputs": [
        {
          "internalType": "uint256",
          "name": "",
          "type": "uint256"
        }
      ],
      "stateMutability": "view",
      "type": "function",
      "constant": true
    },
    {
      "inputs": [
        {
          "components": [
            {
              "internalType": "address payable",
              "name": "owner",
              "type": "address"
            },
            {
              "internalType": "bytes",
              "name": "params",
              "type": "bytes"
            },
            {
              "internalType": "bytes",
              "name": "owner_pkey",
              "type": "bytes"
            },
            {
              "internalType": "string",
              "name": "itemName",
              "type": "string"
            },
            {
              "internalType": "string",
              "name": "itemDesc",
              "type": "string"
            },
            {
              "internalType": "string",
              "name": "itemPicture",
              "type": "string"
            },
            {
              "internalType": "uint256",
              "name": "minimumPrice",
              "type": "uint256"
            },
            {
              "internalType": "uint256",
              "name": "securityDeposit",
              "type": "uint256"
            },
            {
              "internalType": "uint256",
              "name": "biddingEndDate",
              "type": "uint256"
            },
            {
              "internalType": "uint256",
              "name": "revealingEndDate",
              "type": "uint256"
            },
            {
              "internalType": "uint256",
              "name": "sortingEndDate",
              "type": "uint256"
            }
          ],
          "internalType": "struct SealedBidAuctionManager.UserSetAuctionInfo",
          "name": "info",
          "type": "tuple"
        }
      ],
      "name": "createAuction",
      "outputs": [
        {
          "internalType": "uint256",
          "name": "",
          "type": "uint256"
        }
      ],
      "stateMutability": "payable",
      "type": "function",
      "payable": true
    },
    {
      "inputs": [
        {
          "internalType": "enum SealedBidAuctionManager.AuctionState",
          "name": "state",
          "type": "uint8"
        }
      ],
      "name": "getAuctionsByState",
      "outputs": [
        {
          "components": [
            {
              "internalType": "uint256",
              "name": "id",
              "type": "uint256"
            },
            {
              "components": [
                {
                  "internalType": "address payable",
                  "name": "owner",
                  "type": "address"
                },
                {
                  "internalType": "bytes",
                  "name": "params",
                  "type": "bytes"
                },
                {
                  "internalType": "bytes",
                  "name": "owner_pkey",
                  "type": "bytes"
                },
                {
                  "internalType": "string",
                  "name": "itemName",
                  "type": "string"
                },
                {
                  "internalType": "string",
                  "name": "itemDesc",
                  "type": "string"
                },
                {
                  "internalType": "string",
                  "name": "itemPicture",
                  "type": "string"
                },
                {
                  "internalType": "uint256",
                  "name": "minimumPrice",
                  "type": "uint256"
                },
                {
                  "internalType": "uint256",
                  "name": "securityDeposit",
                  "type": "uint256"
                },
                {
                  "internalType": "uint256",
                  "name": "biddingEndDate",
                  "type": "uint256"
                },
                {
                  "internalType": "uint256",
                  "name": "revealingEndDate",
                  "type": "uint256"
                },
                {
                  "internalType": "uint256",
                  "name": "sortingEndDate",
                  "type": "uint256"
                }
              ],
              "internalType": "struct SealedBidAuctionManager.UserSetAuctionInfo",
              "name": "info",
              "type": "tuple"
            }
          ],
          "internalType": "struct SealedBidAuctionManager.AuctionByState[]",
          "name": "",
          "type": "tuple[]"
        }
      ],
      "stateMutability": "view",
      "type": "function",
      "constant": true
    },
    {
      "inputs": [
        {
          "internalType": "uint256",
          "name": "auctionId",
          "type": "uint256"
        }
      ],
      "name": "getAuctionInfo",
      "outputs": [
        {
          "components": [
            {
              "internalType": "address payable",
              "name": "owner",
              "type": "address"
            },
            {
              "internalType": "bytes",
              "name": "params",
              "type": "bytes"
            },
            {
              "internalType": "bytes",
              "name": "owner_pkey",
              "type": "bytes"
            },
            {
              "internalType": "string",
              "name": "itemName",
              "type": "string"
            },
            {
              "internalType": "string",
              "name": "itemDesc",
              "type": "string"
            },
            {
              "internalType": "string",
              "name": "itemPicture",
              "type": "string"
            },
            {
              "internalType": "uint256",
              "name": "minimumPrice",
              "type": "uint256"
            },
            {
              "internalType": "uint256",
              "name": "securityDeposit",
              "type": "uint256"
            },
            {
              "internalType": "uint256",
              "name": "biddingEndDate",
              "type": "uint256"
            },
            {
              "internalType": "uint256",
              "name": "revealingEndDate",
              "type": "uint256"
            },
            {
              "internalType": "uint256",
              "name": "sortingEndDate",
              "type": "uint256"
            }
          ],
          "internalType": "struct SealedBidAuctionManager.UserSetAuctionInfo",
          "name": "",
          "type": "tuple"
        }
      ],
      "stateMutability": "view",
      "type": "function",
      "constant": true
    },
    {
      "inputs": [
        {
          "internalType": "uint256",
          "name": "auctionId",
          "type": "uint256"
        },
        {
          "internalType": "bytes",
          "name": "c",
          "type": "bytes"
        },
        {
          "internalType": "bytes",
          "name": "d",
          "type": "bytes"
        }
      ],
      "name": "placeBid",
      "outputs": [],
      "stateMutability": "payable",
      "type": "function",
      "payable": true
    },
    {
      "inputs": [
        {
          "internalType": "uint256",
          "name": "auctionId",
          "type": "uint256"
        },
        {
          "internalType": "bytes",
          "name": "z",
          "type": "bytes"
        }
      ],
      "name": "revealBid",
      "outputs": [],
      "stateMutability": "nonpayable",
      "type": "function"
    },
    {
      "inputs": [
        {
          "internalType": "uint256",
          "name": "auctionId",
          "type": "uint256"
        }
      ],
      "name": "getReveals",
      "outputs": [
        {
          "internalType": "bytes[]",
          "name": "",
          "type": "bytes[]"
        }
      ],
      "stateMutability": "nonpayable",
      "type": "function"
    },
    {
      "inputs": [
        {
          "internalType": "uint256",
          "name": "auctionId",
          "type": "uint256"
        },
        {
          "components": [
            {
              "internalType": "bytes",
              "name": "y",
              "type": "bytes"
            },
            {
              "internalType": "address",
              "name": "bidder",
              "type": "address"
            }
          ],
          "internalType": "struct SealedBidAuctionManager.AuctionWinner",
          "name": "winner",
          "type": "tuple"
        }
      ],
      "name": "declareWinner",
      "outputs": [],
      "stateMutability": "nonpayable",
      "type": "function"
    },
    {
      "inputs": [
        {
          "internalType": "uint256",
          "name": "auctionId",
          "type": "uint256"
        }
      ],
      "name": "getWinner",
      "outputs": [
        {
          "components": [
            {
              "internalType": "bytes",
              "name": "y",
              "type": "bytes"
            },
            {
              "internalType": "address",
              "name": "bidder",
              "type": "address"
            }
          ],
          "internalType": "struct SealedBidAuctionManager.AuctionWinner",
          "name": "",
          "type": "tuple"
        }
      ],
      "stateMutability": "view",
      "type": "function",
      "constant": true
    },
    {
      "inputs": [
        {
          "internalType": "uint256",
          "name": "auctionId",
          "type": "uint256"
        }
      ],
      "name": "returnDeposit",
      "outputs": [],
      "stateMutability": "nonpayable",
      "type": "function"
    }
  ],
  "bytecode": "0x608060405234801561001057600080fd5b50614b04806100206000396000f3fe6080604052600436106100915760003560e01c8063684e38ee11610059578063684e38ee1461016c5780638b10b875146101a957806397d9ee52146101d2578063cea324181461020f578063fc3fc4ed1461023f57610091565b806310e9f5491461009657806318b683fb146100bf5780634129b2c9146100e857806345e481a31461012557806347bf5e2c14610150575b600080fd5b3480156100a257600080fd5b506100bd60048036038101906100b89190613142565b61027c565b005b3480156100cb57600080fd5b506100e660048036038101906100e191906131a2565b610791565b005b3480156100f457600080fd5b5061010f600480360381019061010a91906131a2565b610ceb565b60405161011c91906132e6565b60405180910390f35b34801561013157600080fd5b5061013a610e5b565b6040516101479190613317565b60405180910390f35b61016a60048036038101906101659190613332565b610e67565b005b34801561017857600080fd5b50610193600480360381019061018e91906133ec565b6114dd565b6040516101a091906136a8565b60405180910390f35b3480156101b557600080fd5b506101d060048036038101906101cb91906136ee565b611a62565b005b3480156101de57600080fd5b506101f960048036038101906101f491906131a2565b611f61565b604051610206919061380c565b60405180910390f35b6102296004803603810190610224919061384e565b612666565b6040516102369190613317565b60405180910390f35b34801561024b57600080fd5b50610266600480360381019061026191906131a2565b612912565b60405161027391906139a2565b60405180910390f35b8260008054905081106102c4576040517f08c379a00000000000000000000000000000000000000000000000000000000081526004016102bb90613a21565b60405180910390fd5b8360008082815481106102da576102d9613a41565b5b9060005260206000209060110201600c0160003373ffffffffffffffffffffffffffffffffffffffff1673ffffffffffffffffffffffffffffffffffffffff16815260200190815260200160002050602060ff160361036e576040517f08c379a000000000000000000000000000000000000000000000000000000000815260040161036590613abc565b60405180910390fd5b8460016000828154811061038557610384613a41565b5b9060005260206000209060110201600101600801544210156103f35760008083815481106103b6576103b5613a41565b5b9060005260206000209060110201600e0160006101000a81548160ff021916908360038111156103e9576103e8613adc565b5b021790555061054a565b6000828154811061040757610406613a41565b5b9060005260206000209060110201600101600901544210156104765760016000838154811061043957610438613a41565b5b9060005260206000209060110201600e0160006101000a81548160ff0219169083600381111561046c5761046b613adc565b5b0217905550610549565b6000828154811061048a57610489613a41565b5b9060005260206000209060110201600101600a01544210156104f9576002600083815481106104bc576104bb613a41565b5b9060005260206000209060110201600e0160006101000a81548160ff021916908360038111156104ef576104ee613adc565b5b0217905550610548565b60036000838154811061050f5761050e613a41565b5b9060005260206000209060110201600e0160006101000a81548160ff0219169083600381111561054257610541613adc565b5b02179055505b5b5b6000828154811061055e5761055d613a41565b5b9060005260206000209060110201600e0160009054906101000a900460ff16600381111561058f5761058e613adc565b5b8160038111156105a2576105a1613adc565b5b146105e2576040517f08c379a00000000000000000000000000000000000000000000000000000000081526004016105d990613b57565b60405180910390fd5b600087815481106105f6576105f5613a41565b5b9060005260206000209060110201600c0160003373ffffffffffffffffffffffffffffffffffffffff1673ffffffffffffffffffffffffffffffffffffffff168152602001908152602001600020600201546002878760405161065a929190613bb6565b602060405180830381855afa158015610677573d6000803e3d6000fd5b5050506040513d601f19601f8201168201806040525081019061069a9190613c05565b146106da576040517f08c379a00000000000000000000000000000000000000000000000000000000081526004016106d190613c7e565b60405180910390fd5b8585600089815481106106f0576106ef613a41565b5b9060005260206000209060110201600c0160003373ffffffffffffffffffffffffffffffffffffffff1673ffffffffffffffffffffffffffffffffffffffff168152602001908152602001600020600301919061074e929190612eb4565b507fda9ad1af3b211e24edbe9ac3a27ce5cde27c6f44ae790099959efa1472c6be3e8733604051610780929190613cad565b60405180910390a150505050505050565b8060008054905081106107d9576040517f08c379a00000000000000000000000000000000000000000000000000000000081526004016107d090613a21565b60405180910390fd5b8160008082815481106107ef576107ee613a41565b5b9060005260206000209060110201600c0160003373ffffffffffffffffffffffffffffffffffffffff1673ffffffffffffffffffffffffffffffffffffffff16815260200190815260200160002050602060ff1603610883576040517f08c379a000000000000000000000000000000000000000000000000000000000815260040161087a90613abc565b60405180910390fd5b8260036000828154811061089a57610899613a41565b5b9060005260206000209060110201600101600801544210156109085760008083815481106108cb576108ca613a41565b5b9060005260206000209060110201600e0160006101000a81548160ff021916908360038111156108fe576108fd613adc565b5b0217905550610a5f565b6000828154811061091c5761091b613a41565b5b90600052602060002090601102016001016009015442101561098b5760016000838154811061094e5761094d613a41565b5b9060005260206000209060110201600e0160006101000a81548160ff0219169083600381111561098157610980613adc565b5b0217905550610a5e565b6000828154811061099f5761099e613a41565b5b9060005260206000209060110201600101600a0154421015610a0e576002600083815481106109d1576109d0613a41565b5b9060005260206000209060110201600e0160006101000a81548160ff02191690836003811115610a0457610a03613adc565b5b0217905550610a5d565b600360008381548110610a2457610a23613a41565b5b9060005260206000209060110201600e0160006101000a81548160ff02191690836003811115610a5757610a56613adc565b5b02179055505b5b5b60008281548110610a7357610a72613a41565b5b9060005260206000209060110201600e0160009054906101000a900460ff166003811115610aa457610aa3613adc565b5b816003811115610ab757610ab6613adc565b5b14610af7576040517f08c379a0000000000000000000000000000000000000000000000000000000008152600401610aee90613b57565b60405180910390fd5b6000151560008681548110610b0f57610b0e613a41565b5b9060005260206000209060110201600c0160003373ffffffffffffffffffffffffffffffffffffffff1673ffffffffffffffffffffffffffffffffffffffff16815260200190815260200160002060000160009054906101000a900460ff161515148015610bf1575060008581548110610b8c57610b8b613a41565b5b9060005260206000209060110201600f0160010160009054906101000a900473ffffffffffffffffffffffffffffffffffffffff1673ffffffffffffffffffffffffffffffffffffffff163373ffffffffffffffffffffffffffffffffffffffff1614155b15610c7557600160008681548110610c0c57610c0b613a41565b5b9060005260206000209060110201600c0160003373ffffffffffffffffffffffffffffffffffffffff1673ffffffffffffffffffffffffffffffffffffffff16815260200190815260200160002060000160006101000a81548160ff0219169083151502179055505b3373ffffffffffffffffffffffffffffffffffffffff166108fc60008781548110610ca357610ca2613a41565b5b9060005260206000209060110201600101600701549081150290604051600060405180830381858888f19350505050158015610ce3573d6000803e3d6000fd5b505050505050565b610cf3612f3a565b816000805490508110610d3b576040517f08c379a0000000000000000000000000000000000000000000000000000000008152600401610d3290613a21565b60405180910390fd5b60008381548110610d4f57610d4e613a41565b5b9060005260206000209060110201600f01604051806040016040529081600082018054610d7b90613d05565b80601f0160208091040260200160405190810160405280929190818152602001828054610da790613d05565b8015610df45780601f10610dc957610100808354040283529160200191610df4565b820191906000526020600020905b815481529060010190602001808311610dd757829003601f168201915b505050505081526020016001820160009054906101000a900473ffffffffffffffffffffffffffffffffffffffff1673ffffffffffffffffffffffffffffffffffffffff1673ffffffffffffffffffffffffffffffffffffffff1681525050915050919050565b60008080549050905090565b846000805490508110610eaf576040517f08c379a0000000000000000000000000000000000000000000000000000000008152600401610ea690613a21565b60405180910390fd5b8560008181548110610ec457610ec3613a41565b5b906000526020600020906011020160010160000160009054906101000a900473ffffffffffffffffffffffffffffffffffffffff1673ffffffffffffffffffffffffffffffffffffffff163373ffffffffffffffffffffffffffffffffffffffff1614610f66576040517f08c379a0000000000000000000000000000000000000000000000000000000008152600401610f5d90613d82565b60405180910390fd5b866000808281548110610f7c57610f7b613a41565b5b9060005260206000209060110201600c0160003373ffffffffffffffffffffffffffffffffffffffff1673ffffffffffffffffffffffffffffffffffffffff16815260200190815260200160002050602060ff1614611010576040517f08c379a000000000000000000000000000000000000000000000000000000000815260040161100790613dee565b60405180910390fd5b87600080828154811061102657611025613a41565b5b90600052602060002090601102016001016008015442101561109457600080838154811061105757611056613a41565b5b9060005260206000209060110201600e0160006101000a81548160ff0219169083600381111561108a57611089613adc565b5b02179055506111eb565b600082815481106110a8576110a7613a41565b5b906000526020600020906011020160010160090154421015611117576001600083815481106110da576110d9613a41565b5b9060005260206000209060110201600e0160006101000a81548160ff0219169083600381111561110d5761110c613adc565b5b02179055506111ea565b6000828154811061112b5761112a613a41565b5b9060005260206000209060110201600101600a015442101561119a5760026000838154811061115d5761115c613a41565b5b9060005260206000209060110201600e0160006101000a81548160ff021916908360038111156111905761118f613adc565b5b02179055506111e9565b6003600083815481106111b0576111af613a41565b5b9060005260206000209060110201600e0160006101000a81548160ff021916908360038111156111e3576111e2613adc565b5b02179055505b5b5b600082815481106111ff576111fe613a41565b5b9060005260206000209060110201600e0160009054906101000a900460ff1660038111156112305761122f613adc565b5b81600381111561124357611242613adc565b5b14611283576040517f08c379a000000000000000000000000000000000000000000000000000000000815260040161127a90613b57565b60405180910390fd5b60008a8154811061129757611296613a41565b5b9060005260206000209060110201600101600701548034146112ee576040517f08c379a00000000000000000000000000000000000000000000000000000000081526004016112e590613e5a565b60405180910390fd5b60405180608001604052806000151581526020018b8b9061130f9190613e92565b81526020018989906113219190613e92565b81526020016040518060200160405280600081525081525060008c8154811061134d5761134c613a41565b5b9060005260206000209060110201600c0160003373ffffffffffffffffffffffffffffffffffffffff1673ffffffffffffffffffffffffffffffffffffffff16815260200190815260200160002060008201518160000160006101000a81548160ff021916908315150217905550602082015181600101556040820151816002015560608201518160030190805190602001906113eb929190612f6a565b509050503360008c8154811061140457611403613a41565b5b9060005260206000209060110201600d0160008d8154811061142957611428613a41565b5b9060005260206000209060110201600d01805490508154811061144f5761144e613a41565b5b9060005260206000200160006101000a81548173ffffffffffffffffffffffffffffffffffffffff021916908373ffffffffffffffffffffffffffffffffffffffff1602179055507f45401769c1d58f70bd6b63e1a66bfc17d712ce0dc4ffb8d2dd0ad7177d56a3868b336040516114c8929190613cad565b60405180910390a15050505050505050505050565b60606000805b60008054905081101561156f5783600381111561150357611502613adc565b5b6000828154811061151757611516613a41565b5b9060005260206000209060110201600e0160009054906101000a900460ff16600381111561154857611547613adc565b5b0361155c57818061155890613f20565b9250505b808061156790613f20565b9150506114e3565b5060008167ffffffffffffffff81111561158c5761158b613f68565b5b6040519080825280602002602001820160405280156115c557816020015b6115b2612ff0565b8152602001906001900390816115aa5790505b5090506000805b600080549050811015611a56578560038111156115ec576115eb613adc565b5b60008281548110611600576115ff613a41565b5b9060005260206000209060110201600e0160009054906101000a900460ff16600381111561163157611630613adc565b5b03611a43576000818154811061164a57611649613a41565b5b9060005260206000209060110201600101604051806101600160405290816000820160009054906101000a900473ffffffffffffffffffffffffffffffffffffffff1673ffffffffffffffffffffffffffffffffffffffff1673ffffffffffffffffffffffffffffffffffffffff1681526020016001820180546116cd90613d05565b80601f01602080910402602001604051908101604052809291908181526020018280546116f990613d05565b80156117465780601f1061171b57610100808354040283529160200191611746565b820191906000526020600020905b81548152906001019060200180831161172957829003601f168201915b5050505050815260200160028201805461175f90613d05565b80601f016020809104026020016040519081016040528092919081815260200182805461178b90613d05565b80156117d85780601f106117ad576101008083540402835291602001916117d8565b820191906000526020600020905b8154815290600101906020018083116117bb57829003601f168201915b505050505081526020016003820180546117f190613d05565b80601f016020809104026020016040519081016040528092919081815260200182805461181d90613d05565b801561186a5780601f1061183f5761010080835404028352916020019161186a565b820191906000526020600020905b81548152906001019060200180831161184d57829003601f168201915b5050505050815260200160048201805461188390613d05565b80601f01602080910402602001604051908101604052809291908181526020018280546118af90613d05565b80156118fc5780601f106118d1576101008083540402835291602001916118fc565b820191906000526020600020905b8154815290600101906020018083116118df57829003601f168201915b5050505050815260200160058201805461191590613d05565b80601f016020809104026020016040519081016040528092919081815260200182805461194190613d05565b801561198e5780601f106119635761010080835404028352916020019161198e565b820191906000526020600020905b81548152906001019060200180831161197157829003601f168201915b5050505050815260200160068201548152602001600782015481526020016008820154815260200160098201548152602001600a820154815250508383815181106119dc576119db613a41565b5b602002602001015160200181905250600081815481106119ff576119fe613a41565b5b906000526020600020906011020160000154838381518110611a2457611a23613a41565b5b602002602001015160000181815250508180611a3f90613f20565b9250505b8080611a4e90613f20565b9150506115cc565b50819350505050919050565b816000805490508110611aaa576040517f08c379a0000000000000000000000000000000000000000000000000000000008152600401611aa190613a21565b60405180910390fd5b8260008181548110611abf57611abe613a41565b5b906000526020600020906011020160010160000160009054906101000a900473ffffffffffffffffffffffffffffffffffffffff1673ffffffffffffffffffffffffffffffffffffffff163373ffffffffffffffffffffffffffffffffffffffff1614611b61576040517f08c379a0000000000000000000000000000000000000000000000000000000008152600401611b5890613fe3565b60405180910390fd5b83600260008281548110611b7857611b77613a41565b5b906000526020600020906011020160010160080154421015611be6576000808381548110611ba957611ba8613a41565b5b9060005260206000209060110201600e0160006101000a81548160ff02191690836003811115611bdc57611bdb613adc565b5b0217905550611d3d565b60008281548110611bfa57611bf9613a41565b5b906000526020600020906011020160010160090154421015611c6957600160008381548110611c2c57611c2b613a41565b5b9060005260206000209060110201600e0160006101000a81548160ff02191690836003811115611c5f57611c5e613adc565b5b0217905550611d3c565b60008281548110611c7d57611c7c613a41565b5b9060005260206000209060110201600101600a0154421015611cec57600260008381548110611caf57611cae613a41565b5b9060005260206000209060110201600e0160006101000a81548160ff02191690836003811115611ce257611ce1613adc565b5b0217905550611d3b565b600360008381548110611d0257611d01613a41565b5b9060005260206000209060110201600e0160006101000a81548160ff02191690836003811115611d3557611d34613adc565b5b02179055505b5b5b60008281548110611d5157611d50613a41565b5b9060005260206000209060110201600e0160009054906101000a900460ff166003811115611d8257611d81613adc565b5b816003811115611d9557611d94613adc565b5b14611dd5576040517f08c379a0000000000000000000000000000000000000000000000000000000008152600401611dcc90613b57565b60405180910390fd5b60008681548110611de957611de8613a41565b5b9060005260206000209060110201600c016000866020016020810190611e0f919061402f565b73ffffffffffffffffffffffffffffffffffffffff1673ffffffffffffffffffffffffffffffffffffffff168152602001908152602001600020600101546002868060000190611e5f919061406b565b604051611e6d929190613bb6565b602060405180830381855afa158015611e8a573d6000803e3d6000fd5b5050506040513d601f19601f82011682018060405250810190611ead9190613c05565b14611eed576040517f08c379a0000000000000000000000000000000000000000000000000000000008152600401611ee490613c7e565b60405180910390fd5b8460008781548110611f0257611f01613a41565b5b9060005260206000209060110201600f018181611f1f919061445f565b9050507f0dfe3c139eda10ac8ad090855d58512ef7e6d48784a57307084c1903ff26f4f986604051611f519190613317565b60405180910390a1505050505050565b6060816000805490508110611fab576040517f08c379a0000000000000000000000000000000000000000000000000000000008152600401611fa290613a21565b60405180910390fd5b8260008181548110611fc057611fbf613a41565b5b906000526020600020906011020160010160000160009054906101000a900473ffffffffffffffffffffffffffffffffffffffff1673ffffffffffffffffffffffffffffffffffffffff163373ffffffffffffffffffffffffffffffffffffffff1614612062576040517f08c379a000000000000000000000000000000000000000000000000000000000815260040161205990613fe3565b60405180910390fd5b8360026000828154811061207957612078613a41565b5b9060005260206000209060110201600101600801544210156120e75760008083815481106120aa576120a9613a41565b5b9060005260206000209060110201600e0160006101000a81548160ff021916908360038111156120dd576120dc613adc565b5b021790555061223e565b600082815481106120fb576120fa613a41565b5b90600052602060002090601102016001016009015442101561216a5760016000838154811061212d5761212c613a41565b5b9060005260206000209060110201600e0160006101000a81548160ff021916908360038111156121605761215f613adc565b5b021790555061223d565b6000828154811061217e5761217d613a41565b5b9060005260206000209060110201600101600a01544210156121ed576002600083815481106121b0576121af613a41565b5b9060005260206000209060110201600e0160006101000a81548160ff021916908360038111156121e3576121e2613adc565b5b021790555061223c565b60036000838154811061220357612202613a41565b5b9060005260206000209060110201600e0160006101000a81548160ff0219169083600381111561223657612235613adc565b5b02179055505b5b5b6000828154811061225257612251613a41565b5b9060005260206000209060110201600e0160009054906101000a900460ff16600381111561228357612282613adc565b5b81600381111561229657612295613adc565b5b146122d6576040517f08c379a00000000000000000000000000000000000000000000000000000000081526004016122cd90613b57565b60405180910390fd5b6000805b600088815481106122ee576122ed613a41565b5b9060005260206000209060110201600d018054905081101561245257600080898154811061231f5761231e613a41565b5b9060005260206000209060110201600d01828154811061234257612341613a41565b5b9060005260206000200160009054906101000a900473ffffffffffffffffffffffffffffffffffffffff1690506000808a8154811061238457612383613a41565b5b9060005260206000209060110201600c0160008373ffffffffffffffffffffffffffffffffffffffff1673ffffffffffffffffffffffffffffffffffffffff16815260200190815260200160002060030180546123e090613d05565b90500361242f576123f18983612cfd565b7f4ddf4c0e94fa7c3fcf8474005bf8b72858bbc3afbeecaee663000ca4eeb2b9bd8982604051612422929190613cad565b60405180910390a161243e565b828061243a90613f20565b9350505b50808061244a90613f20565b9150506122da565b5060008167ffffffffffffffff81111561246f5761246e613f68565b5b6040519080825280602002602001820160405280156124a257816020015b606081526020019060019003908161248d5790505b50905060005b600089815481106124bc576124bb613a41565b5b9060005260206000209060110201600d018054905081101561265757600089815481106124ec576124eb613a41565b5b9060005260206000209060110201600c016000808b8154811061251257612511613a41565b5b9060005260206000209060110201600d01838154811061253557612534613a41565b5b9060005260206000200160009054906101000a900473ffffffffffffffffffffffffffffffffffffffff1673ffffffffffffffffffffffffffffffffffffffff1673ffffffffffffffffffffffffffffffffffffffff16815260200190815260200160002060030180546125a890613d05565b80601f01602080910402602001604051908101604052809291908181526020018280546125d490613d05565b80156126215780601f106125f657610100808354040283529160200191612621565b820191906000526020600020905b81548152906001019060200180831161260457829003601f168201915b505050505082828151811061263957612638613a41565b5b6020026020010181905250808061264f90613f20565b9150506124a8565b50809650505050505050919050565b60008160e001358034146126af576040517f08c379a00000000000000000000000000000000000000000000000000000000081526004016126a690613e5a565b60405180910390fd5b60008360c00135036126f6576040517f08c379a00000000000000000000000000000000000000000000000000000000081526004016126ed906144df565b60405180910390fd5b8260c001358360e001351180612710575060008360e00135145b15612750576040517f08c379a000000000000000000000000000000000000000000000000000000000815260040161274790614597565b60405180910390fd5b8261012001358361014001351180156127725750826101000135836101200135115b6127b1576040517f08c379a00000000000000000000000000000000000000000000000000000000081526004016127a890614629565b60405180910390fd5b60008060018160018154018082558091505003906000526020600020906011020190506000805490508160000181905550838160010181816127f39190614a5d565b905050600081600e0160006101000a81548160ff0219169083600381111561281e5761281d613adc565b5b02179055506040518060400160405280604051806020016040528060008152508152602001600073ffffffffffffffffffffffffffffffffffffffff1681525081600f01600082015181600001908051906020019061287e929190612f6a565b5060208201518160010160006101000a81548173ffffffffffffffffffffffffffffffffffffffff021916908373ffffffffffffffffffffffffffffffffffffffff1602179055509050507fbdba0fc2c85fe021acfa560c047f0a846648b1b504aa94ab6557cabb04b9425881600001546040516128fc9190613317565b60405180910390a1806000015492505050919050565b61291a613010565b816000805490508110612962576040517f08c379a000000000000000000000000000000000000000000000000000000000815260040161295990613a21565b60405180910390fd5b6000838154811061297657612975613a41565b5b9060005260206000209060110201600101604051806101600160405290816000820160009054906101000a900473ffffffffffffffffffffffffffffffffffffffff1673ffffffffffffffffffffffffffffffffffffffff1673ffffffffffffffffffffffffffffffffffffffff1681526020016001820180546129f990613d05565b80601f0160208091040260200160405190810160405280929190818152602001828054612a2590613d05565b8015612a725780601f10612a4757610100808354040283529160200191612a72565b820191906000526020600020905b815481529060010190602001808311612a5557829003601f168201915b50505050508152602001600282018054612a8b90613d05565b80601f0160208091040260200160405190810160405280929190818152602001828054612ab790613d05565b8015612b045780601f10612ad957610100808354040283529160200191612b04565b820191906000526020600020905b815481529060010190602001808311612ae757829003601f168201915b50505050508152602001600382018054612b1d90613d05565b80601f0160208091040260200160405190810160405280929190818152602001828054612b4990613d05565b8015612b965780601f10612b6b57610100808354040283529160200191612b96565b820191906000526020600020905b815481529060010190602001808311612b7957829003601f168201915b50505050508152602001600482018054612baf90613d05565b80601f0160208091040260200160405190810160405280929190818152602001828054612bdb90613d05565b8015612c285780601f10612bfd57610100808354040283529160200191612c28565b820191906000526020600020905b815481529060010190602001808311612c0b57829003601f168201915b50505050508152602001600582018054612c4190613d05565b80601f0160208091040260200160405190810160405280929190818152602001828054612c6d90613d05565b8015612cba5780601f10612c8f57610100808354040283529160200191612cba565b820191906000526020600020905b815481529060010190602001808311612c9d57829003601f168201915b5050505050815260200160068201548152602001600782015481526020016008820154815260200160098201548152602001600a82015481525050915050919050565b60008281548110612d1157612d10613a41565b5b9060005260206000209060110201600d01805490508110612d3157600080fd5b60008281548110612d4557612d44613a41565b5b9060005260206000209060110201600d01600160008481548110612d6c57612d6b613a41565b5b9060005260206000209060110201600d0180549050612d8b9190614a6b565b81548110612d9c57612d9b613a41565b5b9060005260206000200160009054906101000a900473ffffffffffffffffffffffffffffffffffffffff1660008381548110612ddb57612dda613a41565b5b9060005260206000209060110201600d018281548110612dfe57612dfd613a41565b5b9060005260206000200160006101000a81548173ffffffffffffffffffffffffffffffffffffffff021916908373ffffffffffffffffffffffffffffffffffffffff16021790555060008281548110612e5a57612e59613a41565b5b9060005260206000209060110201600d01805480612e7b57612e7a614a9f565b5b6001900381819060005260206000200160006101000a81549073ffffffffffffffffffffffffffffffffffffffff021916905590555050565b828054612ec090613d05565b90600052602060002090601f016020900481019282612ee25760008555612f29565b82601f10612efb57803560ff1916838001178555612f29565b82800160010185558215612f29579182015b82811115612f28578235825591602001919060010190612f0d565b5b509050612f369190613080565b5090565b604051806040016040528060608152602001600073ffffffffffffffffffffffffffffffffffffffff1681525090565b828054612f7690613d05565b90600052602060002090601f016020900481019282612f985760008555612fdf565b82601f10612fb157805160ff1916838001178555612fdf565b82800160010185558215612fdf579182015b82811115612fde578251825591602001919060010190612fc3565b5b509050612fec9190613080565b5090565b60405180604001604052806000815260200161300a613010565b81525090565b604051806101600160405280600073ffffffffffffffffffffffffffffffffffffffff168152602001606081526020016060815260200160608152602001606081526020016060815260200160008152602001600081526020016000815260200160008152602001600081525090565b5b80821115613099576000816000905550600101613081565b5090565b600080fd5b600080fd5b6000819050919050565b6130ba816130a7565b81146130c557600080fd5b50565b6000813590506130d7816130b1565b92915050565b600080fd5b600080fd5b600080fd5b60008083601f840112613102576131016130dd565b5b8235905067ffffffffffffffff81111561311f5761311e6130e2565b5b60208301915083600182028301111561313b5761313a6130e7565b5b9250929050565b60008060006040848603121561315b5761315a61309d565b5b6000613169868287016130c8565b935050602084013567ffffffffffffffff81111561318a576131896130a2565b5b613196868287016130ec565b92509250509250925092565b6000602082840312156131b8576131b761309d565b5b60006131c6848285016130c8565b91505092915050565b600081519050919050565b600082825260208201905092915050565b60005b838110156132095780820151818401526020810190506131ee565b83811115613218576000848401525b50505050565b6000601f19601f8301169050919050565b600061323a826131cf565b61324481856131da565b93506132548185602086016131eb565b61325d8161321e565b840191505092915050565b600073ffffffffffffffffffffffffffffffffffffffff82169050919050565b600061329382613268565b9050919050565b6132a381613288565b82525050565b600060408301600083015184820360008601526132c6828261322f565b91505060208301516132db602086018261329a565b508091505092915050565b6000602082019050818103600083015261330081846132a9565b905092915050565b613311816130a7565b82525050565b600060208201905061332c6000830184613308565b92915050565b60008060008060006060868803121561334e5761334d61309d565b5b600061335c888289016130c8565b955050602086013567ffffffffffffffff81111561337d5761337c6130a2565b5b613389888289016130ec565b9450945050604086013567ffffffffffffffff8111156133ac576133ab6130a2565b5b6133b8888289016130ec565b92509250509295509295909350565b600481106133d457600080fd5b50565b6000813590506133e6816133c7565b92915050565b6000602082840312156134025761340161309d565b5b6000613410848285016133d7565b91505092915050565b600081519050919050565b600082825260208201905092915050565b6000819050602082019050919050565b61344e816130a7565b82525050565b600061345f82613268565b9050919050565b61346f81613454565b82525050565b600081519050919050565b600082825260208201905092915050565b600061349c82613475565b6134a68185613480565b93506134b68185602086016131eb565b6134bf8161321e565b840191505092915050565b6000610160830160008301516134e36000860182613466565b50602083015184820360208601526134fb828261322f565b91505060408301518482036040860152613515828261322f565b9150506060830151848203606086015261352f8282613491565b915050608083015184820360808601526135498282613491565b91505060a083015184820360a08601526135638282613491565b91505060c083015161357860c0860182613445565b5060e083015161358b60e0860182613445565b506101008301516135a0610100860182613445565b506101208301516135b5610120860182613445565b506101408301516135ca610140860182613445565b508091505092915050565b60006040830160008301516135ed6000860182613445565b506020830151848203602086015261360582826134ca565b9150508091505092915050565b600061361e83836135d5565b905092915050565b6000602082019050919050565b600061363e82613419565b6136488185613424565b93508360208202850161365a85613435565b8060005b8581101561369657848403895281516136778582613612565b945061368283613626565b925060208a0199505060018101905061365e565b50829750879550505050505092915050565b600060208201905081810360008301526136c28184613633565b905092915050565b600080fd5b6000604082840312156136e5576136e46136ca565b5b81905092915050565b600080604083850312156137055761370461309d565b5b6000613713858286016130c8565b925050602083013567ffffffffffffffff811115613734576137336130a2565b5b613740858286016136cf565b9150509250929050565b600081519050919050565b600082825260208201905092915050565b6000819050602082019050919050565b6000613782838361322f565b905092915050565b6000602082019050919050565b60006137a28261374a565b6137ac8185613755565b9350836020820285016137be85613766565b8060005b858110156137fa57848403895281516137db8582613776565b94506137e68361378a565b925060208a019950506001810190506137c2565b50829750879550505050505092915050565b600060208201905081810360008301526138268184613797565b905092915050565b60006101608284031215613845576138446136ca565b5b81905092915050565b6000602082840312156138645761386361309d565b5b600082013567ffffffffffffffff811115613882576138816130a2565b5b61388e8482850161382e565b91505092915050565b6000610160830160008301516138b06000860182613466565b50602083015184820360208601526138c8828261322f565b915050604083015184820360408601526138e2828261322f565b915050606083015184820360608601526138fc8282613491565b915050608083015184820360808601526139168282613491565b91505060a083015184820360a08601526139308282613491565b91505060c083015161394560c0860182613445565b5060e083015161395860e0860182613445565b5061010083015161396d610100860182613445565b50610120830151613982610120860182613445565b50610140830151613997610140860182613445565b508091505092915050565b600060208201905081810360008301526139bc8184613897565b905092915050565b600082825260208201905092915050565b7f41756374696f6e204944206973206e6f742076616c6964210000000000000000600082015250565b6000613a0b6018836139c4565b9150613a16826139d5565b602082019050919050565b60006020820190508181036000830152613a3a816139fe565b9050919050565b7f4e487b7100000000000000000000000000000000000000000000000000000000600052603260045260246000fd5b7f53656e64657220686173206e6f7420706c616365642061206269642100000000600082015250565b6000613aa6601c836139c4565b9150613ab182613a70565b602082019050919050565b60006020820190508181036000830152613ad581613a99565b9050919050565b7f4e487b7100000000000000000000000000000000000000000000000000000000600052602160045260246000fd5b7f496e617070726f707269617465206f7065726174696f6e210000000000000000600082015250565b6000613b416018836139c4565b9150613b4c82613b0b565b602082019050919050565b60006020820190508181036000830152613b7081613b34565b9050919050565b600081905092915050565b82818337600083830152505050565b6000613b9d8385613b77565b9350613baa838584613b82565b82840190509392505050565b6000613bc3828486613b91565b91508190509392505050565b6000819050919050565b613be281613bcf565b8114613bed57600080fd5b50565b600081519050613bff81613bd9565b92915050565b600060208284031215613c1b57613c1a61309d565b5b6000613c2984828501613bf0565b91505092915050565b7f4861736820697320696e76616c69642100000000000000000000000000000000600082015250565b6000613c686010836139c4565b9150613c7382613c32565b602082019050919050565b60006020820190508181036000830152613c9781613c5b565b9050919050565b613ca781613288565b82525050565b6000604082019050613cc26000830185613308565b613ccf6020830184613c9e565b9392505050565b7f4e487b7100000000000000000000000000000000000000000000000000000000600052602260045260246000fd5b60006002820490506001821680613d1d57607f821691505b602082108103613d3057613d2f613cd6565b5b50919050565b7f53656e64657220697320746865206f776e657221000000000000000000000000600082015250565b6000613d6c6014836139c4565b9150613d7782613d36565b602082019050919050565b60006020820190508181036000830152613d9b81613d5f565b9050919050565b7f53656e6465722068617320616c726561647920706c6163656420612062696421600082015250565b6000613dd86020836139c4565b9150613de382613da2565b602082019050919050565b60006020820190508181036000830152613e0781613dcb565b9050919050565b7f53656e742076616c7565206973206e6f74207269676874210000000000000000600082015250565b6000613e446018836139c4565b9150613e4f82613e0e565b602082019050919050565b60006020820190508181036000830152613e7381613e37565b9050919050565b600082905092915050565b600082821b905092915050565b6000613e9e8383613e7a565b82613ea98135613bcf565b92506020821015613ee957613ee47fffffffffffffffffffffffffffffffffffffffffffffffffffffffffffffffff83602003600802613e85565b831692505b505092915050565b7f4e487b7100000000000000000000000000000000000000000000000000000000600052601160045260246000fd5b6000613f2b826130a7565b91507fffffffffffffffffffffffffffffffffffffffffffffffffffffffffffffffff8203613f5d57613f5c613ef1565b5b600182019050919050565b7f4e487b7100000000000000000000000000000000000000000000000000000000600052604160045260246000fd5b7f53656e646572206973206e6f7420746865206f776e6572210000000000000000600082015250565b6000613fcd6018836139c4565b9150613fd882613f97565b602082019050919050565b60006020820190508181036000830152613ffc81613fc0565b9050919050565b61400c81613288565b811461401757600080fd5b50565b60008135905061402981614003565b92915050565b6000602082840312156140455761404461309d565b5b60006140538482850161401a565b91505092915050565b600080fd5b600080fd5b600080fd5b600080833560016020038436030381126140885761408761405c565b5b80840192508235915067ffffffffffffffff8211156140aa576140a9614061565b5b6020830192506001820236038313156140c6576140c5614066565b5b509250929050565b60008190508160005260206000209050919050565b60006020601f8301049050919050565b6000600883026141237fffffffffffffffffffffffffffffffffffffffffffffffffffffffffffffffff82613e85565b61412d8683613e85565b95508019841693508086168417925050509392505050565b6000819050919050565b600061416a614165614160846130a7565b614145565b6130a7565b9050919050565b6000819050919050565b6141848361414f565b61419861419082614171565b8484546140f3565b825550505050565b600090565b6141ad6141a0565b6141b881848461417b565b505050565b5b818110156141dc576141d16000826141a5565b6001810190506141be565b5050565b601f821115614221576141f2816140ce565b6141fb846140e3565b8101602085101561420a578190505b61421e614216856140e3565b8301826141bd565b50505b505050565b600082821c905092915050565b600061424460001984600802614226565b1980831691505092915050565b600061425d8383614233565b9150826002028217905092915050565b6142778383613e7a565b67ffffffffffffffff8111156142905761428f613f68565b5b61429a8254613d05565b6142a58282856141e0565b6000601f8311600181146142d457600084156142c2578287013590505b6142cc8582614251565b865550614334565b601f1984166142e2866140ce565b60005b8281101561430a578489013582556001820191506020850194506020810190506142e5565b868310156143275784890135614323601f891682614233565b8355505b6001600288020188555050505b50505050505050565b61434883838361426d565b505050565b6000813561435a81614003565b80915050919050565b60008160001b9050919050565b600073ffffffffffffffffffffffffffffffffffffffff61439084614363565b9350801983169250808416831791505092915050565b60006143c16143bc6143b784613268565b614145565b613268565b9050919050565b60006143d3826143a6565b9050919050565b60006143e5826143c8565b9050919050565b6000819050919050565b6143ff826143da565b61441261440b826143ec565b8354614370565b8255505050565b600081016000830161442b818561406b565b61443681838661433d565b5050505060018101602083018061444c8161434d565b905061445881846143f6565b5050505050565b6144698282614419565b5050565b7f4d696e696d756d207072696365206d757374206265206120706f73697469766560008201527f206e756d62657200000000000000000000000000000000000000000000000000602082015250565b60006144c96027836139c4565b91506144d48261446d565b604082019050919050565b600060208201905081810360008301526144f8816144bc565b9050919050565b7f5468652072656c6174696f6e202830203c205365637572697479204465706f7360008201527f6974203c204d696e696d756d20507269636529206973206e6f7420736174697360208201527f666965642e000000000000000000000000000000000000000000000000000000604082015250565b60006145816045836139c4565b915061458c826144ff565b606082019050919050565b600060208201905081810360008301526145b081614574565b9050919050565b7f446174657320617265206e6f7420696e20746865207269676874206f7264657260008201527f2e00000000000000000000000000000000000000000000000000000000000000602082015250565b60006146136021836139c4565b915061461e826145b7565b604082019050919050565b6000602082019050818103600083015261464281614606565b9050919050565b61465281613454565b811461465d57600080fd5b50565b6000813561466d81614649565b80915050919050565b6000614681826143a6565b9050919050565b600061469382614676565b9050919050565b6000819050919050565b6146ad82614688565b6146c06146b98261469a565b8354614370565b8255505050565b600080833560016020038436030381126146e4576146e361405c565b5b80840192508235915067ffffffffffffffff82111561470657614705614061565b5b60208301925060018202360383131561472257614721614066565b5b509250929050565b600082905092915050565b60008190508160005260206000209050919050565b601f82111561478b5761475c81614735565b614765846140e3565b81016020851015614774578190505b614788614780856140e3565b8301826141bd565b50505b505050565b61479a838361472a565b67ffffffffffffffff8111156147b3576147b2613f68565b5b6147bd8254613d05565b6147c882828561474a565b6000601f8311600181146147f757600084156147e5578287013590505b6147ef8582614251565b865550614857565b601f19841661480586614735565b60005b8281101561482d57848901358255600182019150602085019450602081019050614808565b8683101561484a5784890135614846601f891682614233565b8355505b6001600288020188555050505b50505050505050565b61486b838383614790565b505050565b6000813561487d816130b1565b80915050919050565b60007fffffffffffffffffffffffffffffffffffffffffffffffffffffffffffffffff6148b284614363565b9350801983169250808416831791505092915050565b6148d18261414f565b6148e46148dd82614171565b8354614886565b8255505050565b6000810160008301806148fd81614660565b905061490981846146a4565b505050600181016020830161491e818561406b565b61492981838661433d565b50505050600281016040830161493f818561406b565b61494a81838661433d565b50505050600381016060830161496081856146c7565b61496b818386614860565b50505050600481016080830161498181856146c7565b61498c818386614860565b505050506005810160a083016149a281856146c7565b6149ad818386614860565b505050506006810160c08301806149c381614870565b90506149cf81846148c8565b5050506007810160e08301806149e481614870565b90506149f081846148c8565b50505060088101610100830180614a0681614870565b9050614a1281846148c8565b50505060098101610120830180614a2881614870565b9050614a3481846148c8565b505050600a8101610140830180614a4a81614870565b9050614a5681846148c8565b5050505050565b614a6782826148eb565b5050565b6000614a76826130a7565b9150614a81836130a7565b925082821015614a9457614a93613ef1565b5b828203905092915050565b7f4e487b7100000000000000000000000000000000000000000000000000000000600052603160045260246000fdfea2646970667358221220abfb5b3efbe35e7b2cb3c114287c4aea99a60e5365d0836f09b1f1c4a091504164736f6c634300080d0033",
  "immutableReferences": {},
  "source": "// SPDX-License-Identifier: MIT\r\npragma solidity ^0.8.13;\r\n\r\n// NOTE: all currency is wei\r\n\r\ncontract SealedBidAuctionManager {\r\n    struct UserSetAuctionInfo {\r\n        // administrative\r\n        address payable owner;\r\n        bytes params;\r\n        bytes owner_pkey;\r\n        // item\r\n        string itemName;\r\n        string itemDesc;\r\n        string itemPicture;\r\n        // transactional\r\n        uint256 minimumPrice;\r\n        uint256 securityDeposit;\r\n        // dates\r\n        uint256 biddingEndDate;\r\n        uint256 revealingEndDate;\r\n        uint256 sortingEndDate;\r\n    }\r\n\r\n    struct Bid {\r\n        bool done;\r\n        // to bid\r\n        bytes32 c;\r\n        bytes32 d;\r\n        // to reveal\r\n        bytes z;\r\n    }\r\n\r\n    struct AuctionWinner {\r\n        bytes y;\r\n        address bidder;\r\n    }\r\n\r\n    struct Auction {\r\n        uint256 id;\r\n        UserSetAuctionInfo info;\r\n        mapping(address => Bid) bids;\r\n        address[] bidders;\r\n        AuctionState state;\r\n        AuctionWinner winner;\r\n    }\r\n    struct AuctionByState{\r\n        uint256 id;\r\n        UserSetAuctionInfo info;\r\n    }\r\n    enum AuctionState {\r\n        BiddingPhase,\r\n        RevealingPhase,\r\n        SortingPhase,\r\n        Ended\r\n    }\r\n\r\n    Auction[] private auctions;\r\n\r\n    // events for logging and subscription\r\n\r\n    event NewAuction(uint256 auctionId);\r\n    event NewBid(uint256 auctionId, address by);\r\n    event NewReveal(uint256 auctionId, address by);\r\n    event BidderRemoved(uint256, address who);\r\n    event WinnerDecided(uint256 auctionId);\r\n    event AuctionEnds(uint256 auctionId, bool success);\r\n\r\n    // modifiers for modularity\r\n\r\n    modifier SenderDidNotPlaceABid(uint256 auctionId) {\r\n        if (auctions[auctionId].bids[msg.sender].c.length != 0)\r\n            revert(\"Sender has already placed a bid!\");\r\n        _;\r\n    }\r\n\r\n    modifier SenderPlacedABid(uint256 auctionId) {\r\n        if (auctions[auctionId].bids[msg.sender].c.length == 0)\r\n            revert(\"Sender has not placed a bid!\");\r\n        _;\r\n    }\r\n\r\n    modifier SenderIsOwner(uint256 auctionId) {\r\n        if (msg.sender != auctions[auctionId].info.owner)\r\n            revert(\"Sender is not the owner!\");\r\n        _;\r\n    }\r\n\r\n    modifier SenderIsNotOwner(uint256 auctionId) {\r\n        if (msg.sender != auctions[auctionId].info.owner)\r\n            revert(\"Sender is the owner!\");\r\n        _;\r\n    }\r\n\r\n    modifier AuctionIDIsValid(uint256 auctionId) {\r\n        if (auctionId >= auctions.length) revert(\"Auction ID is not valid!\");\r\n        _;\r\n    }\r\n\r\n    modifier CheckAuctionState(uint256 auctionId, AuctionState state) {\r\n        // set it\r\n        if (block.timestamp < auctions[auctionId].info.biddingEndDate)\r\n            auctions[auctionId].state = AuctionState.BiddingPhase;\r\n        else if (block.timestamp < auctions[auctionId].info.revealingEndDate)\r\n            auctions[auctionId].state = AuctionState.RevealingPhase;\r\n        else if (block.timestamp < auctions[auctionId].info.sortingEndDate)\r\n            auctions[auctionId].state = AuctionState.SortingPhase;\r\n        else auctions[auctionId].state = AuctionState.Ended;\r\n\r\n        // check it\r\n        if (state != auctions[auctionId].state) {\r\n            revert(\"Inappropriate operation!\");\r\n        }\r\n        _;\r\n    }\r\n\r\n    modifier ValueEquals(uint v) {\r\n        if (msg.value != v) revert(\"Sent value is not right!\");\r\n        _;\r\n    }\r\n\r\n    // private functions\r\n\r\n    function _removeBidder(uint256 auctionId, uint index) internal {\r\n        require(index < auctions[auctionId].bidders.length);\r\n\r\n        auctions[auctionId].bidders[index] = auctions[auctionId].bidders[\r\n            auctions[auctionId].bidders.length - 1\r\n        ];\r\n        auctions[auctionId].bidders.pop();\r\n    }\r\n\r\n    // external functions to be called at any time\r\n\r\n    function getNumberOfRegisteredAuctions() external view returns (uint256) {\r\n        return auctions.length;\r\n    }\r\n\r\n    function createAuction(\r\n        UserSetAuctionInfo calldata info\r\n    ) external payable ValueEquals(info.securityDeposit) returns (uint256) {\r\n        // validation of auction parameters\r\n        if (info.minimumPrice == 0)\r\n            revert(\"Minimum price must be a positive number\");\r\n\r\n        if (\r\n            info.securityDeposit > info.minimumPrice ||\r\n            info.securityDeposit == 0\r\n        )\r\n            revert(\r\n                \"The relation (0 < Security Deposit < Minimum Price) is not satisfied.\"\r\n            );\r\n\r\n        if (\r\n            !(// info.verificationEndDate > info.sortingEndDate &&\r\n            info.sortingEndDate > info.revealingEndDate &&\r\n                info.revealingEndDate > info.biddingEndDate)\r\n        ) revert(\"Dates are not in the right order.\");\r\n\r\n        // valid? add it\r\n        Auction storage auction = auctions.push();\r\n\r\n        auction.id = auctions.length;\r\n        auction.info = info;\r\n        auction.state = AuctionState.BiddingPhase;\r\n        auction.winner = AuctionWinner({y: \"\", bidder: address(0)});\r\n\r\n        emit NewAuction(auction.id);\r\n        return auction.id;\r\n    }\r\n\r\n    function getAuctionsByState(\r\n        AuctionState state\r\n    ) external view returns (AuctionByState[] memory) {\r\n        uint256 count = 0;\r\n        for (uint256 i = 0; i < auctions.length; i++) {\r\n            if (auctions[i].state == state) {\r\n                count++;\r\n            }\r\n        }\r\n\r\n        AuctionByState[] memory data = new AuctionByState[](count);\r\n        uint256 j = 0;\r\n        for (uint256 i = 0; i < auctions.length; i++) {\r\n            if (auctions[i].state == state) {\r\n                data[j].info = auctions[i].info;\r\n                data[j].id = auctions[i].id;\r\n                j++;\r\n            }\r\n        }\r\n\r\n        return data;\r\n    }\r\n\r\n    function getAuctionInfo(\r\n        uint256 auctionId\r\n    )\r\n        external\r\n        view\r\n        AuctionIDIsValid(auctionId)\r\n        returns (UserSetAuctionInfo memory)\r\n    {\r\n        return auctions[auctionId].info;\r\n    }\r\n\r\n    // functions to be called throughout the auction process\r\n\r\n    function placeBid(\r\n        uint256 auctionId,\r\n        bytes calldata c,\r\n        bytes calldata d\r\n    )\r\n        external\r\n        payable\r\n        AuctionIDIsValid(auctionId)\r\n        SenderIsNotOwner(auctionId)\r\n        SenderDidNotPlaceABid(auctionId)\r\n        CheckAuctionState(auctionId, AuctionState.BiddingPhase)\r\n        ValueEquals(auctions[auctionId].info.securityDeposit)\r\n    {\r\n        auctions[auctionId].bids[msg.sender] = Bid({\r\n            done: false,\r\n            c: bytes32(c),\r\n            d: bytes32(d),\r\n            z: bytes(\"\")\r\n        });\r\n        auctions[auctionId].bidders[auctions[auctionId].bidders.length] = msg\r\n            .sender;\r\n        emit NewBid(auctionId, msg.sender);\r\n    }\r\n\r\n    function revealBid(\r\n        uint256 auctionId,\r\n        bytes calldata z\r\n    )\r\n        external\r\n        AuctionIDIsValid(auctionId)\r\n        SenderPlacedABid(auctionId)\r\n        CheckAuctionState(auctionId, AuctionState.RevealingPhase)\r\n    {\r\n        // verify commitment\r\n        if (sha256(z) != auctions[auctionId].bids[msg.sender].d)\r\n            revert(\"Hash is invalid!\");\r\n\r\n        auctions[auctionId].bids[msg.sender].z = z;\r\n        emit NewReveal(auctionId, msg.sender);\r\n    }\r\n\r\n    function getReveals(\r\n        uint256 auctionId\r\n    )\r\n        external\r\n        AuctionIDIsValid(auctionId)\r\n        SenderIsOwner(auctionId)\r\n        CheckAuctionState(auctionId, AuctionState.SortingPhase)\r\n        returns (bytes[] memory)\r\n    {\r\n        uint256 count = 0;\r\n        for (uint256 i = 0; i < auctions[auctionId].bidders.length; i++) {\r\n            address bidder = auctions[auctionId].bidders[i];\r\n            if (auctions[auctionId].bids[bidder].z.length == 0) {\r\n                // remove them, no refunds\r\n                _removeBidder(auctionId, i);\r\n                emit BidderRemoved(auctionId, bidder);\r\n            } else {\r\n                count++;\r\n            }\r\n        }\r\n\r\n        bytes[] memory zs = new bytes[](count);\r\n        for (uint256 i = 0; i < auctions[auctionId].bidders.length; i++) {\r\n            zs[i] = auctions[auctionId].bids[auctions[auctionId].bidders[i]].z;\r\n        }\r\n\r\n        return zs;\r\n    }\r\n\r\n    function declareWinner(\r\n        uint256 auctionId,\r\n        AuctionWinner calldata winner\r\n    )\r\n        external\r\n        AuctionIDIsValid(auctionId)\r\n        SenderIsOwner(auctionId)\r\n        CheckAuctionState(auctionId, AuctionState.SortingPhase)\r\n    {\r\n        // verify commitment\r\n        if (sha256(winner.y) != auctions[auctionId].bids[winner.bidder].c)\r\n            revert(\"Hash is invalid!\");\r\n\r\n        auctions[auctionId].winner = winner;\r\n        emit WinnerDecided(auctionId);\r\n    }\r\n\r\n    function getWinner(\r\n        uint256 auctionId\r\n    ) external view AuctionIDIsValid(auctionId) returns (AuctionWinner memory) {\r\n        return auctions[auctionId].winner;\r\n    }\r\n\r\n    function returnDeposit(\r\n        uint256 auctionId\r\n    )\r\n        external\r\n        AuctionIDIsValid(auctionId)\r\n        SenderPlacedABid(auctionId)\r\n        CheckAuctionState(auctionId, AuctionState.Ended)\r\n    {\r\n        // no re-entrancy attacks!\r\n        if (\r\n            auctions[auctionId].bids[msg.sender].done == false &&\r\n            msg.sender != auctions[auctionId].winner.bidder\r\n        ) {\r\n            auctions[auctionId].bids[msg.sender].done = true;\r\n        }\r\n        payable(msg.sender).transfer(auctions[auctionId].info.securityDeposit);\r\n    }\r\n}\r\n",
  "sourcePath": "C:\\Users\\Hazem\\College\\Term 10 CCE\\auction-system-webapp\\contracts\\contracts\\SealedBidAuctionManager.sol",
  "compiler": {
    "name": "solc",
    "version": "0.8.13+commit.abaa5c0e.Emscripten.clang"
  },
  "schemaVersion": "3.4.13",
  "updatedAt": "2023-07-04T22:38:20.368Z",
  "networkType": "ethereum",
  "devdoc": {
    "kind": "dev",
    "methods": {},
    "version": 1
  },
  "userdoc": {
    "kind": "user",
    "methods": {},
    "version": 1
  }
}