{
  "contractName": "SealedBidAuctionManager",
  "abi": [
    {
      "anonymous": false,
      "inputs": [
        {
          "indexed": false,
          "internalType": "uint256",
          "name": "auctionId",
          "type": "uint256"
        },
        {
          "indexed": false,
          "internalType": "bool",
          "name": "success",
          "type": "bool"
        }
      ],
      "name": "AuctionEnds",
      "type": "event"
    },
    {
      "anonymous": false,
      "inputs": [
        {
          "indexed": false,
          "internalType": "uint256",
          "name": "",
          "type": "uint256"
        },
        {
          "indexed": false,
          "internalType": "address",
          "name": "who",
          "type": "address"
        }
      ],
      "name": "BidderRemoved",
      "type": "event"
    },
    {
      "anonymous": false,
      "inputs": [
        {
          "indexed": false,
          "internalType": "uint256",
          "name": "auctionId",
          "type": "uint256"
        }
      ],
      "name": "NewAuction",
      "type": "event"
    },
    {
      "anonymous": false,
      "inputs": [
        {
          "indexed": false,
          "internalType": "uint256",
          "name": "auctionId",
          "type": "uint256"
        },
        {
          "indexed": false,
          "internalType": "address",
          "name": "by",
          "type": "address"
        }
      ],
      "name": "NewBid",
      "type": "event"
    },
    {
      "anonymous": false,
      "inputs": [
        {
          "indexed": false,
          "internalType": "uint256",
          "name": "auctionId",
          "type": "uint256"
        },
        {
          "indexed": false,
          "internalType": "address",
          "name": "by",
          "type": "address"
        }
      ],
      "name": "NewReveal",
      "type": "event"
    },
    {
      "anonymous": false,
      "inputs": [
        {
          "indexed": false,
          "internalType": "uint256",
          "name": "auctionId",
          "type": "uint256"
        }
      ],
      "name": "WinnerDecided",
      "type": "event"
    },
    {
      "inputs": [
        {
          "internalType": "bytes",
          "name": "test",
          "type": "bytes"
        }
      ],
      "name": "setTestme",
      "outputs": [],
      "stateMutability": "nonpayable",
      "type": "function"
    },
    {
      "inputs": [],
      "name": "getTestme",
      "outputs": [
        {
          "internalType": "bytes",
          "name": "",
          "type": "bytes"
        }
      ],
      "stateMutability": "view",
      "type": "function",
      "constant": true
    },
    {
      "inputs": [],
      "name": "getNumberOfRegisteredAuctions",
      "outputs": [
        {
          "internalType": "uint256",
          "name": "",
          "type": "uint256"
        }
      ],
      "stateMutability": "view",
      "type": "function",
      "constant": true
    },
    {
      "inputs": [
        {
          "components": [
            {
              "internalType": "address payable",
              "name": "owner",
              "type": "address"
            },
            {
              "internalType": "string",
              "name": "params",
              "type": "string"
            },
            {
              "internalType": "string",
              "name": "owner_pkey",
              "type": "string"
            },
            {
              "internalType": "string",
              "name": "itemName",
              "type": "string"
            },
            {
              "internalType": "string",
              "name": "itemDesc",
              "type": "string"
            },
            {
              "internalType": "string",
              "name": "itemPicture",
              "type": "string"
            },
            {
              "internalType": "uint256",
              "name": "minimumPrice",
              "type": "uint256"
            },
            {
              "internalType": "uint256",
              "name": "securityDeposit",
              "type": "uint256"
            },
            {
              "internalType": "uint256",
              "name": "biddingEndDate",
              "type": "uint256"
            },
            {
              "internalType": "uint256",
              "name": "revealingEndDate",
              "type": "uint256"
            },
            {
              "internalType": "uint256",
              "name": "sortingEndDate",
              "type": "uint256"
            }
          ],
          "internalType": "struct SealedBidAuctionManager.UserSetAuctionInfo",
          "name": "info",
          "type": "tuple"
        }
      ],
      "name": "createAuction",
      "outputs": [
        {
          "internalType": "uint256",
          "name": "",
          "type": "uint256"
        }
      ],
      "stateMutability": "payable",
      "type": "function",
      "payable": true
    },
    {
      "inputs": [
        {
          "internalType": "enum SealedBidAuctionManager.AuctionState",
          "name": "state",
          "type": "uint8"
        }
      ],
      "name": "getAuctionsByState",
      "outputs": [
        {
          "components": [
            {
              "internalType": "address payable",
              "name": "owner",
              "type": "address"
            },
            {
              "internalType": "string",
              "name": "params",
              "type": "string"
            },
            {
              "internalType": "string",
              "name": "owner_pkey",
              "type": "string"
            },
            {
              "internalType": "string",
              "name": "itemName",
              "type": "string"
            },
            {
              "internalType": "string",
              "name": "itemDesc",
              "type": "string"
            },
            {
              "internalType": "string",
              "name": "itemPicture",
              "type": "string"
            },
            {
              "internalType": "uint256",
              "name": "minimumPrice",
              "type": "uint256"
            },
            {
              "internalType": "uint256",
              "name": "securityDeposit",
              "type": "uint256"
            },
            {
              "internalType": "uint256",
              "name": "biddingEndDate",
              "type": "uint256"
            },
            {
              "internalType": "uint256",
              "name": "revealingEndDate",
              "type": "uint256"
            },
            {
              "internalType": "uint256",
              "name": "sortingEndDate",
              "type": "uint256"
            }
          ],
          "internalType": "struct SealedBidAuctionManager.UserSetAuctionInfo[]",
          "name": "",
          "type": "tuple[]"
        }
      ],
      "stateMutability": "view",
      "type": "function",
      "constant": true
    },
    {
      "inputs": [
        {
          "internalType": "uint256",
          "name": "auctionId",
          "type": "uint256"
        }
      ],
      "name": "getAuctionInfo",
      "outputs": [
        {
          "components": [
            {
              "internalType": "address payable",
              "name": "owner",
              "type": "address"
            },
            {
              "internalType": "string",
              "name": "params",
              "type": "string"
            },
            {
              "internalType": "string",
              "name": "owner_pkey",
              "type": "string"
            },
            {
              "internalType": "string",
              "name": "itemName",
              "type": "string"
            },
            {
              "internalType": "string",
              "name": "itemDesc",
              "type": "string"
            },
            {
              "internalType": "string",
              "name": "itemPicture",
              "type": "string"
            },
            {
              "internalType": "uint256",
              "name": "minimumPrice",
              "type": "uint256"
            },
            {
              "internalType": "uint256",
              "name": "securityDeposit",
              "type": "uint256"
            },
            {
              "internalType": "uint256",
              "name": "biddingEndDate",
              "type": "uint256"
            },
            {
              "internalType": "uint256",
              "name": "revealingEndDate",
              "type": "uint256"
            },
            {
              "internalType": "uint256",
              "name": "sortingEndDate",
              "type": "uint256"
            }
          ],
          "internalType": "struct SealedBidAuctionManager.UserSetAuctionInfo",
          "name": "",
          "type": "tuple"
        }
      ],
      "stateMutability": "view",
      "type": "function",
      "constant": true
    },
    {
      "inputs": [
        {
          "internalType": "uint256",
          "name": "auctionId",
          "type": "uint256"
        },
        {
          "internalType": "string",
          "name": "c",
          "type": "string"
        },
        {
          "internalType": "string",
          "name": "d",
          "type": "string"
        }
      ],
      "name": "placeBid",
      "outputs": [],
      "stateMutability": "payable",
      "type": "function",
      "payable": true
    },
    {
      "inputs": [
        {
          "internalType": "uint256",
          "name": "auctionId",
          "type": "uint256"
        },
        {
          "internalType": "string",
          "name": "z",
          "type": "string"
        }
      ],
      "name": "revealBid",
      "outputs": [],
      "stateMutability": "nonpayable",
      "type": "function"
    },
    {
      "inputs": [
        {
          "internalType": "uint256",
          "name": "auctionId",
          "type": "uint256"
        }
      ],
      "name": "getReveals",
      "outputs": [
        {
          "internalType": "string[]",
          "name": "",
          "type": "string[]"
        }
      ],
      "stateMutability": "nonpayable",
      "type": "function"
    },
    {
      "inputs": [
        {
          "internalType": "uint256",
          "name": "auctionId",
          "type": "uint256"
        },
        {
          "components": [
            {
              "internalType": "string",
              "name": "y",
              "type": "string"
            },
            {
              "internalType": "address",
              "name": "bidder",
              "type": "address"
            }
          ],
          "internalType": "struct SealedBidAuctionManager.AuctionWinner",
          "name": "winner",
          "type": "tuple"
        }
      ],
      "name": "declareWinner",
      "outputs": [],
      "stateMutability": "nonpayable",
      "type": "function"
    },
    {
      "inputs": [
        {
          "internalType": "uint256",
          "name": "auctionId",
          "type": "uint256"
        }
      ],
      "name": "getWinner",
      "outputs": [
        {
          "components": [
            {
              "internalType": "string",
              "name": "y",
              "type": "string"
            },
            {
              "internalType": "address",
              "name": "bidder",
              "type": "address"
            }
          ],
          "internalType": "struct SealedBidAuctionManager.AuctionWinner",
          "name": "",
          "type": "tuple"
        }
      ],
      "stateMutability": "view",
      "type": "function",
      "constant": true
    },
    {
      "inputs": [
        {
          "internalType": "uint256",
          "name": "auctionId",
          "type": "uint256"
        }
      ],
      "name": "returnDeposit",
      "outputs": [],
      "stateMutability": "nonpayable",
      "type": "function"
    }
  ],
  "bytecode": "0x608060405234801561001057600080fd5b50614b58806100206000396000f3fe6080604052600436106100a75760003560e01c8063684e38ee11610064578063684e38ee146101ab57806397d9ee52146101e8578063bba98f4114610225578063bedfcecf14610250578063cd332b2214610279578063fc3fc4ed146102a9576100a7565b806318b683fb146100ac5780632093b667146100d55780632163b8c5146100fe5780632b58fb3c146101275780634129b2c91461014357806345e481a314610180575b600080fd5b3480156100b857600080fd5b506100d360048036038101906100ce91906132b1565b6102e6565b005b3480156100e157600080fd5b506100fc60048036038101906100f79190613302565b610840565b005b34801561010a57600080fd5b50610125600480360381019061012091906133c3565b610d3f565b005b610141600480360381019061013c9190613423565b611254565b005b34801561014f57600080fd5b5061016a600480360381019061016591906132b1565b61194a565b60405161017791906135cf565b60405180910390f35b34801561018c57600080fd5b50610195611aba565b6040516101a29190613600565b60405180910390f35b3480156101b757600080fd5b506101d260048036038101906101cd9190613640565b611ac6565b6040516101df919061386a565b60405180910390f35b3480156101f457600080fd5b5061020f600480360381019061020a91906132b1565b611ffe565b60405161021c919061394e565b60405180910390f35b34801561023157600080fd5b5061023a612703565b60405161024791906139c5565b60405180910390f35b34801561025c57600080fd5b5061027760048036038101906102729190613a3d565b612795565b005b610293600480360381019061028e9190613aaa565b6127ab565b6040516102a09190613600565b60405180910390f35b3480156102b557600080fd5b506102d060048036038101906102cb91906132b1565b612a57565b6040516102dd9190613bfe565b60405180910390f35b80600080549050811061032e576040517f08c379a000000000000000000000000000000000000000000000000000000000815260040161032590613c7d565b60405180910390fd5b81600080828154811061034457610343613c9d565b5b9060005260206000209060110201600c0160003373ffffffffffffffffffffffffffffffffffffffff1673ffffffffffffffffffffffffffffffffffffffff16815260200190815260200160002050602060ff16036103d8576040517f08c379a00000000000000000000000000000000000000000000000000000000081526004016103cf90613d18565b60405180910390fd5b826003600082815481106103ef576103ee613c9d565b5b90600052602060002090601102016001016008015442101561045d5760008083815481106104205761041f613c9d565b5b9060005260206000209060110201600e0160006101000a81548160ff0219169083600381111561045357610452613d38565b5b02179055506105b4565b6000828154811061047157610470613c9d565b5b9060005260206000209060110201600101600901544210156104e0576001600083815481106104a3576104a2613c9d565b5b9060005260206000209060110201600e0160006101000a81548160ff021916908360038111156104d6576104d5613d38565b5b02179055506105b3565b600082815481106104f4576104f3613c9d565b5b9060005260206000209060110201600101600a01544210156105635760026000838154811061052657610525613c9d565b5b9060005260206000209060110201600e0160006101000a81548160ff0219169083600381111561055957610558613d38565b5b02179055506105b2565b60036000838154811061057957610578613c9d565b5b9060005260206000209060110201600e0160006101000a81548160ff021916908360038111156105ac576105ab613d38565b5b02179055505b5b5b600082815481106105c8576105c7613c9d565b5b9060005260206000209060110201600e0160009054906101000a900460ff1660038111156105f9576105f8613d38565b5b81600381111561060c5761060b613d38565b5b1461064c576040517f08c379a000000000000000000000000000000000000000000000000000000000815260040161064390613db3565b60405180910390fd5b600015156000868154811061066457610663613c9d565b5b9060005260206000209060110201600c0160003373ffffffffffffffffffffffffffffffffffffffff1673ffffffffffffffffffffffffffffffffffffffff16815260200190815260200160002060000160009054906101000a900460ff1615151480156107465750600085815481106106e1576106e0613c9d565b5b9060005260206000209060110201600f0160010160009054906101000a900473ffffffffffffffffffffffffffffffffffffffff1673ffffffffffffffffffffffffffffffffffffffff163373ffffffffffffffffffffffffffffffffffffffff1614155b156107ca5760016000868154811061076157610760613c9d565b5b9060005260206000209060110201600c0160003373ffffffffffffffffffffffffffffffffffffffff1673ffffffffffffffffffffffffffffffffffffffff16815260200190815260200160002060000160006101000a81548160ff0219169083151502179055505b3373ffffffffffffffffffffffffffffffffffffffff166108fc600087815481106107f8576107f7613c9d565b5b9060005260206000209060110201600101600701549081150290604051600060405180830381858888f19350505050158015610838573d6000803e3d6000fd5b505050505050565b816000805490508110610888576040517f08c379a000000000000000000000000000000000000000000000000000000000815260040161087f90613c7d565b60405180910390fd5b826000818154811061089d5761089c613c9d565b5b906000526020600020906011020160010160000160009054906101000a900473ffffffffffffffffffffffffffffffffffffffff1673ffffffffffffffffffffffffffffffffffffffff163373ffffffffffffffffffffffffffffffffffffffff161461093f576040517f08c379a000000000000000000000000000000000000000000000000000000000815260040161093690613e1f565b60405180910390fd5b8360026000828154811061095657610955613c9d565b5b9060005260206000209060110201600101600801544210156109c457600080838154811061098757610986613c9d565b5b9060005260206000209060110201600e0160006101000a81548160ff021916908360038111156109ba576109b9613d38565b5b0217905550610b1b565b600082815481106109d8576109d7613c9d565b5b906000526020600020906011020160010160090154421015610a4757600160008381548110610a0a57610a09613c9d565b5b9060005260206000209060110201600e0160006101000a81548160ff02191690836003811115610a3d57610a3c613d38565b5b0217905550610b1a565b60008281548110610a5b57610a5a613c9d565b5b9060005260206000209060110201600101600a0154421015610aca57600260008381548110610a8d57610a8c613c9d565b5b9060005260206000209060110201600e0160006101000a81548160ff02191690836003811115610ac057610abf613d38565b5b0217905550610b19565b600360008381548110610ae057610adf613c9d565b5b9060005260206000209060110201600e0160006101000a81548160ff02191690836003811115610b1357610b12613d38565b5b02179055505b5b5b60008281548110610b2f57610b2e613c9d565b5b9060005260206000209060110201600e0160009054906101000a900460ff166003811115610b6057610b5f613d38565b5b816003811115610b7357610b72613d38565b5b14610bb3576040517f08c379a0000000000000000000000000000000000000000000000000000000008152600401610baa90613db3565b60405180910390fd5b60008681548110610bc757610bc6613c9d565b5b9060005260206000209060110201600c016000866020016020810190610bed9190613e6b565b73ffffffffffffffffffffffffffffffffffffffff1673ffffffffffffffffffffffffffffffffffffffff168152602001908152602001600020600101546002868060000190610c3d9190613ea7565b604051610c4b929190613f49565b602060405180830381855afa158015610c68573d6000803e3d6000fd5b5050506040513d601f19601f82011682018060405250810190610c8b9190613f98565b14610ccb576040517f08c379a0000000000000000000000000000000000000000000000000000000008152600401610cc290614011565b60405180910390fd5b8460008781548110610ce057610cdf613c9d565b5b9060005260206000209060110201600f018181610cfd9190614469565b9050507f0dfe3c139eda10ac8ad090855d58512ef7e6d48784a57307084c1903ff26f4f986604051610d2f9190613600565b60405180910390a1505050505050565b826000805490508110610d87576040517f08c379a0000000000000000000000000000000000000000000000000000000008152600401610d7e90613c7d565b60405180910390fd5b836000808281548110610d9d57610d9c613c9d565b5b9060005260206000209060110201600c0160003373ffffffffffffffffffffffffffffffffffffffff1673ffffffffffffffffffffffffffffffffffffffff16815260200190815260200160002050602060ff1603610e31576040517f08c379a0000000000000000000000000000000000000000000000000000000008152600401610e2890613d18565b60405180910390fd5b84600160008281548110610e4857610e47613c9d565b5b906000526020600020906011020160010160080154421015610eb6576000808381548110610e7957610e78613c9d565b5b9060005260206000209060110201600e0160006101000a81548160ff02191690836003811115610eac57610eab613d38565b5b021790555061100d565b60008281548110610eca57610ec9613c9d565b5b906000526020600020906011020160010160090154421015610f3957600160008381548110610efc57610efb613c9d565b5b9060005260206000209060110201600e0160006101000a81548160ff02191690836003811115610f2f57610f2e613d38565b5b021790555061100c565b60008281548110610f4d57610f4c613c9d565b5b9060005260206000209060110201600101600a0154421015610fbc57600260008381548110610f7f57610f7e613c9d565b5b9060005260206000209060110201600e0160006101000a81548160ff02191690836003811115610fb257610fb1613d38565b5b021790555061100b565b600360008381548110610fd257610fd1613c9d565b5b9060005260206000209060110201600e0160006101000a81548160ff0219169083600381111561100557611004613d38565b5b02179055505b5b5b6000828154811061102157611020613c9d565b5b9060005260206000209060110201600e0160009054906101000a900460ff16600381111561105257611051613d38565b5b81600381111561106557611064613d38565b5b146110a5576040517f08c379a000000000000000000000000000000000000000000000000000000000815260040161109c90613db3565b60405180910390fd5b600087815481106110b9576110b8613c9d565b5b9060005260206000209060110201600c0160003373ffffffffffffffffffffffffffffffffffffffff1673ffffffffffffffffffffffffffffffffffffffff168152602001908152602001600020600201546002878760405161111d929190613f49565b602060405180830381855afa15801561113a573d6000803e3d6000fd5b5050506040513d601f19601f8201168201806040525081019061115d9190613f98565b1461119d576040517f08c379a000000000000000000000000000000000000000000000000000000000815260040161119490614011565b60405180910390fd5b8585600089815481106111b3576111b2613c9d565b5b9060005260206000209060110201600c0160003373ffffffffffffffffffffffffffffffffffffffff1673ffffffffffffffffffffffffffffffffffffffff1681526020019081526020016000206003019190611211929190613022565b507fda9ad1af3b211e24edbe9ac3a27ce5cde27c6f44ae790099959efa1472c6be3e8733604051611243929190614486565b60405180910390a150505050505050565b84600080549050811061129c576040517f08c379a000000000000000000000000000000000000000000000000000000000815260040161129390613c7d565b60405180910390fd5b85600081815481106112b1576112b0613c9d565b5b906000526020600020906011020160010160000160009054906101000a900473ffffffffffffffffffffffffffffffffffffffff1673ffffffffffffffffffffffffffffffffffffffff163373ffffffffffffffffffffffffffffffffffffffff1614611353576040517f08c379a000000000000000000000000000000000000000000000000000000000815260040161134a906144fb565b60405180910390fd5b86600080828154811061136957611368613c9d565b5b9060005260206000209060110201600c0160003373ffffffffffffffffffffffffffffffffffffffff1673ffffffffffffffffffffffffffffffffffffffff16815260200190815260200160002050602060ff16146113fd576040517f08c379a00000000000000000000000000000000000000000000000000000000081526004016113f490614567565b60405180910390fd5b87600080828154811061141357611412613c9d565b5b90600052602060002090601102016001016008015442101561148157600080838154811061144457611443613c9d565b5b9060005260206000209060110201600e0160006101000a81548160ff0219169083600381111561147757611476613d38565b5b02179055506115d8565b6000828154811061149557611494613c9d565b5b906000526020600020906011020160010160090154421015611504576001600083815481106114c7576114c6613c9d565b5b9060005260206000209060110201600e0160006101000a81548160ff021916908360038111156114fa576114f9613d38565b5b02179055506115d7565b6000828154811061151857611517613c9d565b5b9060005260206000209060110201600101600a01544210156115875760026000838154811061154a57611549613c9d565b5b9060005260206000209060110201600e0160006101000a81548160ff0219169083600381111561157d5761157c613d38565b5b02179055506115d6565b60036000838154811061159d5761159c613c9d565b5b9060005260206000209060110201600e0160006101000a81548160ff021916908360038111156115d0576115cf613d38565b5b02179055505b5b5b600082815481106115ec576115eb613c9d565b5b9060005260206000209060110201600e0160009054906101000a900460ff16600381111561161d5761161c613d38565b5b8160038111156116305761162f613d38565b5b14611670576040517f08c379a000000000000000000000000000000000000000000000000000000000815260040161166790613db3565b60405180910390fd5b60008a8154811061168457611683613c9d565b5b9060005260206000209060110201600101600701548034146116db576040517f08c379a00000000000000000000000000000000000000000000000000000000081526004016116d2906145d3565b60405180910390fd5b604051806080016040528060001515815260200161173c8c8c8080601f016020809104026020016040519081016040528093929190818152602001838380828437600081840152601f19601f82011690508083019250505050505050612e42565b815260200161178e8a8a8080601f016020809104026020016040519081016040528093929190818152602001838380828437600081840152601f19601f82011690508083019250505050505050612e42565b81526020016040518060200160405280600081525081525060008c815481106117ba576117b9613c9d565b5b9060005260206000209060110201600c0160003373ffffffffffffffffffffffffffffffffffffffff1673ffffffffffffffffffffffffffffffffffffffff16815260200190815260200160002060008201518160000160006101000a81548160ff021916908315150217905550602082015181600101556040820151816002015560608201518160030190805190602001906118589291906130a8565b509050503360008c8154811061187157611870613c9d565b5b9060005260206000209060110201600d0160008d8154811061189657611895613c9d565b5b9060005260206000209060110201600d0180549050815481106118bc576118bb613c9d565b5b9060005260206000200160006101000a81548173ffffffffffffffffffffffffffffffffffffffff021916908373ffffffffffffffffffffffffffffffffffffffff1602179055507f45401769c1d58f70bd6b63e1a66bfc17d712ce0dc4ffb8d2dd0ad7177d56a3868b33604051611935929190614486565b60405180910390a15050505050505050505050565b61195261312e565b81600080549050811061199a576040517f08c379a000000000000000000000000000000000000000000000000000000000815260040161199190613c7d565b60405180910390fd5b600083815481106119ae576119ad613c9d565b5b9060005260206000209060110201600f016040518060400160405290816000820180546119da9061409a565b80601f0160208091040260200160405190810160405280929190818152602001828054611a069061409a565b8015611a535780601f10611a2857610100808354040283529160200191611a53565b820191906000526020600020905b815481529060010190602001808311611a3657829003601f168201915b505050505081526020016001820160009054906101000a900473ffffffffffffffffffffffffffffffffffffffff1673ffffffffffffffffffffffffffffffffffffffff1673ffffffffffffffffffffffffffffffffffffffff1681525050915050919050565b60008080549050905090565b60606000805b600080549050811015611b5857836003811115611aec57611aeb613d38565b5b60008281548110611b0057611aff613c9d565b5b9060005260206000209060110201600e0160009054906101000a900460ff166003811115611b3157611b30613d38565b5b03611b45578180611b4190614622565b9250505b8080611b5090614622565b915050611acc565b5060008167ffffffffffffffff811115611b7557611b7461403c565b5b604051908082528060200260200182016040528015611bae57816020015b611b9b61315e565b815260200190600190039081611b935790505b5090506000805b600080549050811015611ff257856003811115611bd557611bd4613d38565b5b60008281548110611be957611be8613c9d565b5b9060005260206000209060110201600e0160009054906101000a900460ff166003811115611c1a57611c19613d38565b5b03611fdf5760008181548110611c3357611c32613c9d565b5b9060005260206000209060110201600101604051806101600160405290816000820160009054906101000a900473ffffffffffffffffffffffffffffffffffffffff1673ffffffffffffffffffffffffffffffffffffffff1673ffffffffffffffffffffffffffffffffffffffff168152602001600182018054611cb69061409a565b80601f0160208091040260200160405190810160405280929190818152602001828054611ce29061409a565b8015611d2f5780601f10611d0457610100808354040283529160200191611d2f565b820191906000526020600020905b815481529060010190602001808311611d1257829003601f168201915b50505050508152602001600282018054611d489061409a565b80601f0160208091040260200160405190810160405280929190818152602001828054611d749061409a565b8015611dc15780601f10611d9657610100808354040283529160200191611dc1565b820191906000526020600020905b815481529060010190602001808311611da457829003601f168201915b50505050508152602001600382018054611dda9061409a565b80601f0160208091040260200160405190810160405280929190818152602001828054611e069061409a565b8015611e535780601f10611e2857610100808354040283529160200191611e53565b820191906000526020600020905b815481529060010190602001808311611e3657829003601f168201915b50505050508152602001600482018054611e6c9061409a565b80601f0160208091040260200160405190810160405280929190818152602001828054611e989061409a565b8015611ee55780601f10611eba57610100808354040283529160200191611ee5565b820191906000526020600020905b815481529060010190602001808311611ec857829003601f168201915b50505050508152602001600582018054611efe9061409a565b80601f0160208091040260200160405190810160405280929190818152602001828054611f2a9061409a565b8015611f775780601f10611f4c57610100808354040283529160200191611f77565b820191906000526020600020905b815481529060010190602001808311611f5a57829003601f168201915b5050505050815260200160068201548152602001600782015481526020016008820154815260200160098201548152602001600a82015481525050838381518110611fc557611fc4613c9d565b5b60200260200101819052508180611fdb90614622565b9250505b8080611fea90614622565b915050611bb5565b50819350505050919050565b6060816000805490508110612048576040517f08c379a000000000000000000000000000000000000000000000000000000000815260040161203f90613c7d565b60405180910390fd5b826000818154811061205d5761205c613c9d565b5b906000526020600020906011020160010160000160009054906101000a900473ffffffffffffffffffffffffffffffffffffffff1673ffffffffffffffffffffffffffffffffffffffff163373ffffffffffffffffffffffffffffffffffffffff16146120ff576040517f08c379a00000000000000000000000000000000000000000000000000000000081526004016120f690613e1f565b60405180910390fd5b8360026000828154811061211657612115613c9d565b5b90600052602060002090601102016001016008015442101561218457600080838154811061214757612146613c9d565b5b9060005260206000209060110201600e0160006101000a81548160ff0219169083600381111561217a57612179613d38565b5b02179055506122db565b6000828154811061219857612197613c9d565b5b906000526020600020906011020160010160090154421015612207576001600083815481106121ca576121c9613c9d565b5b9060005260206000209060110201600e0160006101000a81548160ff021916908360038111156121fd576121fc613d38565b5b02179055506122da565b6000828154811061221b5761221a613c9d565b5b9060005260206000209060110201600101600a015442101561228a5760026000838154811061224d5761224c613c9d565b5b9060005260206000209060110201600e0160006101000a81548160ff021916908360038111156122805761227f613d38565b5b02179055506122d9565b6003600083815481106122a05761229f613c9d565b5b9060005260206000209060110201600e0160006101000a81548160ff021916908360038111156122d3576122d2613d38565b5b02179055505b5b5b600082815481106122ef576122ee613c9d565b5b9060005260206000209060110201600e0160009054906101000a900460ff1660038111156123205761231f613d38565b5b81600381111561233357612332613d38565b5b14612373576040517f08c379a000000000000000000000000000000000000000000000000000000000815260040161236a90613db3565b60405180910390fd5b6000805b6000888154811061238b5761238a613c9d565b5b9060005260206000209060110201600d01805490508110156124ef5760008089815481106123bc576123bb613c9d565b5b9060005260206000209060110201600d0182815481106123df576123de613c9d565b5b9060005260206000200160009054906101000a900473ffffffffffffffffffffffffffffffffffffffff1690506000808a8154811061242157612420613c9d565b5b9060005260206000209060110201600c0160008373ffffffffffffffffffffffffffffffffffffffff1673ffffffffffffffffffffffffffffffffffffffff168152602001908152602001600020600301805461247d9061409a565b9050036124cc5761248e8983612e6b565b7f4ddf4c0e94fa7c3fcf8474005bf8b72858bbc3afbeecaee663000ca4eeb2b9bd89826040516124bf929190614486565b60405180910390a16124db565b82806124d790614622565b9350505b5080806124e790614622565b915050612377565b5060008167ffffffffffffffff81111561250c5761250b61403c565b5b60405190808252806020026020018201604052801561253f57816020015b606081526020019060019003908161252a5790505b50905060005b6000898154811061255957612558613c9d565b5b9060005260206000209060110201600d01805490508110156126f4576000898154811061258957612588613c9d565b5b9060005260206000209060110201600c016000808b815481106125af576125ae613c9d565b5b9060005260206000209060110201600d0183815481106125d2576125d1613c9d565b5b9060005260206000200160009054906101000a900473ffffffffffffffffffffffffffffffffffffffff1673ffffffffffffffffffffffffffffffffffffffff1673ffffffffffffffffffffffffffffffffffffffff16815260200190815260200160002060030180546126459061409a565b80601f01602080910402602001604051908101604052809291908181526020018280546126719061409a565b80156126be5780601f10612693576101008083540402835291602001916126be565b820191906000526020600020905b8154815290600101906020018083116126a157829003601f168201915b50505050508282815181106126d6576126d5613c9d565b5b602002602001018190525080806126ec90614622565b915050612545565b50809650505050505050919050565b6060600180546127129061409a565b80601f016020809104026020016040519081016040528092919081815260200182805461273e9061409a565b801561278b5780601f106127605761010080835404028352916020019161278b565b820191906000526020600020905b81548152906001019060200180831161276e57829003601f168201915b5050505050905090565b8181600191906127a69291906131ce565b505050565b60008160e001358034146127f4576040517f08c379a00000000000000000000000000000000000000000000000000000000081526004016127eb906145d3565b60405180910390fd5b60008360c001350361283b576040517f08c379a0000000000000000000000000000000000000000000000000000000008152600401612832906146dc565b60405180910390fd5b8260c001358360e001351180612855575060008360e00135145b15612895576040517f08c379a000000000000000000000000000000000000000000000000000000000815260040161288c90614794565b60405180910390fd5b8261012001358361014001351180156128b75750826101000135836101200135115b6128f6576040517f08c379a00000000000000000000000000000000000000000000000000000000081526004016128ed90614826565b60405180910390fd5b60008060018160018154018082558091505003906000526020600020906011020190506000805490508160000181905550838160010181816129389190614ab1565b905050600081600e0160006101000a81548160ff0219169083600381111561296357612962613d38565b5b02179055506040518060400160405280604051806020016040528060008152508152602001600073ffffffffffffffffffffffffffffffffffffffff1681525081600f0160008201518160000190805190602001906129c39291906130a8565b5060208201518160010160006101000a81548173ffffffffffffffffffffffffffffffffffffffff021916908373ffffffffffffffffffffffffffffffffffffffff1602179055509050507fbdba0fc2c85fe021acfa560c047f0a846648b1b504aa94ab6557cabb04b942588160000154604051612a419190613600565b60405180910390a1806000015492505050919050565b612a5f61315e565b816000805490508110612aa7576040517f08c379a0000000000000000000000000000000000000000000000000000000008152600401612a9e90613c7d565b60405180910390fd5b60008381548110612abb57612aba613c9d565b5b9060005260206000209060110201600101604051806101600160405290816000820160009054906101000a900473ffffffffffffffffffffffffffffffffffffffff1673ffffffffffffffffffffffffffffffffffffffff1673ffffffffffffffffffffffffffffffffffffffff168152602001600182018054612b3e9061409a565b80601f0160208091040260200160405190810160405280929190818152602001828054612b6a9061409a565b8015612bb75780601f10612b8c57610100808354040283529160200191612bb7565b820191906000526020600020905b815481529060010190602001808311612b9a57829003601f168201915b50505050508152602001600282018054612bd09061409a565b80601f0160208091040260200160405190810160405280929190818152602001828054612bfc9061409a565b8015612c495780601f10612c1e57610100808354040283529160200191612c49565b820191906000526020600020905b815481529060010190602001808311612c2c57829003601f168201915b50505050508152602001600382018054612c629061409a565b80601f0160208091040260200160405190810160405280929190818152602001828054612c8e9061409a565b8015612cdb5780601f10612cb057610100808354040283529160200191612cdb565b820191906000526020600020905b815481529060010190602001808311612cbe57829003601f168201915b50505050508152602001600482018054612cf49061409a565b80601f0160208091040260200160405190810160405280929190818152602001828054612d209061409a565b8015612d6d5780601f10612d4257610100808354040283529160200191612d6d565b820191906000526020600020905b815481529060010190602001808311612d5057829003601f168201915b50505050508152602001600582018054612d869061409a565b80601f0160208091040260200160405190810160405280929190818152602001828054612db29061409a565b8015612dff5780601f10612dd457610100808354040283529160200191612dff565b820191906000526020600020905b815481529060010190602001808311612de257829003601f168201915b5050505050815260200160068201548152602001600782015481526020016008820154815260200160098201548152602001600a82015481525050915050919050565b6000808290506000815103612e5d576000801b915050612e66565b60208301519150505b919050565b60008281548110612e7f57612e7e613c9d565b5b9060005260206000209060110201600d01805490508110612e9f57600080fd5b60008281548110612eb357612eb2613c9d565b5b9060005260206000209060110201600d01600160008481548110612eda57612ed9613c9d565b5b9060005260206000209060110201600d0180549050612ef99190614abf565b81548110612f0a57612f09613c9d565b5b9060005260206000200160009054906101000a900473ffffffffffffffffffffffffffffffffffffffff1660008381548110612f4957612f48613c9d565b5b9060005260206000209060110201600d018281548110612f6c57612f6b613c9d565b5b9060005260206000200160006101000a81548173ffffffffffffffffffffffffffffffffffffffff021916908373ffffffffffffffffffffffffffffffffffffffff16021790555060008281548110612fc857612fc7613c9d565b5b9060005260206000209060110201600d01805480612fe957612fe8614af3565b5b6001900381819060005260206000200160006101000a81549073ffffffffffffffffffffffffffffffffffffffff021916905590555050565b82805461302e9061409a565b90600052602060002090601f0160209004810192826130505760008555613097565b82601f1061306957803560ff1916838001178555613097565b82800160010185558215613097579182015b8281111561309657823582559160200191906001019061307b565b5b5090506130a49190613254565b5090565b8280546130b49061409a565b90600052602060002090601f0160209004810192826130d6576000855561311d565b82601f106130ef57805160ff191683800117855561311d565b8280016001018555821561311d579182015b8281111561311c578251825591602001919060010190613101565b5b50905061312a9190613254565b5090565b604051806040016040528060608152602001600073ffffffffffffffffffffffffffffffffffffffff1681525090565b604051806101600160405280600073ffffffffffffffffffffffffffffffffffffffff168152602001606081526020016060815260200160608152602001606081526020016060815260200160008152602001600081526020016000815260200160008152602001600081525090565b8280546131da9061409a565b90600052602060002090601f0160209004810192826131fc5760008555613243565b82601f1061321557803560ff1916838001178555613243565b82800160010185558215613243579182015b82811115613242578235825591602001919060010190613227565b5b5090506132509190613254565b5090565b5b8082111561326d576000816000905550600101613255565b5090565b600080fd5b600080fd5b6000819050919050565b61328e8161327b565b811461329957600080fd5b50565b6000813590506132ab81613285565b92915050565b6000602082840312156132c7576132c6613271565b5b60006132d58482850161329c565b91505092915050565b600080fd5b6000604082840312156132f9576132f86132de565b5b81905092915050565b6000806040838503121561331957613318613271565b5b60006133278582860161329c565b925050602083013567ffffffffffffffff81111561334857613347613276565b5b613354858286016132e3565b9150509250929050565b600080fd5b600080fd5b600080fd5b60008083601f8401126133835761338261335e565b5b8235905067ffffffffffffffff8111156133a05761339f613363565b5b6020830191508360018202830111156133bc576133bb613368565b5b9250929050565b6000806000604084860312156133dc576133db613271565b5b60006133ea8682870161329c565b935050602084013567ffffffffffffffff81111561340b5761340a613276565b5b6134178682870161336d565b92509250509250925092565b60008060008060006060868803121561343f5761343e613271565b5b600061344d8882890161329c565b955050602086013567ffffffffffffffff81111561346e5761346d613276565b5b61347a8882890161336d565b9450945050604086013567ffffffffffffffff81111561349d5761349c613276565b5b6134a98882890161336d565b92509250509295509295909350565b600081519050919050565b600082825260208201905092915050565b60005b838110156134f25780820151818401526020810190506134d7565b83811115613501576000848401525b50505050565b6000601f19601f8301169050919050565b6000613523826134b8565b61352d81856134c3565b935061353d8185602086016134d4565b61354681613507565b840191505092915050565b600073ffffffffffffffffffffffffffffffffffffffff82169050919050565b600061357c82613551565b9050919050565b61358c81613571565b82525050565b600060408301600083015184820360008601526135af8282613518565b91505060208301516135c46020860182613583565b508091505092915050565b600060208201905081810360008301526135e98184613592565b905092915050565b6135fa8161327b565b82525050565b600060208201905061361560008301846135f1565b92915050565b6004811061362857600080fd5b50565b60008135905061363a8161361b565b92915050565b60006020828403121561365657613655613271565b5b60006136648482850161362b565b91505092915050565b600081519050919050565b600082825260208201905092915050565b6000819050602082019050919050565b60006136a482613551565b9050919050565b6136b481613699565b82525050565b6136c38161327b565b82525050565b6000610160830160008301516136e260008601826136ab565b50602083015184820360208601526136fa8282613518565b915050604083015184820360408601526137148282613518565b9150506060830151848203606086015261372e8282613518565b915050608083015184820360808601526137488282613518565b91505060a083015184820360a08601526137628282613518565b91505060c083015161377760c08601826136ba565b5060e083015161378a60e08601826136ba565b5061010083015161379f6101008601826136ba565b506101208301516137b46101208601826136ba565b506101408301516137c96101408601826136ba565b508091505092915050565b60006137e083836136c9565b905092915050565b6000602082019050919050565b60006138008261366d565b61380a8185613678565b93508360208202850161381c85613689565b8060005b85811015613858578484038952815161383985826137d4565b9450613844836137e8565b925060208a01995050600181019050613820565b50829750879550505050505092915050565b6000602082019050818103600083015261388481846137f5565b905092915050565b600081519050919050565b600082825260208201905092915050565b6000819050602082019050919050565b60006138c48383613518565b905092915050565b6000602082019050919050565b60006138e48261388c565b6138ee8185613897565b935083602082028501613900856138a8565b8060005b8581101561393c578484038952815161391d85826138b8565b9450613928836138cc565b925060208a01995050600181019050613904565b50829750879550505050505092915050565b6000602082019050818103600083015261396881846138d9565b905092915050565b600081519050919050565b600082825260208201905092915050565b600061399782613970565b6139a1818561397b565b93506139b18185602086016134d4565b6139ba81613507565b840191505092915050565b600060208201905081810360008301526139df818461398c565b905092915050565b60008083601f8401126139fd576139fc61335e565b5b8235905067ffffffffffffffff811115613a1a57613a19613363565b5b602083019150836001820283011115613a3657613a35613368565b5b9250929050565b60008060208385031215613a5457613a53613271565b5b600083013567ffffffffffffffff811115613a7257613a71613276565b5b613a7e858286016139e7565b92509250509250929050565b60006101608284031215613aa157613aa06132de565b5b81905092915050565b600060208284031215613ac057613abf613271565b5b600082013567ffffffffffffffff811115613ade57613add613276565b5b613aea84828501613a8a565b91505092915050565b600061016083016000830151613b0c60008601826136ab565b5060208301518482036020860152613b248282613518565b91505060408301518482036040860152613b3e8282613518565b91505060608301518482036060860152613b588282613518565b91505060808301518482036080860152613b728282613518565b91505060a083015184820360a0860152613b8c8282613518565b91505060c0830151613ba160c08601826136ba565b5060e0830151613bb460e08601826136ba565b50610100830151613bc96101008601826136ba565b50610120830151613bde6101208601826136ba565b50610140830151613bf36101408601826136ba565b508091505092915050565b60006020820190508181036000830152613c188184613af3565b905092915050565b600082825260208201905092915050565b7f41756374696f6e204944206973206e6f742076616c6964210000000000000000600082015250565b6000613c67601883613c20565b9150613c7282613c31565b602082019050919050565b60006020820190508181036000830152613c9681613c5a565b9050919050565b7f4e487b7100000000000000000000000000000000000000000000000000000000600052603260045260246000fd5b7f53656e64657220686173206e6f7420706c616365642061206269642100000000600082015250565b6000613d02601c83613c20565b9150613d0d82613ccc565b602082019050919050565b60006020820190508181036000830152613d3181613cf5565b9050919050565b7f4e487b7100000000000000000000000000000000000000000000000000000000600052602160045260246000fd5b7f496e617070726f707269617465206f7065726174696f6e210000000000000000600082015250565b6000613d9d601883613c20565b9150613da882613d67565b602082019050919050565b60006020820190508181036000830152613dcc81613d90565b9050919050565b7f53656e646572206973206e6f7420746865206f776e6572210000000000000000600082015250565b6000613e09601883613c20565b9150613e1482613dd3565b602082019050919050565b60006020820190508181036000830152613e3881613dfc565b9050919050565b613e4881613571565b8114613e5357600080fd5b50565b600081359050613e6581613e3f565b92915050565b600060208284031215613e8157613e80613271565b5b6000613e8f84828501613e56565b91505092915050565b600080fd5b600080fd5b600080fd5b60008083356001602003843603038112613ec457613ec3613e98565b5b80840192508235915067ffffffffffffffff821115613ee657613ee5613e9d565b5b602083019250600182023603831315613f0257613f01613ea2565b5b509250929050565b600081905092915050565b82818337600083830152505050565b6000613f308385613f0a565b9350613f3d838584613f15565b82840190509392505050565b6000613f56828486613f24565b91508190509392505050565b6000819050919050565b613f7581613f62565b8114613f8057600080fd5b50565b600081519050613f9281613f6c565b92915050565b600060208284031215613fae57613fad613271565b5b6000613fbc84828501613f83565b91505092915050565b7f4861736820697320696e76616c69642100000000000000000000000000000000600082015250565b6000613ffb601083613c20565b915061400682613fc5565b602082019050919050565b6000602082019050818103600083015261402a81613fee565b9050919050565b600082905092915050565b7f4e487b7100000000000000000000000000000000000000000000000000000000600052604160045260246000fd5b7f4e487b7100000000000000000000000000000000000000000000000000000000600052602260045260246000fd5b600060028204905060018216806140b257607f821691505b6020821081036140c5576140c461406b565b5b50919050565b60008190508160005260206000209050919050565b60006020601f8301049050919050565b600082821b905092915050565b60006008830261412d7fffffffffffffffffffffffffffffffffffffffffffffffffffffffffffffffff826140f0565b61413786836140f0565b95508019841693508086168417925050509392505050565b6000819050919050565b600061417461416f61416a8461327b565b61414f565b61327b565b9050919050565b6000819050919050565b61418e83614159565b6141a261419a8261417b565b8484546140fd565b825550505050565b600090565b6141b76141aa565b6141c2818484614185565b505050565b5b818110156141e6576141db6000826141af565b6001810190506141c8565b5050565b601f82111561422b576141fc816140cb565b614205846140e0565b81016020851015614214578190505b614228614220856140e0565b8301826141c7565b50505b505050565b600082821c905092915050565b600061424e60001984600802614230565b1980831691505092915050565b6000614267838361423d565b9150826002028217905092915050565b6142818383614031565b67ffffffffffffffff81111561429a5761429961403c565b5b6142a4825461409a565b6142af8282856141ea565b6000601f8311600181146142de57600084156142cc578287013590505b6142d6858261425b565b86555061433e565b601f1984166142ec866140cb565b60005b82811015614314578489013582556001820191506020850194506020810190506142ef565b86831015614331578489013561432d601f89168261423d565b8355505b6001600288020188555050505b50505050505050565b614352838383614277565b505050565b6000813561436481613e3f565b80915050919050565b60008160001b9050919050565b600073ffffffffffffffffffffffffffffffffffffffff61439a8461436d565b9350801983169250808416831791505092915050565b60006143cb6143c66143c184613551565b61414f565b613551565b9050919050565b60006143dd826143b0565b9050919050565b60006143ef826143d2565b9050919050565b6000819050919050565b614409826143e4565b61441c614415826143f6565b835461437a565b8255505050565b60008101600083016144358185613ea7565b614440818386614347565b5050505060018101602083018061445681614357565b90506144628184614400565b5050505050565b6144738282614423565b5050565b61448081613571565b82525050565b600060408201905061449b60008301856135f1565b6144a86020830184614477565b9392505050565b7f53656e64657220697320746865206f776e657221000000000000000000000000600082015250565b60006144e5601483613c20565b91506144f0826144af565b602082019050919050565b60006020820190508181036000830152614514816144d8565b9050919050565b7f53656e6465722068617320616c726561647920706c6163656420612062696421600082015250565b6000614551602083613c20565b915061455c8261451b565b602082019050919050565b6000602082019050818103600083015261458081614544565b9050919050565b7f53656e742076616c7565206973206e6f74207269676874210000000000000000600082015250565b60006145bd601883613c20565b91506145c882614587565b602082019050919050565b600060208201905081810360008301526145ec816145b0565b9050919050565b7f4e487b7100000000000000000000000000000000000000000000000000000000600052601160045260246000fd5b600061462d8261327b565b91507fffffffffffffffffffffffffffffffffffffffffffffffffffffffffffffffff820361465f5761465e6145f3565b5b600182019050919050565b7f4d696e696d756d207072696365206d757374206265206120706f73697469766560008201527f206e756d62657200000000000000000000000000000000000000000000000000602082015250565b60006146c6602783613c20565b91506146d18261466a565b604082019050919050565b600060208201905081810360008301526146f5816146b9565b9050919050565b7f5468652072656c6174696f6e202830203c205365637572697479204465706f7360008201527f6974203c204d696e696d756d20507269636529206973206e6f7420736174697360208201527f666965642e000000000000000000000000000000000000000000000000000000604082015250565b600061477e604583613c20565b9150614789826146fc565b606082019050919050565b600060208201905081810360008301526147ad81614771565b9050919050565b7f446174657320617265206e6f7420696e20746865207269676874206f7264657260008201527f2e00000000000000000000000000000000000000000000000000000000000000602082015250565b6000614810602183613c20565b915061481b826147b4565b604082019050919050565b6000602082019050818103600083015261483f81614803565b9050919050565b61484f81613699565b811461485a57600080fd5b50565b6000813561486a81614846565b80915050919050565b600061487e826143b0565b9050919050565b600061489082614873565b9050919050565b6000819050919050565b6148aa82614885565b6148bd6148b682614897565b835461437a565b8255505050565b600081356148d181613285565b80915050919050565b60007fffffffffffffffffffffffffffffffffffffffffffffffffffffffffffffffff6149068461436d565b9350801983169250808416831791505092915050565b61492582614159565b6149386149318261417b565b83546148da565b8255505050565b6000810160008301806149518161485d565b905061495d81846148a1565b50505060018101602083016149728185613ea7565b61497d818386614347565b5050505060028101604083016149938185613ea7565b61499e818386614347565b5050505060038101606083016149b48185613ea7565b6149bf818386614347565b5050505060048101608083016149d58185613ea7565b6149e0818386614347565b505050506005810160a083016149f68185613ea7565b614a01818386614347565b505050506006810160c0830180614a17816148c4565b9050614a23818461491c565b5050506007810160e0830180614a38816148c4565b9050614a44818461491c565b50505060088101610100830180614a5a816148c4565b9050614a66818461491c565b50505060098101610120830180614a7c816148c4565b9050614a88818461491c565b505050600a8101610140830180614a9e816148c4565b9050614aaa818461491c565b5050505050565b614abb828261493f565b5050565b6000614aca8261327b565b9150614ad58361327b565b925082821015614ae857614ae76145f3565b5b828203905092915050565b7f4e487b7100000000000000000000000000000000000000000000000000000000600052603160045260246000fdfea2646970667358221220db50006f7f11e1a6e35eaa5879f7345600785d5fa2c29400647ec49c41a588da64736f6c634300080d0033",
  "immutableReferences": {},
  "source": "// SPDX-License-Identifier: MIT\npragma solidity ^0.8.13;\n\n// NOTE: all currency is wei\n\ncontract SealedBidAuctionManager {\n    struct UserSetAuctionInfo {\n        // administrative\n        address payable owner;\n        string params;\n        string owner_pkey;\n        // item\n        string itemName;\n        string itemDesc;\n        string itemPicture;\n        // transactional\n        uint256 minimumPrice;\n        uint256 securityDeposit;\n        // dates\n        uint256 biddingEndDate;\n        uint256 revealingEndDate;\n        uint256 sortingEndDate;\n    }\n\n    struct Bid {\n        bool done;\n        // to bid\n        bytes32 c;\n        bytes32 d;\n        // to reveal\n        string z;\n    }\n\n    struct AuctionWinner {\n        string y;\n        address bidder;\n    }\n\n    struct Auction {\n        uint256 id;\n        UserSetAuctionInfo info;\n        mapping(address => Bid) bids;\n        address[] bidders;\n        AuctionState state;\n        AuctionWinner winner;\n    }\n\n    enum AuctionState {\n        BiddingPhase,\n        RevealingPhase,\n        SortingPhase,\n        Ended\n    }\n\n    Auction[] private auctions;\n    bytes testme;\n\n    function setTestme(bytes calldata test) external {\n        testme = test;\n    }\n\n    function getTestme() external view returns (bytes memory) {\n        return testme;\n    }\n\n    // events for logging and subscription\n\n    event NewAuction(uint256 auctionId);\n    event NewBid(uint256 auctionId, address by);\n    event NewReveal(uint256 auctionId, address by);\n    event BidderRemoved(uint256, address who);\n    event WinnerDecided(uint256 auctionId);\n    event AuctionEnds(uint256 auctionId, bool success);\n\n    // modifiers for modularity\n\n    modifier SenderDidNotPlaceABid(uint256 auctionId) {\n        if (auctions[auctionId].bids[msg.sender].c.length != 0)\n            revert(\"Sender has already placed a bid!\");\n        _;\n    }\n\n    modifier SenderPlacedABid(uint256 auctionId) {\n        if (auctions[auctionId].bids[msg.sender].c.length == 0)\n            revert(\"Sender has not placed a bid!\");\n        _;\n    }\n\n    modifier SenderIsOwner(uint256 auctionId) {\n        if (msg.sender != auctions[auctionId].info.owner)\n            revert(\"Sender is not the owner!\");\n        _;\n    }\n\n    modifier SenderIsNotOwner(uint256 auctionId) {\n        if (msg.sender != auctions[auctionId].info.owner)\n            revert(\"Sender is the owner!\");\n        _;\n    }\n\n    modifier AuctionIDIsValid(uint256 auctionId) {\n        if (auctionId >= auctions.length) revert(\"Auction ID is not valid!\");\n        _;\n    }\n\n    modifier CheckAuctionState(uint256 auctionId, AuctionState state) {\n        // set it\n        if (block.timestamp < auctions[auctionId].info.biddingEndDate)\n            auctions[auctionId].state = AuctionState.BiddingPhase;\n        else if (block.timestamp < auctions[auctionId].info.revealingEndDate)\n            auctions[auctionId].state = AuctionState.RevealingPhase;\n        else if (block.timestamp < auctions[auctionId].info.sortingEndDate)\n            auctions[auctionId].state = AuctionState.SortingPhase;\n        else auctions[auctionId].state = AuctionState.Ended;\n\n        // check it\n        if (state != auctions[auctionId].state) {\n            revert(\"Inappropriate operation!\");\n        }\n        _;\n    }\n\n    modifier ValueEquals(uint v) {\n        if (msg.value != v) revert(\"Sent value is not right!\");\n        _;\n    }\n\n    // private functions\n\n    function _stringToBytes32(\n        string memory source\n    ) private pure returns (bytes32 result) {\n        bytes memory b = bytes(source);\n        if (b.length == 0) return 0;\n\n        assembly {\n            result := mload(add(source, 32))\n        }\n    }\n\n    function _removeBidder(uint256 auctionId, uint index) internal {\n        require(index < auctions[auctionId].bidders.length);\n\n        auctions[auctionId].bidders[index] = auctions[auctionId].bidders[\n            auctions[auctionId].bidders.length - 1\n        ];\n        auctions[auctionId].bidders.pop();\n    }\n\n    // external functions to be called at any time\n\n    function getNumberOfRegisteredAuctions() external view returns (uint256) {\n        return auctions.length;\n    }\n\n    function createAuction(\n        UserSetAuctionInfo calldata info\n    ) external payable ValueEquals(info.securityDeposit) returns (uint256) {\n        // validation of auction parameters\n        if (info.minimumPrice == 0)\n            revert(\"Minimum price must be a positive number\");\n\n        if (\n            info.securityDeposit > info.minimumPrice ||\n            info.securityDeposit == 0\n        )\n            revert(\n                \"The relation (0 < Security Deposit < Minimum Price) is not satisfied.\"\n            );\n\n        if (\n            !(// info.verificationEndDate > info.sortingEndDate &&\n            info.sortingEndDate > info.revealingEndDate &&\n                info.revealingEndDate > info.biddingEndDate)\n        ) revert(\"Dates are not in the right order.\");\n\n        // valid? add it\n        Auction storage auction = auctions.push();\n\n        auction.id = auctions.length;\n        auction.info = info;\n        auction.state = AuctionState.BiddingPhase;\n        auction.winner = AuctionWinner({y: \"\", bidder: address(0)});\n\n        emit NewAuction(auction.id);\n        return auction.id;\n    }\n\n    function getAuctionsByState(\n        AuctionState state\n    ) external view returns (UserSetAuctionInfo[] memory) {\n        uint256 count = 0;\n        for (uint256 i = 0; i < auctions.length; i++) {\n            if (auctions[i].state == state) {\n                count++;\n            }\n        }\n\n        UserSetAuctionInfo[] memory data = new UserSetAuctionInfo[](count);\n        uint256 j = 0;\n        for (uint256 i = 0; i < auctions.length; i++) {\n            if (auctions[i].state == state) {\n                data[j] = auctions[i].info;\n                j++;\n            }\n        }\n\n        return data;\n    }\n\n    function getAuctionInfo(\n        uint256 auctionId\n    )\n        external\n        view\n        AuctionIDIsValid(auctionId)\n        returns (UserSetAuctionInfo memory)\n    {\n        return auctions[auctionId].info;\n    }\n\n    // functions to be called throughout the auction process\n\n    function placeBid(\n        uint256 auctionId,\n        string calldata c,\n        string calldata d\n    )\n        external\n        payable\n        AuctionIDIsValid(auctionId)\n        SenderIsNotOwner(auctionId)\n        SenderDidNotPlaceABid(auctionId)\n        CheckAuctionState(auctionId, AuctionState.BiddingPhase)\n        ValueEquals(auctions[auctionId].info.securityDeposit)\n    {\n        auctions[auctionId].bids[msg.sender] = Bid({\n            done: false,\n            c: _stringToBytes32(c),\n            d: _stringToBytes32(d),\n            z: \"\"\n        });\n        auctions[auctionId].bidders[auctions[auctionId].bidders.length] = msg\n            .sender;\n        emit NewBid(auctionId, msg.sender);\n    }\n\n    function revealBid(\n        uint256 auctionId,\n        string calldata z\n    )\n        external\n        AuctionIDIsValid(auctionId)\n        SenderPlacedABid(auctionId)\n        CheckAuctionState(auctionId, AuctionState.RevealingPhase)\n    {\n        // verify commitment\n        if (sha256(bytes(z)) != auctions[auctionId].bids[msg.sender].d)\n            revert(\"Hash is invalid!\");\n\n        auctions[auctionId].bids[msg.sender].z = z;\n        emit NewReveal(auctionId, msg.sender);\n    }\n\n    function getReveals(\n        uint256 auctionId\n    )\n        external\n        AuctionIDIsValid(auctionId)\n        SenderIsOwner(auctionId)\n        CheckAuctionState(auctionId, AuctionState.SortingPhase)\n        returns (string[] memory)\n    {\n        uint256 count = 0;\n        for (uint256 i = 0; i < auctions[auctionId].bidders.length; i++) {\n            address bidder = auctions[auctionId].bidders[i];\n            if (bytes(auctions[auctionId].bids[bidder].z).length == 0) {\n                // remove them, no refunds\n                _removeBidder(auctionId, i);\n                emit BidderRemoved(auctionId, bidder);\n            } else {\n                count++;\n            }\n        }\n\n        string[] memory zs = new string[](count);\n        for (uint256 i = 0; i < auctions[auctionId].bidders.length; i++) {\n            zs[i] = auctions[auctionId].bids[auctions[auctionId].bidders[i]].z;\n        }\n\n        return zs;\n    }\n\n    function declareWinner(\n        uint256 auctionId,\n        AuctionWinner calldata winner\n    )\n        external\n        AuctionIDIsValid(auctionId)\n        SenderIsOwner(auctionId)\n        CheckAuctionState(auctionId, AuctionState.SortingPhase)\n    {\n        // verify commitment\n        if (\n            sha256(bytes(winner.y)) != auctions[auctionId].bids[winner.bidder].c\n        ) revert(\"Hash is invalid!\");\n\n        auctions[auctionId].winner = winner;\n        emit WinnerDecided(auctionId);\n    }\n\n    function getWinner(\n        uint256 auctionId\n    ) external view AuctionIDIsValid(auctionId) returns (AuctionWinner memory) {\n        return auctions[auctionId].winner;\n    }\n\n    function returnDeposit(\n        uint256 auctionId\n    )\n        external\n        AuctionIDIsValid(auctionId)\n        SenderPlacedABid(auctionId)\n        CheckAuctionState(auctionId, AuctionState.Ended)\n    {\n        // no re-entrancy attacks!\n        if (\n            auctions[auctionId].bids[msg.sender].done == false &&\n            msg.sender != auctions[auctionId].winner.bidder\n        ) {\n            auctions[auctionId].bids[msg.sender].done = true;\n        }\n        payable(msg.sender).transfer(auctions[auctionId].info.securityDeposit);\n    }\n}\n",
  "sourcePath": "/home/amr/fghdh/auction-system-webapp/contracts/contracts/SealedBidAuctionManager.sol",
  "compiler": {
    "name": "solc",
    "version": "0.8.13+commit.abaa5c0e.Emscripten.clang"
  },
  "schemaVersion": "3.4.13",
  "updatedAt": "2023-07-04T19:45:55.943Z",
  "networkType": "ethereum",
  "devdoc": {
    "kind": "dev",
    "methods": {},
    "version": 1
  },
  "userdoc": {
    "kind": "user",
    "methods": {},
    "version": 1
  }
}