{
  "contractName": "SealedBidAuctionManager",
  "abi": [
    {
      "anonymous": false,
      "inputs": [
        {
          "indexed": false,
          "internalType": "uint256",
          "name": "auctionId",
          "type": "uint256"
        }
      ],
      "name": "NewAuction",
      "type": "event"
    },
    {
      "anonymous": false,
      "inputs": [
        {
          "indexed": false,
          "internalType": "address",
          "name": "by",
          "type": "address"
        }
      ],
      "name": "NewBid",
      "type": "event"
    },
    {
      "inputs": [],
      "name": "getNumberOfRegisteredAuctions",
      "outputs": [
        {
          "internalType": "uint256",
          "name": "",
          "type": "uint256"
        }
      ],
      "stateMutability": "view",
      "type": "function",
      "constant": true
    },
    {
      "inputs": [
        {
          "components": [
            {
              "internalType": "address payable",
              "name": "seller",
              "type": "address"
            },
            {
              "internalType": "uint256",
              "name": "securityDeposit",
              "type": "uint256"
            },
            {
              "internalType": "uint256",
              "name": "biddingStart",
              "type": "uint256"
            },
            {
              "internalType": "uint256",
              "name": "revealStart",
              "type": "uint256"
            },
            {
              "internalType": "uint256",
              "name": "revealEnd",
              "type": "uint256"
            },
            {
              "internalType": "string",
              "name": "itemName",
              "type": "string"
            },
            {
              "internalType": "string",
              "name": "itemDesc",
              "type": "string"
            }
          ],
          "internalType": "struct SealedBidAuctionManager.UserSetAuctionInfo",
          "name": "auctionInfo",
          "type": "tuple"
        }
      ],
      "name": "createAuction",
      "outputs": [
        {
          "internalType": "uint256",
          "name": "auctionId",
          "type": "uint256"
        }
      ],
      "stateMutability": "nonpayable",
      "type": "function"
    },
    {
      "inputs": [
        {
          "internalType": "uint256",
          "name": "auctionId",
          "type": "uint256"
        }
      ],
      "name": "getAuctionData",
      "outputs": [
        {
          "components": [
            {
              "internalType": "uint256",
              "name": "auctionId",
              "type": "uint256"
            },
            {
              "components": [
                {
                  "internalType": "address payable",
                  "name": "seller",
                  "type": "address"
                },
                {
                  "internalType": "uint256",
                  "name": "securityDeposit",
                  "type": "uint256"
                },
                {
                  "internalType": "uint256",
                  "name": "biddingStart",
                  "type": "uint256"
                },
                {
                  "internalType": "uint256",
                  "name": "revealStart",
                  "type": "uint256"
                },
                {
                  "internalType": "uint256",
                  "name": "revealEnd",
                  "type": "uint256"
                },
                {
                  "internalType": "string",
                  "name": "itemName",
                  "type": "string"
                },
                {
                  "internalType": "string",
                  "name": "itemDesc",
                  "type": "string"
                }
              ],
              "internalType": "struct SealedBidAuctionManager.UserSetAuctionInfo",
              "name": "userSet",
              "type": "tuple"
            }
          ],
          "internalType": "struct SealedBidAuctionManager.PublicAuctionInfo",
          "name": "",
          "type": "tuple"
        }
      ],
      "stateMutability": "view",
      "type": "function",
      "constant": true
    },
    {
      "inputs": [
        {
          "internalType": "uint256",
          "name": "auctionId",
          "type": "uint256"
        },
        {
          "internalType": "uint32",
          "name": "bid",
          "type": "uint32"
        }
      ],
      "name": "placeBid",
      "outputs": [],
      "stateMutability": "payable",
      "type": "function",
      "payable": true
    },
    {
      "inputs": [
        {
          "internalType": "uint256",
          "name": "auctionId",
          "type": "uint256"
        }
      ],
      "name": "withdrawDeposit",
      "outputs": [],
      "stateMutability": "nonpayable",
      "type": "function"
    },
    {
      "inputs": [
        {
          "internalType": "uint256",
          "name": "auctionId",
          "type": "uint256"
        }
      ],
      "name": "transferWinningBidToOwner",
      "outputs": [],
      "stateMutability": "nonpayable",
      "type": "function"
    }
  ],
  "bytecode": "0x608060405234801561001057600080fd5b50611814806100206000396000f3fe6080604052600436106100555760003560e01c806333289a461461005a57806344f27e301461008357806345e481a3146100c0578063893437ae146100eb5780639f750d8514610128578063dd5292e614610144575b600080fd5b34801561006657600080fd5b50610081600480360381019061007c9190610e64565b61016d565b005b34801561008f57600080fd5b506100aa60048036038101906100a59190610e64565b6103d8565b6040516100b7919061105a565b60405180910390f35b3480156100cc57600080fd5b506100d5610620565b6040516100e2919061108b565b60405180910390f35b3480156100f757600080fd5b50610112600480360381019061010d91906112fd565b61062c565b60405161011f919061108b565b60405180910390f35b610142600480360381019061013d9190611382565b61076f565b005b34801561015057600080fd5b5061016b60048036038101906101669190610e64565b610ac6565b005b8060008054905081106101b5576040517f08c379a00000000000000000000000000000000000000000000000000000000081526004016101ac9061141f565b60405180910390fd5b81600081815481106101ca576101c961143f565b5b90600052602060002090600a020160000160010160040154421015610224576040517f08c379a000000000000000000000000000000000000000000000000000000000815260040161021b906114ba565b60405180910390fd5b82600080828154811061023a5761023961143f565b5b90600052602060002090600a020160090160003373ffffffffffffffffffffffffffffffffffffffff1673ffffffffffffffffffffffffffffffffffffffff16815260200190815260200160002060009054906101000a900463ffffffff1663ffffffff16036102df576040517f08c379a00000000000000000000000000000000000000000000000000000000081526004016102d690611526565b60405180910390fd5b60008085815481106102f4576102f361143f565b5b90600052602060002090600a020160090160003373ffffffffffffffffffffffffffffffffffffffff1673ffffffffffffffffffffffffffffffffffffffff16815260200190815260200160002060006101000a81548163ffffffff021916908363ffffffff1602179055503373ffffffffffffffffffffffffffffffffffffffff166108fc6000868154811061038e5761038d61143f565b5b90600052602060002090600a0201600001600101600101549081150290604051600060405180830381858888f193505050501580156103d1573d6000803e3d6000fd5b5050505050565b6103e0610d04565b816000805490508110610428576040517f08c379a000000000000000000000000000000000000000000000000000000000815260040161041f9061141f565b60405180910390fd5b6000838154811061043c5761043b61143f565b5b90600052602060002090600a020160000160405180604001604052908160008201548152602001600182016040518060e00160405290816000820160009054906101000a900473ffffffffffffffffffffffffffffffffffffffff1673ffffffffffffffffffffffffffffffffffffffff1673ffffffffffffffffffffffffffffffffffffffff1681526020016001820154815260200160028201548152602001600382015481526020016004820154815260200160058201805461050090611575565b80601f016020809104026020016040519081016040528092919081815260200182805461052c90611575565b80156105795780601f1061054e57610100808354040283529160200191610579565b820191906000526020600020905b81548152906001019060200180831161055c57829003601f168201915b5050505050815260200160068201805461059290611575565b80601f01602080910402602001604051908101604052809291908181526020018280546105be90611575565b801561060b5780601f106105e05761010080835404028352916020019161060b565b820191906000526020600020905b8154815290600101906020018083116105ee57829003601f168201915b50505050508152505081525050915050919050565b60008080549050905090565b6000808054905090506000806001816001815401808255809150500390600052602060002090600a02019050604051806040016040528083815260200184815250816000016000820151816000015560208201518160010160008201518160000160006101000a81548173ffffffffffffffffffffffffffffffffffffffff021916908373ffffffffffffffffffffffffffffffffffffffff1602179055506020820151816001015560408201518160020155606082015181600301556080820151816004015560a082015181600501908051906020019061070f929190610d24565b5060c082015181600601908051906020019061072c929190610d24565b5050509050507fbdba0fc2c85fe021acfa560c047f0a846648b1b504aa94ab6557cabb04b9425882604051610761919061108b565b60405180910390a150919050565b8160008054905081106107b7576040517f08c379a00000000000000000000000000000000000000000000000000000000081526004016107ae9061141f565b60405180910390fd5b823373ffffffffffffffffffffffffffffffffffffffff16600082815481106107e3576107e261143f565b5b90600052602060002090600a020160000160010160000160009054906101000a900473ffffffffffffffffffffffffffffffffffffffff1673ffffffffffffffffffffffffffffffffffffffff1614806108b55750600080828154811061084d5761084c61143f565b5b90600052602060002090600a020160090160003373ffffffffffffffffffffffffffffffffffffffff1673ffffffffffffffffffffffffffffffffffffffff16815260200190815260200160002060009054906101000a900463ffffffff1663ffffffff1614155b156108f5576040517f08c379a00000000000000000000000000000000000000000000000000000000081526004016108ec90611618565b60405180910390fd5b836000818154811061090a5761090961143f565b5b90600052602060002090600a020160000160010160020154421015801561095b5750600081815481106109405761093f61143f565b5b90600052602060002090600a02016000016001016003015442105b61099a576040517f08c379a000000000000000000000000000000000000000000000000000000000815260040161099190611684565b60405180910390fd5b600085815481106109ae576109ad61143f565b5b90600052602060002090600a0201600001600101600101543414610a07576040517f08c379a00000000000000000000000000000000000000000000000000000000081526004016109fe90611716565b60405180910390fd5b8360008681548110610a1c57610a1b61143f565b5b90600052602060002090600a020160090160003373ffffffffffffffffffffffffffffffffffffffff1673ffffffffffffffffffffffffffffffffffffffff16815260200190815260200160002060006101000a81548163ffffffff021916908363ffffffff1602179055507f1c10a18fffb6543afbf4d75ce6f3cfa56c73dd74e56fdc8c9474f30fc271238633604051610ab79190611757565b60405180910390a15050505050565b806000805490508110610b0e576040517f08c379a0000000000000000000000000000000000000000000000000000000008152600401610b059061141f565b60405180910390fd5b8160008181548110610b2357610b2261143f565b5b90600052602060002090600a020160000160010160040154421015610b7d576040517f08c379a0000000000000000000000000000000000000000000000000000000008152600401610b74906114ba565b60405180910390fd5b8260008181548110610b9257610b9161143f565b5b90600052602060002090600a020160000160010160000160009054906101000a900473ffffffffffffffffffffffffffffffffffffffff1673ffffffffffffffffffffffffffffffffffffffff163373ffffffffffffffffffffffffffffffffffffffff1614610c37576040517f08c379a0000000000000000000000000000000000000000000000000000000008152600401610c2e906117be565b60405180910390fd5b60008481548110610c4b57610c4a61143f565b5b90600052602060002090600a020160080160049054906101000a900473ffffffffffffffffffffffffffffffffffffffff1673ffffffffffffffffffffffffffffffffffffffff166108fc60008681548110610caa57610ca961143f565b5b90600052602060002090600a020160080160009054906101000a900463ffffffff1663ffffffff169081150290604051600060405180830381858888f19350505050158015610cfd573d6000803e3d6000fd5b5050505050565b604051806040016040528060008152602001610d1e610daa565b81525090565b828054610d3090611575565b90600052602060002090601f016020900481019282610d525760008555610d99565b82601f10610d6b57805160ff1916838001178555610d99565b82800160010185558215610d99579182015b82811115610d98578251825591602001919060010190610d7d565b5b509050610da69190610dfd565b5090565b6040518060e00160405280600073ffffffffffffffffffffffffffffffffffffffff1681526020016000815260200160008152602001600081526020016000815260200160608152602001606081525090565b5b80821115610e16576000816000905550600101610dfe565b5090565b6000604051905090565b600080fd5b600080fd5b6000819050919050565b610e4181610e2e565b8114610e4c57600080fd5b50565b600081359050610e5e81610e38565b92915050565b600060208284031215610e7a57610e79610e24565b5b6000610e8884828501610e4f565b91505092915050565b610e9a81610e2e565b82525050565b600073ffffffffffffffffffffffffffffffffffffffff82169050919050565b6000610ecb82610ea0565b9050919050565b610edb81610ec0565b82525050565b600081519050919050565b600082825260208201905092915050565b60005b83811015610f1b578082015181840152602081019050610f00565b83811115610f2a576000848401525b50505050565b6000601f19601f8301169050919050565b6000610f4c82610ee1565b610f568185610eec565b9350610f66818560208601610efd565b610f6f81610f30565b840191505092915050565b600060e083016000830151610f926000860182610ed2565b506020830151610fa56020860182610e91565b506040830151610fb86040860182610e91565b506060830151610fcb6060860182610e91565b506080830151610fde6080860182610e91565b5060a083015184820360a0860152610ff68282610f41565b91505060c083015184820360c08601526110108282610f41565b9150508091505092915050565b60006040830160008301516110356000860182610e91565b506020830151848203602086015261104d8282610f7a565b9150508091505092915050565b60006020820190508181036000830152611074818461101d565b905092915050565b61108581610e2e565b82525050565b60006020820190506110a0600083018461107c565b92915050565b600080fd5b7f4e487b7100000000000000000000000000000000000000000000000000000000600052604160045260246000fd5b6110e382610f30565b810181811067ffffffffffffffff82111715611102576111016110ab565b5b80604052505050565b6000611115610e1a565b905061112182826110da565b919050565b600080fd5b61113481610ec0565b811461113f57600080fd5b50565b6000813590506111518161112b565b92915050565b600080fd5b600080fd5b600067ffffffffffffffff82111561117c5761117b6110ab565b5b61118582610f30565b9050602081019050919050565b82818337600083830152505050565b60006111b46111af84611161565b61110b565b9050828152602081018484840111156111d0576111cf61115c565b5b6111db848285611192565b509392505050565b600082601f8301126111f8576111f7611157565b5b81356112088482602086016111a1565b91505092915050565b600060e08284031215611227576112266110a6565b5b61123160e061110b565b9050600061124184828501611142565b600083015250602061125584828501610e4f565b602083015250604061126984828501610e4f565b604083015250606061127d84828501610e4f565b606083015250608061129184828501610e4f565b60808301525060a082013567ffffffffffffffff8111156112b5576112b4611126565b5b6112c1848285016111e3565b60a08301525060c082013567ffffffffffffffff8111156112e5576112e4611126565b5b6112f1848285016111e3565b60c08301525092915050565b60006020828403121561131357611312610e24565b5b600082013567ffffffffffffffff81111561133157611330610e29565b5b61133d84828501611211565b91505092915050565b600063ffffffff82169050919050565b61135f81611346565b811461136a57600080fd5b50565b60008135905061137c81611356565b92915050565b6000806040838503121561139957611398610e24565b5b60006113a785828601610e4f565b92505060206113b88582860161136d565b9150509250929050565b600082825260208201905092915050565b7f496e76616c69642061756374696f6e2049442100000000000000000000000000600082015250565b60006114096013836113c2565b9150611414826113d3565b602082019050919050565b60006020820190508181036000830152611438816113fc565b9050919050565b7f4e487b7100000000000000000000000000000000000000000000000000000000600052603260045260246000fd5b7f41756374696f6e20686173206e6f7420656e6465642079657421000000000000600082015250565b60006114a4601a836113c2565b91506114af8261146e565b602082019050919050565b600060208201905081810360008301526114d381611497565b9050919050565b7f53656e64657220686173206e6f7420706c616365642061206269642100000000600082015250565b6000611510601c836113c2565b915061151b826114da565b602082019050919050565b6000602082019050818103600083015261153f81611503565b9050919050565b7f4e487b7100000000000000000000000000000000000000000000000000000000600052602260045260246000fd5b6000600282049050600182168061158d57607f821691505b6020821081036115a05761159f611546565b5b50919050565b7f53656e64657220697320656974686572207468652073656c6c6572206f72206860008201527f617320616c726561647920706c61636564206120626964210000000000000000602082015250565b60006116026038836113c2565b915061160d826115a6565b604082019050919050565b60006020820190508181036000830152611631816115f5565b9050919050565b7f42696464696e6720706572696f642068617320656e6465642100000000000000600082015250565b600061166e6019836113c2565b915061167982611638565b602082019050919050565b6000602082019050818103600083015261169d81611661565b9050919050565b7f53656e74206465706f736974206973206e6f7420657175616c20746f2072657160008201527f7569726564206465706f73697421000000000000000000000000000000000000602082015250565b6000611700602e836113c2565b915061170b826116a4565b604082019050919050565b6000602082019050818103600083015261172f816116f3565b9050919050565b600061174182610ea0565b9050919050565b61175181611736565b82525050565b600060208201905061176c6000830184611748565b92915050565b7f53656e646572206973206e6f74207468652073656c6c65722100000000000000600082015250565b60006117a86019836113c2565b91506117b382611772565b602082019050919050565b600060208201905081810360008301526117d78161179b565b905091905056fea2646970667358221220b8e05489d088121c3c6833ef3ec2d764cafb555b8ebe2229b40175f19550f83264736f6c634300080d0033",
  "immutableReferences": {},
  "source": "// SPDX-License-Identifier: MIT\r\npragma solidity ^0.8.13;\r\n\r\n// NOTE: All currency is wei\r\n\r\ncontract SealedBidAuctionManager {\r\n    /**\r\n     * types\r\n     */\r\n\r\n    struct UserSetAuctionInfo {\r\n        address payable seller;\r\n        uint256 securityDeposit;\r\n        // dates\r\n        uint256 biddingStart; // or auctionStart\r\n        uint256 revealStart; // or biddingEnd\r\n        uint256 revealEnd;\r\n        // item\r\n        string itemName;\r\n        string itemDesc;\r\n    }\r\n\r\n    struct PublicAuctionInfo {\r\n        uint256 auctionId;\r\n        UserSetAuctionInfo userSet;\r\n    }\r\n\r\n    struct Auction {\r\n        PublicAuctionInfo info;\r\n        // protocol; redundant, but convenient\r\n        uint32 highestBid;\r\n        address payable highestBidder; // keys into bids\r\n        // participants\r\n        mapping(address => uint32) bids;\r\n\r\n        // bids are hashed using the bidder's public key.\r\n        // this is hiding, and binding: committed.\r\n    }\r\n\r\n    /**\r\n     * state variables\r\n     */\r\n\r\n    Auction[] private auctions;\r\n\r\n    /**\r\n     * events\r\n     */\r\n\r\n    event NewAuction(uint256 auctionId);\r\n    event NewBid(address by);\r\n\r\n    /**\r\n     * modifiers\r\n     */\r\n\r\n    modifier duringBiddingPeriod(uint256 auctionId) {\r\n        if (\r\n            !(block.timestamp >=\r\n                auctions[auctionId].info.userSet.biddingStart &&\r\n                block.timestamp < auctions[auctionId].info.userSet.revealStart)\r\n        ) revert(\"Bidding period has ended!\");\r\n        _;\r\n    }\r\n\r\n    modifier afterAuctionEnded(uint256 auctionId) {\r\n        if (!(block.timestamp >= auctions[auctionId].info.userSet.revealEnd))\r\n            revert(\"Auction has not ended yet!\");\r\n        _;\r\n    }\r\n\r\n    modifier newBidder(uint256 auctionId) {\r\n        if (\r\n            auctions[auctionId].info.userSet.seller == msg.sender ||\r\n            auctions[auctionId].bids[msg.sender] != 0\r\n        ) revert(\"Sender is either the seller or has already placed a bid!\");\r\n        _;\r\n    }\r\n\r\n    modifier existingBidder(uint256 auctionId) {\r\n        if (auctions[auctionId].bids[msg.sender] == 0)\r\n            revert(\"Sender has not placed a bid!\");\r\n        _;\r\n    }\r\n\r\n    modifier onlySeller(uint256 auctionId) {\r\n        if (msg.sender != auctions[auctionId].info.userSet.seller)\r\n            revert(\"Sender is not the seller!\");\r\n        _;\r\n    }\r\n\r\n    modifier validAuctionId(uint256 auctionId) {\r\n        if (auctionId >= auctions.length) revert(\"Invalid auction ID!\");\r\n        _;\r\n    }\r\n\r\n    /**\r\n     * external functions\r\n     */\r\n\r\n    // functions to be called at any time\r\n\r\n    function getNumberOfRegisteredAuctions() external view returns (uint256) {\r\n        return auctions.length;\r\n    }\r\n\r\n    function createAuction(\r\n        UserSetAuctionInfo memory auctionInfo\r\n    ) external returns (uint256 auctionId) {\r\n        // create an auctionId, then add to table\r\n        auctionId = auctions.length;\r\n        Auction storage auction = auctions.push();\r\n        auction.info = PublicAuctionInfo({\r\n            auctionId: auctionId,\r\n            userSet: auctionInfo\r\n        });\r\n        emit NewAuction(auctionId);\r\n    }\r\n\r\n    function getAuctionData(\r\n        uint256 auctionId\r\n    )\r\n        external\r\n        view\r\n        validAuctionId(auctionId)\r\n        returns (PublicAuctionInfo memory)\r\n    {\r\n        return auctions[auctionId].info;\r\n    }\r\n\r\n    // functions to be called during bidding period\r\n\r\n    function placeBid(\r\n        uint256 auctionId,\r\n        uint32 bid\r\n    )\r\n        external\r\n        payable\r\n        validAuctionId(auctionId)\r\n        newBidder(auctionId)\r\n        duringBiddingPeriod(auctionId)\r\n    {\r\n        // transfer security deposit to contract\r\n        if (msg.value != auctions[auctionId].info.userSet.securityDeposit)\r\n            revert(\"Sent deposit is not equal to required deposit!\");\r\n        // hash bid by address (FIXME: ??)\r\n        // bytes32 b = hash(bid);\r\n        auctions[auctionId].bids[msg.sender] = bid;\r\n        emit NewBid(msg.sender);\r\n    }\r\n\r\n    // functions to be called after auction ends\r\n\r\n    function withdrawDeposit(\r\n        uint256 auctionId\r\n    )\r\n        external\r\n        validAuctionId(auctionId)\r\n        afterAuctionEnded(auctionId)\r\n        existingBidder(auctionId)\r\n    {\r\n        auctions[auctionId].bids[msg.sender] = 0;\r\n        payable(msg.sender).transfer(\r\n            auctions[auctionId].info.userSet.securityDeposit\r\n        );\r\n    }\r\n\r\n    function transferWinningBidToOwner(\r\n        uint256 auctionId\r\n    )\r\n        external\r\n        validAuctionId(auctionId)\r\n        afterAuctionEnded(auctionId)\r\n        onlySeller(auctionId)\r\n    {\r\n        // FIXME: \"unhash\" the bid\r\n        auctions[auctionId].highestBidder.transfer(\r\n            auctions[auctionId].highestBid\r\n        );\r\n    }\r\n}\r\n",
  "sourcePath": "F:\\college\\grad1\\learn solidity\\auction-system-webapp\\contracts\\contracts\\SealedBidAuctionManager.sol",
  "compiler": {
    "name": "solc",
    "version": "0.8.13+commit.abaa5c0e.Emscripten.clang"
  },
  "schemaVersion": "3.4.4",
  "updatedAt": "2023-05-19T21:24:28.787Z",
  "networkType": "ethereum",
  "devdoc": {
    "kind": "dev",
    "methods": {},
    "version": 1
  },
  "userdoc": {
    "events": {
      "NewAuction(uint256)": {
        "notice": "events"
      }
    },
    "kind": "user",
    "methods": {
      "getNumberOfRegisteredAuctions()": {
        "notice": "external functions"
      }
    },
    "version": 1
  }
}