{
  "contractName": "SealedBidAuctionManager",
  "abi": [
    {
      "anonymous": false,
      "inputs": [
        {
          "indexed": false,
          "internalType": "bool",
          "name": "success",
          "type": "bool"
        }
      ],
      "name": "AuctionEnds",
      "type": "event"
    },
    {
      "anonymous": false,
      "inputs": [
        {
          "indexed": false,
          "internalType": "address",
          "name": "winner",
          "type": "address"
        }
      ],
      "name": "AuctionWasWon",
      "type": "event"
    },
    {
      "anonymous": false,
      "inputs": [
        {
          "indexed": false,
          "internalType": "uint256",
          "name": "auctionId",
          "type": "uint256"
        }
      ],
      "name": "NewAuction",
      "type": "event"
    },
    {
      "anonymous": false,
      "inputs": [
        {
          "indexed": false,
          "internalType": "address",
          "name": "by",
          "type": "address"
        }
      ],
      "name": "NewBid",
      "type": "event"
    },
    {
      "inputs": [],
      "name": "getNumberOfRegisteredAuctions",
      "outputs": [
        {
          "internalType": "uint256",
          "name": "",
          "type": "uint256"
        }
      ],
      "stateMutability": "view",
      "type": "function",
      "constant": true
    },
    {
      "inputs": [
        {
          "components": [
            {
              "internalType": "address payable",
              "name": "seller",
              "type": "address"
            },
            {
              "internalType": "uint256",
              "name": "securityDeposit",
              "type": "uint256"
            },
            {
              "internalType": "uint256",
              "name": "minimumPrice",
              "type": "uint256"
            },
            {
              "internalType": "uint256",
              "name": "biddingEndDate",
              "type": "uint256"
            },
            {
              "internalType": "uint256",
              "name": "confirmationEndDate",
              "type": "uint256"
            },
            {
              "internalType": "string",
              "name": "itemName",
              "type": "string"
            },
            {
              "internalType": "string",
              "name": "itemDesc",
              "type": "string"
            },
            {
              "internalType": "string",
              "name": "itemPicture",
              "type": "string"
            }
          ],
          "internalType": "struct SealedBidAuctionManager.UserSetAuctionInfo",
          "name": "auctionInfo",
          "type": "tuple"
        }
      ],
      "name": "createAuction",
      "outputs": [
        {
          "internalType": "uint256",
          "name": "auctionId",
          "type": "uint256"
        }
      ],
      "stateMutability": "nonpayable",
      "type": "function"
    },
    {
      "inputs": [
        {
          "internalType": "uint256",
          "name": "auctionId",
          "type": "uint256"
        }
      ],
      "name": "getAuctionData",
      "outputs": [
        {
          "components": [
            {
              "internalType": "uint256",
              "name": "auctionId",
              "type": "uint256"
            },
            {
              "components": [
                {
                  "internalType": "address payable",
                  "name": "seller",
                  "type": "address"
                },
                {
                  "internalType": "uint256",
                  "name": "securityDeposit",
                  "type": "uint256"
                },
                {
                  "internalType": "uint256",
                  "name": "minimumPrice",
                  "type": "uint256"
                },
                {
                  "internalType": "uint256",
                  "name": "biddingEndDate",
                  "type": "uint256"
                },
                {
                  "internalType": "uint256",
                  "name": "confirmationEndDate",
                  "type": "uint256"
                },
                {
                  "internalType": "string",
                  "name": "itemName",
                  "type": "string"
                },
                {
                  "internalType": "string",
                  "name": "itemDesc",
                  "type": "string"
                },
                {
                  "internalType": "string",
                  "name": "itemPicture",
                  "type": "string"
                }
              ],
              "internalType": "struct SealedBidAuctionManager.UserSetAuctionInfo",
              "name": "userSet",
              "type": "tuple"
            },
            {
              "internalType": "enum SealedBidAuctionManager.AuctionState",
              "name": "state",
              "type": "uint8"
            }
          ],
          "internalType": "struct SealedBidAuctionManager.PublicAuctionInfo",
          "name": "",
          "type": "tuple"
        }
      ],
      "stateMutability": "view",
      "type": "function",
      "constant": true
    },
    {
      "inputs": [],
      "name": "getActiveAuctions",
      "outputs": [
        {
          "components": [
            {
              "internalType": "uint256",
              "name": "auctionId",
              "type": "uint256"
            },
            {
              "components": [
                {
                  "internalType": "address payable",
                  "name": "seller",
                  "type": "address"
                },
                {
                  "internalType": "uint256",
                  "name": "securityDeposit",
                  "type": "uint256"
                },
                {
                  "internalType": "uint256",
                  "name": "minimumPrice",
                  "type": "uint256"
                },
                {
                  "internalType": "uint256",
                  "name": "biddingEndDate",
                  "type": "uint256"
                },
                {
                  "internalType": "uint256",
                  "name": "confirmationEndDate",
                  "type": "uint256"
                },
                {
                  "internalType": "string",
                  "name": "itemName",
                  "type": "string"
                },
                {
                  "internalType": "string",
                  "name": "itemDesc",
                  "type": "string"
                },
                {
                  "internalType": "string",
                  "name": "itemPicture",
                  "type": "string"
                }
              ],
              "internalType": "struct SealedBidAuctionManager.UserSetAuctionInfo",
              "name": "userSet",
              "type": "tuple"
            },
            {
              "internalType": "enum SealedBidAuctionManager.AuctionState",
              "name": "state",
              "type": "uint8"
            }
          ],
          "internalType": "struct SealedBidAuctionManager.PublicAuctionInfo[]",
          "name": "",
          "type": "tuple[]"
        }
      ],
      "stateMutability": "view",
      "type": "function",
      "constant": true
    },
    {
      "inputs": [
        {
          "internalType": "uint256",
          "name": "auctionId",
          "type": "uint256"
        },
        {
          "internalType": "uint32",
          "name": "bid",
          "type": "uint32"
        }
      ],
      "name": "placeBid",
      "outputs": [],
      "stateMutability": "payable",
      "type": "function",
      "payable": true
    },
    {
      "inputs": [
        {
          "internalType": "uint256",
          "name": "auctionId",
          "type": "uint256"
        }
      ],
      "name": "returnDeposit",
      "outputs": [],
      "stateMutability": "nonpayable",
      "type": "function"
    },
    {
      "inputs": [
        {
          "internalType": "uint256",
          "name": "auctionId",
          "type": "uint256"
        }
      ],
      "name": "transferWinningBidToOwner",
      "outputs": [],
      "stateMutability": "nonpayable",
      "type": "function"
    }
  ],
  "bytecode": "0x608060405234801561001057600080fd5b50612a93806100206000396000f3fe6080604052600436106100705760003560e01c806345e481a31161004e57806345e481a3146101185780639f750d8514610143578063cf44b5d51461015f578063dd5292e61461018a57610070565b806318b683fb146100755780631d6287651461009e57806344f27e30146100db575b600080fd5b34801561008157600080fd5b5061009c60048036038101906100979190611df5565b6101b3565b005b3480156100aa57600080fd5b506100c560048036038101906100c091906120ee565b6106fc565b6040516100d29190612146565b60405180910390f35b3480156100e757600080fd5b5061010260048036038101906100fd9190611df5565b6108a5565b60405161010f919061238c565b60405180910390f35b34801561012457600080fd5b5061012d610bbb565b60405161013a9190612146565b60405180910390f35b61015d600480360381019061015891906123ea565b610bc7565b005b34801561016b57600080fd5b5061017461122c565b604051610181919061253c565b60405180910390f35b34801561019657600080fd5b506101b160048036038101906101ac9190611df5565b611695565b005b8060008054905081106101fb576040517f08c379a00000000000000000000000000000000000000000000000000000000081526004016101f2906125bb565b60405180910390fd5b816000808281548110610211576102106125db565b5b90600052602060002090600c0201600b0160003373ffffffffffffffffffffffffffffffffffffffff1673ffffffffffffffffffffffffffffffffffffffff16815260200190815260200160002060009054906101000a900463ffffffff1663ffffffff16036102b6576040517f08c379a00000000000000000000000000000000000000000000000000000000081526004016102ad90612656565b60405180910390fd5b82600081815481106102cb576102ca6125db565b5b90600052602060002090600c02016000016001016003015442101561033f5760008082815481106102ff576102fe6125db565b5b90600052602060002090600c020160000160090160006101000a81548160ff02191690836003811115610335576103346122c5565b5b0217905550610537565b61034881611c69565b6103a257600160008281548110610362576103616125db565b5b90600052602060002090600c020160000160090160006101000a81548160ff02191690836003811115610398576103976122c5565b5b0217905550610536565b600081815481106103b6576103b56125db565b5b90600052602060002090600c02016000016001016004015442101561042b576003600082815481106103eb576103ea6125db565b5b90600052602060002090600c020160000160090160006101000a81548160ff02191690836003811115610421576104206122c5565b5b0217905550610535565b6002600381111561043f5761043e6122c5565b5b60008281548110610453576104526125db565b5b90600052602060002090600c020160000160090160009054906101000a900460ff166003811115610487576104866122c5565b5b146104e2576001600082815481106104a2576104a16125db565b5b90600052602060002090600c020160000160090160006101000a81548160ff021916908360038111156104d8576104d76122c5565b5b0217905550610534565b6002600082815481106104f8576104f76125db565b5b90600052602060002090600c020160000160090160006101000a81548160ff0219169083600381111561052e5761052d6122c5565b5b02179055505b5b5b5b83600080828154811061054d5761054c6125db565b5b90600052602060002090600c020160000160090160009054906101000a900460ff166003811115610581576105806122c5565b5b816003811115610594576105936122c5565b5b0361060157600060038111156105ad576105ac6122c5565b5b8160038111156105c0576105bf6122c5565b5b03610600576040517f08c379a00000000000000000000000000000000000000000000000000000000081526004016105f7906126c2565b60405180910390fd5b5b6000808781548110610616576106156125db565b5b90600052602060002090600c0201600b0160003373ffffffffffffffffffffffffffffffffffffffff1673ffffffffffffffffffffffffffffffffffffffff16815260200190815260200160002060006101000a81548163ffffffff021916908363ffffffff1602179055503373ffffffffffffffffffffffffffffffffffffffff166108fc600088815481106106b0576106af6125db565b5b90600052602060002090600c0201600001600101600101549081150290604051600060405180830381858888f193505050501580156106f3573d6000803e3d6000fd5b50505050505050565b6000808054905090506000806001816001815401808255809150500390600052602060002090600c02019050604051806060016040528083815260200184815260200160006003811115610753576107526122c5565b5b815250816000016000820151816000015560208201518160010160008201518160000160006101000a81548173ffffffffffffffffffffffffffffffffffffffff021916908373ffffffffffffffffffffffffffffffffffffffff1602179055506020820151816001015560408201518160020155606082015181600301556080820151816004015560a08201518160050190805190602001906107f8929190611c74565b5060c0820151816006019080519060200190610815929190611c74565b5060e0820151816007019080519060200190610832929190611c74565b50505060408201518160090160006101000a81548160ff021916908360038111156108605761085f6122c5565b5b02179055509050507fbdba0fc2c85fe021acfa560c047f0a846648b1b504aa94ab6557cabb04b94258826040516108979190612146565b60405180910390a150919050565b6108ad611cfa565b8160008054905081106108f5576040517f08c379a00000000000000000000000000000000000000000000000000000000081526004016108ec906125bb565b60405180910390fd5b60008381548110610909576109086125db565b5b90600052602060002090600c02016000016040518060600160405290816000820154815260200160018201604051806101000160405290816000820160009054906101000a900473ffffffffffffffffffffffffffffffffffffffff1673ffffffffffffffffffffffffffffffffffffffff1673ffffffffffffffffffffffffffffffffffffffff168152602001600182015481526020016002820154815260200160038201548152602001600482015481526020016005820180546109ce90612711565b80601f01602080910402602001604051908101604052809291908181526020018280546109fa90612711565b8015610a475780601f10610a1c57610100808354040283529160200191610a47565b820191906000526020600020905b815481529060010190602001808311610a2a57829003601f168201915b50505050508152602001600682018054610a6090612711565b80601f0160208091040260200160405190810160405280929190818152602001828054610a8c90612711565b8015610ad95780601f10610aae57610100808354040283529160200191610ad9565b820191906000526020600020905b815481529060010190602001808311610abc57829003601f168201915b50505050508152602001600782018054610af290612711565b80601f0160208091040260200160405190810160405280929190818152602001828054610b1e90612711565b8015610b6b5780601f10610b4057610100808354040283529160200191610b6b565b820191906000526020600020905b815481529060010190602001808311610b4e57829003601f168201915b50505050508152505081526020016009820160009054906101000a900460ff166003811115610b9d57610b9c6122c5565b5b6003811115610baf57610bae6122c5565b5b81525050915050919050565b60008080549050905090565b816000805490508110610c0f576040517f08c379a0000000000000000000000000000000000000000000000000000000008152600401610c06906125bb565b60405180910390fd5b823373ffffffffffffffffffffffffffffffffffffffff1660008281548110610c3b57610c3a6125db565b5b90600052602060002090600c020160000160010160000160009054906101000a900473ffffffffffffffffffffffffffffffffffffffff1673ffffffffffffffffffffffffffffffffffffffff161480610d0d57506000808281548110610ca557610ca46125db565b5b90600052602060002090600c0201600b0160003373ffffffffffffffffffffffffffffffffffffffff1673ffffffffffffffffffffffffffffffffffffffff16815260200190815260200160002060009054906101000a900463ffffffff1663ffffffff1614155b15610d4d576040517f08c379a0000000000000000000000000000000000000000000000000000000008152600401610d44906127b4565b60405180910390fd5b8360008181548110610d6257610d616125db565b5b90600052602060002090600c020160000160010160030154421015610dd6576000808281548110610d9657610d956125db565b5b90600052602060002090600c020160000160090160006101000a81548160ff02191690836003811115610dcc57610dcb6122c5565b5b0217905550610fce565b610ddf81611c69565b610e3957600160008281548110610df957610df86125db565b5b90600052602060002090600c020160000160090160006101000a81548160ff02191690836003811115610e2f57610e2e6122c5565b5b0217905550610fcd565b60008181548110610e4d57610e4c6125db565b5b90600052602060002090600c020160000160010160040154421015610ec257600360008281548110610e8257610e816125db565b5b90600052602060002090600c020160000160090160006101000a81548160ff02191690836003811115610eb857610eb76122c5565b5b0217905550610fcc565b60026003811115610ed657610ed56122c5565b5b60008281548110610eea57610ee96125db565b5b90600052602060002090600c020160000160090160009054906101000a900460ff166003811115610f1e57610f1d6122c5565b5b14610f7957600160008281548110610f3957610f386125db565b5b90600052602060002090600c020160000160090160006101000a81548160ff02191690836003811115610f6f57610f6e6122c5565b5b0217905550610fcb565b600260008281548110610f8f57610f8e6125db565b5b90600052602060002090600c020160000160090160006101000a81548160ff02191690836003811115610fc557610fc46122c5565b5b02179055505b5b5b5b846000808281548110610fe457610fe36125db565b5b90600052602060002090600c020160000160090160009054906101000a900460ff166003811115611018576110176122c5565b5b81600381111561102b5761102a6122c5565b5b146110fe5760006003811115611044576110436122c5565b5b816003811115611057576110566122c5565b5b03611097576040517f08c379a000000000000000000000000000000000000000000000000000000000815260040161108e90612820565b60405180910390fd5b6003808111156110aa576110a96122c5565b5b8160038111156110bd576110bc6122c5565b5b036110fd576040517f08c379a00000000000000000000000000000000000000000000000000000000081526004016110f49061288c565b60405180910390fd5b5b60008781548110611112576111116125db565b5b90600052602060002090600c020160000160010160010154341461116b576040517f08c379a00000000000000000000000000000000000000000000000000000000081526004016111629061291e565b60405180910390fd5b85600088815481106111805761117f6125db565b5b90600052602060002090600c0201600b0160003373ffffffffffffffffffffffffffffffffffffffff1673ffffffffffffffffffffffffffffffffffffffff16815260200190815260200160002060006101000a81548163ffffffff021916908363ffffffff1602179055507f1c10a18fffb6543afbf4d75ce6f3cfa56c73dd74e56fdc8c9474f30fc27123863360405161121b919061295f565b60405180910390a150505050505050565b60606000805b6000805490508110156112c25760006003811115611253576112526122c5565b5b60008281548110611267576112666125db565b5b90600052602060002090600c020160000160090160009054906101000a900460ff16600381111561129b5761129a6122c5565b5b036112af5781806112ab906129a9565b9250505b80806112ba906129a9565b915050611232565b5060008167ffffffffffffffff8111156112df576112de611e38565b5b60405190808252806020026020018201604052801561131857816020015b611305611cfa565b8152602001906001900390816112fd5790505b5090506000805b60008054905081101561168b57600060038111156113405761133f6122c5565b5b60008281548110611354576113536125db565b5b90600052602060002090600c020160000160090160009054906101000a900460ff166003811115611388576113876122c5565b5b0361167857600081815481106113a1576113a06125db565b5b90600052602060002090600c02016000016040518060600160405290816000820154815260200160018201604051806101000160405290816000820160009054906101000a900473ffffffffffffffffffffffffffffffffffffffff1673ffffffffffffffffffffffffffffffffffffffff1673ffffffffffffffffffffffffffffffffffffffff1681526020016001820154815260200160028201548152602001600382015481526020016004820154815260200160058201805461146690612711565b80601f016020809104026020016040519081016040528092919081815260200182805461149290612711565b80156114df5780601f106114b4576101008083540402835291602001916114df565b820191906000526020600020905b8154815290600101906020018083116114c257829003601f168201915b505050505081526020016006820180546114f890612711565b80601f016020809104026020016040519081016040528092919081815260200182805461152490612711565b80156115715780601f1061154657610100808354040283529160200191611571565b820191906000526020600020905b81548152906001019060200180831161155457829003601f168201915b5050505050815260200160078201805461158a90612711565b80601f01602080910402602001604051908101604052809291908181526020018280546115b690612711565b80156116035780601f106115d857610100808354040283529160200191611603565b820191906000526020600020905b8154815290600101906020018083116115e657829003601f168201915b50505050508152505081526020016009820160009054906101000a900460ff166003811115611635576116346122c5565b5b6003811115611647576116466122c5565b5b8152505083838151811061165e5761165d6125db565b5b60200260200101819052508180611674906129a9565b9250505b8080611683906129a9565b91505061131f565b5081935050505090565b8060008054905081106116dd576040517f08c379a00000000000000000000000000000000000000000000000000000000081526004016116d4906125bb565b60405180910390fd5b81600081815481106116f2576116f16125db565b5b90600052602060002090600c020160000160010160000160009054906101000a900473ffffffffffffffffffffffffffffffffffffffff1673ffffffffffffffffffffffffffffffffffffffff163373ffffffffffffffffffffffffffffffffffffffff1614611797576040517f08c379a000000000000000000000000000000000000000000000000000000000815260040161178e90612a3d565b60405180910390fd5b82600081815481106117ac576117ab6125db565b5b90600052602060002090600c0201600001600101600301544210156118205760008082815481106117e0576117df6125db565b5b90600052602060002090600c020160000160090160006101000a81548160ff02191690836003811115611816576118156122c5565b5b0217905550611a18565b61182981611c69565b61188357600160008281548110611843576118426125db565b5b90600052602060002090600c020160000160090160006101000a81548160ff02191690836003811115611879576118786122c5565b5b0217905550611a17565b60008181548110611897576118966125db565b5b90600052602060002090600c02016000016001016004015442101561190c576003600082815481106118cc576118cb6125db565b5b90600052602060002090600c020160000160090160006101000a81548160ff02191690836003811115611902576119016122c5565b5b0217905550611a16565b600260038111156119205761191f6122c5565b5b60008281548110611934576119336125db565b5b90600052602060002090600c020160000160090160009054906101000a900460ff166003811115611968576119676122c5565b5b146119c357600160008281548110611983576119826125db565b5b90600052602060002090600c020160000160090160006101000a81548160ff021916908360038111156119b9576119b86122c5565b5b0217905550611a15565b6002600082815481106119d9576119d86125db565b5b90600052602060002090600c020160000160090160006101000a81548160ff02191690836003811115611a0f57611a0e6122c5565b5b02179055505b5b5b5b83600360008281548110611a2f57611a2e6125db565b5b90600052602060002090600c020160000160090160009054906101000a900460ff166003811115611a6357611a626122c5565b5b816003811115611a7657611a756122c5565b5b14611b495760006003811115611a8f57611a8e6122c5565b5b816003811115611aa257611aa16122c5565b5b03611ae2576040517f08c379a0000000000000000000000000000000000000000000000000000000008152600401611ad990612820565b60405180910390fd5b600380811115611af557611af46122c5565b5b816003811115611b0857611b076122c5565b5b03611b48576040517f08c379a0000000000000000000000000000000000000000000000000000000008152600401611b3f9061288c565b60405180910390fd5b5b600260008781548110611b5f57611b5e6125db565b5b90600052602060002090600c020160000160090160006101000a81548160ff02191690836003811115611b9557611b946122c5565b5b021790555060008681548110611bae57611bad6125db565b5b90600052602060002090600c0201600a0160049054906101000a900473ffffffffffffffffffffffffffffffffffffffff1673ffffffffffffffffffffffffffffffffffffffff166108fc60008881548110611c0d57611c0c6125db565b5b90600052602060002090600c0201600a0160009054906101000a900463ffffffff1663ffffffff169081150290604051600060405180830381858888f19350505050158015611c60573d6000803e3d6000fd5b50505050505050565b600060019050919050565b828054611c8090612711565b90600052602060002090601f016020900481019282611ca25760008555611ce9565b82601f10611cbb57805160ff1916838001178555611ce9565b82800160010185558215611ce9579182015b82811115611ce8578251825591602001919060010190611ccd565b5b509050611cf69190611d33565b5090565b604051806060016040528060008152602001611d14611d50565b815260200160006003811115611d2d57611d2c6122c5565b5b81525090565b5b80821115611d4c576000816000905550600101611d34565b5090565b604051806101000160405280600073ffffffffffffffffffffffffffffffffffffffff168152602001600081526020016000815260200160008152602001600081526020016060815260200160608152602001606081525090565b6000604051905090565b600080fd5b600080fd5b6000819050919050565b611dd281611dbf565b8114611ddd57600080fd5b50565b600081359050611def81611dc9565b92915050565b600060208284031215611e0b57611e0a611db5565b5b6000611e1984828501611de0565b91505092915050565b600080fd5b6000601f19601f8301169050919050565b7f4e487b7100000000000000000000000000000000000000000000000000000000600052604160045260246000fd5b611e7082611e27565b810181811067ffffffffffffffff82111715611e8f57611e8e611e38565b5b80604052505050565b6000611ea2611dab565b9050611eae8282611e67565b919050565b600080fd5b600073ffffffffffffffffffffffffffffffffffffffff82169050919050565b6000611ee382611eb8565b9050919050565b611ef381611ed8565b8114611efe57600080fd5b50565b600081359050611f1081611eea565b92915050565b600080fd5b600080fd5b600067ffffffffffffffff821115611f3b57611f3a611e38565b5b611f4482611e27565b9050602081019050919050565b82818337600083830152505050565b6000611f73611f6e84611f20565b611e98565b905082815260208101848484011115611f8f57611f8e611f1b565b5b611f9a848285611f51565b509392505050565b600082601f830112611fb757611fb6611f16565b5b8135611fc7848260208601611f60565b91505092915050565b60006101008284031215611fe757611fe6611e22565b5b611ff2610100611e98565b9050600061200284828501611f01565b600083015250602061201684828501611de0565b602083015250604061202a84828501611de0565b604083015250606061203e84828501611de0565b606083015250608061205284828501611de0565b60808301525060a082013567ffffffffffffffff81111561207657612075611eb3565b5b61208284828501611fa2565b60a08301525060c082013567ffffffffffffffff8111156120a6576120a5611eb3565b5b6120b284828501611fa2565b60c08301525060e082013567ffffffffffffffff8111156120d6576120d5611eb3565b5b6120e284828501611fa2565b60e08301525092915050565b60006020828403121561210457612103611db5565b5b600082013567ffffffffffffffff81111561212257612121611dba565b5b61212e84828501611fd0565b91505092915050565b61214081611dbf565b82525050565b600060208201905061215b6000830184612137565b92915050565b61216a81611dbf565b82525050565b61217981611ed8565b82525050565b600081519050919050565b600082825260208201905092915050565b60005b838110156121b957808201518184015260208101905061219e565b838111156121c8576000848401525b50505050565b60006121d98261217f565b6121e3818561218a565b93506121f381856020860161219b565b6121fc81611e27565b840191505092915050565b6000610100830160008301516122206000860182612170565b5060208301516122336020860182612161565b5060408301516122466040860182612161565b5060608301516122596060860182612161565b50608083015161226c6080860182612161565b5060a083015184820360a086015261228482826121ce565b91505060c083015184820360c086015261229e82826121ce565b91505060e083015184820360e08601526122b882826121ce565b9150508091505092915050565b7f4e487b7100000000000000000000000000000000000000000000000000000000600052602160045260246000fd5b60048110612305576123046122c5565b5b50565b6000819050612316826122f4565b919050565b600061232682612308565b9050919050565b6123368161231b565b82525050565b60006060830160008301516123546000860182612161565b506020830151848203602086015261236c8282612207565b9150506040830151612381604086018261232d565b508091505092915050565b600060208201905081810360008301526123a6818461233c565b905092915050565b600063ffffffff82169050919050565b6123c7816123ae565b81146123d257600080fd5b50565b6000813590506123e4816123be565b92915050565b6000806040838503121561240157612400611db5565b5b600061240f85828601611de0565b9250506020612420858286016123d5565b9150509250929050565b600081519050919050565b600082825260208201905092915050565b6000819050602082019050919050565b600060608301600083015161246e6000860182612161565b50602083015184820360208601526124868282612207565b915050604083015161249b604086018261232d565b508091505092915050565b60006124b28383612456565b905092915050565b6000602082019050919050565b60006124d28261242a565b6124dc8185612435565b9350836020820285016124ee85612446565b8060005b8581101561252a578484038952815161250b85826124a6565b9450612516836124ba565b925060208a019950506001810190506124f2565b50829750879550505050505092915050565b6000602082019050818103600083015261255681846124c7565b905092915050565b600082825260208201905092915050565b7f496e76616c69642061756374696f6e2049442100000000000000000000000000600082015250565b60006125a560138361255e565b91506125b08261256f565b602082019050919050565b600060208201905081810360008301526125d481612598565b9050919050565b7f4e487b7100000000000000000000000000000000000000000000000000000000600052603260045260246000fd5b7f53656e64657220686173206e6f7420706c616365642061206269642100000000600082015250565b6000612640601c8361255e565b915061264b8261260a565b602082019050919050565b6000602082019050818103600083015261266f81612633565b9050919050565b7f41756374696f6e206973207374696c6c20616374697665210000000000000000600082015250565b60006126ac60188361255e565b91506126b782612676565b602082019050919050565b600060208201905081810360008301526126db8161269f565b9050919050565b7f4e487b7100000000000000000000000000000000000000000000000000000000600052602260045260246000fd5b6000600282049050600182168061272957607f821691505b60208210810361273c5761273b6126e2565b5b50919050565b7f53656e64657220697320656974686572207468652073656c6c6572206f72206860008201527f617320616c726561647920706c61636564206120626964210000000000000000602082015250565b600061279e60388361255e565b91506127a982612742565b604082019050919050565b600060208201905081810360008301526127cd81612791565b9050919050565b7f42696464696e6720706572696f642068617320656e6465642100000000000000600082015250565b600061280a60198361255e565b9150612815826127d4565b602082019050919050565b60006020820190508181036000830152612839816127fd565b9050919050565b7f4e6f7420696e20636f6e6669726d6174696f6e20706572696f64210000000000600082015250565b6000612876601b8361255e565b915061288182612840565b602082019050919050565b600060208201905081810360008301526128a581612869565b9050919050565b7f53656e74206465706f736974206973206e6f7420657175616c20746f2072657160008201527f7569726564206465706f73697421000000000000000000000000000000000000602082015250565b6000612908602e8361255e565b9150612913826128ac565b604082019050919050565b60006020820190508181036000830152612937816128fb565b9050919050565b600061294982611eb8565b9050919050565b6129598161293e565b82525050565b60006020820190506129746000830184612950565b92915050565b7f4e487b7100000000000000000000000000000000000000000000000000000000600052601160045260246000fd5b60006129b482611dbf565b91507fffffffffffffffffffffffffffffffffffffffffffffffffffffffffffffffff82036129e6576129e561297a565b5b600182019050919050565b7f53656e646572206973206e6f74207468652073656c6c65722100000000000000600082015250565b6000612a2760198361255e565b9150612a32826129f1565b602082019050919050565b60006020820190508181036000830152612a5681612a1a565b905091905056fea2646970667358221220a7a2d35af201b2ed23cd7112ff4e44fba193f7883fa11b72a778797e250b018264736f6c634300080d0033",
  "immutableReferences": {},
  "source": "// SPDX-License-Identifier: MIT\r\npragma solidity ^0.8.13;\r\n\r\n// NOTE: All currency is wei\r\n\r\n// TODO: compute securityDeposit = minimumPrice * 0.02\r\n\r\ncontract SealedBidAuctionManager {\r\n    /**\r\n     * types\r\n     */\r\n\r\n    struct UserSetAuctionInfo {\r\n        address payable seller;\r\n        // auction rules\r\n        uint256 securityDeposit; // FIXME\r\n        uint256 minimumPrice;\r\n        // dates\r\n        uint256 biddingEndDate;\r\n        uint256 confirmationEndDate;\r\n        // item\r\n        string itemName;\r\n        string itemDesc;\r\n        string itemPicture;\r\n    }\r\n\r\n    enum AuctionState {\r\n        Active,\r\n        Failure,\r\n        Success,\r\n        InConfirmation\r\n    }\r\n\r\n    struct PublicAuctionInfo {\r\n        uint256 auctionId;\r\n        UserSetAuctionInfo userSet;\r\n        AuctionState state;\r\n    }\r\n\r\n    struct Auction {\r\n        PublicAuctionInfo info;\r\n        // protocol; redundant, but convenient\r\n        uint32 highestBid;\r\n        address payable highestBidder; // keys into bids\r\n        // participants\r\n        mapping(address => uint32) bids;\r\n\r\n        // bids maps bidder to their pedersen-commited bid.\r\n    }\r\n\r\n    /**\r\n     * state variables\r\n     */\r\n\r\n    Auction[] private auctions;\r\n\r\n    /**\r\n     * events\r\n     */\r\n\r\n    // for logging\r\n    event NewAuction(uint256 auctionId);\r\n    event NewBid(address by);\r\n\r\n    // for subscription\r\n    event AuctionEnds(bool success);\r\n    event AuctionWasWon(address winner);\r\n\r\n    /**\r\n     * modifiers\r\n     */\r\n\r\n    modifier newBidder(uint256 auctionId) {\r\n        if (\r\n            auctions[auctionId].info.userSet.seller == msg.sender ||\r\n            auctions[auctionId].bids[msg.sender] != 0\r\n        ) revert(\"Sender is either the seller or has already placed a bid!\");\r\n        _;\r\n    }\r\n\r\n    modifier existingBidder(uint256 auctionId) {\r\n        if (auctions[auctionId].bids[msg.sender] == 0)\r\n            revert(\"Sender has not placed a bid!\");\r\n        _;\r\n    }\r\n\r\n    modifier onlySeller(uint256 auctionId) {\r\n        if (msg.sender != auctions[auctionId].info.userSet.seller)\r\n            revert(\"Sender is not the seller!\");\r\n        _;\r\n    }\r\n\r\n    modifier validAuctionId(uint256 auctionId) {\r\n        if (auctionId >= auctions.length) revert(\"Invalid auction ID!\");\r\n        _;\r\n    }\r\n\r\n    modifier setAuctionState(uint256 auctionId) {\r\n        if (block.timestamp < auctions[auctionId].info.userSet.biddingEndDate)\r\n            auctions[auctionId].info.state = AuctionState.Active;\r\n        else if (!minimumPriceRequirementMet(auctionId))\r\n            auctions[auctionId].info.state = AuctionState.Failure;\r\n        else if (\r\n            block.timestamp <\r\n            auctions[auctionId].info.userSet.confirmationEndDate\r\n        ) auctions[auctionId].info.state = AuctionState.InConfirmation;\r\n        else if (auctions[auctionId].info.state != AuctionState.Success)\r\n            auctions[auctionId].info.state = AuctionState.Failure;\r\n        else auctions[auctionId].info.state = AuctionState.Success;\r\n        _;\r\n    }\r\n\r\n    // make sure auction is active or in confirmation\r\n    modifier checkAuctionStateIs(uint256 auctionId, AuctionState state) {\r\n        if (state != auctions[auctionId].info.state) {\r\n            if (state == AuctionState.Active)\r\n                revert(\"Bidding period has ended!\");\r\n            if (state == AuctionState.InConfirmation)\r\n                revert(\"Not in confirmation period!\");\r\n        }\r\n        _;\r\n    }\r\n\r\n    // make sure auction is not active\r\n    modifier checkAuctionStateIsNot(uint256 auctionId, AuctionState state) {\r\n        if (state == auctions[auctionId].info.state) {\r\n            if (state == AuctionState.Active)\r\n                revert(\"Auction is still active!\");\r\n        }\r\n        _;\r\n    }\r\n\r\n    /**\r\n     * private functions\r\n     */\r\n\r\n    function checkThatCommitmentIsPositive(\r\n        string memory commitment\r\n    ) internal pure returns (bool) {}\r\n\r\n    function minimumPriceRequirementMet(\r\n        uint256 auctionId\r\n    ) internal pure returns (bool) {\r\n        return true; // FIXME\r\n    }\r\n\r\n    /**\r\n     * external functions\r\n     */\r\n\r\n    // functions to be called at any time\r\n\r\n    function getNumberOfRegisteredAuctions() external view returns (uint256) {\r\n        return auctions.length;\r\n    }\r\n\r\n    function createAuction(\r\n        UserSetAuctionInfo memory auctionInfo\r\n    ) external returns (uint256 auctionId) {\r\n        // create an auctionId, then add to table\r\n        auctionId = auctions.length;\r\n        Auction storage auction = auctions.push();\r\n        auction.info = PublicAuctionInfo({\r\n            auctionId: auctionId,\r\n            userSet: auctionInfo,\r\n            state: AuctionState.Active\r\n        });\r\n        emit NewAuction(auctionId);\r\n    }\r\n\r\n    function getAuctionData(\r\n        uint256 auctionId\r\n    )\r\n        external\r\n        view\r\n        validAuctionId(auctionId)\r\n        returns (PublicAuctionInfo memory)\r\n    {\r\n        return auctions[auctionId].info;\r\n    }\r\n\r\n    function getActiveAuctions()\r\n        external\r\n        view\r\n        returns (PublicAuctionInfo[] memory)\r\n    {\r\n        uint256 activeCount = 0;\r\n        for (uint256 i = 0; i < auctions.length; i++) {\r\n            if (auctions[i].info.state == AuctionState.Active) {\r\n                activeCount++;\r\n            }\r\n        }\r\n\r\n        PublicAuctionInfo[] memory activeAuctions = new PublicAuctionInfo[](\r\n            activeCount\r\n        );\r\n        uint256 currentIndex = 0;\r\n        for (uint256 i = 0; i < auctions.length; i++) {\r\n            if (auctions[i].info.state == AuctionState.Active) {\r\n                activeAuctions[currentIndex] = auctions[i].info;\r\n                currentIndex++;\r\n            }\r\n        }\r\n\r\n        return activeAuctions;\r\n    }\r\n\r\n    // functions to be called during bidding period\r\n\r\n    function placeBid(\r\n        uint256 auctionId,\r\n        uint32 bid\r\n    )\r\n        external\r\n        payable\r\n        validAuctionId(auctionId)\r\n        newBidder(auctionId)\r\n        setAuctionState(auctionId)\r\n        checkAuctionStateIs(auctionId, AuctionState.Active)\r\n    {\r\n        // transfer security deposit to contract\r\n        if (msg.value != auctions[auctionId].info.userSet.securityDeposit)\r\n            revert(\"Sent deposit is not equal to required deposit!\");\r\n        // hash bid by address (FIXME: ??)\r\n        // bytes32 b = hash(bid);\r\n        auctions[auctionId].bids[msg.sender] = bid;\r\n        emit NewBid(msg.sender);\r\n    }\r\n\r\n    // functions to be called after auction ends\r\n\r\n    function returnDeposit(\r\n        uint256 auctionId\r\n    )\r\n        external\r\n        validAuctionId(auctionId)\r\n        existingBidder(auctionId)\r\n        setAuctionState(auctionId)\r\n        checkAuctionStateIsNot(auctionId, AuctionState.Active)\r\n    {\r\n        // no re-entrancy attacks!\r\n        auctions[auctionId].bids[msg.sender] = 0;\r\n        payable(msg.sender).transfer(\r\n            auctions[auctionId].info.userSet.securityDeposit\r\n        );\r\n    }\r\n\r\n    // TODO two-sign\r\n    function transferWinningBidToOwner(\r\n        uint256 auctionId\r\n    )\r\n        external\r\n        validAuctionId(auctionId)\r\n        onlySeller(auctionId)\r\n        setAuctionState(auctionId)\r\n        checkAuctionStateIs(auctionId, AuctionState.InConfirmation)\r\n    {\r\n        auctions[auctionId].info.state = AuctionState.Success;\r\n        // FIXME: \"unhash\" the bid\r\n        auctions[auctionId].highestBidder.transfer(\r\n            auctions[auctionId].highestBid\r\n        );\r\n    }\r\n}\r\n",
  "sourcePath": "C:\\Users\\Hazem\\College\\Term 10 CCE\\auction-system-webapp\\contracts\\contracts\\SealedBidAuctionManager.sol",
  "compiler": {
    "name": "solc",
    "version": "0.8.13+commit.abaa5c0e.Emscripten.clang"
  },
  "schemaVersion": "3.4.13",
  "updatedAt": "2023-07-04T15:02:44.319Z",
  "networkType": "ethereum",
  "devdoc": {
    "kind": "dev",
    "methods": {},
    "version": 1
  },
  "userdoc": {
    "events": {
      "NewAuction(uint256)": {
        "notice": "events"
      }
    },
    "kind": "user",
    "methods": {
      "getNumberOfRegisteredAuctions()": {
        "notice": "external functions"
      }
    },
    "version": 1
  }
}