{
  "contractName": "SealedBidAuctionManager",
  "abi": [
    {
      "anonymous": false,
      "inputs": [
        {
          "indexed": false,
          "internalType": "uint256",
          "name": "auctionId",
          "type": "uint256"
        },
        {
          "indexed": false,
          "internalType": "bool",
          "name": "success",
          "type": "bool"
        }
      ],
      "name": "AuctionEnds",
      "type": "event"
    },
    {
      "anonymous": false,
      "inputs": [
        {
          "indexed": false,
          "internalType": "uint256",
          "name": "",
          "type": "uint256"
        },
        {
          "indexed": false,
          "internalType": "address",
          "name": "who",
          "type": "address"
        }
      ],
      "name": "BidderRemoved",
      "type": "event"
    },
    {
      "anonymous": false,
      "inputs": [
        {
          "indexed": false,
          "internalType": "uint256",
          "name": "auctionId",
          "type": "uint256"
        }
      ],
      "name": "NewAuction",
      "type": "event"
    },
    {
      "anonymous": false,
      "inputs": [
        {
          "indexed": false,
          "internalType": "uint256",
          "name": "auctionId",
          "type": "uint256"
        },
        {
          "indexed": false,
          "internalType": "address",
          "name": "by",
          "type": "address"
        }
      ],
      "name": "NewBid",
      "type": "event"
    },
    {
      "anonymous": false,
      "inputs": [
        {
          "indexed": false,
          "internalType": "uint256",
          "name": "auctionId",
          "type": "uint256"
        },
        {
          "indexed": false,
          "internalType": "address",
          "name": "by",
          "type": "address"
        }
      ],
      "name": "NewReveal",
      "type": "event"
    },
    {
      "anonymous": false,
      "inputs": [
        {
          "indexed": false,
          "internalType": "uint256",
          "name": "auctionId",
          "type": "uint256"
        },
        {
          "indexed": false,
          "internalType": "address",
          "name": "by",
          "type": "address"
        }
      ],
      "name": "ObjectionPlaced",
      "type": "event"
    },
    {
      "anonymous": false,
      "inputs": [
        {
          "indexed": false,
          "internalType": "uint256",
          "name": "auctionId",
          "type": "uint256"
        },
        {
          "indexed": false,
          "internalType": "address",
          "name": "who",
          "type": "address"
        }
      ],
      "name": "WinnerDecided",
      "type": "event"
    },
    {
      "inputs": [
        {
          "internalType": "uint256",
          "name": "auctionId",
          "type": "uint256"
        },
        {
          "internalType": "address",
          "name": "acc",
          "type": "address"
        }
      ],
      "name": "isABidder",
      "outputs": [
        {
          "internalType": "bool",
          "name": "",
          "type": "bool"
        }
      ],
      "stateMutability": "view",
      "type": "function",
      "constant": true
    },
    {
      "inputs": [],
      "name": "getNumberOfRegisteredAuctions",
      "outputs": [
        {
          "internalType": "uint256",
          "name": "",
          "type": "uint256"
        }
      ],
      "stateMutability": "view",
      "type": "function",
      "constant": true
    },
    {
      "inputs": [
        {
          "components": [
            {
              "internalType": "address payable",
              "name": "owner",
              "type": "address"
            },
            {
              "internalType": "bytes",
              "name": "params",
              "type": "bytes"
            },
            {
              "internalType": "bytes",
              "name": "owner_pkey",
              "type": "bytes"
            },
            {
              "internalType": "string",
              "name": "itemName",
              "type": "string"
            },
            {
              "internalType": "string",
              "name": "itemDesc",
              "type": "string"
            },
            {
              "internalType": "string",
              "name": "itemPicture",
              "type": "string"
            },
            {
              "internalType": "uint256",
              "name": "minimumPrice",
              "type": "uint256"
            },
            {
              "internalType": "uint256",
              "name": "securityDeposit",
              "type": "uint256"
            },
            {
              "internalType": "uint256",
              "name": "biddingEndDate",
              "type": "uint256"
            },
            {
              "internalType": "uint256",
              "name": "revealingEndDate",
              "type": "uint256"
            },
            {
              "internalType": "uint256",
              "name": "sortingEndDate",
              "type": "uint256"
            }
          ],
          "internalType": "struct SealedBidAuctionManager.UserSetAuctionInfo",
          "name": "info",
          "type": "tuple"
        }
      ],
      "name": "createAuction",
      "outputs": [
        {
          "internalType": "uint256",
          "name": "",
          "type": "uint256"
        }
      ],
      "stateMutability": "payable",
      "type": "function",
      "payable": true
    },
    {
      "inputs": [
        {
          "internalType": "enum SealedBidAuctionManager.AuctionState",
          "name": "state",
          "type": "uint8"
        }
      ],
      "name": "getAuctionsByState",
      "outputs": [
        {
          "components": [
            {
              "internalType": "uint256",
              "name": "id",
              "type": "uint256"
            },
            {
              "components": [
                {
                  "internalType": "address payable",
                  "name": "owner",
                  "type": "address"
                },
                {
                  "internalType": "bytes",
                  "name": "params",
                  "type": "bytes"
                },
                {
                  "internalType": "bytes",
                  "name": "owner_pkey",
                  "type": "bytes"
                },
                {
                  "internalType": "string",
                  "name": "itemName",
                  "type": "string"
                },
                {
                  "internalType": "string",
                  "name": "itemDesc",
                  "type": "string"
                },
                {
                  "internalType": "string",
                  "name": "itemPicture",
                  "type": "string"
                },
                {
                  "internalType": "uint256",
                  "name": "minimumPrice",
                  "type": "uint256"
                },
                {
                  "internalType": "uint256",
                  "name": "securityDeposit",
                  "type": "uint256"
                },
                {
                  "internalType": "uint256",
                  "name": "biddingEndDate",
                  "type": "uint256"
                },
                {
                  "internalType": "uint256",
                  "name": "revealingEndDate",
                  "type": "uint256"
                },
                {
                  "internalType": "uint256",
                  "name": "sortingEndDate",
                  "type": "uint256"
                }
              ],
              "internalType": "struct SealedBidAuctionManager.UserSetAuctionInfo",
              "name": "info",
              "type": "tuple"
            }
          ],
          "internalType": "struct SealedBidAuctionManager.AuctionInfoAndId[]",
          "name": "",
          "type": "tuple[]"
        }
      ],
      "stateMutability": "view",
      "type": "function",
      "constant": true
    },
    {
      "inputs": [
        {
          "internalType": "uint256",
          "name": "auctionId",
          "type": "uint256"
        }
      ],
      "name": "getAuctionInfo",
      "outputs": [
        {
          "components": [
            {
              "internalType": "address payable",
              "name": "owner",
              "type": "address"
            },
            {
              "internalType": "bytes",
              "name": "params",
              "type": "bytes"
            },
            {
              "internalType": "bytes",
              "name": "owner_pkey",
              "type": "bytes"
            },
            {
              "internalType": "string",
              "name": "itemName",
              "type": "string"
            },
            {
              "internalType": "string",
              "name": "itemDesc",
              "type": "string"
            },
            {
              "internalType": "string",
              "name": "itemPicture",
              "type": "string"
            },
            {
              "internalType": "uint256",
              "name": "minimumPrice",
              "type": "uint256"
            },
            {
              "internalType": "uint256",
              "name": "securityDeposit",
              "type": "uint256"
            },
            {
              "internalType": "uint256",
              "name": "biddingEndDate",
              "type": "uint256"
            },
            {
              "internalType": "uint256",
              "name": "revealingEndDate",
              "type": "uint256"
            },
            {
              "internalType": "uint256",
              "name": "sortingEndDate",
              "type": "uint256"
            }
          ],
          "internalType": "struct SealedBidAuctionManager.UserSetAuctionInfo",
          "name": "",
          "type": "tuple"
        }
      ],
      "stateMutability": "view",
      "type": "function",
      "constant": true
    },
    {
      "inputs": [
        {
          "internalType": "uint256",
          "name": "auctionId",
          "type": "uint256"
        },
        {
          "internalType": "bytes",
          "name": "c",
          "type": "bytes"
        },
        {
          "internalType": "bytes",
          "name": "d",
          "type": "bytes"
        }
      ],
      "name": "placeBid",
      "outputs": [],
      "stateMutability": "payable",
      "type": "function",
      "payable": true
    },
    {
      "inputs": [
        {
          "internalType": "uint256",
          "name": "auctionId",
          "type": "uint256"
        },
        {
          "internalType": "bytes",
          "name": "z",
          "type": "bytes"
        }
      ],
      "name": "revealBid",
      "outputs": [],
      "stateMutability": "nonpayable",
      "type": "function"
    },
    {
      "inputs": [
        {
          "internalType": "uint256",
          "name": "auctionId",
          "type": "uint256"
        }
      ],
      "name": "getReveals",
      "outputs": [
        {
          "internalType": "bytes[]",
          "name": "",
          "type": "bytes[]"
        }
      ],
      "stateMutability": "nonpayable",
      "type": "function"
    },
    {
      "inputs": [
        {
          "internalType": "uint256",
          "name": "auctionId",
          "type": "uint256"
        },
        {
          "components": [
            {
              "internalType": "bytes",
              "name": "y",
              "type": "bytes"
            },
            {
              "internalType": "address",
              "name": "bidder",
              "type": "address"
            }
          ],
          "internalType": "struct SealedBidAuctionManager.AuctionWinner",
          "name": "winner",
          "type": "tuple"
        }
      ],
      "name": "declareWinner",
      "outputs": [],
      "stateMutability": "nonpayable",
      "type": "function"
    },
    {
      "inputs": [
        {
          "internalType": "uint256",
          "name": "auctionId",
          "type": "uint256"
        }
      ],
      "name": "getWinner",
      "outputs": [
        {
          "components": [
            {
              "internalType": "bytes",
              "name": "y",
              "type": "bytes"
            },
            {
              "internalType": "address",
              "name": "bidder",
              "type": "address"
            }
          ],
          "internalType": "struct SealedBidAuctionManager.AuctionWinner",
          "name": "",
          "type": "tuple"
        }
      ],
      "stateMutability": "view",
      "type": "function",
      "constant": true
    },
    {
      "inputs": [
        {
          "internalType": "uint256",
          "name": "auctionId",
          "type": "uint256"
        }
      ],
      "name": "returnDeposit",
      "outputs": [],
      "stateMutability": "nonpayable",
      "type": "function"
    },
    {
      "inputs": [
        {
          "internalType": "uint256",
          "name": "auctionId",
          "type": "uint256"
        },
        {
          "internalType": "bytes",
          "name": "y",
          "type": "bytes"
        }
      ],
      "name": "objectToTheWinner",
      "outputs": [],
      "stateMutability": "nonpayable",
      "type": "function"
    },
    {
      "inputs": [
        {
          "internalType": "uint256",
          "name": "auctionId",
          "type": "uint256"
        }
      ],
      "name": "getObjections",
      "outputs": [
        {
          "components": [
            {
              "internalType": "bytes",
              "name": "y",
              "type": "bytes"
            },
            {
              "internalType": "address",
              "name": "bidder",
              "type": "address"
            }
          ],
          "internalType": "struct SealedBidAuctionManager.AuctionWinner[]",
          "name": "",
          "type": "tuple[]"
        }
      ],
      "stateMutability": "nonpayable",
      "type": "function"
    }
  ],
  "bytecode": "0x608060405234801561001057600080fd5b506157ab80620000216000396000f3fe6080604052600436106100c25760003560e01c80638b10b8751161007f578063b8e8fcc511610059578063b8e8fcc51461027d578063cea32418146102a6578063d1ff767e146102d6578063fc3fc4ed14610313576100c2565b80638b10b875146101da5780639690d6211461020357806397d9ee5214610240576100c2565b806310e9f549146100c757806318b683fb146100f05780634129b2c91461011957806345e481a31461015657806347bf5e2c14610181578063684e38ee1461019d575b600080fd5b3480156100d357600080fd5b506100ee60048036038101906100e99190613be6565b610350565b005b3480156100fc57600080fd5b5061011760048036038101906101129190613c46565b610865565b005b34801561012557600080fd5b50610140600480360381019061013b9190613c46565b610dbf565b60405161014d9190613d8a565b60405180910390f35b34801561016257600080fd5b5061016b610f2f565b6040516101789190613dbb565b60405180910390f35b61019b60048036038101906101969190613dd6565b610f3b565b005b3480156101a957600080fd5b506101c460048036038101906101bf9190613e90565b6115b1565b6040516101d1919061414c565b60405180910390f35b3480156101e657600080fd5b5061020160048036038101906101fc9190614192565b611b36565b005b34801561020f57600080fd5b5061022a60048036038101906102259190613c46565b6120c1565b60405161023791906142ed565b60405180910390f35b34801561024c57600080fd5b5061026760048036038101906102629190613c46565b6124ec565b60405161027491906143d1565b60405180910390f35b34801561028957600080fd5b506102a4600480360381019061029f9190613be6565b612bf1565b005b6102c060048036038101906102bb9190614413565b61312f565b6040516102cd9190613dbb565b60405180910390f35b3480156102e257600080fd5b506102fd60048036038101906102f89190614488565b613341565b60405161030a91906144e3565b60405180910390f35b34801561031f57600080fd5b5061033a60048036038101906103359190613c46565b6133b6565b6040516103479190614609565b60405180910390f35b826000805490508110610398576040517f08c379a000000000000000000000000000000000000000000000000000000000815260040161038f90614688565b60405180910390fd5b8360008082815481106103ae576103ad6146a8565b5b9060005260206000209060120201600c0160003373ffffffffffffffffffffffffffffffffffffffff1673ffffffffffffffffffffffffffffffffffffffff16815260200190815260200160002050602060ff1603610442576040517f08c379a000000000000000000000000000000000000000000000000000000000815260040161043990614723565b60405180910390fd5b84600160008281548110610459576104586146a8565b5b9060005260206000209060120201600101600801544210156104c757600080838154811061048a576104896146a8565b5b9060005260206000209060120201600e0160006101000a81548160ff021916908360038111156104bd576104bc614743565b5b021790555061061e565b600082815481106104db576104da6146a8565b5b90600052602060002090601202016001016009015442101561054a5760016000838154811061050d5761050c6146a8565b5b9060005260206000209060120201600e0160006101000a81548160ff021916908360038111156105405761053f614743565b5b021790555061061d565b6000828154811061055e5761055d6146a8565b5b9060005260206000209060120201600101600a01544210156105cd576002600083815481106105905761058f6146a8565b5b9060005260206000209060120201600e0160006101000a81548160ff021916908360038111156105c3576105c2614743565b5b021790555061061c565b6003600083815481106105e3576105e26146a8565b5b9060005260206000209060120201600e0160006101000a81548160ff0219169083600381111561061657610615614743565b5b02179055505b5b5b60008281548110610632576106316146a8565b5b9060005260206000209060120201600e0160009054906101000a900460ff16600381111561066357610662614743565b5b81600381111561067657610675614743565b5b146106b6576040517f08c379a00000000000000000000000000000000000000000000000000000000081526004016106ad906147be565b60405180910390fd5b600087815481106106ca576106c96146a8565b5b9060005260206000209060120201600c0160003373ffffffffffffffffffffffffffffffffffffffff1673ffffffffffffffffffffffffffffffffffffffff168152602001908152602001600020600201546002878760405161072e92919061481d565b602060405180830381855afa15801561074b573d6000803e3d6000fd5b5050506040513d601f19601f8201168201806040525081019061076e919061486c565b146107ae576040517f08c379a00000000000000000000000000000000000000000000000000000000081526004016107a5906148e5565b60405180910390fd5b8585600089815481106107c4576107c36146a8565b5b9060005260206000209060120201600c0160003373ffffffffffffffffffffffffffffffffffffffff1673ffffffffffffffffffffffffffffffffffffffff1681526020019081526020016000206003019190610822929190613958565b507fda9ad1af3b211e24edbe9ac3a27ce5cde27c6f44ae790099959efa1472c6be3e8733604051610854929190614914565b60405180910390a150505050505050565b8060008054905081106108ad576040517f08c379a00000000000000000000000000000000000000000000000000000000081526004016108a490614688565b60405180910390fd5b8160008082815481106108c3576108c26146a8565b5b9060005260206000209060120201600c0160003373ffffffffffffffffffffffffffffffffffffffff1673ffffffffffffffffffffffffffffffffffffffff16815260200190815260200160002050602060ff1603610957576040517f08c379a000000000000000000000000000000000000000000000000000000000815260040161094e90614723565b60405180910390fd5b8260036000828154811061096e5761096d6146a8565b5b9060005260206000209060120201600101600801544210156109dc57600080838154811061099f5761099e6146a8565b5b9060005260206000209060120201600e0160006101000a81548160ff021916908360038111156109d2576109d1614743565b5b0217905550610b33565b600082815481106109f0576109ef6146a8565b5b906000526020600020906012020160010160090154421015610a5f57600160008381548110610a2257610a216146a8565b5b9060005260206000209060120201600e0160006101000a81548160ff02191690836003811115610a5557610a54614743565b5b0217905550610b32565b60008281548110610a7357610a726146a8565b5b9060005260206000209060120201600101600a0154421015610ae257600260008381548110610aa557610aa46146a8565b5b9060005260206000209060120201600e0160006101000a81548160ff02191690836003811115610ad857610ad7614743565b5b0217905550610b31565b600360008381548110610af857610af76146a8565b5b9060005260206000209060120201600e0160006101000a81548160ff02191690836003811115610b2b57610b2a614743565b5b02179055505b5b5b60008281548110610b4757610b466146a8565b5b9060005260206000209060120201600e0160009054906101000a900460ff166003811115610b7857610b77614743565b5b816003811115610b8b57610b8a614743565b5b14610bcb576040517f08c379a0000000000000000000000000000000000000000000000000000000008152600401610bc2906147be565b60405180910390fd5b6000151560008681548110610be357610be26146a8565b5b9060005260206000209060120201600c0160003373ffffffffffffffffffffffffffffffffffffffff1673ffffffffffffffffffffffffffffffffffffffff16815260200190815260200160002060000160009054906101000a900460ff161515148015610cc5575060008581548110610c6057610c5f6146a8565b5b9060005260206000209060120201600f0160010160009054906101000a900473ffffffffffffffffffffffffffffffffffffffff1673ffffffffffffffffffffffffffffffffffffffff163373ffffffffffffffffffffffffffffffffffffffff1614155b15610d4957600160008681548110610ce057610cdf6146a8565b5b9060005260206000209060120201600c0160003373ffffffffffffffffffffffffffffffffffffffff1673ffffffffffffffffffffffffffffffffffffffff16815260200190815260200160002060000160006101000a81548160ff0219169083151502179055505b3373ffffffffffffffffffffffffffffffffffffffff166108fc60008781548110610d7757610d766146a8565b5b9060005260206000209060120201600101600701549081150290604051600060405180830381858888f19350505050158015610db7573d6000803e3d6000fd5b505050505050565b610dc76139de565b816000805490508110610e0f576040517f08c379a0000000000000000000000000000000000000000000000000000000008152600401610e0690614688565b60405180910390fd5b60008381548110610e2357610e226146a8565b5b9060005260206000209060120201600f01604051806040016040529081600082018054610e4f9061496c565b80601f0160208091040260200160405190810160405280929190818152602001828054610e7b9061496c565b8015610ec85780601f10610e9d57610100808354040283529160200191610ec8565b820191906000526020600020905b815481529060010190602001808311610eab57829003601f168201915b505050505081526020016001820160009054906101000a900473ffffffffffffffffffffffffffffffffffffffff1673ffffffffffffffffffffffffffffffffffffffff1673ffffffffffffffffffffffffffffffffffffffff1681525050915050919050565b60008080549050905090565b846000805490508110610f83576040517f08c379a0000000000000000000000000000000000000000000000000000000008152600401610f7a90614688565b60405180910390fd5b8560008181548110610f9857610f976146a8565b5b906000526020600020906012020160010160000160009054906101000a900473ffffffffffffffffffffffffffffffffffffffff1673ffffffffffffffffffffffffffffffffffffffff163373ffffffffffffffffffffffffffffffffffffffff161461103a576040517f08c379a0000000000000000000000000000000000000000000000000000000008152600401611031906149e9565b60405180910390fd5b8660008082815481106110505761104f6146a8565b5b9060005260206000209060120201600c0160003373ffffffffffffffffffffffffffffffffffffffff1673ffffffffffffffffffffffffffffffffffffffff16815260200190815260200160002050602060ff16146110e4576040517f08c379a00000000000000000000000000000000000000000000000000000000081526004016110db90614a55565b60405180910390fd5b8760008082815481106110fa576110f96146a8565b5b90600052602060002090601202016001016008015442101561116857600080838154811061112b5761112a6146a8565b5b9060005260206000209060120201600e0160006101000a81548160ff0219169083600381111561115e5761115d614743565b5b02179055506112bf565b6000828154811061117c5761117b6146a8565b5b9060005260206000209060120201600101600901544210156111eb576001600083815481106111ae576111ad6146a8565b5b9060005260206000209060120201600e0160006101000a81548160ff021916908360038111156111e1576111e0614743565b5b02179055506112be565b600082815481106111ff576111fe6146a8565b5b9060005260206000209060120201600101600a015442101561126e57600260008381548110611231576112306146a8565b5b9060005260206000209060120201600e0160006101000a81548160ff0219169083600381111561126457611263614743565b5b02179055506112bd565b600360008381548110611284576112836146a8565b5b9060005260206000209060120201600e0160006101000a81548160ff021916908360038111156112b7576112b6614743565b5b02179055505b5b5b600082815481106112d3576112d26146a8565b5b9060005260206000209060120201600e0160009054906101000a900460ff16600381111561130457611303614743565b5b81600381111561131757611316614743565b5b14611357576040517f08c379a000000000000000000000000000000000000000000000000000000000815260040161134e906147be565b60405180910390fd5b60008a8154811061136b5761136a6146a8565b5b9060005260206000209060120201600101600701548034146113c2576040517f08c379a00000000000000000000000000000000000000000000000000000000081526004016113b990614ac1565b60405180910390fd5b60405180608001604052806000151581526020018b8b906113e39190614af9565b81526020018989906113f59190614af9565b81526020016040518060200160405280600081525081525060008c81548110611421576114206146a8565b5b9060005260206000209060120201600c0160003373ffffffffffffffffffffffffffffffffffffffff1673ffffffffffffffffffffffffffffffffffffffff16815260200190815260200160002060008201518160000160006101000a81548160ff021916908315150217905550602082015181600101556040820151816002015560608201518160030190805190602001906114bf929190613a0e565b509050503360008c815481106114d8576114d76146a8565b5b9060005260206000209060120201600d0160008d815481106114fd576114fc6146a8565b5b9060005260206000209060120201600d018054905081548110611523576115226146a8565b5b9060005260206000200160006101000a81548173ffffffffffffffffffffffffffffffffffffffff021916908373ffffffffffffffffffffffffffffffffffffffff1602179055507f45401769c1d58f70bd6b63e1a66bfc17d712ce0dc4ffb8d2dd0ad7177d56a3868b3360405161159c929190614914565b60405180910390a15050505050505050505050565b60606000805b600080549050811015611643578360038111156115d7576115d6614743565b5b600082815481106115eb576115ea6146a8565b5b9060005260206000209060120201600e0160009054906101000a900460ff16600381111561161c5761161b614743565b5b0361163057818061162c90614b87565b9250505b808061163b90614b87565b9150506115b7565b5060008167ffffffffffffffff8111156116605761165f614bcf565b5b60405190808252806020026020018201604052801561169957816020015b611686613a94565b81526020019060019003908161167e5790505b5090506000805b600080549050811015611b2a578560038111156116c0576116bf614743565b5b600082815481106116d4576116d36146a8565b5b9060005260206000209060120201600e0160009054906101000a900460ff16600381111561170557611704614743565b5b03611b17576000818154811061171e5761171d6146a8565b5b9060005260206000209060120201600101604051806101600160405290816000820160009054906101000a900473ffffffffffffffffffffffffffffffffffffffff1673ffffffffffffffffffffffffffffffffffffffff1673ffffffffffffffffffffffffffffffffffffffff1681526020016001820180546117a19061496c565b80601f01602080910402602001604051908101604052809291908181526020018280546117cd9061496c565b801561181a5780601f106117ef5761010080835404028352916020019161181a565b820191906000526020600020905b8154815290600101906020018083116117fd57829003601f168201915b505050505081526020016002820180546118339061496c565b80601f016020809104026020016040519081016040528092919081815260200182805461185f9061496c565b80156118ac5780601f10611881576101008083540402835291602001916118ac565b820191906000526020600020905b81548152906001019060200180831161188f57829003601f168201915b505050505081526020016003820180546118c59061496c565b80601f01602080910402602001604051908101604052809291908181526020018280546118f19061496c565b801561193e5780601f106119135761010080835404028352916020019161193e565b820191906000526020600020905b81548152906001019060200180831161192157829003601f168201915b505050505081526020016004820180546119579061496c565b80601f01602080910402602001604051908101604052809291908181526020018280546119839061496c565b80156119d05780601f106119a5576101008083540402835291602001916119d0565b820191906000526020600020905b8154815290600101906020018083116119b357829003601f168201915b505050505081526020016005820180546119e99061496c565b80601f0160208091040260200160405190810160405280929190818152602001828054611a159061496c565b8015611a625780601f10611a3757610100808354040283529160200191611a62565b820191906000526020600020905b815481529060010190602001808311611a4557829003601f168201915b5050505050815260200160068201548152602001600782015481526020016008820154815260200160098201548152602001600a82015481525050838381518110611ab057611aaf6146a8565b5b60200260200101516020018190525060008181548110611ad357611ad26146a8565b5b906000526020600020906012020160000154838381518110611af857611af76146a8565b5b602002602001015160000181815250508180611b1390614b87565b9250505b8080611b2290614b87565b9150506116a0565b50819350505050919050565b816000805490508110611b7e576040517f08c379a0000000000000000000000000000000000000000000000000000000008152600401611b7590614688565b60405180910390fd5b8260008181548110611b9357611b926146a8565b5b906000526020600020906012020160010160000160009054906101000a900473ffffffffffffffffffffffffffffffffffffffff1673ffffffffffffffffffffffffffffffffffffffff163373ffffffffffffffffffffffffffffffffffffffff1603611c35576040517f08c379a0000000000000000000000000000000000000000000000000000000008152600401611c2c90614c4a565b60405180910390fd5b83600260008281548110611c4c57611c4b6146a8565b5b906000526020600020906012020160010160080154421015611cba576000808381548110611c7d57611c7c6146a8565b5b9060005260206000209060120201600e0160006101000a81548160ff02191690836003811115611cb057611caf614743565b5b0217905550611e11565b60008281548110611cce57611ccd6146a8565b5b906000526020600020906012020160010160090154421015611d3d57600160008381548110611d0057611cff6146a8565b5b9060005260206000209060120201600e0160006101000a81548160ff02191690836003811115611d3357611d32614743565b5b0217905550611e10565b60008281548110611d5157611d506146a8565b5b9060005260206000209060120201600101600a0154421015611dc057600260008381548110611d8357611d826146a8565b5b9060005260206000209060120201600e0160006101000a81548160ff02191690836003811115611db657611db5614743565b5b0217905550611e0f565b600360008381548110611dd657611dd56146a8565b5b9060005260206000209060120201600e0160006101000a81548160ff02191690836003811115611e0957611e08614743565b5b02179055505b5b5b60008281548110611e2557611e246146a8565b5b9060005260206000209060120201600e0160009054906101000a900460ff166003811115611e5657611e55614743565b5b816003811115611e6957611e68614743565b5b14611ea9576040517f08c379a0000000000000000000000000000000000000000000000000000000008152600401611ea0906147be565b60405180910390fd5b856000808281548110611ebf57611ebe6146a8565b5b9060005260206000209060120201600f016000018054611ede9061496c565b905014611f20576040517f08c379a0000000000000000000000000000000000000000000000000000000008152600401611f1790614cb6565b60405180910390fd5b60008781548110611f3457611f336146a8565b5b9060005260206000209060120201600c016000876020016020810190611f5a9190614cd6565b73ffffffffffffffffffffffffffffffffffffffff1673ffffffffffffffffffffffffffffffffffffffff168152602001908152602001600020600101546002878060000190611faa9190614d12565b604051611fb892919061481d565b602060405180830381855afa158015611fd5573d6000803e3d6000fd5b5050506040513d601f19601f82011682018060405250810190611ff8919061486c565b14612038576040517f08c379a000000000000000000000000000000000000000000000000000000000815260040161202f906148e5565b60405180910390fd5b856000888154811061204d5761204c6146a8565b5b9060005260206000209060120201600f01818161206a9190615106565b9050507fa40d3f1f8d57e9254ad685693391db32c603b6ba0c2296366db2706bc0bd4f2c878760200160208101906120a29190614cd6565b6040516120b0929190614914565b60405180910390a150505050505050565b606081600080549050811061210b576040517f08c379a000000000000000000000000000000000000000000000000000000000815260040161210290614688565b60405180910390fd5b82600360008281548110612122576121216146a8565b5b906000526020600020906012020160010160080154421015612190576000808381548110612153576121526146a8565b5b9060005260206000209060120201600e0160006101000a81548160ff0219169083600381111561218657612185614743565b5b02179055506122e7565b600082815481106121a4576121a36146a8565b5b906000526020600020906012020160010160090154421015612213576001600083815481106121d6576121d56146a8565b5b9060005260206000209060120201600e0160006101000a81548160ff0219169083600381111561220957612208614743565b5b02179055506122e6565b60008281548110612227576122266146a8565b5b9060005260206000209060120201600101600a015442101561229657600260008381548110612259576122586146a8565b5b9060005260206000209060120201600e0160006101000a81548160ff0219169083600381111561228c5761228b614743565b5b02179055506122e5565b6003600083815481106122ac576122ab6146a8565b5b9060005260206000209060120201600e0160006101000a81548160ff021916908360038111156122df576122de614743565b5b02179055505b5b5b600082815481106122fb576122fa6146a8565b5b9060005260206000209060120201600e0160009054906101000a900460ff16600381111561232c5761232b614743565b5b81600381111561233f5761233e614743565b5b1461237f576040517f08c379a0000000000000000000000000000000000000000000000000000000008152600401612376906147be565b60405180910390fd5b60008581548110612393576123926146a8565b5b9060005260206000209060120201601101805480602002602001604051908101604052809291908181526020016000905b828210156124de57838290600052602060002090600202016040518060400160405290816000820180546123f79061496c565b80601f01602080910402602001604051908101604052809291908181526020018280546124239061496c565b80156124705780601f1061244557610100808354040283529160200191612470565b820191906000526020600020905b81548152906001019060200180831161245357829003601f168201915b505050505081526020016001820160009054906101000a900473ffffffffffffffffffffffffffffffffffffffff1673ffffffffffffffffffffffffffffffffffffffff1673ffffffffffffffffffffffffffffffffffffffff1681525050815260200190600101906123c4565b505050509350505050919050565b6060816000805490508110612536576040517f08c379a000000000000000000000000000000000000000000000000000000000815260040161252d90614688565b60405180910390fd5b826000818154811061254b5761254a6146a8565b5b906000526020600020906012020160010160000160009054906101000a900473ffffffffffffffffffffffffffffffffffffffff1673ffffffffffffffffffffffffffffffffffffffff163373ffffffffffffffffffffffffffffffffffffffff16036125ed576040517f08c379a00000000000000000000000000000000000000000000000000000000081526004016125e490614c4a565b60405180910390fd5b83600260008281548110612604576126036146a8565b5b906000526020600020906012020160010160080154421015612672576000808381548110612635576126346146a8565b5b9060005260206000209060120201600e0160006101000a81548160ff0219169083600381111561266857612667614743565b5b02179055506127c9565b60008281548110612686576126856146a8565b5b9060005260206000209060120201600101600901544210156126f5576001600083815481106126b8576126b76146a8565b5b9060005260206000209060120201600e0160006101000a81548160ff021916908360038111156126eb576126ea614743565b5b02179055506127c8565b60008281548110612709576127086146a8565b5b9060005260206000209060120201600101600a01544210156127785760026000838154811061273b5761273a6146a8565b5b9060005260206000209060120201600e0160006101000a81548160ff0219169083600381111561276e5761276d614743565b5b02179055506127c7565b60036000838154811061278e5761278d6146a8565b5b9060005260206000209060120201600e0160006101000a81548160ff021916908360038111156127c1576127c0614743565b5b02179055505b5b5b600082815481106127dd576127dc6146a8565b5b9060005260206000209060120201600e0160009054906101000a900460ff16600381111561280e5761280d614743565b5b81600381111561282157612820614743565b5b14612861576040517f08c379a0000000000000000000000000000000000000000000000000000000008152600401612858906147be565b60405180910390fd5b6000805b60008881548110612879576128786146a8565b5b9060005260206000209060120201600d01805490508110156129dd5760008089815481106128aa576128a96146a8565b5b9060005260206000209060120201600d0182815481106128cd576128cc6146a8565b5b9060005260206000200160009054906101000a900473ffffffffffffffffffffffffffffffffffffffff1690506000808a8154811061290f5761290e6146a8565b5b9060005260206000209060120201600c0160008373ffffffffffffffffffffffffffffffffffffffff1673ffffffffffffffffffffffffffffffffffffffff168152602001908152602001600020600301805461296b9061496c565b9050036129ba5761297c89836137a1565b7f4ddf4c0e94fa7c3fcf8474005bf8b72858bbc3afbeecaee663000ca4eeb2b9bd89826040516129ad929190614914565b60405180910390a16129c9565b82806129c590614b87565b9350505b5080806129d590614b87565b915050612865565b5060008167ffffffffffffffff8111156129fa576129f9614bcf565b5b604051908082528060200260200182016040528015612a2d57816020015b6060815260200190600190039081612a185790505b50905060005b60008981548110612a4757612a466146a8565b5b9060005260206000209060120201600d0180549050811015612be25760008981548110612a7757612a766146a8565b5b9060005260206000209060120201600c016000808b81548110612a9d57612a9c6146a8565b5b9060005260206000209060120201600d018381548110612ac057612abf6146a8565b5b9060005260206000200160009054906101000a900473ffffffffffffffffffffffffffffffffffffffff1673ffffffffffffffffffffffffffffffffffffffff1673ffffffffffffffffffffffffffffffffffffffff1681526020019081526020016000206003018054612b339061496c565b80601f0160208091040260200160405190810160405280929190818152602001828054612b5f9061496c565b8015612bac5780601f10612b8157610100808354040283529160200191612bac565b820191906000526020600020905b815481529060010190602001808311612b8f57829003601f168201915b5050505050828281518110612bc457612bc36146a8565b5b60200260200101819052508080612bda90614b87565b915050612a33565b50809650505050505050919050565b826000805490508110612c39576040517f08c379a0000000000000000000000000000000000000000000000000000000008152600401612c3090614688565b60405180910390fd5b836000808281548110612c4f57612c4e6146a8565b5b9060005260206000209060120201600c0160003373ffffffffffffffffffffffffffffffffffffffff1673ffffffffffffffffffffffffffffffffffffffff16815260200190815260200160002050602060ff1603612ce3576040517f08c379a0000000000000000000000000000000000000000000000000000000008152600401612cda90614723565b60405180910390fd5b84600360008281548110612cfa57612cf96146a8565b5b906000526020600020906012020160010160080154421015612d68576000808381548110612d2b57612d2a6146a8565b5b9060005260206000209060120201600e0160006101000a81548160ff02191690836003811115612d5e57612d5d614743565b5b0217905550612ebf565b60008281548110612d7c57612d7b6146a8565b5b906000526020600020906012020160010160090154421015612deb57600160008381548110612dae57612dad6146a8565b5b9060005260206000209060120201600e0160006101000a81548160ff02191690836003811115612de157612de0614743565b5b0217905550612ebe565b60008281548110612dff57612dfe6146a8565b5b9060005260206000209060120201600101600a0154421015612e6e57600260008381548110612e3157612e306146a8565b5b9060005260206000209060120201600e0160006101000a81548160ff02191690836003811115612e6457612e63614743565b5b0217905550612ebd565b600360008381548110612e8457612e836146a8565b5b9060005260206000209060120201600e0160006101000a81548160ff02191690836003811115612eb757612eb6614743565b5b02179055505b5b5b60008281548110612ed357612ed26146a8565b5b9060005260206000209060120201600e0160009054906101000a900460ff166003811115612f0457612f03614743565b5b816003811115612f1757612f16614743565b5b14612f57576040517f08c379a0000000000000000000000000000000000000000000000000000000008152600401612f4e906147be565b60405180910390fd5b60008781548110612f6b57612f6a6146a8565b5b9060005260206000209060120201600c0160003373ffffffffffffffffffffffffffffffffffffffff1673ffffffffffffffffffffffffffffffffffffffff1681526020019081526020016000206001015460028787604051612fcf92919061481d565b602060405180830381855afa158015612fec573d6000803e3d6000fd5b5050506040513d601f19601f8201168201806040525081019061300f919061486c565b1461304f576040517f08c379a0000000000000000000000000000000000000000000000000000000008152600401613046906148e5565b60405180910390fd5b6000808881548110613064576130636146a8565b5b9060005260206000209060120201601101600181600181540180825580915050039060005260206000209060020201905086868260000191906130a8929190613958565b50338160010160006101000a81548173ffffffffffffffffffffffffffffffffffffffff021916908373ffffffffffffffffffffffffffffffffffffffff1602179055507fb1183a40c3bfb5582ec9b08605f698b46e5d4084bb316f378e05318927221b90883360405161311d929190614914565b60405180910390a15050505050505050565b60008160e00135803414613178576040517f08c379a000000000000000000000000000000000000000000000000000000000815260040161316f90614ac1565b60405180910390fd5b60008360c00135036131bf576040517f08c379a00000000000000000000000000000000000000000000000000000000081526004016131b690615186565b60405180910390fd5b8260c001358360e0013511806131d9575060008360e00135145b15613219576040517f08c379a00000000000000000000000000000000000000000000000000000000081526004016132109061523e565b60405180910390fd5b82610120013583610140013511801561323b5750826101000135836101200135115b61327a576040517f08c379a0000000000000000000000000000000000000000000000000000000008152600401613271906152d0565b60405180910390fd5b600080600181600181540180825580915050039060005260206000209060120201905060016000805490506132af91906152f0565b8160000181905550838160010181816132c89190615738565b905050600081600e0160006101000a81548160ff021916908360038111156132f3576132f2614743565b5b02179055507fbdba0fc2c85fe021acfa560c047f0a846648b1b504aa94ab6557cabb04b94258816000015460405161332b9190613dbb565b60405180910390a1806000015492505050919050565b60008060008481548110613358576133576146a8565b5b9060005260206000209060120201600c0160008473ffffffffffffffffffffffffffffffffffffffff1673ffffffffffffffffffffffffffffffffffffffff16815260200190815260200160002050602060ff161415905092915050565b6133be613ab4565b816000805490508110613406576040517f08c379a00000000000000000000000000000000000000000000000000000000081526004016133fd90614688565b60405180910390fd5b6000838154811061341a576134196146a8565b5b9060005260206000209060120201600101604051806101600160405290816000820160009054906101000a900473ffffffffffffffffffffffffffffffffffffffff1673ffffffffffffffffffffffffffffffffffffffff1673ffffffffffffffffffffffffffffffffffffffff16815260200160018201805461349d9061496c565b80601f01602080910402602001604051908101604052809291908181526020018280546134c99061496c565b80156135165780601f106134eb57610100808354040283529160200191613516565b820191906000526020600020905b8154815290600101906020018083116134f957829003601f168201915b5050505050815260200160028201805461352f9061496c565b80601f016020809104026020016040519081016040528092919081815260200182805461355b9061496c565b80156135a85780601f1061357d576101008083540402835291602001916135a8565b820191906000526020600020905b81548152906001019060200180831161358b57829003601f168201915b505050505081526020016003820180546135c19061496c565b80601f01602080910402602001604051908101604052809291908181526020018280546135ed9061496c565b801561363a5780601f1061360f5761010080835404028352916020019161363a565b820191906000526020600020905b81548152906001019060200180831161361d57829003601f168201915b505050505081526020016004820180546136539061496c565b80601f016020809104026020016040519081016040528092919081815260200182805461367f9061496c565b80156136cc5780601f106136a1576101008083540402835291602001916136cc565b820191906000526020600020905b8154815290600101906020018083116136af57829003601f168201915b505050505081526020016005820180546136e59061496c565b80601f01602080910402602001604051908101604052809291908181526020018280546137119061496c565b801561375e5780601f106137335761010080835404028352916020019161375e565b820191906000526020600020905b81548152906001019060200180831161374157829003601f168201915b5050505050815260200160068201548152602001600782015481526020016008820154815260200160098201548152602001600a82015481525050915050919050565b600082815481106137b5576137b46146a8565b5b9060005260206000209060120201600d018054905081106137d557600080fd5b600082815481106137e9576137e86146a8565b5b9060005260206000209060120201600d016001600084815481106138105761380f6146a8565b5b9060005260206000209060120201600d018054905061382f91906152f0565b815481106138405761383f6146a8565b5b9060005260206000200160009054906101000a900473ffffffffffffffffffffffffffffffffffffffff166000838154811061387f5761387e6146a8565b5b9060005260206000209060120201600d0182815481106138a2576138a16146a8565b5b9060005260206000200160006101000a81548173ffffffffffffffffffffffffffffffffffffffff021916908373ffffffffffffffffffffffffffffffffffffffff160217905550600082815481106138fe576138fd6146a8565b5b9060005260206000209060120201600d0180548061391f5761391e615746565b5b6001900381819060005260206000200160006101000a81549073ffffffffffffffffffffffffffffffffffffffff021916905590555050565b8280546139649061496c565b90600052602060002090601f01602090048101928261398657600085556139cd565b82601f1061399f57803560ff19168380011785556139cd565b828001600101855582156139cd579182015b828111156139cc5782358255916020019190600101906139b1565b5b5090506139da9190613b24565b5090565b604051806040016040528060608152602001600073ffffffffffffffffffffffffffffffffffffffff1681525090565b828054613a1a9061496c565b90600052602060002090601f016020900481019282613a3c5760008555613a83565b82601f10613a5557805160ff1916838001178555613a83565b82800160010185558215613a83579182015b82811115613a82578251825591602001919060010190613a67565b5b509050613a909190613b24565b5090565b604051806040016040528060008152602001613aae613ab4565b81525090565b604051806101600160405280600073ffffffffffffffffffffffffffffffffffffffff168152602001606081526020016060815260200160608152602001606081526020016060815260200160008152602001600081526020016000815260200160008152602001600081525090565b5b80821115613b3d576000816000905550600101613b25565b5090565b600080fd5b600080fd5b6000819050919050565b613b5e81613b4b565b8114613b6957600080fd5b50565b600081359050613b7b81613b55565b92915050565b600080fd5b600080fd5b600080fd5b60008083601f840112613ba657613ba5613b81565b5b8235905067ffffffffffffffff811115613bc357613bc2613b86565b5b602083019150836001820283011115613bdf57613bde613b8b565b5b9250929050565b600080600060408486031215613bff57613bfe613b41565b5b6000613c0d86828701613b6c565b935050602084013567ffffffffffffffff811115613c2e57613c2d613b46565b5b613c3a86828701613b90565b92509250509250925092565b600060208284031215613c5c57613c5b613b41565b5b6000613c6a84828501613b6c565b91505092915050565b600081519050919050565b600082825260208201905092915050565b60005b83811015613cad578082015181840152602081019050613c92565b83811115613cbc576000848401525b50505050565b6000601f19601f8301169050919050565b6000613cde82613c73565b613ce88185613c7e565b9350613cf8818560208601613c8f565b613d0181613cc2565b840191505092915050565b600073ffffffffffffffffffffffffffffffffffffffff82169050919050565b6000613d3782613d0c565b9050919050565b613d4781613d2c565b82525050565b60006040830160008301518482036000860152613d6a8282613cd3565b9150506020830151613d7f6020860182613d3e565b508091505092915050565b60006020820190508181036000830152613da48184613d4d565b905092915050565b613db581613b4b565b82525050565b6000602082019050613dd06000830184613dac565b92915050565b600080600080600060608688031215613df257613df1613b41565b5b6000613e0088828901613b6c565b955050602086013567ffffffffffffffff811115613e2157613e20613b46565b5b613e2d88828901613b90565b9450945050604086013567ffffffffffffffff811115613e5057613e4f613b46565b5b613e5c88828901613b90565b92509250509295509295909350565b60048110613e7857600080fd5b50565b600081359050613e8a81613e6b565b92915050565b600060208284031215613ea657613ea5613b41565b5b6000613eb484828501613e7b565b91505092915050565b600081519050919050565b600082825260208201905092915050565b6000819050602082019050919050565b613ef281613b4b565b82525050565b6000613f0382613d0c565b9050919050565b613f1381613ef8565b82525050565b600081519050919050565b600082825260208201905092915050565b6000613f4082613f19565b613f4a8185613f24565b9350613f5a818560208601613c8f565b613f6381613cc2565b840191505092915050565b600061016083016000830151613f876000860182613f0a565b5060208301518482036020860152613f9f8282613cd3565b91505060408301518482036040860152613fb98282613cd3565b91505060608301518482036060860152613fd38282613f35565b91505060808301518482036080860152613fed8282613f35565b91505060a083015184820360a08601526140078282613f35565b91505060c083015161401c60c0860182613ee9565b5060e083015161402f60e0860182613ee9565b50610100830151614044610100860182613ee9565b50610120830151614059610120860182613ee9565b5061014083015161406e610140860182613ee9565b508091505092915050565b60006040830160008301516140916000860182613ee9565b50602083015184820360208601526140a98282613f6e565b9150508091505092915050565b60006140c28383614079565b905092915050565b6000602082019050919050565b60006140e282613ebd565b6140ec8185613ec8565b9350836020820285016140fe85613ed9565b8060005b8581101561413a578484038952815161411b85826140b6565b9450614126836140ca565b925060208a01995050600181019050614102565b50829750879550505050505092915050565b6000602082019050818103600083015261416681846140d7565b905092915050565b600080fd5b6000604082840312156141895761418861416e565b5b81905092915050565b600080604083850312156141a9576141a8613b41565b5b60006141b785828601613b6c565b925050602083013567ffffffffffffffff8111156141d8576141d7613b46565b5b6141e485828601614173565b9150509250929050565b600081519050919050565b600082825260208201905092915050565b6000819050602082019050919050565b600060408301600083015184820360008601526142378282613cd3565b915050602083015161424c6020860182613d3e565b508091505092915050565b6000614263838361421a565b905092915050565b6000602082019050919050565b6000614283826141ee565b61428d81856141f9565b93508360208202850161429f8561420a565b8060005b858110156142db57848403895281516142bc8582614257565b94506142c78361426b565b925060208a019950506001810190506142a3565b50829750879550505050505092915050565b600060208201905081810360008301526143078184614278565b905092915050565b600081519050919050565b600082825260208201905092915050565b6000819050602082019050919050565b60006143478383613cd3565b905092915050565b6000602082019050919050565b60006143678261430f565b614371818561431a565b9350836020820285016143838561432b565b8060005b858110156143bf57848403895281516143a0858261433b565b94506143ab8361434f565b925060208a01995050600181019050614387565b50829750879550505050505092915050565b600060208201905081810360008301526143eb818461435c565b905092915050565b6000610160828403121561440a5761440961416e565b5b81905092915050565b60006020828403121561442957614428613b41565b5b600082013567ffffffffffffffff81111561444757614446613b46565b5b614453848285016143f3565b91505092915050565b61446581613d2c565b811461447057600080fd5b50565b6000813590506144828161445c565b92915050565b6000806040838503121561449f5761449e613b41565b5b60006144ad85828601613b6c565b92505060206144be85828601614473565b9150509250929050565b60008115159050919050565b6144dd816144c8565b82525050565b60006020820190506144f860008301846144d4565b92915050565b6000610160830160008301516145176000860182613f0a565b506020830151848203602086015261452f8282613cd3565b915050604083015184820360408601526145498282613cd3565b915050606083015184820360608601526145638282613f35565b9150506080830151848203608086015261457d8282613f35565b91505060a083015184820360a08601526145978282613f35565b91505060c08301516145ac60c0860182613ee9565b5060e08301516145bf60e0860182613ee9565b506101008301516145d4610100860182613ee9565b506101208301516145e9610120860182613ee9565b506101408301516145fe610140860182613ee9565b508091505092915050565b6000602082019050818103600083015261462381846144fe565b905092915050565b600082825260208201905092915050565b7f41756374696f6e204944206973206e6f742076616c6964210000000000000000600082015250565b600061467260188361462b565b915061467d8261463c565b602082019050919050565b600060208201905081810360008301526146a181614665565b9050919050565b7f4e487b7100000000000000000000000000000000000000000000000000000000600052603260045260246000fd5b7f53656e64657220686173206e6f7420706c616365642061206269642100000000600082015250565b600061470d601c8361462b565b9150614718826146d7565b602082019050919050565b6000602082019050818103600083015261473c81614700565b9050919050565b7f4e487b7100000000000000000000000000000000000000000000000000000000600052602160045260246000fd5b7f496e617070726f707269617465206f7065726174696f6e210000000000000000600082015250565b60006147a860188361462b565b91506147b382614772565b602082019050919050565b600060208201905081810360008301526147d78161479b565b9050919050565b600081905092915050565b82818337600083830152505050565b600061480483856147de565b93506148118385846147e9565b82840190509392505050565b600061482a8284866147f8565b91508190509392505050565b6000819050919050565b61484981614836565b811461485457600080fd5b50565b60008151905061486681614840565b92915050565b60006020828403121561488257614881613b41565b5b600061489084828501614857565b91505092915050565b7f4861736820697320696e76616c69642100000000000000000000000000000000600082015250565b60006148cf60108361462b565b91506148da82614899565b602082019050919050565b600060208201905081810360008301526148fe816148c2565b9050919050565b61490e81613d2c565b82525050565b60006040820190506149296000830185613dac565b6149366020830184614905565b9392505050565b7f4e487b7100000000000000000000000000000000000000000000000000000000600052602260045260246000fd5b6000600282049050600182168061498457607f821691505b6020821081036149975761499661493d565b5b50919050565b7f53656e64657220697320746865206f776e657221000000000000000000000000600082015250565b60006149d360148361462b565b91506149de8261499d565b602082019050919050565b60006020820190508181036000830152614a02816149c6565b9050919050565b7f53656e6465722068617320616c726561647920706c6163656420612062696421600082015250565b6000614a3f60208361462b565b9150614a4a82614a09565b602082019050919050565b60006020820190508181036000830152614a6e81614a32565b9050919050565b7f53656e742076616c7565206973206e6f74207269676874210000000000000000600082015250565b6000614aab60188361462b565b9150614ab682614a75565b602082019050919050565b60006020820190508181036000830152614ada81614a9e565b9050919050565b600082905092915050565b600082821b905092915050565b6000614b058383614ae1565b82614b108135614836565b92506020821015614b5057614b4b7fffffffffffffffffffffffffffffffffffffffffffffffffffffffffffffffff83602003600802614aec565b831692505b505092915050565b7f4e487b7100000000000000000000000000000000000000000000000000000000600052601160045260246000fd5b6000614b9282613b4b565b91507fffffffffffffffffffffffffffffffffffffffffffffffffffffffffffffffff8203614bc457614bc3614b58565b5b600182019050919050565b7f4e487b7100000000000000000000000000000000000000000000000000000000600052604160045260246000fd5b7f53656e646572206973206e6f7420746865206f776e6572210000000000000000600082015250565b6000614c3460188361462b565b9150614c3f82614bfe565b602082019050919050565b60006020820190508181036000830152614c6381614c27565b9050919050565b7f41756374696f6e2068617320612077696e6e6572210000000000000000000000600082015250565b6000614ca060158361462b565b9150614cab82614c6a565b602082019050919050565b60006020820190508181036000830152614ccf81614c93565b9050919050565b600060208284031215614cec57614ceb613b41565b5b6000614cfa84828501614473565b91505092915050565b600080fd5b600080fd5b600080fd5b60008083356001602003843603038112614d2f57614d2e614d03565b5b80840192508235915067ffffffffffffffff821115614d5157614d50614d08565b5b602083019250600182023603831315614d6d57614d6c614d0d565b5b509250929050565b60008190508160005260206000209050919050565b60006020601f8301049050919050565b600060088302614dca7fffffffffffffffffffffffffffffffffffffffffffffffffffffffffffffffff82614aec565b614dd48683614aec565b95508019841693508086168417925050509392505050565b6000819050919050565b6000614e11614e0c614e0784613b4b565b614dec565b613b4b565b9050919050565b6000819050919050565b614e2b83614df6565b614e3f614e3782614e18565b848454614d9a565b825550505050565b600090565b614e54614e47565b614e5f818484614e22565b505050565b5b81811015614e8357614e78600082614e4c565b600181019050614e65565b5050565b601f821115614ec857614e9981614d75565b614ea284614d8a565b81016020851015614eb1578190505b614ec5614ebd85614d8a565b830182614e64565b50505b505050565b600082821c905092915050565b6000614eeb60001984600802614ecd565b1980831691505092915050565b6000614f048383614eda565b9150826002028217905092915050565b614f1e8383614ae1565b67ffffffffffffffff811115614f3757614f36614bcf565b5b614f41825461496c565b614f4c828285614e87565b6000601f831160018114614f7b5760008415614f69578287013590505b614f738582614ef8565b865550614fdb565b601f198416614f8986614d75565b60005b82811015614fb157848901358255600182019150602085019450602081019050614f8c565b86831015614fce5784890135614fca601f891682614eda565b8355505b6001600288020188555050505b50505050505050565b614fef838383614f14565b505050565b600081356150018161445c565b80915050919050565b60008160001b9050919050565b600073ffffffffffffffffffffffffffffffffffffffff6150378461500a565b9350801983169250808416831791505092915050565b600061506861506361505e84613d0c565b614dec565b613d0c565b9050919050565b600061507a8261504d565b9050919050565b600061508c8261506f565b9050919050565b6000819050919050565b6150a682615081565b6150b96150b282615093565b8354615017565b8255505050565b60008101600083016150d28185614d12565b6150dd818386614fe4565b505050506001810160208301806150f381614ff4565b90506150ff818461509d565b5050505050565b61511082826150c0565b5050565b7f4d696e696d756d207072696365206d757374206265206120706f73697469766560008201527f206e756d62657200000000000000000000000000000000000000000000000000602082015250565b600061517060278361462b565b915061517b82615114565b604082019050919050565b6000602082019050818103600083015261519f81615163565b9050919050565b7f5468652072656c6174696f6e202830203c205365637572697479204465706f7360008201527f6974203c204d696e696d756d20507269636529206973206e6f7420736174697360208201527f666965642e000000000000000000000000000000000000000000000000000000604082015250565b600061522860458361462b565b9150615233826151a6565b606082019050919050565b600060208201905081810360008301526152578161521b565b9050919050565b7f446174657320617265206e6f7420696e20746865207269676874206f7264657260008201527f2e00000000000000000000000000000000000000000000000000000000000000602082015250565b60006152ba60218361462b565b91506152c58261525e565b604082019050919050565b600060208201905081810360008301526152e9816152ad565b9050919050565b60006152fb82613b4b565b915061530683613b4b565b92508282101561531957615318614b58565b5b828203905092915050565b61532d81613ef8565b811461533857600080fd5b50565b6000813561534881615324565b80915050919050565b600061535c8261504d565b9050919050565b600061536e82615351565b9050919050565b6000819050919050565b61538882615363565b61539b61539482615375565b8354615017565b8255505050565b600080833560016020038436030381126153bf576153be614d03565b5b80840192508235915067ffffffffffffffff8211156153e1576153e0614d08565b5b6020830192506001820236038313156153fd576153fc614d0d565b5b509250929050565b600082905092915050565b60008190508160005260206000209050919050565b601f8211156154665761543781615410565b61544084614d8a565b8101602085101561544f578190505b61546361545b85614d8a565b830182614e64565b50505b505050565b6154758383615405565b67ffffffffffffffff81111561548e5761548d614bcf565b5b615498825461496c565b6154a3828285615425565b6000601f8311600181146154d257600084156154c0578287013590505b6154ca8582614ef8565b865550615532565b601f1984166154e086615410565b60005b82811015615508578489013582556001820191506020850194506020810190506154e3565b868310156155255784890135615521601f891682614eda565b8355505b6001600288020188555050505b50505050505050565b61554683838361546b565b505050565b6000813561555881613b55565b80915050919050565b60007fffffffffffffffffffffffffffffffffffffffffffffffffffffffffffffffff61558d8461500a565b9350801983169250808416831791505092915050565b6155ac82614df6565b6155bf6155b882614e18565b8354615561565b8255505050565b6000810160008301806155d88161533b565b90506155e4818461537f565b50505060018101602083016155f98185614d12565b615604818386614fe4565b50505050600281016040830161561a8185614d12565b615625818386614fe4565b50505050600381016060830161563b81856153a2565b61564681838661553b565b50505050600481016080830161565c81856153a2565b61566781838661553b565b505050506005810160a0830161567d81856153a2565b61568881838661553b565b505050506006810160c083018061569e8161554b565b90506156aa81846155a3565b5050506007810160e08301806156bf8161554b565b90506156cb81846155a3565b505050600881016101008301806156e18161554b565b90506156ed81846155a3565b505050600981016101208301806157038161554b565b905061570f81846155a3565b505050600a81016101408301806157258161554b565b905061573181846155a3565b5050505050565b61574282826155c6565b5050565b7f4e487b7100000000000000000000000000000000000000000000000000000000600052603160045260246000fdfea26469706673582212207c704fcc9ebe109fa4e4fbd6e2a0b2c0b5e4d982af3dc429870bf9dcff16774a64736f6c634300080d0033",
  "immutableReferences": {},
  "source": "// SPDX-License-Identifier: MIT\r\npragma solidity ^0.8.13;\r\n\r\n// NOTE: all currency is wei\r\n\r\ncontract SealedBidAuctionManager {\r\n    struct UserSetAuctionInfo {\r\n        // administrative\r\n        address payable owner;\r\n        bytes params;\r\n        bytes owner_pkey;\r\n        // item\r\n        string itemName;\r\n        string itemDesc;\r\n        string itemPicture;\r\n        // transactional\r\n        uint256 minimumPrice;\r\n        uint256 securityDeposit;\r\n        // dates\r\n        uint256 biddingEndDate;\r\n        uint256 revealingEndDate;\r\n        uint256 sortingEndDate;\r\n    }\r\n\r\n    struct Bid {\r\n        bool done;\r\n        // to bid\r\n        bytes32 c;\r\n        bytes32 d;\r\n        // to reveal\r\n        bytes z;\r\n    }\r\n\r\n    struct AuctionWinner {\r\n        bytes y;\r\n        address bidder;\r\n    }\r\n\r\n    struct Auction {\r\n        uint256 id;\r\n        UserSetAuctionInfo info;\r\n        mapping(address => Bid) bids;\r\n        address[] bidders;\r\n        AuctionState state;\r\n        AuctionWinner winner;\r\n        AuctionWinner[] objections;\r\n    }\r\n    struct AuctionInfoAndId {\r\n        uint256 id;\r\n        UserSetAuctionInfo info;\r\n    }\r\n    enum AuctionState {\r\n        BiddingPhase,\r\n        RevealingPhase,\r\n        SortingPhase,\r\n        Ended\r\n    }\r\n\r\n    Auction[] private auctions;\r\n\r\n    // events for logging and subscription\r\n\r\n    event NewAuction(uint256 auctionId);\r\n    event NewBid(uint256 auctionId, address by);\r\n    event NewReveal(uint256 auctionId, address by);\r\n    event BidderRemoved(uint256, address who);\r\n    event WinnerDecided(uint256 auctionId, address who);\r\n    event ObjectionPlaced(uint256 auctionId, address by);\r\n    event AuctionEnds(uint256 auctionId, bool success);\r\n\r\n    // modifiers for modularity\r\n\r\n    modifier SenderDidNotPlaceABid(uint256 auctionId) {\r\n        if (auctions[auctionId].bids[msg.sender].c.length != 0)\r\n            revert(\"Sender has already placed a bid!\");\r\n        _;\r\n    }\r\n\r\n    modifier SenderPlacedABid(uint256 auctionId) {\r\n        if (auctions[auctionId].bids[msg.sender].c.length == 0)\r\n            revert(\"Sender has not placed a bid!\");\r\n        _;\r\n    }\r\n\r\n    function isABidder(uint256 auctionId, address acc) external view returns (bool) {\r\n        return auctions[auctionId].bids[acc].c.length != 0;\r\n    }\r\n\r\n    modifier SenderIsOwner(uint256 auctionId) {\r\n        if (msg.sender == auctions[auctionId].info.owner)\r\n            revert(\"Sender is not the owner!\");\r\n        _;\r\n    }\r\n\r\n    modifier SenderIsNotOwner(uint256 auctionId) {\r\n        if (msg.sender != auctions[auctionId].info.owner)\r\n            revert(\"Sender is the owner!\");\r\n        _;\r\n    }\r\n\r\n    modifier AuctionIDIsValid(uint256 auctionId) {\r\n        if (auctionId >= auctions.length) revert(\"Auction ID is not valid!\");\r\n        _;\r\n    }\r\n\r\n    modifier AuctionHasNoWinner(uint256 auctionId) {\r\n        if (auctions[auctionId].winner.y.length != 0) revert(\"Auction has a winner!\");\r\n        _;\r\n    }\r\n\r\n    modifier CheckAuctionState(uint256 auctionId, AuctionState state) {\r\n        // set it\r\n        if (block.timestamp < auctions[auctionId].info.biddingEndDate)\r\n            auctions[auctionId].state = AuctionState.BiddingPhase;\r\n        else if (block.timestamp < auctions[auctionId].info.revealingEndDate)\r\n            auctions[auctionId].state = AuctionState.RevealingPhase;\r\n        else if (block.timestamp < auctions[auctionId].info.sortingEndDate)\r\n            auctions[auctionId].state = AuctionState.SortingPhase;\r\n        else auctions[auctionId].state = AuctionState.Ended;\r\n\r\n        // check it\r\n        if (state != auctions[auctionId].state) {\r\n            revert(\"Inappropriate operation!\");\r\n        }\r\n        _;\r\n    }\r\n\r\n    modifier ValueEquals(uint v) {\r\n        if (msg.value != v) revert(\"Sent value is not right!\");\r\n        _;\r\n    }\r\n\r\n    // private functions\r\n\r\n    function _removeBidder(uint256 auctionId, uint index) internal {\r\n        require(index < auctions[auctionId].bidders.length);\r\n\r\n        auctions[auctionId].bidders[index] = auctions[auctionId].bidders[\r\n            auctions[auctionId].bidders.length - 1\r\n        ];\r\n        auctions[auctionId].bidders.pop();\r\n    }\r\n\r\n    // external functions to be called at any time\r\n\r\n    function getNumberOfRegisteredAuctions() external view returns (uint256) {\r\n        return auctions.length;\r\n    }\r\n\r\n    function createAuction(\r\n        UserSetAuctionInfo calldata info\r\n    ) external payable ValueEquals(info.securityDeposit) returns (uint256) {\r\n        // validation of auction parameters\r\n        if (info.minimumPrice == 0)\r\n            revert(\"Minimum price must be a positive number\");\r\n\r\n        if (\r\n            info.securityDeposit > info.minimumPrice ||\r\n            info.securityDeposit == 0\r\n        )\r\n            revert(\r\n                \"The relation (0 < Security Deposit < Minimum Price) is not satisfied.\"\r\n            );\r\n\r\n        if (\r\n            !(// info.verificationEndDate > info.sortingEndDate &&\r\n            info.sortingEndDate > info.revealingEndDate &&\r\n                info.revealingEndDate > info.biddingEndDate)\r\n        ) revert(\"Dates are not in the right order.\");\r\n\r\n        // valid? add it\r\n        Auction storage auction = auctions.push();\r\n\r\n        auction.id = auctions.length - 1;\r\n        auction.info = info;\r\n        auction.state = AuctionState.BiddingPhase;\r\n\r\n        emit NewAuction(auction.id);\r\n        return auction.id;\r\n    }\r\n\r\n    function getAuctionsByState(\r\n        AuctionState state\r\n    ) external view returns (AuctionInfoAndId[] memory) {\r\n        uint256 count = 0;\r\n        for (uint256 i = 0; i < auctions.length; i++) {\r\n            if (auctions[i].state == state) {\r\n                count++;\r\n            }\r\n        }\r\n\r\n        AuctionInfoAndId[] memory data = new AuctionInfoAndId[](count);\r\n        uint256 j = 0;\r\n        for (uint256 i = 0; i < auctions.length; i++) {\r\n            if (auctions[i].state == state) {\r\n                data[j].info = auctions[i].info;\r\n                data[j].id = auctions[i].id;\r\n                j++;\r\n            }\r\n        }\r\n\r\n        return data;\r\n    }\r\n\r\n    function getAuctionInfo(\r\n        uint256 auctionId\r\n    )\r\n        external\r\n        view\r\n        AuctionIDIsValid(auctionId)\r\n        returns (UserSetAuctionInfo memory)\r\n    {\r\n        return auctions[auctionId].info;\r\n    }\r\n\r\n    // functions to be called throughout the auction process\r\n\r\n    function placeBid(\r\n        uint256 auctionId,\r\n        bytes calldata c,\r\n        bytes calldata d\r\n    )\r\n        external\r\n        payable\r\n        AuctionIDIsValid(auctionId)\r\n        SenderIsNotOwner(auctionId)\r\n        SenderDidNotPlaceABid(auctionId)\r\n        CheckAuctionState(auctionId, AuctionState.BiddingPhase)\r\n        ValueEquals(auctions[auctionId].info.securityDeposit)\r\n    {\r\n        auctions[auctionId].bids[msg.sender] = Bid({\r\n            done: false,\r\n            c: bytes32(c),\r\n            d: bytes32(d),\r\n            z: bytes(\"\")\r\n        });\r\n        auctions[auctionId].bidders[auctions[auctionId].bidders.length] = msg\r\n            .sender;\r\n        emit NewBid(auctionId, msg.sender);\r\n    }\r\n\r\n    function revealBid(\r\n        uint256 auctionId,\r\n        bytes calldata z\r\n    )\r\n        external\r\n        AuctionIDIsValid(auctionId)\r\n        SenderPlacedABid(auctionId)\r\n        CheckAuctionState(auctionId, AuctionState.RevealingPhase)\r\n    {\r\n        // verify commitment\r\n        if (sha256(z) != auctions[auctionId].bids[msg.sender].d)\r\n            revert(\"Hash is invalid!\");\r\n\r\n        auctions[auctionId].bids[msg.sender].z = z;\r\n        emit NewReveal(auctionId, msg.sender);\r\n    }\r\n\r\n    function getReveals(\r\n        uint256 auctionId\r\n    )\r\n        external\r\n        AuctionIDIsValid(auctionId)\r\n        SenderIsOwner(auctionId)\r\n        CheckAuctionState(auctionId, AuctionState.SortingPhase)\r\n        returns (bytes[] memory)\r\n    {\r\n        uint256 count = 0;\r\n        for (uint256 i = 0; i < auctions[auctionId].bidders.length; i++) {\r\n            address bidder = auctions[auctionId].bidders[i];\r\n            if (auctions[auctionId].bids[bidder].z.length == 0) {\r\n                // remove them, no refunds\r\n                _removeBidder(auctionId, i);\r\n                emit BidderRemoved(auctionId, bidder);\r\n            } else {\r\n                count++;\r\n            }\r\n        }\r\n\r\n        bytes[] memory zs = new bytes[](count);\r\n        for (uint256 i = 0; i < auctions[auctionId].bidders.length; i++) {\r\n            zs[i] = auctions[auctionId].bids[auctions[auctionId].bidders[i]].z;\r\n        }\r\n\r\n        return zs;\r\n    }\r\n\r\n    function declareWinner(\r\n        uint256 auctionId,\r\n        AuctionWinner calldata winner\r\n    )\r\n        external\r\n        AuctionIDIsValid(auctionId)\r\n        SenderIsOwner(auctionId)\r\n        CheckAuctionState(auctionId, AuctionState.SortingPhase)\r\n        AuctionHasNoWinner(auctionId)\r\n    {\r\n        // verify commitment\r\n        if (sha256(winner.y) != auctions[auctionId].bids[winner.bidder].c)\r\n            revert(\"Hash is invalid!\");\r\n\r\n        auctions[auctionId].winner = winner;\r\n        emit WinnerDecided(auctionId, winner.bidder);\r\n    }\r\n\r\n    function getWinner(\r\n        uint256 auctionId\r\n    ) external view AuctionIDIsValid(auctionId) returns (AuctionWinner memory) {\r\n        return auctions[auctionId].winner;\r\n    }\r\n\r\n    function returnDeposit(\r\n        uint256 auctionId\r\n    )\r\n        external\r\n        AuctionIDIsValid(auctionId)\r\n        SenderPlacedABid(auctionId)\r\n        CheckAuctionState(auctionId, AuctionState.Ended)\r\n    {\r\n        // no re-entrancy attacks!\r\n        if (\r\n            auctions[auctionId].bids[msg.sender].done == false &&\r\n            msg.sender != auctions[auctionId].winner.bidder\r\n        ) {\r\n            auctions[auctionId].bids[msg.sender].done = true;\r\n        }\r\n        payable(msg.sender).transfer(auctions[auctionId].info.securityDeposit);\r\n    }\r\n\r\n    function objectToTheWinner(\r\n        uint256 auctionId,\r\n        bytes calldata y\r\n    )\r\n        external\r\n        AuctionIDIsValid(auctionId)\r\n        SenderPlacedABid(auctionId)\r\n        CheckAuctionState(auctionId, AuctionState.Ended)\r\n    {\r\n        if (sha256(y) != auctions[auctionId].bids[msg.sender].c)\r\n            revert(\"Hash is invalid!\");\r\n\r\n        AuctionWinner storage objection = auctions[auctionId].objections.push();\r\n        objection.y = y;\r\n        objection.bidder = msg.sender;\r\n        emit ObjectionPlaced(auctionId, msg.sender);\r\n    }\r\n\r\n    function getObjections(\r\n        uint256 auctionId\r\n    )\r\n        external\r\n        AuctionIDIsValid(auctionId)\r\n        CheckAuctionState(auctionId, AuctionState.Ended)\r\n        returns (AuctionWinner[] memory)\r\n    {\r\n        return auctions[auctionId].objections;\r\n    }\r\n}\r\n",
  "sourcePath": "C:\\Users\\Hazem\\College\\Term 10 CCE\\auction-system-webapp\\contracts\\contracts\\SealedBidAuctionManager.sol",
  "compiler": {
    "name": "solc",
    "version": "0.8.13+commit.abaa5c0e.Emscripten.clang"
  },
  "schemaVersion": "3.4.13",
  "updatedAt": "2023-07-05T20:55:10.140Z",
  "networkType": "ethereum",
  "devdoc": {
    "kind": "dev",
    "methods": {},
    "version": 1
  },
  "userdoc": {
    "kind": "user",
    "methods": {},
    "version": 1
  }
}